{
  "contractName": "AuctionSystem",
  "abi": [
    {
      "anonymous": false,
      "inputs": [
        {
          "indexed": true,
          "internalType": "address",
          "name": "_owner",
          "type": "address"
        },
        {
          "indexed": true,
          "internalType": "address",
          "name": "_approved",
          "type": "address"
        },
        {
          "indexed": true,
          "internalType": "uint256",
          "name": "_tokenId",
          "type": "uint256"
        }
      ],
      "name": "Approval",
      "type": "event"
    },
    {
      "anonymous": false,
      "inputs": [
        {
          "indexed": true,
          "internalType": "address",
          "name": "_owner",
          "type": "address"
        },
        {
          "indexed": true,
          "internalType": "address",
          "name": "_operator",
          "type": "address"
        },
        {
          "indexed": false,
          "internalType": "bool",
          "name": "_approved",
          "type": "bool"
        }
      ],
      "name": "ApprovalForAll",
      "type": "event"
    },
    {
      "anonymous": false,
      "inputs": [
        {
          "indexed": true,
          "internalType": "address",
          "name": "previousOwner",
          "type": "address"
        },
        {
          "indexed": true,
          "internalType": "address",
          "name": "newOwner",
          "type": "address"
        }
      ],
      "name": "OwnershipTransferred",
      "type": "event"
    },
    {
      "anonymous": false,
      "inputs": [
        {
          "indexed": true,
          "internalType": "address",
          "name": "_from",
          "type": "address"
        },
        {
          "indexed": true,
          "internalType": "address",
          "name": "_to",
          "type": "address"
        },
        {
          "indexed": true,
          "internalType": "uint256",
          "name": "_tokenId",
          "type": "uint256"
        }
      ],
      "name": "Transfer",
      "type": "event"
    },
    {
      "inputs": [],
      "name": "_owner",
      "outputs": [
        {
          "internalType": "address",
          "name": "",
          "type": "address"
        }
      ],
      "stateMutability": "view",
      "type": "function"
    },
    {
      "inputs": [
        {
          "internalType": "uint256",
          "name": "_tokenId",
          "type": "uint256"
        },
        {
          "internalType": "address",
          "name": "newSharer",
          "type": "address"
        },
        {
          "internalType": "uint256",
          "name": "share",
          "type": "uint256"
        }
      ],
      "name": "addsharers",
      "outputs": [],
      "stateMutability": "nonpayable",
      "type": "function"
    },
    {
      "inputs": [
        {
          "internalType": "address",
          "name": "_approved",
          "type": "address"
        },
        {
          "internalType": "uint256",
          "name": "_tokenId",
          "type": "uint256"
        }
      ],
      "name": "approve",
      "outputs": [],
      "stateMutability": "nonpayable",
      "type": "function"
    },
    {
      "inputs": [
        {
          "internalType": "address",
          "name": "_owner",
          "type": "address"
        }
      ],
      "name": "balanceOf",
      "outputs": [
        {
          "internalType": "uint256",
          "name": "",
          "type": "uint256"
        }
      ],
      "stateMutability": "view",
      "type": "function"
    },
    {
      "inputs": [
        {
          "internalType": "uint256",
          "name": "_tokenId",
          "type": "uint256"
        }
      ],
      "name": "buyNFT",
      "outputs": [
        {
          "internalType": "uint256",
          "name": "shareGot",
          "type": "uint256"
        }
      ],
      "stateMutability": "payable",
      "type": "function"
    },
    {
      "inputs": [],
      "name": "getAddress",
      "outputs": [
        {
          "internalType": "address",
          "name": "",
          "type": "address"
        }
      ],
      "stateMutability": "view",
      "type": "function"
    },
    {
      "inputs": [
        {
          "internalType": "uint256",
          "name": "_tokenId",
          "type": "uint256"
        }
      ],
      "name": "getApproved",
      "outputs": [
        {
          "internalType": "address",
          "name": "",
          "type": "address"
        }
      ],
      "stateMutability": "view",
      "type": "function"
    },
    {
      "inputs": [
        {
          "internalType": "uint256",
          "name": "_tokenId",
          "type": "uint256"
        },
        {
          "internalType": "bool",
          "name": "_ifSharable",
          "type": "bool"
        },
        {
          "internalType": "uint256",
          "name": "value",
          "type": "uint256"
        },
        {
          "internalType": "uint256",
          "name": "_tax",
          "type": "uint256"
        }
      ],
      "name": "initialize",
      "outputs": [],
      "stateMutability": "nonpayable",
      "type": "function"
    },
    {
      "inputs": [
        {
          "internalType": "address",
          "name": "_owner",
          "type": "address"
        },
        {
          "internalType": "address",
          "name": "_operator",
          "type": "address"
        }
      ],
      "name": "isApprovedForAll",
      "outputs": [
        {
          "internalType": "bool",
          "name": "",
          "type": "bool"
        }
      ],
      "stateMutability": "view",
      "type": "function"
    },
    {
      "inputs": [
        {
          "internalType": "address",
          "name": "_to",
          "type": "address"
        },
        {
          "internalType": "uint256",
          "name": "_tokenId",
          "type": "uint256"
        },
        {
          "internalType": "string",
          "name": "_uri",
          "type": "string"
        }
      ],
      "name": "mint",
      "outputs": [],
      "stateMutability": "nonpayable",
      "type": "function"
    },
    {
      "inputs": [],
      "name": "name",
      "outputs": [
        {
          "internalType": "string",
          "name": "_name",
          "type": "string"
        }
      ],
      "stateMutability": "view",
      "type": "function"
    },
    {
      "inputs": [
        {
          "internalType": "uint256",
          "name": "_tokenId",
          "type": "uint256"
        }
      ],
      "name": "ownerOf",
      "outputs": [
        {
          "internalType": "address",
          "name": "_owner",
          "type": "address"
        }
      ],
      "stateMutability": "view",
      "type": "function"
    },
    {
      "inputs": [
        {
          "internalType": "address",
          "name": "_from",
          "type": "address"
        },
        {
          "internalType": "address",
          "name": "_to",
          "type": "address"
        },
        {
          "internalType": "uint256",
          "name": "_tokenId",
          "type": "uint256"
        }
      ],
      "name": "safeTransferFrom",
      "outputs": [],
      "stateMutability": "nonpayable",
      "type": "function"
    },
    {
      "inputs": [
        {
          "internalType": "address",
          "name": "_from",
          "type": "address"
        },
        {
          "internalType": "address",
          "name": "_to",
          "type": "address"
        },
        {
          "internalType": "uint256",
          "name": "_tokenId",
          "type": "uint256"
        },
        {
          "internalType": "bytes",
          "name": "_data",
          "type": "bytes"
        }
      ],
      "name": "safeTransferFrom",
      "outputs": [],
      "stateMutability": "nonpayable",
      "type": "function"
    },
    {
      "inputs": [
        {
          "internalType": "uint256",
          "name": "_tokenId",
          "type": "uint256"
        }
      ],
      "name": "sellNFT",
      "outputs": [
        {
          "internalType": "uint256",
          "name": "shareSold",
          "type": "uint256"
        }
      ],
      "stateMutability": "payable",
      "type": "function"
    },
    {
      "inputs": [
        {
          "internalType": "address",
          "name": "_operator",
          "type": "address"
        },
        {
          "internalType": "bool",
          "name": "_approved",
          "type": "bool"
        }
      ],
      "name": "setApprovalForAll",
      "outputs": [],
      "stateMutability": "nonpayable",
      "type": "function"
    },
    {
      "inputs": [
        {
          "internalType": "uint256",
          "name": "_tokenId",
          "type": "uint256"
        },
        {
          "internalType": "uint256",
          "name": "amount",
          "type": "uint256"
        }
      ],
      "name": "setSharable",
      "outputs": [],
      "stateMutability": "nonpayable",
      "type": "function"
    },
    {
      "inputs": [
        {
          "internalType": "uint256",
          "name": "_tokenId",
          "type": "uint256"
        }
      ],
      "name": "showInfoOfNFT",
      "outputs": [
        {
          "internalType": "bool",
          "name": "result",
          "type": "bool"
        },
        {
          "internalType": "uint256",
          "name": "shareLeft",
          "type": "uint256"
        },
        {
          "internalType": "uint256",
          "name": "taxToPay",
          "type": "uint256"
        },
        {
          "internalType": "uint256",
          "name": "numOfSharers",
          "type": "uint256"
        },
        {
          "internalType": "address[]",
          "name": "ownersOfNFT",
          "type": "address[]"
        },
        {
          "internalType": "uint256",
          "name": "usedTime",
          "type": "uint256"
        },
        {
          "internalType": "address[]",
          "name": "usedBy",
          "type": "address[]"
        }
      ],
      "stateMutability": "view",
      "type": "function"
    },
    {
      "inputs": [
        {
          "internalType": "uint256",
          "name": "_tokenId",
          "type": "uint256"
        }
      ],
      "name": "showLeftShare",
      "outputs": [
        {
          "internalType": "uint256",
          "name": "left",
          "type": "uint256"
        }
      ],
      "stateMutability": "view",
      "type": "function"
    },
    {
      "inputs": [
        {
          "internalType": "uint256",
          "name": "_tokenId",
          "type": "uint256"
        }
      ],
      "name": "showMySharerOfNFT",
      "outputs": [
        {
          "internalType": "uint256",
          "name": "myshare",
          "type": "uint256"
        }
      ],
      "stateMutability": "view",
      "type": "function"
    },
    {
      "inputs": [
        {
          "internalType": "uint256",
          "name": "_tokenId",
          "type": "uint256"
        }
      ],
      "name": "showNumOfSharers",
      "outputs": [
        {
          "internalType": "uint256",
          "name": "num",
          "type": "uint256"
        }
      ],
      "stateMutability": "view",
      "type": "function"
    },
    {
      "inputs": [
        {
          "internalType": "uint256",
          "name": "_tokenId",
          "type": "uint256"
        }
      ],
      "name": "showSharers",
      "outputs": [
        {
          "internalType": "address[]",
          "name": "",
          "type": "address[]"
        }
      ],
      "stateMutability": "view",
      "type": "function"
    },
    {
      "inputs": [
        {
          "internalType": "uint256",
          "name": "_tokenId",
          "type": "uint256"
        }
      ],
      "name": "showUseConditionOfNFT",
      "outputs": [
        {
          "internalType": "uint256",
          "name": "",
          "type": "uint256"
        },
        {
          "internalType": "address[]",
          "name": "",
          "type": "address[]"
        }
      ],
      "stateMutability": "view",
      "type": "function"
    },
    {
      "inputs": [
        {
          "internalType": "uint256",
          "name": "_tokenId",
          "type": "uint256"
        }
      ],
      "name": "showValue",
      "outputs": [
        {
          "internalType": "uint256",
          "name": "value",
          "type": "uint256"
        }
      ],
      "stateMutability": "view",
      "type": "function"
    },
    {
      "inputs": [
        {
          "internalType": "bytes4",
          "name": "_interfaceID",
          "type": "bytes4"
        }
      ],
      "name": "supportsInterface",
      "outputs": [
        {
          "internalType": "bool",
          "name": "",
          "type": "bool"
        }
      ],
      "stateMutability": "view",
      "type": "function"
    },
    {
      "inputs": [],
      "name": "symbol",
      "outputs": [
        {
          "internalType": "string",
          "name": "_symbol",
          "type": "string"
        }
      ],
      "stateMutability": "view",
      "type": "function"
    },
    {
      "inputs": [
        {
          "internalType": "uint256",
          "name": "_tokenId",
          "type": "uint256"
        }
      ],
      "name": "tokenURI",
      "outputs": [
        {
          "internalType": "string",
          "name": "",
          "type": "string"
        }
      ],
      "stateMutability": "view",
      "type": "function"
    },
    {
      "inputs": [
        {
          "internalType": "address",
          "name": "_from",
          "type": "address"
        },
        {
          "internalType": "address",
          "name": "_to",
          "type": "address"
        },
        {
          "internalType": "uint256",
          "name": "_tokenId",
          "type": "uint256"
        }
      ],
      "name": "transferFrom",
      "outputs": [],
      "stateMutability": "nonpayable",
      "type": "function"
    },
    {
      "inputs": [],
      "name": "transferToContract",
      "outputs": [],
      "stateMutability": "payable",
      "type": "function"
    },
    {
      "inputs": [
        {
          "internalType": "uint256",
          "name": "_tokenId",
          "type": "uint256"
        }
      ],
      "name": "useNFT",
      "outputs": [
        {
          "internalType": "uint256",
          "name": "cost",
          "type": "uint256"
        }
      ],
      "stateMutability": "payable",
      "type": "function"
    },
    {
      "inputs": [
        {
          "internalType": "uint256",
          "name": "_index",
          "type": "uint256"
        }
      ],
      "name": "listAuction",
      "outputs": [
        {
          "internalType": "uint256",
          "name": "_nftId",
          "type": "uint256"
        },
        {
          "internalType": "address",
          "name": "_tokenAddress",
          "type": "address"
        },
        {
          "components": [
            {
              "internalType": "uint256",
              "name": "offer",
              "type": "uint256"
            },
            {
              "internalType": "address",
              "name": "offerers",
              "type": "address"
            },
            {
              "internalType": "uint256",
              "name": "time",
              "type": "uint256"
            }
          ],
          "internalType": "struct AuctionSystem.History[]",
          "name": "_historyOffer",
          "type": "tuple[]"
        },
        {
          "internalType": "uint256",
          "name": "_startTime",
          "type": "uint256"
        },
        {
          "internalType": "uint256",
          "name": "_endTime",
          "type": "uint256"
        },
        {
          "internalType": "uint256",
          "name": "_bidCount",
          "type": "uint256"
        }
      ],
      "stateMutability": "view",
      "type": "function"
    },
    {
      "inputs": [
        {
          "internalType": "uint256",
          "name": "_nftId",
          "type": "uint256"
        },
        {
          "internalType": "address",
          "name": "_tokenAddress",
          "type": "address"
        },
        {
          "internalType": "uint256",
          "name": "_startPrice",
          "type": "uint256"
        },
        {
          "internalType": "uint256",
          "name": "_startTime",
          "type": "uint256"
        },
        {
          "internalType": "uint256",
          "name": "_duration",
          "type": "uint256"
        }
      ],
      "name": "startAuction",
      "outputs": [],
      "stateMutability": "nonpayable",
      "type": "function"
    },
    {
      "inputs": [
        {
          "internalType": "uint256",
          "name": "_index",
          "type": "uint256"
        },
        {
          "internalType": "uint256",
          "name": "_offer",
          "type": "uint256"
        }
      ],
      "name": "Bid",
      "outputs": [],
      "stateMutability": "payable",
      "type": "function"
    }
  ],
  "bytecode": "0x60806040523480156200001157600080fd5b5060016000806301ffc9a760e01b7bffffffffffffffffffffffffffffffffffffffffffffffffffffffff1916815260200190815260200160002060006101000a81548160ff02191690831515021790555060016000806380ac58cd60e01b7bffffffffffffffffffffffffffffffffffffffffffffffffffffffff1916815260200190815260200160002060006101000a81548160ff0219169083151502179055506001600080635b5e139f60e01b7bffffffffffffffffffffffffffffffffffffffffffffffffffffffff1916815260200190815260200160002060006101000a81548160ff02191690831515021790555033600860006101000a81548173ffffffffffffffffffffffffffffffffffffffff021916908373ffffffffffffffffffffffffffffffffffffffff16021790555033600960006101000a81548173ffffffffffffffffffffffffffffffffffffffff021916908373ffffffffffffffffffffffffffffffffffffffff1602179055506040518060400160405280600c81526020017f4a61636b7927732052696666000000000000000000000000000000000000000081525060059080519060200190620001d492919062000229565b506040518060400160405280600481526020017f4a52494600000000000000000000000000000000000000000000000000000000815250600690805190602001906200022292919062000229565b506200033e565b8280546200023790620002d9565b90600052602060002090601f0160209004810192826200025b5760008555620002a7565b82601f106200027657805160ff1916838001178555620002a7565b82800160010185558215620002a7579182015b82811115620002a657825182559160200191906001019062000289565b5b509050620002b69190620002ba565b5090565b5b80821115620002d5576000816000905550600101620002bb565b5090565b60006002820490506001821680620002f257607f821691505b602082108114156200030957620003086200030f565b5b50919050565b7f4e487b7100000000000000000000000000000000000000000000000000000000600052602260045260246000fd5b615e53806200034e6000396000f3fe6080604052600436106101ee5760003560e01c80636352211e1161010d578063b88d4fde116100a0578063d3fc98641161006f578063d3fc986414610755578063e23344971461077e578063e84f3261146107a7578063e985e9c5146107e4578063ee9cdfb314610821576101ee565b8063b88d4fde14610688578063baadf60e146106b1578063c87b56dd146106ef578063caddde151461072c576101ee565b80639a721a6c116100dc5780639a721a6c146105ce578063a21bf0d5146105f7578063a22cb46514610634578063b2bdfa7b1461065d576101ee565b80636352211e146104ec57806370a082311461052957806383f687031461056657806395d89b41146105a3576101ee565b80632706e1571161018557806347a0375b1161015457806347a0375b1461043357806351ed82881461044f57806355b9d4431461047f57806359645dc6146104af576101ee565b80632706e1571461035a57806338cc48311461039c5780633b082419146103c757806342842e0e1461040a576101ee565b806312cccb34116101c157806312cccb34146102c157806317fee5f9146102cb5780632172d6b0146102f457806323b872dd14610331576101ee565b806301ffc9a7146101f357806306fdde0314610230578063081812fc1461025b578063095ea7b314610298575b600080fd5b3480156101ff57600080fd5b5061021a60048036038101906102159190614ccd565b610851565b60405161022791906153a4565b60405180910390f35b34801561023c57600080fd5b506102456108b8565b604051610252919061543c565b60405180910390f35b34801561026757600080fd5b50610282600480360381019061027d9190614d27565b61094a565b60405161028f91906152e4565b60405180910390f35b3480156102a457600080fd5b506102bf60048036038101906102ba9190614bec565b610a65565b005b6102c9610e48565b005b3480156102d757600080fd5b506102f260048036038101906102ed9190614e89565b610e4a565b005b34801561030057600080fd5b5061031b60048036038101906103169190614d27565b610fb1565b6040516103289190615382565b60405180910390f35b34801561033d57600080fd5b5061035860048036038101906103539190614ad1565b611055565b005b34801561036657600080fd5b50610381600480360381019061037c9190614d27565b611511565b60405161039396959493929190615679565b60405180910390f35b3480156103a857600080fd5b506103b1611791565b6040516103be91906152e4565b60405180910390f35b3480156103d357600080fd5b506103ee60048036038101906103e99190614d27565b611799565b60405161040197969594939291906153bf565b60405180910390f35b34801561041657600080fd5b50610431600480360381019061042c9190614ad1565b61197a565b005b61044d60048036038101906104489190614e89565b61199a565b005b61046960048036038101906104649190614d27565b611cdd565b604051610476919061565e565b60405180910390f35b61049960048036038101906104949190614d27565b6120bb565b6040516104a6919061565e565b60405180910390f35b3480156104bb57600080fd5b506104d660048036038101906104d19190614d27565b61240e565b6040516104e3919061565e565b60405180910390f35b3480156104f857600080fd5b50610513600480360381019061050e9190614d27565b61242e565b60405161052091906152e4565b60405180910390f35b34801561053557600080fd5b50610550600480360381019061054b9190614a64565b612514565b60405161055d919061565e565b60405180910390f35b34801561057257600080fd5b5061058d60048036038101906105889190614d27565b6125ce565b60405161059a919061565e565b60405180910390f35b3480156105af57600080fd5b506105b861262b565b6040516105c5919061543c565b60405180910390f35b3480156105da57600080fd5b506105f560048036038101906105f09190614d54565b6126bd565b005b34801561060357600080fd5b5061061e60048036038101906106199190614d27565b6126cd565b60405161062b919061565e565b60405180910390f35b34801561064057600080fd5b5061065b60048036038101906106569190614bac565b6126ed565b005b34801561066957600080fd5b506106726127ea565b60405161067f91906152e4565b60405180910390f35b34801561069457600080fd5b506106af60048036038101906106aa9190614b24565b612810565b005b3480156106bd57600080fd5b506106d860048036038101906106d39190614d27565b612867565b6040516106e69291906156e1565b60405180910390f35b3480156106fb57600080fd5b5061071660048036038101906107119190614d27565b612929565b604051610723919061543c565b60405180910390f35b34801561073857600080fd5b50610753600480360381019061074e9190614da7565b612aac565b005b34801561076157600080fd5b5061077c60048036038101906107779190614c2c565b612df0565b005b34801561078a57600080fd5b506107a560048036038101906107a09190614e22565b612f46565b005b3480156107b357600080fd5b506107ce60048036038101906107c99190614d27565b61309c565b6040516107db919061565e565b60405180910390f35b3480156107f057600080fd5b5061080b60048036038101906108069190614a91565b6130bc565b60405161081891906153a4565b60405180910390f35b61083b60048036038101906108369190614d27565b613150565b604051610848919061565e565b60405180910390f35b6000806000837bffffffffffffffffffffffffffffffffffffffffffffffffffffffff19167bffffffffffffffffffffffffffffffffffffffffffffffffffffffff1916815260200190815260200160002060009054906101000a900460ff169050919050565b6060600580546108c7906159a1565b80601f01602080910402602001604051908101604052809291908181526020018280546108f3906159a1565b80156109405780601f1061091557610100808354040283529160200191610940565b820191906000526020600020905b81548152906001019060200180831161092357829003601f168201915b5050505050905090565b600081600073ffffffffffffffffffffffffffffffffffffffff166001600083815260200190815260200160002060009054906101000a900473ffffffffffffffffffffffffffffffffffffffff1673ffffffffffffffffffffffffffffffffffffffff1614156040518060400160405280600681526020017f303033303032000000000000000000000000000000000000000000000000000081525090610a28576040517f08c379a0000000000000000000000000000000000000000000000000000000008152600401610a1f919061543c565b60405180910390fd5b506002600084815260200190815260200160002060009054906101000a900473ffffffffffffffffffffffffffffffffffffffff16915050919050565b8060006001600083815260200190815260200160002060009054906101000a900473ffffffffffffffffffffffffffffffffffffffff1690503373ffffffffffffffffffffffffffffffffffffffff168173ffffffffffffffffffffffffffffffffffffffff161480610b5e5750600460008273ffffffffffffffffffffffffffffffffffffffff1673ffffffffffffffffffffffffffffffffffffffff16815260200190815260200160002060003373ffffffffffffffffffffffffffffffffffffffff1673ffffffffffffffffffffffffffffffffffffffff16815260200190815260200160002060009054906101000a900460ff165b6040518060400160405280600681526020017f303033303033000000000000000000000000000000000000000000000000000081525090610bd5576040517f08c379a0000000000000000000000000000000000000000000000000000000008152600401610bcc919061543c565b60405180910390fd5b5082600073ffffffffffffffffffffffffffffffffffffffff166001600083815260200190815260200160002060009054906101000a900473ffffffffffffffffffffffffffffffffffffffff1673ffffffffffffffffffffffffffffffffffffffff1614156040518060400160405280600681526020017f303033303032000000000000000000000000000000000000000000000000000081525090610cb2576040517f08c379a0000000000000000000000000000000000000000000000000000000008152600401610ca9919061543c565b60405180910390fd5b5060006001600086815260200190815260200160002060009054906101000a900473ffffffffffffffffffffffffffffffffffffffff1690508073ffffffffffffffffffffffffffffffffffffffff168673ffffffffffffffffffffffffffffffffffffffff1614156040518060400160405280600681526020017f303033303038000000000000000000000000000000000000000000000000000081525090610d92576040517f08c379a0000000000000000000000000000000000000000000000000000000008152600401610d89919061543c565b60405180910390fd5b50856002600087815260200190815260200160002060006101000a81548173ffffffffffffffffffffffffffffffffffffffff021916908373ffffffffffffffffffffffffffffffffffffffff160217905550848673ffffffffffffffffffffffffffffffffffffffff168273ffffffffffffffffffffffffffffffffffffffff167f8c5be1e5ebec7d5bd14f71427d1e84f3dd0314c0f7b2291e5b200ac8c7c3b92560405160405180910390a4505050505050565b565b816001600082815260200190815260200160002060009054906101000a900473ffffffffffffffffffffffffffffffffffffffff1673ffffffffffffffffffffffffffffffffffffffff163373ffffffffffffffffffffffffffffffffffffffff1614610eec576040517f08c379a0000000000000000000000000000000000000000000000000000000008152600401610ee3906155fe565b60405180910390fd5b6064600a600085815260200190815260200160002060050181905550610f1f8333846064610f1a919061589c565b6136bf565b60006064600a60008681526020019081526020016000206000015484610f459190615842565b610f4f9190615811565b90503373ffffffffffffffffffffffffffffffffffffffff166108fc670de0b6b3a764000083610f7f9190615842565b9081150290604051600060405180830381858888f19350505050158015610faa573d6000803e3d6000fd5b5050505050565b6060600a600083815260200190815260200160002060030180548060200260200160405190810160405280929190818152602001828054801561104957602002820191906000526020600020905b8160009054906101000a900473ffffffffffffffffffffffffffffffffffffffff1673ffffffffffffffffffffffffffffffffffffffff1681526020019060010190808311610fff575b50505050509050919050565b8060006001600083815260200190815260200160002060009054906101000a900473ffffffffffffffffffffffffffffffffffffffff1690503373ffffffffffffffffffffffffffffffffffffffff168173ffffffffffffffffffffffffffffffffffffffff16148061112657503373ffffffffffffffffffffffffffffffffffffffff166002600084815260200190815260200160002060009054906101000a900473ffffffffffffffffffffffffffffffffffffffff1673ffffffffffffffffffffffffffffffffffffffff16145b806111b75750600460008273ffffffffffffffffffffffffffffffffffffffff1673ffffffffffffffffffffffffffffffffffffffff16815260200190815260200160002060003373ffffffffffffffffffffffffffffffffffffffff1673ffffffffffffffffffffffffffffffffffffffff16815260200190815260200160002060009054906101000a900460ff165b6040518060400160405280600681526020017f30303330303400000000000000000000000000000000000000000000000000008152509061122e576040517f08c379a0000000000000000000000000000000000000000000000000000000008152600401611225919061543c565b60405180910390fd5b5082600073ffffffffffffffffffffffffffffffffffffffff166001600083815260200190815260200160002060009054906101000a900473ffffffffffffffffffffffffffffffffffffffff1673ffffffffffffffffffffffffffffffffffffffff1614156040518060400160405280600681526020017f30303330303200000000000000000000000000000000000000000000000000008152509061130b576040517f08c379a0000000000000000000000000000000000000000000000000000000008152600401611302919061543c565b60405180910390fd5b5060006001600086815260200190815260200160002060009054906101000a900473ffffffffffffffffffffffffffffffffffffffff1690508673ffffffffffffffffffffffffffffffffffffffff168173ffffffffffffffffffffffffffffffffffffffff16146040518060400160405280600681526020017f3030333030370000000000000000000000000000000000000000000000000000815250906113ea576040517f08c379a00000000000000000000000000000000000000000000000000000000081526004016113e1919061543c565b60405180910390fd5b50600073ffffffffffffffffffffffffffffffffffffffff168673ffffffffffffffffffffffffffffffffffffffff1614156040518060400160405280600681526020017f303033303031000000000000000000000000000000000000000000000000000081525090611493576040517f08c379a000000000000000000000000000000000000000000000000000000000815260040161148a919061543c565b60405180910390fd5b5060001515600a600087815260200190815260200160002060010160009054906101000a900460ff161515146114fe576040517f08c379a00000000000000000000000000000000000000000000000000000000081526004016114f59061547e565b60405180910390fd5b61150886866139ab565b50505050505050565b6000806060600080600080600d88815481106115305761152f615ad8565b5b906000526020600020906008020160405180610100016040529081600082015481526020016001820160009054906101000a900473ffffffffffffffffffffffffffffffffffffffff1673ffffffffffffffffffffffffffffffffffffffff1673ffffffffffffffffffffffffffffffffffffffff1681526020016002820160009054906101000a900473ffffffffffffffffffffffffffffffffffffffff1673ffffffffffffffffffffffffffffffffffffffff1673ffffffffffffffffffffffffffffffffffffffff1681526020016003820154815260200160048201548152602001600582015481526020016006820160009054906101000a900473ffffffffffffffffffffffffffffffffffffffff1673ffffffffffffffffffffffffffffffffffffffff1673ffffffffffffffffffffffffffffffffffffffff16815260200160078201548152505090508060000151965080602001519550600c6000898152602001908152602001600020805480602002602001604051908101604052809291908181526020016000905b8282101561175d5783829060005260206000209060030201604051806060016040529081600082015481526020016001820160009054906101000a900473ffffffffffffffffffffffffffffffffffffffff1673ffffffffffffffffffffffffffffffffffffffff1673ffffffffffffffffffffffffffffffffffffffff168152602001600282015481525050815260200190600101906116c1565b505050509450806060015193508060800151816060015161177e91906157bb565b92508060e0015191505091939550919395565b600030905090565b600080600080606060006060600a600089815260200190815260200160002060010160009054906101000a900460ff16600a60008a815260200190815260200160002060050154600a60008b815260200190815260200160002060060154600a60008c815260200190815260200160002060040154600a60008d8152602001908152602001600020600301600b60008e815260200190815260200160002060010154600b60008f8152602001908152602001600020600201828054806020026020016040519081016040528092919081815260200182805480156118d257602002820191906000526020600020905b8160009054906101000a900473ffffffffffffffffffffffffffffffffffffffff1673ffffffffffffffffffffffffffffffffffffffff1681526020019060010190808311611888575b505050505092508080548060200260200160405190810160405280929190818152602001828054801561195a57602002820191906000526020600020905b8160009054906101000a900473ffffffffffffffffffffffffffffffffffffffff1673ffffffffffffffffffffffffffffffffffffffff1681526020019060010190808311611910575b505050505090509650965096509650965096509650919395979092949650565b61199583838360405180602001604052806000815250613a60565b505050565b6000600d83815481106119b0576119af615ad8565b5b9060005260206000209060080201905080600501548211611a06576040517f08c379a00000000000000000000000000000000000000000000000000000000081526004016119fd9061551e565b60405180910390fd5b80600401548160030154611a1a91906157bb565b4210611a5b576040517f08c379a0000000000000000000000000000000000000000000000000000000008152600401611a52906155de565b60405180910390fd5b60008160010160009054906101000a900473ffffffffffffffffffffffffffffffffffffffff1690506000826005015414611b87578073ffffffffffffffffffffffffffffffffffffffff166323b872dd308460060160009054906101000a900473ffffffffffffffffffffffffffffffffffffffff1685600501546040518463ffffffff1660e01b8152600401611af5939291906152ff565b602060405180830381600087803b158015611b0f57600080fd5b505af1158015611b23573d6000803e3d6000fd5b505050506040513d601f19601f82011682018060405250810190611b479190614ca0565b611b86576040517f08c379a0000000000000000000000000000000000000000000000000000000008152600401611b7d9061561e565b60405180910390fd5b5b816007016000815480929190611b9c906159d3565b9190505550828260050181905550338260060160006101000a81548173ffffffffffffffffffffffffffffffffffffffff021916908373ffffffffffffffffffffffffffffffffffffffff160217905550816007016000815480929190611c02906159d3565b9190505550600060405180606001604052808581526020013373ffffffffffffffffffffffffffffffffffffffff168152602001428152509050600c60008681526020019081526020016000208190806001815401808255809150506001900390600052602060002090600302016000909190919091506000820151816000015560208201518160010160006101000a81548173ffffffffffffffffffffffffffffffffffffffff021916908373ffffffffffffffffffffffffffffffffffffffff1602179055506040820151816002015550505050505050565b600080670de0b6b3a764000034611cf49190615811565b9050611cff8361402e565b611d3e576040517f08c379a0000000000000000000000000000000000000000000000000000000008152600401611d359061559e565b60405180910390fd5b6000600a60008581526020019081526020016000206005015411611d97576040517f08c379a0000000000000000000000000000000000000000000000000000000008152600401611d8e9061549e565b60405180910390fd5b6064600a600085815260200190815260200160002060000154611dba9190615811565b811015611dfc576040517f08c379a0000000000000000000000000000000000000000000000000000000008152600401611df39061563e565b60405180910390fd5b6064600a600085815260200190815260200160002060050154600a600086815260200190815260200160002060000154611e369190615842565b611e409190615811565b811115611e82576040517f08c379a0000000000000000000000000000000000000000000000000000000008152600401611e79906155be565b60405180910390fd5b600a600084815260200190815260200160002060000154606482611ea69190615842565b611eb09190615811565b915081600a600085815260200190815260200160002060050154611ed4919061589c565b600a6000858152602001908152602001600020600501819055506000600a600085815260200190815260200160002060020160003373ffffffffffffffffffffffffffffffffffffffff1673ffffffffffffffffffffffffffffffffffffffff168152602001908152602001600020541415611fff576001600a600085815260200190815260200160002060040154611f6d91906157bb565b600a600085815260200190815260200160002060040181905550600a6000848152602001908152602001600020600301339080600181540180825580915050600190039060005260206000200160009091909190916101000a81548173ffffffffffffffffffffffffffffffffffffffff021916908373ffffffffffffffffffffffffffffffffffffffff1602179055505b81600a600085815260200190815260200160002060020160003373ffffffffffffffffffffffffffffffffffffffff1673ffffffffffffffffffffffffffffffffffffffff1681526020019081526020016000205461205e91906157bb565b600a600085815260200190815260200160002060020160003373ffffffffffffffffffffffffffffffffffffffff1673ffffffffffffffffffffffffffffffffffffffff1681526020019081526020016000208190555050919050565b600081600b600084815260200190815260200160002060000181905550600b600083815260200190815260200160002060010160008154809291906120ff906159d3565b9190505550600b6000838152602001908152602001600020600201339080600181540180825580915050600190039060005260206000200160009091909190916101000a81548173ffffffffffffffffffffffffffffffffffffffff021916908373ffffffffffffffffffffffffffffffffffffffff16021790555060009050600080600a600085815260200190815260200160002060030180549050905060005b6000821461225e57600a600086815260200190815260200160002060030183815481106121d1576121d0615ad8565b5b9060005260206000200160009054906101000a900473ffffffffffffffffffffffffffffffffffffffff1673ffffffffffffffffffffffffffffffffffffffff163373ffffffffffffffffffffffffffffffffffffffff16141561223c576001905060009150612259565b8280612247906159d3565b935050818061225590615977565b9250505b6121a1565b600080600080801515851515141561240257600a60008a8152602001908152602001600020600601549750600a60008a81526020019081526020016000206003018054905090505b6000811461240157600a60008a815260200190815260200160002060030182815481106122d6576122d5615ad8565b5b9060005260206000200160009054906101000a900473ffffffffffffffffffffffffffffffffffffffff169350600a60008a815260200190815260200160002060020160008573ffffffffffffffffffffffffffffffffffffffff1673ffffffffffffffffffffffffffffffffffffffff1681526020019081526020016000205492508180612364906159d3565b925050808061237290615977565b9150508373ffffffffffffffffffffffffffffffffffffffff166108fc670de0b6b3a76400006064600a60008e815260200190815260200160002060060154876123bc9190615842565b6123c69190615811565b6123d09190615842565b9081150290604051600060405180830381858888f193505050501580156123fb573d6000803e3d6000fd5b506122a6565b5b50505050505050919050565b6000600a6000838152602001908152602001600020600501549050919050565b60006001600083815260200190815260200160002060009054906101000a900473ffffffffffffffffffffffffffffffffffffffff169050600073ffffffffffffffffffffffffffffffffffffffff168173ffffffffffffffffffffffffffffffffffffffff1614156040518060400160405280600681526020017f30303330303200000000000000000000000000000000000000000000000000008152509061250e576040517f08c379a0000000000000000000000000000000000000000000000000000000008152600401612505919061543c565b60405180910390fd5b50919050565b60008073ffffffffffffffffffffffffffffffffffffffff168273ffffffffffffffffffffffffffffffffffffffff1614156040518060400160405280600681526020017f3030333030310000000000000000000000000000000000000000000000000000815250906125bd576040517f08c379a00000000000000000000000000000000000000000000000000000000081526004016125b4919061543c565b60405180910390fd5b506125c78261405b565b9050919050565b6000600a600083815260200190815260200160002060020160003373ffffffffffffffffffffffffffffffffffffffff1673ffffffffffffffffffffffffffffffffffffffff168152602001908152602001600020549050919050565b60606006805461263a906159a1565b80601f0160208091040260200160405190810160405280929190818152602001828054612666906159a1565b80156126b35780601f10612688576101008083540402835291602001916126b3565b820191906000526020600020905b81548152906001019060200180831161269657829003601f168201915b5050505050905090565b6126c88383836136bf565b505050565b6000600a6000838152602001908152602001600020600001549050919050565b80600460003373ffffffffffffffffffffffffffffffffffffffff1673ffffffffffffffffffffffffffffffffffffffff16815260200190815260200160002060008473ffffffffffffffffffffffffffffffffffffffff1673ffffffffffffffffffffffffffffffffffffffff16815260200190815260200160002060006101000a81548160ff0219169083151502179055508173ffffffffffffffffffffffffffffffffffffffff163373ffffffffffffffffffffffffffffffffffffffff167f17307eab39ab6107e8899845ad3d59bd9653f200f220920489ca2b5937696c31836040516127de91906153a4565b60405180910390a35050565b600960009054906101000a900473ffffffffffffffffffffffffffffffffffffffff1681565b61286085858585858080601f016020809104026020016040519081016040528093929190818152602001838380828437600081840152601f19601f82011690508083019250505050505050613a60565b5050505050565b60006060600b600084815260200190815260200160002060010154600b60008581526020019081526020016000206002018080548060200260200160405190810160405280929190818152602001828054801561291957602002820191906000526020600020905b8160009054906101000a900473ffffffffffffffffffffffffffffffffffffffff1673ffffffffffffffffffffffffffffffffffffffff16815260200190600101908083116128cf575b5050505050905091509150915091565b606081600073ffffffffffffffffffffffffffffffffffffffff166001600083815260200190815260200160002060009054906101000a900473ffffffffffffffffffffffffffffffffffffffff1673ffffffffffffffffffffffffffffffffffffffff1614156040518060400160405280600681526020017f303033303032000000000000000000000000000000000000000000000000000081525090612a07576040517f08c379a00000000000000000000000000000000000000000000000000000000081526004016129fe919061543c565b60405180910390fd5b50600760008481526020019081526020016000208054612a26906159a1565b80601f0160208091040260200160405190810160405280929190818152602001828054612a52906159a1565b8015612a9f5780601f10612a7457610100808354040283529160200191612a9f565b820191906000526020600020905b815481529060010190602001808311612a8257829003601f168201915b5050505050915050919050565b60001515600a600087815260200190815260200160002060010160009054906101000a900460ff16151514612b16576040517f08c379a0000000000000000000000000000000000000000000000000000000008152600401612b0d9061555e565b60405180910390fd5b3373ffffffffffffffffffffffffffffffffffffffff16600a6000878152602001908152602001600020600301600081548110612b5657612b55615ad8565b5b9060005260206000200160009054906101000a900473ffffffffffffffffffffffffffffffffffffffff1673ffffffffffffffffffffffffffffffffffffffff1614612bd7576040517f08c379a0000000000000000000000000000000000000000000000000000000008152600401612bce906154fe565b60405180910390fd5b6000821480612be65750428210155b612c25576040517f08c379a0000000000000000000000000000000000000000000000000000000008152600401612c1c906154be565b60405180910390fd5b6000821415612c32574291505b60006040518061010001604052808781526020018673ffffffffffffffffffffffffffffffffffffffff1681526020013373ffffffffffffffffffffffffffffffffffffffff1681526020018481526020018381526020018581526020013373ffffffffffffffffffffffffffffffffffffffff16815260200160008152509050600d8190806001815401808255809150506001900390600052602060002090600802016000909190919091506000820151816000015560208201518160010160006101000a81548173ffffffffffffffffffffffffffffffffffffffff021916908373ffffffffffffffffffffffffffffffffffffffff16021790555060408201518160020160006101000a81548173ffffffffffffffffffffffffffffffffffffffff021916908373ffffffffffffffffffffffffffffffffffffffff160217905550606082015181600301556080820151816004015560a0820151816005015560c08201518160060160006101000a81548173ffffffffffffffffffffffffffffffffffffffff021916908373ffffffffffffffffffffffffffffffffffffffff16021790555060e082015181600701555050505050505050565b600860009054906101000a900473ffffffffffffffffffffffffffffffffffffffff1673ffffffffffffffffffffffffffffffffffffffff163373ffffffffffffffffffffffffffffffffffffffff16146040518060400160405280600681526020017f303138303031000000000000000000000000000000000000000000000000000081525090612eb8576040517f08c379a0000000000000000000000000000000000000000000000000000000008152600401612eaf919061543c565b60405180910390fd5b50612ec384846140a4565b612f118383838080601f016020809104026020016040519081016040528093929190818152602001838380828437600081840152601f19601f82011690508083019250505050505050614292565b6000600a600085815260200190815260200160002060010160006101000a81548160ff02191690831515021790555050505050565b836001600082815260200190815260200160002060009054906101000a900473ffffffffffffffffffffffffffffffffffffffff1673ffffffffffffffffffffffffffffffffffffffff163373ffffffffffffffffffffffffffffffffffffffff1614612fe8576040517f08c379a0000000000000000000000000000000000000000000000000000000008152600401612fdf906155fe565b60405180910390fd5b600115158415151415613033576001600a600087815260200190815260200160002060010160006101000a81548160ff02191690831515021790555061302e858361439c565b61308b565b6000600a600087815260200190815260200160002060010160006101000a81548160ff0219169083151502179055506064600a60008781526020019081526020016000206005018190555061308a853360646136bf565b5b613095858461445e565b5050505050565b6000600a6000838152602001908152602001600020600401549050919050565b6000600460008473ffffffffffffffffffffffffffffffffffffffff1673ffffffffffffffffffffffffffffffffffffffff16815260200190815260200160002060008373ffffffffffffffffffffffffffffffffffffffff1673ffffffffffffffffffffffffffffffffffffffff16815260200190815260200160002060009054906101000a900460ff16905092915050565b600080670de0b6b3a7640000346131679190615811565b90506064600a60008581526020019081526020016000206000015461318c9190615811565b8110156131ce576040517f08c379a00000000000000000000000000000000000000000000000000000000081526004016131c59061553e565b60405180910390fd5b6064600a600085815260200190815260200160002060020160003373ffffffffffffffffffffffffffffffffffffffff1673ffffffffffffffffffffffffffffffffffffffff16815260200190815260200160002054600a6000868152602001908152602001600020600001546132459190615842565b61324f9190615811565b811115613291576040517f08c379a00000000000000000000000000000000000000000000000000000000081526004016132889061557e565b60405180910390fd5b600a6000848152602001908152602001600020600001546064826132b59190615842565b6132bf9190615811565b915081600a6000858152602001908152602001600020600501546132e391906157bb565b600a6000858152602001908152602001600020600501819055506064600a600085815260200190815260200160002060020160003373ffffffffffffffffffffffffffffffffffffffff1673ffffffffffffffffffffffffffffffffffffffff16815260200190815260200160002054600a6000868152602001908152602001600020600001546133749190615842565b61337e9190615811565b8114156135bc576001600a6000858152602001908152602001600020600401546133a8919061589c565b600a60008581526020019081526020016000206004018190555060005b3373ffffffffffffffffffffffffffffffffffffffff16600a600086815260200190815260200160002060030182806133fd906159d3565b9350815481106134105761340f615ad8565b5b9060005260206000200160009054906101000a900473ffffffffffffffffffffffffffffffffffffffff1673ffffffffffffffffffffffffffffffffffffffff161461345b576133c5565b5b600a60008581526020019081526020016000206003018054905081101561355f57600a600085815260200190815260200160002060030181815481106134a5576134a4615ad8565b5b9060005260206000200160009054906101000a900473ffffffffffffffffffffffffffffffffffffffff16600a60008681526020019081526020016000206003016001836134f3919061589c565b8154811061350457613503615ad8565b5b9060005260206000200160006101000a81548173ffffffffffffffffffffffffffffffffffffffff021916908373ffffffffffffffffffffffffffffffffffffffff1602179055508080613557906159d3565b91505061345c565b600a600085815260200190815260200160002060030180548061358557613584615aa9565b5b6001900381819060005260206000200160006101000a81549073ffffffffffffffffffffffffffffffffffffffff02191690559055505b81600a600085815260200190815260200160002060020160003373ffffffffffffffffffffffffffffffffffffffff1673ffffffffffffffffffffffffffffffffffffffff1681526020019081526020016000205461361b919061589c565b600a600085815260200190815260200160002060020160003373ffffffffffffffffffffffffffffffffffffffff1673ffffffffffffffffffffffffffffffffffffffff168152602001908152602001600020819055503373ffffffffffffffffffffffffffffffffffffffff166108fc349081150290604051600060405180830381858888f193505050501580156136b8573d6000803e3d6000fd5b5050919050565b826001600082815260200190815260200160002060009054906101000a900473ffffffffffffffffffffffffffffffffffffffff1673ffffffffffffffffffffffffffffffffffffffff163373ffffffffffffffffffffffffffffffffffffffff1614613761576040517f08c379a0000000000000000000000000000000000000000000000000000000008152600401613758906155fe565b60405180910390fd5b6000600a600086815260200190815260200160002060020160008573ffffffffffffffffffffffffffffffffffffffff1673ffffffffffffffffffffffffffffffffffffffff16815260200190815260200160002054146137f7576040517f08c379a00000000000000000000000000000000000000000000000000000000081526004016137ee9061545e565b60405180910390fd5b6001821015801561381e5750600a6000858152602001908152602001600020600501548211155b61385d576040517f08c379a0000000000000000000000000000000000000000000000000000000008152600401613854906154de565b60405180910390fd5b6001600a60008681526020019081526020016000206004015461388091906157bb565b600a60008681526020019081526020016000206004018190555081600a600086815260200190815260200160002060020160008573ffffffffffffffffffffffffffffffffffffffff1673ffffffffffffffffffffffffffffffffffffffff1681526020019081526020016000208190555081600a600086815260200190815260200160002060050154613914919061589c565b600a600086815260200190815260200160002060050181905550600a6000858152602001908152602001600020600301339080600181540180825580915050600190039060005260206000200160009091909190916101000a81548173ffffffffffffffffffffffffffffffffffffffff021916908373ffffffffffffffffffffffffffffffffffffffff16021790555050505050565b60006001600083815260200190815260200160002060009054906101000a900473ffffffffffffffffffffffffffffffffffffffff1690506139ec82614520565b6139f68183614559565b613a0083836146c4565b818373ffffffffffffffffffffffffffffffffffffffff168273ffffffffffffffffffffffffffffffffffffffff167fddf252ad1be2c89b69c2b068fc378daa952ba7f163c4a11628f55a4df523b3ef60405160405180910390a4505050565b8160006001600083815260200190815260200160002060009054906101000a900473ffffffffffffffffffffffffffffffffffffffff1690503373ffffffffffffffffffffffffffffffffffffffff168173ffffffffffffffffffffffffffffffffffffffff161480613b3157503373ffffffffffffffffffffffffffffffffffffffff166002600084815260200190815260200160002060009054906101000a900473ffffffffffffffffffffffffffffffffffffffff1673ffffffffffffffffffffffffffffffffffffffff16145b80613bc25750600460008273ffffffffffffffffffffffffffffffffffffffff1673ffffffffffffffffffffffffffffffffffffffff16815260200190815260200160002060003373ffffffffffffffffffffffffffffffffffffffff1673ffffffffffffffffffffffffffffffffffffffff16815260200190815260200160002060009054906101000a900460ff165b6040518060400160405280600681526020017f303033303034000000000000000000000000000000000000000000000000000081525090613c39576040517f08c379a0000000000000000000000000000000000000000000000000000000008152600401613c30919061543c565b60405180910390fd5b5083600073ffffffffffffffffffffffffffffffffffffffff166001600083815260200190815260200160002060009054906101000a900473ffffffffffffffffffffffffffffffffffffffff1673ffffffffffffffffffffffffffffffffffffffff1614156040518060400160405280600681526020017f303033303032000000000000000000000000000000000000000000000000000081525090613d16576040517f08c379a0000000000000000000000000000000000000000000000000000000008152600401613d0d919061543c565b60405180910390fd5b5060006001600087815260200190815260200160002060009054906101000a900473ffffffffffffffffffffffffffffffffffffffff1690508773ffffffffffffffffffffffffffffffffffffffff168173ffffffffffffffffffffffffffffffffffffffff16146040518060400160405280600681526020017f303033303037000000000000000000000000000000000000000000000000000081525090613df5576040517f08c379a0000000000000000000000000000000000000000000000000000000008152600401613dec919061543c565b60405180910390fd5b50600073ffffffffffffffffffffffffffffffffffffffff168773ffffffffffffffffffffffffffffffffffffffff1614156040518060400160405280600681526020017f303033303031000000000000000000000000000000000000000000000000000081525090613e9e576040517f08c379a0000000000000000000000000000000000000000000000000000000008152600401613e95919061543c565b60405180910390fd5b50613ea987876139ab565b613ec88773ffffffffffffffffffffffffffffffffffffffff1661484c565b156140245760008773ffffffffffffffffffffffffffffffffffffffff1663150b7a02338b8a8a6040518563ffffffff1660e01b8152600401613f0e9493929190615336565b602060405180830381600087803b158015613f2857600080fd5b505af1158015613f3c573d6000803e3d6000fd5b505050506040513d601f19601f82011682018060405250810190613f609190614cfa565b905063150b7a0260e01b7bffffffffffffffffffffffffffffffffffffffffffffffffffffffff1916817bffffffffffffffffffffffffffffffffffffffffffffffffffffffff1916146040518060400160405280600681526020017f303033303035000000000000000000000000000000000000000000000000000081525090614021576040517f08c379a0000000000000000000000000000000000000000000000000000000008152600401614018919061543c565b60405180910390fd5b50505b5050505050505050565b6000600a600083815260200190815260200160002060010160009054906101000a900460ff169050919050565b6000600360008373ffffffffffffffffffffffffffffffffffffffff1673ffffffffffffffffffffffffffffffffffffffff168152602001908152602001600020549050919050565b600073ffffffffffffffffffffffffffffffffffffffff168273ffffffffffffffffffffffffffffffffffffffff1614156040518060400160405280600681526020017f30303330303100000000000000000000000000000000000000000000000000008152509061414c576040517f08c379a0000000000000000000000000000000000000000000000000000000008152600401614143919061543c565b60405180910390fd5b50600073ffffffffffffffffffffffffffffffffffffffff166001600083815260200190815260200160002060009054906101000a900473ffffffffffffffffffffffffffffffffffffffff1673ffffffffffffffffffffffffffffffffffffffff16146040518060400160405280600681526020017f303033303036000000000000000000000000000000000000000000000000000081525090614227576040517f08c379a000000000000000000000000000000000000000000000000000000000815260040161421e919061543c565b60405180910390fd5b5061423282826146c4565b808273ffffffffffffffffffffffffffffffffffffffff16600073ffffffffffffffffffffffffffffffffffffffff167fddf252ad1be2c89b69c2b068fc378daa952ba7f163c4a11628f55a4df523b3ef60405160405180910390a45050565b81600073ffffffffffffffffffffffffffffffffffffffff166001600083815260200190815260200160002060009054906101000a900473ffffffffffffffffffffffffffffffffffffffff1673ffffffffffffffffffffffffffffffffffffffff1614156040518060400160405280600681526020017f30303330303200000000000000000000000000000000000000000000000000008152509061436e576040517f08c379a0000000000000000000000000000000000000000000000000000000008152600401614365919061543c565b60405180910390fd5b5081600760008581526020019081526020016000209080519060200190614396929190614897565b50505050565b816001600082815260200190815260200160002060009054906101000a900473ffffffffffffffffffffffffffffffffffffffff1673ffffffffffffffffffffffffffffffffffffffff163373ffffffffffffffffffffffffffffffffffffffff161461443e576040517f08c379a0000000000000000000000000000000000000000000000000000000008152600401614435906155fe565b60405180910390fd5b81600a600085815260200190815260200160002060060181905550505050565b816001600082815260200190815260200160002060009054906101000a900473ffffffffffffffffffffffffffffffffffffffff1673ffffffffffffffffffffffffffffffffffffffff163373ffffffffffffffffffffffffffffffffffffffff1614614500576040517f08c379a00000000000000000000000000000000000000000000000000000000081526004016144f7906155fe565b60405180910390fd5b81600a600085815260200190815260200160002060000181905550505050565b6002600082815260200190815260200160002060006101000a81549073ffffffffffffffffffffffffffffffffffffffff021916905550565b8173ffffffffffffffffffffffffffffffffffffffff166001600083815260200190815260200160002060009054906101000a900473ffffffffffffffffffffffffffffffffffffffff1673ffffffffffffffffffffffffffffffffffffffff16146040518060400160405280600681526020017f303033303037000000000000000000000000000000000000000000000000000081525090614632576040517f08c379a0000000000000000000000000000000000000000000000000000000008152600401614629919061543c565b60405180910390fd5b506001600360008473ffffffffffffffffffffffffffffffffffffffff1673ffffffffffffffffffffffffffffffffffffffff1681526020019081526020016000206000828254614683919061589c565b925050819055506001600082815260200190815260200160002060006101000a81549073ffffffffffffffffffffffffffffffffffffffff02191690555050565b600073ffffffffffffffffffffffffffffffffffffffff166001600083815260200190815260200160002060009054906101000a900473ffffffffffffffffffffffffffffffffffffffff1673ffffffffffffffffffffffffffffffffffffffff16146040518060400160405280600681526020017f30303330303600000000000000000000000000000000000000000000000000008152509061479e576040517f08c379a0000000000000000000000000000000000000000000000000000000008152600401614795919061543c565b60405180910390fd5b50816001600083815260200190815260200160002060006101000a81548173ffffffffffffffffffffffffffffffffffffffff021916908373ffffffffffffffffffffffffffffffffffffffff1602179055506001600360008473ffffffffffffffffffffffffffffffffffffffff1673ffffffffffffffffffffffffffffffffffffffff168152602001908152602001600020600082825461484191906157bb565b925050819055505050565b60008060007fc5d2460186f7233c927e7db2dcc703c0e500b653ca82273b7bfad8045d85a47060001b9050833f91506000801b821415801561488e5750808214155b92505050919050565b8280546148a3906159a1565b90600052602060002090601f0160209004810192826148c5576000855561490c565b82601f106148de57805160ff191683800117855561490c565b8280016001018555821561490c579182015b8281111561490b5782518255916020019190600101906148f0565b5b509050614919919061491d565b5090565b5b8082111561493657600081600090555060010161491e565b5090565b60008135905061494981615dc1565b92915050565b60008135905061495e81615dd8565b92915050565b60008151905061497381615dd8565b92915050565b60008135905061498881615def565b92915050565b60008151905061499d81615def565b92915050565b60008083601f8401126149b9576149b8615b0c565b5b8235905067ffffffffffffffff8111156149d6576149d5615b07565b5b6020830191508360018202830111156149f2576149f1615b11565b5b9250929050565b60008083601f840112614a0f57614a0e615b0c565b5b8235905067ffffffffffffffff811115614a2c57614a2b615b07565b5b602083019150836001820283011115614a4857614a47615b11565b5b9250929050565b600081359050614a5e81615e06565b92915050565b600060208284031215614a7a57614a79615b1b565b5b6000614a888482850161493a565b91505092915050565b60008060408385031215614aa857614aa7615b1b565b5b6000614ab68582860161493a565b9250506020614ac78582860161493a565b9150509250929050565b600080600060608486031215614aea57614ae9615b1b565b5b6000614af88682870161493a565b9350506020614b098682870161493a565b9250506040614b1a86828701614a4f565b9150509250925092565b600080600080600060808688031215614b4057614b3f615b1b565b5b6000614b4e8882890161493a565b9550506020614b5f8882890161493a565b9450506040614b7088828901614a4f565b935050606086013567ffffffffffffffff811115614b9157614b90615b16565b5b614b9d888289016149a3565b92509250509295509295909350565b60008060408385031215614bc357614bc2615b1b565b5b6000614bd18582860161493a565b9250506020614be28582860161494f565b9150509250929050565b60008060408385031215614c0357614c02615b1b565b5b6000614c118582860161493a565b9250506020614c2285828601614a4f565b9150509250929050565b60008060008060608587031215614c4657614c45615b1b565b5b6000614c548782880161493a565b9450506020614c6587828801614a4f565b935050604085013567ffffffffffffffff811115614c8657614c85615b16565b5b614c92878288016149f9565b925092505092959194509250565b600060208284031215614cb657614cb5615b1b565b5b6000614cc484828501614964565b91505092915050565b600060208284031215614ce357614ce2615b1b565b5b6000614cf184828501614979565b91505092915050565b600060208284031215614d1057614d0f615b1b565b5b6000614d1e8482850161498e565b91505092915050565b600060208284031215614d3d57614d3c615b1b565b5b6000614d4b84828501614a4f565b91505092915050565b600080600060608486031215614d6d57614d6c615b1b565b5b6000614d7b86828701614a4f565b9350506020614d8c8682870161493a565b9250506040614d9d86828701614a4f565b9150509250925092565b600080600080600060a08688031215614dc357614dc2615b1b565b5b6000614dd188828901614a4f565b9550506020614de28882890161493a565b9450506040614df388828901614a4f565b9350506060614e0488828901614a4f565b9250506080614e1588828901614a4f565b9150509295509295909350565b60008060008060808587031215614e3c57614e3b615b1b565b5b6000614e4a87828801614a4f565b9450506020614e5b8782880161494f565b9350506040614e6c87828801614a4f565b9250506060614e7d87828801614a4f565b91505092959194509250565b60008060408385031215614ea057614e9f615b1b565b5b6000614eae85828601614a4f565b9250506020614ebf85828601614a4f565b9150509250929050565b6000614ed58383614ef9565b60208301905092915050565b6000614eed8383615284565b60608301905092915050565b614f02816158d0565b82525050565b614f11816158d0565b82525050565b6000614f2282615731565b614f2c8185615777565b9350614f3783615711565b8060005b83811015614f68578151614f4f8882614ec9565b9750614f5a8361575d565b925050600181019050614f3b565b5085935050505092915050565b6000614f808261573c565b614f8a8185615788565b9350614f9583615721565b8060005b83811015614fc6578151614fad8882614ee1565b9750614fb88361576a565b925050600181019050614f99565b5085935050505092915050565b614fdc816158e2565b82525050565b6000614fed82615747565b614ff78185615799565b9350615007818560208601615944565b61501081615b20565b840191505092915050565b600061502682615752565b61503081856157aa565b9350615040818560208601615944565b61504981615b20565b840191505092915050565b60006150616010836157aa565b915061506c82615b31565b602082019050919050565b6000615084600f836157aa565b915061508f82615b5a565b602082019050919050565b60006150a76012836157aa565b91506150b282615b83565b602082019050919050565b60006150ca6013836157aa565b91506150d582615bac565b602082019050919050565b60006150ed600d836157aa565b91506150f882615bd5565b602082019050919050565b6000615110600d836157aa565b915061511b82615bfe565b602082019050919050565b6000615133600f836157aa565b915061513e82615c27565b602082019050919050565b60006151566015836157aa565b915061516182615c50565b602082019050919050565b6000615179600b836157aa565b915061518482615c79565b602082019050919050565b600061519c601a836157aa565b91506151a782615ca2565b602082019050919050565b60006151bf6010836157aa565b91506151ca82615ccb565b602082019050919050565b60006151e2600e836157aa565b91506151ed82615cf4565b602082019050919050565b6000615205600b836157aa565b915061521082615d1d565b602082019050919050565b60006152286014836157aa565b915061523382615d46565b602082019050919050565b600061524b600b836157aa565b915061525682615d6f565b602082019050919050565b600061526e6014836157aa565b915061527982615d98565b602082019050919050565b60608201600082015161529a60008501826152c6565b5060208201516152ad6020850182614ef9565b5060408201516152c060408501826152c6565b50505050565b6152cf8161593a565b82525050565b6152de8161593a565b82525050565b60006020820190506152f96000830184614f08565b92915050565b60006060820190506153146000830186614f08565b6153216020830185614f08565b61532e60408301846152d5565b949350505050565b600060808201905061534b6000830187614f08565b6153586020830186614f08565b61536560408301856152d5565b81810360608301526153778184614fe2565b905095945050505050565b6000602082019050818103600083015261539c8184614f17565b905092915050565b60006020820190506153b96000830184614fd3565b92915050565b600060e0820190506153d4600083018a614fd3565b6153e160208301896152d5565b6153ee60408301886152d5565b6153fb60608301876152d5565b818103608083015261540d8186614f17565b905061541c60a08301856152d5565b81810360c083015261542e8184614f17565b905098975050505050505050565b60006020820190508181036000830152615456818461501b565b905092915050565b6000602082019050818103600083015261547781615054565b9050919050565b6000602082019050818103600083015261549781615077565b9050919050565b600060208201905081810360008301526154b78161509a565b9050919050565b600060208201905081810360008301526154d7816150bd565b9050919050565b600060208201905081810360008301526154f7816150e0565b9050919050565b6000602082019050818103600083015261551781615103565b9050919050565b6000602082019050818103600083015261553781615126565b9050919050565b6000602082019050818103600083015261555781615149565b9050919050565b600060208201905081810360008301526155778161516c565b9050919050565b600060208201905081810360008301526155978161518f565b9050919050565b600060208201905081810360008301526155b7816151b2565b9050919050565b600060208201905081810360008301526155d7816151d5565b9050919050565b600060208201905081810360008301526155f7816151f8565b9050919050565b600060208201905081810360008301526156178161521b565b9050919050565b600060208201905081810360008301526156378161523e565b9050919050565b6000602082019050818103600083015261565781615261565b9050919050565b600060208201905061567360008301846152d5565b92915050565b600060c08201905061568e60008301896152d5565b61569b6020830188614f08565b81810360408301526156ad8187614f75565b90506156bc60608301866152d5565b6156c960808301856152d5565b6156d660a08301846152d5565b979650505050505050565b60006040820190506156f660008301856152d5565b81810360208301526157088184614f17565b90509392505050565b6000819050602082019050919050565b6000819050602082019050919050565b600081519050919050565b600081519050919050565b600081519050919050565b600081519050919050565b6000602082019050919050565b6000602082019050919050565b600082825260208201905092915050565b600082825260208201905092915050565b600082825260208201905092915050565b600082825260208201905092915050565b60006157c68261593a565b91506157d18361593a565b9250827fffffffffffffffffffffffffffffffffffffffffffffffffffffffffffffffff0382111561580657615805615a1c565b5b828201905092915050565b600061581c8261593a565b91506158278361593a565b92508261583757615836615a4b565b5b828204905092915050565b600061584d8261593a565b91506158588361593a565b9250817fffffffffffffffffffffffffffffffffffffffffffffffffffffffffffffffff048311821515161561589157615890615a1c565b5b828202905092915050565b60006158a78261593a565b91506158b28361593a565b9250828210156158c5576158c4615a1c565b5b828203905092915050565b60006158db8261591a565b9050919050565b60008115159050919050565b60007fffffffff0000000000000000000000000000000000000000000000000000000082169050919050565b600073ffffffffffffffffffffffffffffffffffffffff82169050919050565b6000819050919050565b60005b83811015615962578082015181840152602081019050615947565b83811115615971576000848401525b50505050565b60006159828261593a565b9150600082141561599657615995615a1c565b5b600182039050919050565b600060028204905060018216806159b957607f821691505b602082108114156159cd576159cc615a7a565b5b50919050565b60006159de8261593a565b91507fffffffffffffffffffffffffffffffffffffffffffffffffffffffffffffffff821415615a1157615a10615a1c565b5b600182019050919050565b7f4e487b7100000000000000000000000000000000000000000000000000000000600052601160045260246000fd5b7f4e487b7100000000000000000000000000000000000000000000000000000000600052601260045260246000fd5b7f4e487b7100000000000000000000000000000000000000000000000000000000600052602260045260246000fd5b7f4e487b7100000000000000000000000000000000000000000000000000000000600052603160045260246000fd5b7f4e487b7100000000000000000000000000000000000000000000000000000000600052603260045260246000fd5b600080fd5b600080fd5b600080fd5b600080fd5b600080fd5b6000601f19601f8301169050919050565b7f414c52454144595f415f53484152455200000000000000000000000000000000600082015250565b7f4e46545f4245454e5f5354414b45440000000000000000000000000000000000600082015250565b7f4e46545f53484152455f534f4c445f4f55540000000000000000000000000000600082015250565b7f53544152545f54494d455f49535f57524f4e4700000000000000000000000000600082015250565b7f53484152455f494e56414c494400000000000000000000000000000000000000600082015250565b7f4e4f545f5448455f4f574e455200000000000000000000000000000000000000600082015250565b7f4e4f545f484947485f454e4f5547480000000000000000000000000000000000600082015250565b7f4e4f545f454e4f5547485f544f5f53454c4c5f31250000000000000000000000600082015250565b7f4e4f545f53414c41424c45000000000000000000000000000000000000000000600082015250565b7f544f4f5f4d5543485f4d4f4e45595f544f5f53454c4c5f414c4c000000000000600082015250565b7f4e46545f4e4f545f5348415241424c4500000000000000000000000000000000600082015250565b7f544f4f5f4d5543485f4d4f4e4559000000000000000000000000000000000000600082015250565b7f41554354494f4e5f454e44000000000000000000000000000000000000000000600082015250565b7f4e4f545f5448455f4f574e45525f4f465f4e4654000000000000000000000000600082015250565b7f45524332302d4552524f52000000000000000000000000000000000000000000600082015250565b7f4e4f545f454e4f5547485f544f5f4255595f3125000000000000000000000000600082015250565b615dca816158d0565b8114615dd557600080fd5b50565b615de1816158e2565b8114615dec57600080fd5b50565b615df8816158ee565b8114615e0357600080fd5b50565b615e0f8161593a565b8114615e1a57600080fd5b5056fea2646970667358221220369de066f302b9adb074b7e44b0b6b7c1eb4e47ec338f32e8c6f60df95df576864736f6c63430008060033",
  "immutableReferences": {},
  "source": "// SPDX-License-Identifier: MIT\r\npragma solidity ^0.8.0;\r\n\r\nimport \"./MusicNFT.sol\";\r\nimport \"./MyToken.sol\";\r\nimport \"../node_modules/@openzeppelin/contracts/utils/math/SafeMath.sol\";\r\n\r\ncontract AuctionSystem is MusicNFT{\r\n    \r\n   \r\n    struct Auction{\r\n        // address nftAddress;\r\n        uint256 nftId;\r\n        address tokenAddress;\r\n        address creator;\r\n        uint256 startTime;\r\n        uint256 duration;\r\n        uint256 currentBidAmount;\r\n        address currentBidOwner;\r\n        uint256 bidCount;\r\n        // mapping(uint256 => History) historyOffer;\r\n        // History[] historyOffer;\r\n    }\r\n\r\n    mapping(uint256 => History[]) historyOffer;\r\n    struct History{\r\n        uint256 offer;\r\n        address offerers;\r\n        uint256 time;\r\n    }\r\n\r\n    Auction[] private auctions;\r\n\r\n    function listAuction(\r\n        uint256 _index\r\n    )\r\n    public\r\n    view\r\n    returns(\r\n        // address _nftAddress,\r\n        uint256 _nftId,\r\n        address _tokenAddress,\r\n        History[] memory _historyOffer,\r\n        uint256 _startTime,\r\n        uint256 _endTime,\r\n        uint256 _bidCount\r\n    )\r\n    {\r\n        Auction memory auction = auctions[_index];\r\n        // _nftAddress = auction.nftAddress;\r\n        _nftId = auction.nftId;\r\n        _tokenAddress = auction.tokenAddress;\r\n        _historyOffer = historyOffer[_index];\r\n        _startTime = auction.startTime;\r\n        _endTime = auction.startTime+auction.duration;\r\n        _bidCount = auction.bidCount;\r\n    }\r\n\r\n    function startAuction(\r\n        // address _nftAddress,\r\n        uint256 _nftId,\r\n        address _tokenAddress,\r\n        uint256 _startPrice,\r\n        uint256 _startTime,\r\n        uint256 _duration\r\n    )\r\n    public\r\n    {\r\n        require(idToNFT[_nftId].ifShared == false,\"NOT_SALABLE\");\r\n        require(idToNFT[_nftId].owners[0] == msg.sender,\"NOT_THE_OWNER\");\r\n        require(_startTime == 0 || _startTime >=block.timestamp,\"START_TIME_IS_WRONG\");\r\n        if(_startTime == 0)\r\n            _startTime = block.timestamp;\r\n\r\n        /*if can assign properly*/\r\n        // History[] memory _history = new History[](0);\r\n        // History memory ownerHistory = History({\r\n        //     offer:_startPrice,\r\n        //     offerers:msg.sender,\r\n        //     time:block.timestamp\r\n        // });\r\n        // _history[0]=ownerHistory;\r\n\r\n        Auction memory auction = Auction({\r\n            creator: msg.sender,\r\n            // nftAddress: _nftAddress,\r\n            nftId: _nftId,\r\n            tokenAddress: _tokenAddress,\r\n            startTime: _startTime,\r\n            duration: _duration,\r\n            currentBidAmount: _startPrice,\r\n            currentBidOwner: msg.sender,\r\n            bidCount: 0\r\n            // historyOffer: _history\r\n        });\r\n        auctions.push(auction);\r\n    }\r\n\r\n    function Bid(\r\n        uint256 _index,\r\n        uint256 _offer\r\n    )\r\n    public\r\n    payable\r\n    {\r\n        Auction storage auction = auctions[_index];\r\n        require(_offer > auction.currentBidAmount,\"NOT_HIGH_ENOUGH\");\r\n        require(block.timestamp < auction.startTime+auction.duration,\"AUCTION_END\");\r\n        IERC20 token = IERC20(auction.tokenAddress);\r\n        if(auction.currentBidAmount!=0)\r\n            require(token.transferFrom(address(this), auction.currentBidOwner, auction.currentBidAmount),\"ERC20-ERROR\");\r\n\r\n        auction.bidCount++;\r\n        auction.currentBidAmount = _offer;\r\n        auction.currentBidOwner = msg.sender;\r\n        auction.bidCount++;\r\n\r\n        History memory history = History({\r\n            offer: _offer,\r\n            offerers: msg.sender,\r\n            time: block.timestamp\r\n        });\r\n        historyOffer[_index].push(history);\r\n    }\r\n    \r\n}",
  "sourcePath": "C:\\Users\\jacky\\Desktop\\BlockChainProj\\MusicNFT\\contracts\\AuctionSystem.sol",
  "compiler": {
    "name": "solc",
    "version": "0.8.6+commit.11564f7e.Emscripten.clang"
  },
  "schemaVersion": "3.4.3",
  "updatedAt": "2021-11-01T11:44:59.401Z",
  "devdoc": {
    "kind": "dev",
    "methods": {
      "approve(address,uint256)": {
        "details": "Set or reaffirm the approved address for an NFT. This function can be changed to payable.",
        "params": {
          "_approved": "Address to be approved for the given NFT ID.",
          "_tokenId": "ID of the token to be approved."
        }
      },
      "balanceOf(address)": {
        "details": "Returns the number of NFTs owned by `_owner`. NFTs assigned to the zero address are considered invalid, and this function throws for queries about the zero address.",
        "params": {
          "_owner": "Address for whom to query the balance."
        },
        "returns": {
          "_0": "Balance of _owner."
        }
      },
      "getApproved(uint256)": {
        "details": "Get the approved address for a single NFT.",
        "params": {
          "_tokenId": "ID of the NFT to query the approval of."
        },
        "returns": {
          "_0": "Address that _tokenId is approved for."
        }
      },
      "isApprovedForAll(address,address)": {
        "details": "Checks if `_operator` is an approved operator for `_owner`.",
        "params": {
          "_operator": "The address that acts on behalf of the owner.",
          "_owner": "The address that owns the NFTs."
        },
        "returns": {
          "_0": "True if approved for all, false otherwise."
        }
      },
      "mint(address,uint256,string)": {
        "details": "Mints a new NFT.",
        "params": {
          "_to": "The address that will own the minted NFT.",
          "_tokenId": "of the NFT to be minted by the msg.sender.",
          "_uri": "String representing RFC 3986 URI."
        }
      },
      "name()": {
        "details": "Returns a descriptive name for a collection of NFTokens.",
        "returns": {
          "_name": "Representing name."
        }
      },
      "ownerOf(uint256)": {
        "details": "Returns the address of the owner of the NFT. NFTs assigned to the zero address are considered invalid, and queries about them do throw.",
        "params": {
          "_tokenId": "The identifier for an NFT."
        },
        "returns": {
          "_owner": "Address of _tokenId owner."
        }
      },
      "safeTransferFrom(address,address,uint256)": {
        "details": "Transfers the ownership of an NFT from one address to another address. This function can be changed to payable.",
        "params": {
          "_from": "The current owner of the NFT.",
          "_to": "The new owner.",
          "_tokenId": "The NFT to transfer."
        }
      },
      "safeTransferFrom(address,address,uint256,bytes)": {
        "details": "Transfers the ownership of an NFT from one address to another address. This function can be changed to payable.",
        "params": {
          "_data": "Additional data with no specified format, sent in call to `_to`.",
          "_from": "The current owner of the NFT.",
          "_to": "The new owner.",
          "_tokenId": "The NFT to transfer."
        }
      },
      "setApprovalForAll(address,bool)": {
        "details": "Enables or disables approval for a third party (\"operator\") to manage all of `msg.sender`'s assets. It also emits the ApprovalForAll event.",
        "params": {
          "_approved": "True if the operators is approved, false to revoke approval.",
          "_operator": "Address to add to the set of authorized operators."
        }
      },
      "supportsInterface(bytes4)": {
        "details": "Function to check which interfaces are suported by this contract.",
        "params": {
          "_interfaceID": "Id of the interface."
        },
        "returns": {
          "_0": "True if _interfaceID is supported, false otherwise."
        }
      },
      "symbol()": {
        "details": "Returns an abbreviated name for NFTokens.",
        "returns": {
          "_symbol": "Representing symbol."
        }
      },
      "tokenURI(uint256)": {
        "details": "A distinct URI (RFC 3986) for a given NFT.",
        "params": {
          "_tokenId": "Id for which we want uri."
        },
        "returns": {
          "_0": "URI of _tokenId."
        }
      }
    },
    "version": 1
  },
  "userdoc": {
    "kind": "user",
    "methods": {
      "addsharers(uint256,address,uint256)": {
        "notice": "NFT holder can add sharers himself without having buyer conduct a transaction"
      },
      "approve(address,uint256)": {
        "notice": "The zero address indicates there is no approved address. Throws unless `msg.sender` is the current NFT owner, or an authorized operator of the current owner."
      },
      "buyNFT(uint256)": {
        "notice": "Buy some share of a certain NFT "
      },
      "getApproved(uint256)": {
        "notice": "Throws if `_tokenId` is not a valid NFT."
      },
      "initialize(uint256,bool,uint256,uint256)": {
        "notice": "Execution Function"
      },
      "safeTransferFrom(address,address,uint256)": {
        "notice": "This works identically to the other function with an extra data parameter, except this function just sets data to \"\"."
      },
      "safeTransferFrom(address,address,uint256,bytes)": {
        "notice": "Throws unless `msg.sender` is the current owner, an authorized operator, or the approved address for this NFT. Throws if `_from` is not the current owner. Throws if `_to` is the zero address. Throws if `_tokenId` is not a valid NFT. When transfer is complete, this function checks if `_to` is a smart contract (code size > 0). If so, it calls `onERC721Received` on `_to` and throws if the return value is not `bytes4(keccak256(\"onERC721Received(address,uint256,bytes)\"))`."
      },
      "setApprovalForAll(address,bool)": {
        "notice": "This works even if sender doesn't own any tokens at the time."
      },
      "showInfoOfNFT(uint256)": {
        "notice": "View Function"
      },
      "showValue(uint256)": {
        "notice": "show the value of each NFT can be seen by everyone"
      },
      "transferFrom(address,address,uint256)": {
        "notice": "Execution Function"
      }
    },
    "version": 1
  }
}