{
  "contractName": "MusicNFT",
  "abi": [
    {
      "inputs": [],
      "stateMutability": "payable",
      "type": "constructor"
    },
    {
      "anonymous": false,
      "inputs": [
        {
          "indexed": true,
          "internalType": "address",
          "name": "_owner",
          "type": "address"
        },
        {
          "indexed": true,
          "internalType": "address",
          "name": "_approved",
          "type": "address"
        },
        {
          "indexed": true,
          "internalType": "uint256",
          "name": "_tokenId",
          "type": "uint256"
        }
      ],
      "name": "Approval",
      "type": "event"
    },
    {
      "anonymous": false,
      "inputs": [
        {
          "indexed": true,
          "internalType": "address",
          "name": "_owner",
          "type": "address"
        },
        {
          "indexed": true,
          "internalType": "address",
          "name": "_operator",
          "type": "address"
        },
        {
          "indexed": false,
          "internalType": "bool",
          "name": "_approved",
          "type": "bool"
        }
      ],
      "name": "ApprovalForAll",
      "type": "event"
    },
    {
      "anonymous": false,
      "inputs": [
        {
          "indexed": true,
          "internalType": "address",
          "name": "previousOwner",
          "type": "address"
        },
        {
          "indexed": true,
          "internalType": "address",
          "name": "newOwner",
          "type": "address"
        }
      ],
      "name": "OwnershipTransferred",
      "type": "event"
    },
    {
      "anonymous": false,
      "inputs": [
        {
          "indexed": true,
          "internalType": "address",
          "name": "_from",
          "type": "address"
        },
        {
          "indexed": true,
          "internalType": "address",
          "name": "_to",
          "type": "address"
        },
        {
          "indexed": true,
          "internalType": "uint256",
          "name": "_tokenId",
          "type": "uint256"
        }
      ],
      "name": "Transfer",
      "type": "event"
    },
    {
      "inputs": [],
      "name": "_owner",
      "outputs": [
        {
          "internalType": "address",
          "name": "",
          "type": "address"
        }
      ],
      "stateMutability": "view",
      "type": "function"
    },
    {
      "inputs": [
        {
          "internalType": "address",
          "name": "_approved",
          "type": "address"
        },
        {
          "internalType": "uint256",
          "name": "_tokenId",
          "type": "uint256"
        }
      ],
      "name": "approve",
      "outputs": [],
      "stateMutability": "nonpayable",
      "type": "function"
    },
    {
      "inputs": [
        {
          "internalType": "address",
          "name": "_owner",
          "type": "address"
        }
      ],
      "name": "balanceOf",
      "outputs": [
        {
          "internalType": "uint256",
          "name": "",
          "type": "uint256"
        }
      ],
      "stateMutability": "view",
      "type": "function"
    },
    {
      "inputs": [
        {
          "internalType": "uint256",
          "name": "_tokenId",
          "type": "uint256"
        }
      ],
      "name": "getApproved",
      "outputs": [
        {
          "internalType": "address",
          "name": "",
          "type": "address"
        }
      ],
      "stateMutability": "view",
      "type": "function"
    },
    {
      "inputs": [
        {
          "internalType": "address",
          "name": "_owner",
          "type": "address"
        },
        {
          "internalType": "address",
          "name": "_operator",
          "type": "address"
        }
      ],
      "name": "isApprovedForAll",
      "outputs": [
        {
          "internalType": "bool",
          "name": "",
          "type": "bool"
        }
      ],
      "stateMutability": "view",
      "type": "function"
    },
    {
      "inputs": [],
      "name": "name",
      "outputs": [
        {
          "internalType": "string",
          "name": "_name",
          "type": "string"
        }
      ],
      "stateMutability": "view",
      "type": "function"
    },
    {
      "inputs": [
        {
          "internalType": "uint256",
          "name": "_tokenId",
          "type": "uint256"
        }
      ],
      "name": "ownerOf",
      "outputs": [
        {
          "internalType": "address",
          "name": "_owner",
          "type": "address"
        }
      ],
      "stateMutability": "view",
      "type": "function"
    },
    {
      "inputs": [
        {
          "internalType": "address",
          "name": "_from",
          "type": "address"
        },
        {
          "internalType": "address",
          "name": "_to",
          "type": "address"
        },
        {
          "internalType": "uint256",
          "name": "_tokenId",
          "type": "uint256"
        }
      ],
      "name": "safeTransferFrom",
      "outputs": [],
      "stateMutability": "nonpayable",
      "type": "function"
    },
    {
      "inputs": [
        {
          "internalType": "address",
          "name": "_from",
          "type": "address"
        },
        {
          "internalType": "address",
          "name": "_to",
          "type": "address"
        },
        {
          "internalType": "uint256",
          "name": "_tokenId",
          "type": "uint256"
        },
        {
          "internalType": "bytes",
          "name": "_data",
          "type": "bytes"
        }
      ],
      "name": "safeTransferFrom",
      "outputs": [],
      "stateMutability": "nonpayable",
      "type": "function"
    },
    {
      "inputs": [
        {
          "internalType": "address",
          "name": "_operator",
          "type": "address"
        },
        {
          "internalType": "bool",
          "name": "_approved",
          "type": "bool"
        }
      ],
      "name": "setApprovalForAll",
      "outputs": [],
      "stateMutability": "nonpayable",
      "type": "function"
    },
    {
      "inputs": [
        {
          "internalType": "bytes4",
          "name": "_interfaceID",
          "type": "bytes4"
        }
      ],
      "name": "supportsInterface",
      "outputs": [
        {
          "internalType": "bool",
          "name": "",
          "type": "bool"
        }
      ],
      "stateMutability": "view",
      "type": "function"
    },
    {
      "inputs": [],
      "name": "symbol",
      "outputs": [
        {
          "internalType": "string",
          "name": "_symbol",
          "type": "string"
        }
      ],
      "stateMutability": "view",
      "type": "function"
    },
    {
      "inputs": [
        {
          "internalType": "uint256",
          "name": "_tokenId",
          "type": "uint256"
        }
      ],
      "name": "tokenURI",
      "outputs": [
        {
          "internalType": "string",
          "name": "",
          "type": "string"
        }
      ],
      "stateMutability": "view",
      "type": "function"
    },
    {
      "inputs": [],
      "name": "transferToContract",
      "outputs": [],
      "stateMutability": "payable",
      "type": "function"
    },
    {
      "inputs": [
        {
          "internalType": "address",
          "name": "_to",
          "type": "address"
        },
        {
          "internalType": "uint256",
          "name": "_tokenId",
          "type": "uint256"
        },
        {
          "internalType": "string",
          "name": "_uri",
          "type": "string"
        }
      ],
      "name": "mint",
      "outputs": [],
      "stateMutability": "nonpayable",
      "type": "function"
    },
    {
      "inputs": [
        {
          "internalType": "uint256",
          "name": "_tokenId",
          "type": "uint256"
        }
      ],
      "name": "showValue",
      "outputs": [
        {
          "internalType": "uint256",
          "name": "value",
          "type": "uint256"
        }
      ],
      "stateMutability": "view",
      "type": "function"
    },
    {
      "inputs": [
        {
          "internalType": "address",
          "name": "_from",
          "type": "address"
        },
        {
          "internalType": "address",
          "name": "_to",
          "type": "address"
        },
        {
          "internalType": "uint256",
          "name": "_tokenId",
          "type": "uint256"
        }
      ],
      "name": "transferFrom",
      "outputs": [],
      "stateMutability": "nonpayable",
      "type": "function"
    },
    {
      "inputs": [
        {
          "internalType": "uint256",
          "name": "_tokenId",
          "type": "uint256"
        }
      ],
      "name": "showInfoOfNFT",
      "outputs": [
        {
          "internalType": "bool",
          "name": "result",
          "type": "bool"
        },
        {
          "internalType": "uint256",
          "name": "shareLeft",
          "type": "uint256"
        },
        {
          "internalType": "uint256",
          "name": "taxToPay",
          "type": "uint256"
        },
        {
          "internalType": "uint256",
          "name": "numOfSharers",
          "type": "uint256"
        },
        {
          "internalType": "address[]",
          "name": "ownersOfNFT",
          "type": "address[]"
        },
        {
          "internalType": "uint256",
          "name": "usedTime",
          "type": "uint256"
        },
        {
          "internalType": "address[]",
          "name": "usedBy",
          "type": "address[]"
        }
      ],
      "stateMutability": "view",
      "type": "function"
    },
    {
      "inputs": [
        {
          "internalType": "uint256",
          "name": "_tokenId",
          "type": "uint256"
        }
      ],
      "name": "showMySharerOfNFT",
      "outputs": [
        {
          "internalType": "uint256",
          "name": "myshare",
          "type": "uint256"
        }
      ],
      "stateMutability": "view",
      "type": "function"
    },
    {
      "inputs": [
        {
          "internalType": "uint256",
          "name": "_tokenId",
          "type": "uint256"
        }
      ],
      "name": "showLeftShare",
      "outputs": [
        {
          "internalType": "uint256",
          "name": "left",
          "type": "uint256"
        }
      ],
      "stateMutability": "view",
      "type": "function"
    },
    {
      "inputs": [
        {
          "internalType": "uint256",
          "name": "_tokenId",
          "type": "uint256"
        }
      ],
      "name": "showNumOfSharers",
      "outputs": [
        {
          "internalType": "uint256",
          "name": "num",
          "type": "uint256"
        }
      ],
      "stateMutability": "view",
      "type": "function"
    },
    {
      "inputs": [
        {
          "internalType": "uint256",
          "name": "_tokenId",
          "type": "uint256"
        }
      ],
      "name": "showSharers",
      "outputs": [
        {
          "internalType": "address[]",
          "name": "",
          "type": "address[]"
        }
      ],
      "stateMutability": "view",
      "type": "function"
    },
    {
      "inputs": [
        {
          "internalType": "uint256",
          "name": "_tokenId",
          "type": "uint256"
        }
      ],
      "name": "showUseConditionOfNFT",
      "outputs": [
        {
          "internalType": "uint256",
          "name": "",
          "type": "uint256"
        },
        {
          "internalType": "address[]",
          "name": "",
          "type": "address[]"
        }
      ],
      "stateMutability": "view",
      "type": "function"
    },
    {
      "inputs": [
        {
          "internalType": "uint256",
          "name": "_tokenId",
          "type": "uint256"
        },
        {
          "internalType": "bool",
          "name": "_ifSharable",
          "type": "bool"
        },
        {
          "internalType": "uint256",
          "name": "value",
          "type": "uint256"
        },
        {
          "internalType": "uint256",
          "name": "_tax",
          "type": "uint256"
        }
      ],
      "name": "initialize",
      "outputs": [],
      "stateMutability": "nonpayable",
      "type": "function"
    },
    {
      "inputs": [
        {
          "internalType": "uint256",
          "name": "_tokenId",
          "type": "uint256"
        },
        {
          "internalType": "uint256",
          "name": "amount",
          "type": "uint256"
        }
      ],
      "name": "setSharable",
      "outputs": [],
      "stateMutability": "nonpayable",
      "type": "function"
    },
    {
      "inputs": [
        {
          "internalType": "uint256",
          "name": "_tokenId",
          "type": "uint256"
        },
        {
          "internalType": "address",
          "name": "newSharer",
          "type": "address"
        },
        {
          "internalType": "uint256",
          "name": "share",
          "type": "uint256"
        }
      ],
      "name": "addsharers",
      "outputs": [],
      "stateMutability": "nonpayable",
      "type": "function"
    },
    {
      "inputs": [
        {
          "internalType": "uint256",
          "name": "_tokenId",
          "type": "uint256"
        }
      ],
      "name": "buyNFT",
      "outputs": [
        {
          "internalType": "uint256",
          "name": "shareGot",
          "type": "uint256"
        }
      ],
      "stateMutability": "payable",
      "type": "function"
    },
    {
      "inputs": [
        {
          "internalType": "uint256",
          "name": "_tokenId",
          "type": "uint256"
        }
      ],
      "name": "sellNFT",
      "outputs": [
        {
          "internalType": "uint256",
          "name": "shareSold",
          "type": "uint256"
        }
      ],
      "stateMutability": "payable",
      "type": "function"
    },
    {
      "inputs": [
        {
          "internalType": "uint256",
          "name": "_tokenId",
          "type": "uint256"
        }
      ],
      "name": "useNFT",
      "outputs": [
        {
          "internalType": "uint256",
          "name": "cost",
          "type": "uint256"
        }
      ],
      "stateMutability": "payable",
      "type": "function"
    },
    {
      "inputs": [],
      "name": "getAddress",
      "outputs": [
        {
          "internalType": "address",
          "name": "",
          "type": "address"
        }
      ],
      "stateMutability": "view",
      "type": "function"
    }
  ],
  "bytecode": "0x608060405260016000806301ffc9a760e01b7bffffffffffffffffffffffffffffffffffffffffffffffffffffffff1916815260200190815260200160002060006101000a81548160ff02191690831515021790555060016000806380ac58cd60e01b7bffffffffffffffffffffffffffffffffffffffffffffffffffffffff1916815260200190815260200160002060006101000a81548160ff0219169083151502179055506001600080635b5e139f60e01b7bffffffffffffffffffffffffffffffffffffffffffffffffffffffff1916815260200190815260200160002060006101000a81548160ff02191690831515021790555033600860006101000a81548173ffffffffffffffffffffffffffffffffffffffff021916908373ffffffffffffffffffffffffffffffffffffffff16021790555033600960006101000a81548173ffffffffffffffffffffffffffffffffffffffff021916908373ffffffffffffffffffffffffffffffffffffffff1602179055506040518060400160405280600c81526020017f4a61636b7927732052696666000000000000000000000000000000000000000081525060059080519060200190620001c69291906200021b565b506040518060400160405280600481526020017f4a5249460000000000000000000000000000000000000000000000000000000081525060069080519060200190620002149291906200021b565b5062000330565b8280546200022990620002cb565b90600052602060002090601f0160209004810192826200024d576000855562000299565b82601f106200026857805160ff191683800117855562000299565b8280016001018555821562000299579182015b82811115620002985782518255916020019190600101906200027b565b5b509050620002a89190620002ac565b5090565b5b80821115620002c7576000816000905550600101620002ad565b5090565b60006002820490506001821680620002e457607f821691505b60208210811415620002fb57620002fa62000301565b5b50919050565b7f4e487b7100000000000000000000000000000000000000000000000000000000600052602260045260246000fd5b614fc080620003406000396000f3fe6080604052600436106101cd5760003560e01c806370a08231116100f7578063b88d4fde11610095578063e233449711610064578063e2334497146106d6578063e84f3261146106ff578063e985e9c51461073c578063ee9cdfb314610779576101cd565b8063b88d4fde14610609578063baadf60e14610632578063c87b56dd14610670578063d3fc9864146106ad576101cd565b80639a721a6c116100d15780639a721a6c1461054f578063a21bf0d514610578578063a22cb465146105b5578063b2bdfa7b146105de576101cd565b806370a08231146104aa57806383f68703146104e757806395d89b4114610524576101cd565b806323b872dd1161016f57806351ed82881161013e57806351ed8288146103d057806355b9d4431461040057806359645dc6146104305780636352211e1461046d576101cd565b806323b872dd1461031057806338cc4831146103395780633b0824191461036457806342842e0e146103a7576101cd565b8063095ea7b3116101ab578063095ea7b31461027757806312cccb34146102a057806317fee5f9146102aa5780632172d6b0146102d3576101cd565b806301ffc9a7146101d257806306fdde031461020f578063081812fc1461023a575b600080fd5b3480156101de57600080fd5b506101f960048036038101906101f491906142dc565b6107a9565b6040516102069190614768565b60405180910390f35b34801561021b57600080fd5b50610224610810565b6040516102319190614800565b60405180910390f35b34801561024657600080fd5b50610261600480360381019061025c9190614336565b6108a2565b60405161026e91906146df565b60405180910390f35b34801561028357600080fd5b5061029e60048036038101906102999190614228565b6109bd565b005b6102a8610da0565b005b3480156102b657600080fd5b506102d160048036038101906102cc919061441d565b610da2565b005b3480156102df57600080fd5b506102fa60048036038101906102f59190614336565b610f09565b6040516103079190614746565b60405180910390f35b34801561031c57600080fd5b506103376004803603810190610332919061410d565b610fad565b005b34801561034557600080fd5b5061034e611469565b60405161035b91906146df565b60405180910390f35b34801561037057600080fd5b5061038b60048036038101906103869190614336565b611471565b60405161039e9796959493929190614783565b60405180910390f35b3480156103b357600080fd5b506103ce60048036038101906103c9919061410d565b611652565b005b6103ea60048036038101906103e59190614336565b611672565b6040516103f79190614962565b60405180910390f35b61041a60048036038101906104159190614336565b611a50565b6040516104279190614962565b60405180910390f35b34801561043c57600080fd5b5061045760048036038101906104529190614336565b611da3565b6040516104649190614962565b60405180910390f35b34801561047957600080fd5b50610494600480360381019061048f9190614336565b611dc3565b6040516104a191906146df565b60405180910390f35b3480156104b657600080fd5b506104d160048036038101906104cc91906140a0565b611ea9565b6040516104de9190614962565b60405180910390f35b3480156104f357600080fd5b5061050e60048036038101906105099190614336565b611f63565b60405161051b9190614962565b60405180910390f35b34801561053057600080fd5b50610539611fc0565b6040516105469190614800565b60405180910390f35b34801561055b57600080fd5b5061057660048036038101906105719190614363565b612052565b005b34801561058457600080fd5b5061059f600480360381019061059a9190614336565b612062565b6040516105ac9190614962565b60405180910390f35b3480156105c157600080fd5b506105dc60048036038101906105d791906141e8565b612082565b005b3480156105ea57600080fd5b506105f361217f565b60405161060091906146df565b60405180910390f35b34801561061557600080fd5b50610630600480360381019061062b9190614160565b6121a5565b005b34801561063e57600080fd5b5061065960048036038101906106549190614336565b6121fc565b60405161066792919061497d565b60405180910390f35b34801561067c57600080fd5b5061069760048036038101906106929190614336565b6122be565b6040516106a49190614800565b60405180910390f35b3480156106b957600080fd5b506106d460048036038101906106cf9190614268565b612441565b005b3480156106e257600080fd5b506106fd60048036038101906106f891906143b6565b612597565b005b34801561070b57600080fd5b5061072660048036038101906107219190614336565b6126ed565b6040516107339190614962565b60405180910390f35b34801561074857600080fd5b50610763600480360381019061075e91906140cd565b61270d565b6040516107709190614768565b60405180910390f35b610793600480360381019061078e9190614336565b6127a1565b6040516107a09190614962565b60405180910390f35b6000806000837bffffffffffffffffffffffffffffffffffffffffffffffffffffffff19167bffffffffffffffffffffffffffffffffffffffffffffffffffffffff1916815260200190815260200160002060009054906101000a900460ff169050919050565b60606005805461081f90614c04565b80601f016020809104026020016040519081016040528092919081815260200182805461084b90614c04565b80156108985780601f1061086d57610100808354040283529160200191610898565b820191906000526020600020905b81548152906001019060200180831161087b57829003601f168201915b5050505050905090565b600081600073ffffffffffffffffffffffffffffffffffffffff166001600083815260200190815260200160002060009054906101000a900473ffffffffffffffffffffffffffffffffffffffff1673ffffffffffffffffffffffffffffffffffffffff1614156040518060400160405280600681526020017f303033303032000000000000000000000000000000000000000000000000000081525090610980576040517f08c379a00000000000000000000000000000000000000000000000000000000081526004016109779190614800565b60405180910390fd5b506002600084815260200190815260200160002060009054906101000a900473ffffffffffffffffffffffffffffffffffffffff16915050919050565b8060006001600083815260200190815260200160002060009054906101000a900473ffffffffffffffffffffffffffffffffffffffff1690503373ffffffffffffffffffffffffffffffffffffffff168173ffffffffffffffffffffffffffffffffffffffff161480610ab65750600460008273ffffffffffffffffffffffffffffffffffffffff1673ffffffffffffffffffffffffffffffffffffffff16815260200190815260200160002060003373ffffffffffffffffffffffffffffffffffffffff1673ffffffffffffffffffffffffffffffffffffffff16815260200190815260200160002060009054906101000a900460ff165b6040518060400160405280600681526020017f303033303033000000000000000000000000000000000000000000000000000081525090610b2d576040517f08c379a0000000000000000000000000000000000000000000000000000000008152600401610b249190614800565b60405180910390fd5b5082600073ffffffffffffffffffffffffffffffffffffffff166001600083815260200190815260200160002060009054906101000a900473ffffffffffffffffffffffffffffffffffffffff1673ffffffffffffffffffffffffffffffffffffffff1614156040518060400160405280600681526020017f303033303032000000000000000000000000000000000000000000000000000081525090610c0a576040517f08c379a0000000000000000000000000000000000000000000000000000000008152600401610c019190614800565b60405180910390fd5b5060006001600086815260200190815260200160002060009054906101000a900473ffffffffffffffffffffffffffffffffffffffff1690508073ffffffffffffffffffffffffffffffffffffffff168673ffffffffffffffffffffffffffffffffffffffff1614156040518060400160405280600681526020017f303033303038000000000000000000000000000000000000000000000000000081525090610cea576040517f08c379a0000000000000000000000000000000000000000000000000000000008152600401610ce19190614800565b60405180910390fd5b50856002600087815260200190815260200160002060006101000a81548173ffffffffffffffffffffffffffffffffffffffff021916908373ffffffffffffffffffffffffffffffffffffffff160217905550848673ffffffffffffffffffffffffffffffffffffffff168273ffffffffffffffffffffffffffffffffffffffff167f8c5be1e5ebec7d5bd14f71427d1e84f3dd0314c0f7b2291e5b200ac8c7c3b92560405160405180910390a4505050505050565b565b816001600082815260200190815260200160002060009054906101000a900473ffffffffffffffffffffffffffffffffffffffff1673ffffffffffffffffffffffffffffffffffffffff163373ffffffffffffffffffffffffffffffffffffffff1614610e44576040517f08c379a0000000000000000000000000000000000000000000000000000000008152600401610e3b90614922565b60405180910390fd5b6064600a600085815260200190815260200160002060050181905550610e778333846064610e729190614aff565b612d10565b60006064600a60008681526020019081526020016000206000015484610e9d9190614aa5565b610ea79190614a74565b90503373ffffffffffffffffffffffffffffffffffffffff166108fc670de0b6b3a764000083610ed79190614aa5565b9081150290604051600060405180830381858888f19350505050158015610f02573d6000803e3d6000fd5b5050505050565b6060600a6000838152602001908152602001600020600301805480602002602001604051908101604052809291908181526020018280548015610fa157602002820191906000526020600020905b8160009054906101000a900473ffffffffffffffffffffffffffffffffffffffff1673ffffffffffffffffffffffffffffffffffffffff1681526020019060010190808311610f57575b50505050509050919050565b8060006001600083815260200190815260200160002060009054906101000a900473ffffffffffffffffffffffffffffffffffffffff1690503373ffffffffffffffffffffffffffffffffffffffff168173ffffffffffffffffffffffffffffffffffffffff16148061107e57503373ffffffffffffffffffffffffffffffffffffffff166002600084815260200190815260200160002060009054906101000a900473ffffffffffffffffffffffffffffffffffffffff1673ffffffffffffffffffffffffffffffffffffffff16145b8061110f5750600460008273ffffffffffffffffffffffffffffffffffffffff1673ffffffffffffffffffffffffffffffffffffffff16815260200190815260200160002060003373ffffffffffffffffffffffffffffffffffffffff1673ffffffffffffffffffffffffffffffffffffffff16815260200190815260200160002060009054906101000a900460ff165b6040518060400160405280600681526020017f303033303034000000000000000000000000000000000000000000000000000081525090611186576040517f08c379a000000000000000000000000000000000000000000000000000000000815260040161117d9190614800565b60405180910390fd5b5082600073ffffffffffffffffffffffffffffffffffffffff166001600083815260200190815260200160002060009054906101000a900473ffffffffffffffffffffffffffffffffffffffff1673ffffffffffffffffffffffffffffffffffffffff1614156040518060400160405280600681526020017f303033303032000000000000000000000000000000000000000000000000000081525090611263576040517f08c379a000000000000000000000000000000000000000000000000000000000815260040161125a9190614800565b60405180910390fd5b5060006001600086815260200190815260200160002060009054906101000a900473ffffffffffffffffffffffffffffffffffffffff1690508673ffffffffffffffffffffffffffffffffffffffff168173ffffffffffffffffffffffffffffffffffffffff16146040518060400160405280600681526020017f303033303037000000000000000000000000000000000000000000000000000081525090611342576040517f08c379a00000000000000000000000000000000000000000000000000000000081526004016113399190614800565b60405180910390fd5b50600073ffffffffffffffffffffffffffffffffffffffff168673ffffffffffffffffffffffffffffffffffffffff1614156040518060400160405280600681526020017f3030333030310000000000000000000000000000000000000000000000000000815250906113eb576040517f08c379a00000000000000000000000000000000000000000000000000000000081526004016113e29190614800565b60405180910390fd5b5060001515600a600087815260200190815260200160002060010160009054906101000a900460ff16151514611456576040517f08c379a000000000000000000000000000000000000000000000000000000000815260040161144d90614842565b60405180910390fd5b6114608686612ffc565b50505050505050565b600030905090565b600080600080606060006060600a600089815260200190815260200160002060010160009054906101000a900460ff16600a60008a815260200190815260200160002060050154600a60008b815260200190815260200160002060060154600a60008c815260200190815260200160002060040154600a60008d8152602001908152602001600020600301600b60008e815260200190815260200160002060010154600b60008f8152602001908152602001600020600201828054806020026020016040519081016040528092919081815260200182805480156115aa57602002820191906000526020600020905b8160009054906101000a900473ffffffffffffffffffffffffffffffffffffffff1673ffffffffffffffffffffffffffffffffffffffff1681526020019060010190808311611560575b505050505092508080548060200260200160405190810160405280929190818152602001828054801561163257602002820191906000526020600020905b8160009054906101000a900473ffffffffffffffffffffffffffffffffffffffff1673ffffffffffffffffffffffffffffffffffffffff16815260200190600101908083116115e8575b505050505090509650965096509650965096509650919395979092949650565b61166d838383604051806020016040528060008152506130b1565b505050565b600080670de0b6b3a7640000346116899190614a74565b90506116948361367f565b6116d3576040517f08c379a00000000000000000000000000000000000000000000000000000000081526004016116ca906148e2565b60405180910390fd5b6000600a6000858152602001908152602001600020600501541161172c576040517f08c379a000000000000000000000000000000000000000000000000000000000815260040161172390614862565b60405180910390fd5b6064600a60008581526020019081526020016000206000015461174f9190614a74565b811015611791576040517f08c379a000000000000000000000000000000000000000000000000000000000815260040161178890614942565b60405180910390fd5b6064600a600085815260200190815260200160002060050154600a6000868152602001908152602001600020600001546117cb9190614aa5565b6117d59190614a74565b811115611817576040517f08c379a000000000000000000000000000000000000000000000000000000000815260040161180e90614902565b60405180910390fd5b600a60008481526020019081526020016000206000015460648261183b9190614aa5565b6118459190614a74565b915081600a6000858152602001908152602001600020600501546118699190614aff565b600a6000858152602001908152602001600020600501819055506000600a600085815260200190815260200160002060020160003373ffffffffffffffffffffffffffffffffffffffff1673ffffffffffffffffffffffffffffffffffffffff168152602001908152602001600020541415611994576001600a6000858152602001908152602001600020600401546119029190614a1e565b600a600085815260200190815260200160002060040181905550600a6000848152602001908152602001600020600301339080600181540180825580915050600190039060005260206000200160009091909190916101000a81548173ffffffffffffffffffffffffffffffffffffffff021916908373ffffffffffffffffffffffffffffffffffffffff1602179055505b81600a600085815260200190815260200160002060020160003373ffffffffffffffffffffffffffffffffffffffff1673ffffffffffffffffffffffffffffffffffffffff168152602001908152602001600020546119f39190614a1e565b600a600085815260200190815260200160002060020160003373ffffffffffffffffffffffffffffffffffffffff1673ffffffffffffffffffffffffffffffffffffffff1681526020019081526020016000208190555050919050565b600081600b600084815260200190815260200160002060000181905550600b60008381526020019081526020016000206001016000815480929190611a9490614c36565b9190505550600b6000838152602001908152602001600020600201339080600181540180825580915050600190039060005260206000200160009091909190916101000a81548173ffffffffffffffffffffffffffffffffffffffff021916908373ffffffffffffffffffffffffffffffffffffffff16021790555060009050600080600a600085815260200190815260200160002060030180549050905060005b60008214611bf357600a60008681526020019081526020016000206003018381548110611b6657611b65614d3b565b5b9060005260206000200160009054906101000a900473ffffffffffffffffffffffffffffffffffffffff1673ffffffffffffffffffffffffffffffffffffffff163373ffffffffffffffffffffffffffffffffffffffff161415611bd1576001905060009150611bee565b8280611bdc90614c36565b9350508180611bea90614bda565b9250505b611b36565b6000806000808015158515151415611d9757600a60008a8152602001908152602001600020600601549750600a60008a81526020019081526020016000206003018054905090505b60008114611d9657600a60008a81526020019081526020016000206003018281548110611c6b57611c6a614d3b565b5b9060005260206000200160009054906101000a900473ffffffffffffffffffffffffffffffffffffffff169350600a60008a815260200190815260200160002060020160008573ffffffffffffffffffffffffffffffffffffffff1673ffffffffffffffffffffffffffffffffffffffff1681526020019081526020016000205492508180611cf990614c36565b9250508080611d0790614bda565b9150508373ffffffffffffffffffffffffffffffffffffffff166108fc670de0b6b3a76400006064600a60008e81526020019081526020016000206006015487611d519190614aa5565b611d5b9190614a74565b611d659190614aa5565b9081150290604051600060405180830381858888f19350505050158015611d90573d6000803e3d6000fd5b50611c3b565b5b50505050505050919050565b6000600a6000838152602001908152602001600020600501549050919050565b60006001600083815260200190815260200160002060009054906101000a900473ffffffffffffffffffffffffffffffffffffffff169050600073ffffffffffffffffffffffffffffffffffffffff168173ffffffffffffffffffffffffffffffffffffffff1614156040518060400160405280600681526020017f303033303032000000000000000000000000000000000000000000000000000081525090611ea3576040517f08c379a0000000000000000000000000000000000000000000000000000000008152600401611e9a9190614800565b60405180910390fd5b50919050565b60008073ffffffffffffffffffffffffffffffffffffffff168273ffffffffffffffffffffffffffffffffffffffff1614156040518060400160405280600681526020017f303033303031000000000000000000000000000000000000000000000000000081525090611f52576040517f08c379a0000000000000000000000000000000000000000000000000000000008152600401611f499190614800565b60405180910390fd5b50611f5c826136ac565b9050919050565b6000600a600083815260200190815260200160002060020160003373ffffffffffffffffffffffffffffffffffffffff1673ffffffffffffffffffffffffffffffffffffffff168152602001908152602001600020549050919050565b606060068054611fcf90614c04565b80601f0160208091040260200160405190810160405280929190818152602001828054611ffb90614c04565b80156120485780601f1061201d57610100808354040283529160200191612048565b820191906000526020600020905b81548152906001019060200180831161202b57829003601f168201915b5050505050905090565b61205d838383612d10565b505050565b6000600a6000838152602001908152602001600020600001549050919050565b80600460003373ffffffffffffffffffffffffffffffffffffffff1673ffffffffffffffffffffffffffffffffffffffff16815260200190815260200160002060008473ffffffffffffffffffffffffffffffffffffffff1673ffffffffffffffffffffffffffffffffffffffff16815260200190815260200160002060006101000a81548160ff0219169083151502179055508173ffffffffffffffffffffffffffffffffffffffff163373ffffffffffffffffffffffffffffffffffffffff167f17307eab39ab6107e8899845ad3d59bd9653f200f220920489ca2b5937696c31836040516121739190614768565b60405180910390a35050565b600960009054906101000a900473ffffffffffffffffffffffffffffffffffffffff1681565b6121f585858585858080601f016020809104026020016040519081016040528093929190818152602001838380828437600081840152601f19601f820116905080830192505050505050506130b1565b5050505050565b60006060600b600084815260200190815260200160002060010154600b6000858152602001908152602001600020600201808054806020026020016040519081016040528092919081815260200182805480156122ae57602002820191906000526020600020905b8160009054906101000a900473ffffffffffffffffffffffffffffffffffffffff1673ffffffffffffffffffffffffffffffffffffffff1681526020019060010190808311612264575b5050505050905091509150915091565b606081600073ffffffffffffffffffffffffffffffffffffffff166001600083815260200190815260200160002060009054906101000a900473ffffffffffffffffffffffffffffffffffffffff1673ffffffffffffffffffffffffffffffffffffffff1614156040518060400160405280600681526020017f30303330303200000000000000000000000000000000000000000000000000008152509061239c576040517f08c379a00000000000000000000000000000000000000000000000000000000081526004016123939190614800565b60405180910390fd5b506007600084815260200190815260200160002080546123bb90614c04565b80601f01602080910402602001604051908101604052809291908181526020018280546123e790614c04565b80156124345780601f1061240957610100808354040283529160200191612434565b820191906000526020600020905b81548152906001019060200180831161241757829003601f168201915b5050505050915050919050565b600860009054906101000a900473ffffffffffffffffffffffffffffffffffffffff1673ffffffffffffffffffffffffffffffffffffffff163373ffffffffffffffffffffffffffffffffffffffff16146040518060400160405280600681526020017f303138303031000000000000000000000000000000000000000000000000000081525090612509576040517f08c379a00000000000000000000000000000000000000000000000000000000081526004016125009190614800565b60405180910390fd5b5061251484846136f5565b6125628383838080601f016020809104026020016040519081016040528093929190818152602001838380828437600081840152601f19601f820116905080830192505050505050506138e3565b6000600a600085815260200190815260200160002060010160006101000a81548160ff02191690831515021790555050505050565b836001600082815260200190815260200160002060009054906101000a900473ffffffffffffffffffffffffffffffffffffffff1673ffffffffffffffffffffffffffffffffffffffff163373ffffffffffffffffffffffffffffffffffffffff1614612639576040517f08c379a000000000000000000000000000000000000000000000000000000000815260040161263090614922565b60405180910390fd5b600115158415151415612684576001600a600087815260200190815260200160002060010160006101000a81548160ff02191690831515021790555061267f85836139ed565b6126dc565b6000600a600087815260200190815260200160002060010160006101000a81548160ff0219169083151502179055506064600a6000878152602001908152602001600020600501819055506126db85336064612d10565b5b6126e68584613aaf565b5050505050565b6000600a6000838152602001908152602001600020600401549050919050565b6000600460008473ffffffffffffffffffffffffffffffffffffffff1673ffffffffffffffffffffffffffffffffffffffff16815260200190815260200160002060008373ffffffffffffffffffffffffffffffffffffffff1673ffffffffffffffffffffffffffffffffffffffff16815260200190815260200160002060009054906101000a900460ff16905092915050565b600080670de0b6b3a7640000346127b89190614a74565b90506064600a6000858152602001908152602001600020600001546127dd9190614a74565b81101561281f576040517f08c379a0000000000000000000000000000000000000000000000000000000008152600401612816906148a2565b60405180910390fd5b6064600a600085815260200190815260200160002060020160003373ffffffffffffffffffffffffffffffffffffffff1673ffffffffffffffffffffffffffffffffffffffff16815260200190815260200160002054600a6000868152602001908152602001600020600001546128969190614aa5565b6128a09190614a74565b8111156128e2576040517f08c379a00000000000000000000000000000000000000000000000000000000081526004016128d9906148c2565b60405180910390fd5b600a6000848152602001908152602001600020600001546064826129069190614aa5565b6129109190614a74565b915081600a6000858152602001908152602001600020600501546129349190614a1e565b600a6000858152602001908152602001600020600501819055506064600a600085815260200190815260200160002060020160003373ffffffffffffffffffffffffffffffffffffffff1673ffffffffffffffffffffffffffffffffffffffff16815260200190815260200160002054600a6000868152602001908152602001600020600001546129c59190614aa5565b6129cf9190614a74565b811415612c0d576001600a6000858152602001908152602001600020600401546129f99190614aff565b600a60008581526020019081526020016000206004018190555060005b3373ffffffffffffffffffffffffffffffffffffffff16600a60008681526020019081526020016000206003018280612a4e90614c36565b935081548110612a6157612a60614d3b565b5b9060005260206000200160009054906101000a900473ffffffffffffffffffffffffffffffffffffffff1673ffffffffffffffffffffffffffffffffffffffff1614612aac57612a16565b5b600a600085815260200190815260200160002060030180549050811015612bb057600a60008581526020019081526020016000206003018181548110612af657612af5614d3b565b5b9060005260206000200160009054906101000a900473ffffffffffffffffffffffffffffffffffffffff16600a6000868152602001908152602001600020600301600183612b449190614aff565b81548110612b5557612b54614d3b565b5b9060005260206000200160006101000a81548173ffffffffffffffffffffffffffffffffffffffff021916908373ffffffffffffffffffffffffffffffffffffffff1602179055508080612ba890614c36565b915050612aad565b600a6000858152602001908152602001600020600301805480612bd657612bd5614d0c565b5b6001900381819060005260206000200160006101000a81549073ffffffffffffffffffffffffffffffffffffffff02191690559055505b81600a600085815260200190815260200160002060020160003373ffffffffffffffffffffffffffffffffffffffff1673ffffffffffffffffffffffffffffffffffffffff16815260200190815260200160002054612c6c9190614aff565b600a600085815260200190815260200160002060020160003373ffffffffffffffffffffffffffffffffffffffff1673ffffffffffffffffffffffffffffffffffffffff168152602001908152602001600020819055503373ffffffffffffffffffffffffffffffffffffffff166108fc349081150290604051600060405180830381858888f19350505050158015612d09573d6000803e3d6000fd5b5050919050565b826001600082815260200190815260200160002060009054906101000a900473ffffffffffffffffffffffffffffffffffffffff1673ffffffffffffffffffffffffffffffffffffffff163373ffffffffffffffffffffffffffffffffffffffff1614612db2576040517f08c379a0000000000000000000000000000000000000000000000000000000008152600401612da990614922565b60405180910390fd5b6000600a600086815260200190815260200160002060020160008573ffffffffffffffffffffffffffffffffffffffff1673ffffffffffffffffffffffffffffffffffffffff1681526020019081526020016000205414612e48576040517f08c379a0000000000000000000000000000000000000000000000000000000008152600401612e3f90614822565b60405180910390fd5b60018210158015612e6f5750600a6000858152602001908152602001600020600501548211155b612eae576040517f08c379a0000000000000000000000000000000000000000000000000000000008152600401612ea590614882565b60405180910390fd5b6001600a600086815260200190815260200160002060040154612ed19190614a1e565b600a60008681526020019081526020016000206004018190555081600a600086815260200190815260200160002060020160008573ffffffffffffffffffffffffffffffffffffffff1673ffffffffffffffffffffffffffffffffffffffff1681526020019081526020016000208190555081600a600086815260200190815260200160002060050154612f659190614aff565b600a600086815260200190815260200160002060050181905550600a6000858152602001908152602001600020600301339080600181540180825580915050600190039060005260206000200160009091909190916101000a81548173ffffffffffffffffffffffffffffffffffffffff021916908373ffffffffffffffffffffffffffffffffffffffff16021790555050505050565b60006001600083815260200190815260200160002060009054906101000a900473ffffffffffffffffffffffffffffffffffffffff16905061303d82613b71565b6130478183613baa565b6130518383613d15565b818373ffffffffffffffffffffffffffffffffffffffff168273ffffffffffffffffffffffffffffffffffffffff167fddf252ad1be2c89b69c2b068fc378daa952ba7f163c4a11628f55a4df523b3ef60405160405180910390a4505050565b8160006001600083815260200190815260200160002060009054906101000a900473ffffffffffffffffffffffffffffffffffffffff1690503373ffffffffffffffffffffffffffffffffffffffff168173ffffffffffffffffffffffffffffffffffffffff16148061318257503373ffffffffffffffffffffffffffffffffffffffff166002600084815260200190815260200160002060009054906101000a900473ffffffffffffffffffffffffffffffffffffffff1673ffffffffffffffffffffffffffffffffffffffff16145b806132135750600460008273ffffffffffffffffffffffffffffffffffffffff1673ffffffffffffffffffffffffffffffffffffffff16815260200190815260200160002060003373ffffffffffffffffffffffffffffffffffffffff1673ffffffffffffffffffffffffffffffffffffffff16815260200190815260200160002060009054906101000a900460ff165b6040518060400160405280600681526020017f30303330303400000000000000000000000000000000000000000000000000008152509061328a576040517f08c379a00000000000000000000000000000000000000000000000000000000081526004016132819190614800565b60405180910390fd5b5083600073ffffffffffffffffffffffffffffffffffffffff166001600083815260200190815260200160002060009054906101000a900473ffffffffffffffffffffffffffffffffffffffff1673ffffffffffffffffffffffffffffffffffffffff1614156040518060400160405280600681526020017f303033303032000000000000000000000000000000000000000000000000000081525090613367576040517f08c379a000000000000000000000000000000000000000000000000000000000815260040161335e9190614800565b60405180910390fd5b5060006001600087815260200190815260200160002060009054906101000a900473ffffffffffffffffffffffffffffffffffffffff1690508773ffffffffffffffffffffffffffffffffffffffff168173ffffffffffffffffffffffffffffffffffffffff16146040518060400160405280600681526020017f303033303037000000000000000000000000000000000000000000000000000081525090613446576040517f08c379a000000000000000000000000000000000000000000000000000000000815260040161343d9190614800565b60405180910390fd5b50600073ffffffffffffffffffffffffffffffffffffffff168773ffffffffffffffffffffffffffffffffffffffff1614156040518060400160405280600681526020017f3030333030310000000000000000000000000000000000000000000000000000815250906134ef576040517f08c379a00000000000000000000000000000000000000000000000000000000081526004016134e69190614800565b60405180910390fd5b506134fa8787612ffc565b6135198773ffffffffffffffffffffffffffffffffffffffff16613e9d565b156136755760008773ffffffffffffffffffffffffffffffffffffffff1663150b7a02338b8a8a6040518563ffffffff1660e01b815260040161355f94939291906146fa565b602060405180830381600087803b15801561357957600080fd5b505af115801561358d573d6000803e3d6000fd5b505050506040513d601f19601f820116820180604052508101906135b19190614309565b905063150b7a0260e01b7bffffffffffffffffffffffffffffffffffffffffffffffffffffffff1916817bffffffffffffffffffffffffffffffffffffffffffffffffffffffff1916146040518060400160405280600681526020017f303033303035000000000000000000000000000000000000000000000000000081525090613672576040517f08c379a00000000000000000000000000000000000000000000000000000000081526004016136699190614800565b60405180910390fd5b50505b5050505050505050565b6000600a600083815260200190815260200160002060010160009054906101000a900460ff169050919050565b6000600360008373ffffffffffffffffffffffffffffffffffffffff1673ffffffffffffffffffffffffffffffffffffffff168152602001908152602001600020549050919050565b600073ffffffffffffffffffffffffffffffffffffffff168273ffffffffffffffffffffffffffffffffffffffff1614156040518060400160405280600681526020017f30303330303100000000000000000000000000000000000000000000000000008152509061379d576040517f08c379a00000000000000000000000000000000000000000000000000000000081526004016137949190614800565b60405180910390fd5b50600073ffffffffffffffffffffffffffffffffffffffff166001600083815260200190815260200160002060009054906101000a900473ffffffffffffffffffffffffffffffffffffffff1673ffffffffffffffffffffffffffffffffffffffff16146040518060400160405280600681526020017f303033303036000000000000000000000000000000000000000000000000000081525090613878576040517f08c379a000000000000000000000000000000000000000000000000000000000815260040161386f9190614800565b60405180910390fd5b506138838282613d15565b808273ffffffffffffffffffffffffffffffffffffffff16600073ffffffffffffffffffffffffffffffffffffffff167fddf252ad1be2c89b69c2b068fc378daa952ba7f163c4a11628f55a4df523b3ef60405160405180910390a45050565b81600073ffffffffffffffffffffffffffffffffffffffff166001600083815260200190815260200160002060009054906101000a900473ffffffffffffffffffffffffffffffffffffffff1673ffffffffffffffffffffffffffffffffffffffff1614156040518060400160405280600681526020017f3030333030320000000000000000000000000000000000000000000000000000815250906139bf576040517f08c379a00000000000000000000000000000000000000000000000000000000081526004016139b69190614800565b60405180910390fd5b50816007600085815260200190815260200160002090805190602001906139e7929190613ee8565b50505050565b816001600082815260200190815260200160002060009054906101000a900473ffffffffffffffffffffffffffffffffffffffff1673ffffffffffffffffffffffffffffffffffffffff163373ffffffffffffffffffffffffffffffffffffffff1614613a8f576040517f08c379a0000000000000000000000000000000000000000000000000000000008152600401613a8690614922565b60405180910390fd5b81600a600085815260200190815260200160002060060181905550505050565b816001600082815260200190815260200160002060009054906101000a900473ffffffffffffffffffffffffffffffffffffffff1673ffffffffffffffffffffffffffffffffffffffff163373ffffffffffffffffffffffffffffffffffffffff1614613b51576040517f08c379a0000000000000000000000000000000000000000000000000000000008152600401613b4890614922565b60405180910390fd5b81600a600085815260200190815260200160002060000181905550505050565b6002600082815260200190815260200160002060006101000a81549073ffffffffffffffffffffffffffffffffffffffff021916905550565b8173ffffffffffffffffffffffffffffffffffffffff166001600083815260200190815260200160002060009054906101000a900473ffffffffffffffffffffffffffffffffffffffff1673ffffffffffffffffffffffffffffffffffffffff16146040518060400160405280600681526020017f303033303037000000000000000000000000000000000000000000000000000081525090613c83576040517f08c379a0000000000000000000000000000000000000000000000000000000008152600401613c7a9190614800565b60405180910390fd5b506001600360008473ffffffffffffffffffffffffffffffffffffffff1673ffffffffffffffffffffffffffffffffffffffff1681526020019081526020016000206000828254613cd49190614aff565b925050819055506001600082815260200190815260200160002060006101000a81549073ffffffffffffffffffffffffffffffffffffffff02191690555050565b600073ffffffffffffffffffffffffffffffffffffffff166001600083815260200190815260200160002060009054906101000a900473ffffffffffffffffffffffffffffffffffffffff1673ffffffffffffffffffffffffffffffffffffffff16146040518060400160405280600681526020017f303033303036000000000000000000000000000000000000000000000000000081525090613def576040517f08c379a0000000000000000000000000000000000000000000000000000000008152600401613de69190614800565b60405180910390fd5b50816001600083815260200190815260200160002060006101000a81548173ffffffffffffffffffffffffffffffffffffffff021916908373ffffffffffffffffffffffffffffffffffffffff1602179055506001600360008473ffffffffffffffffffffffffffffffffffffffff1673ffffffffffffffffffffffffffffffffffffffff1681526020019081526020016000206000828254613e929190614a1e565b925050819055505050565b60008060007fc5d2460186f7233c927e7db2dcc703c0e500b653ca82273b7bfad8045d85a47060001b9050833f91506000801b8214158015613edf5750808214155b92505050919050565b828054613ef490614c04565b90600052602060002090601f016020900481019282613f165760008555613f5d565b82601f10613f2f57805160ff1916838001178555613f5d565b82800160010185558215613f5d579182015b82811115613f5c578251825591602001919060010190613f41565b5b509050613f6a9190613f6e565b5090565b5b80821115613f87576000816000905550600101613f6f565b5090565b600081359050613f9a81614f2e565b92915050565b600081359050613faf81614f45565b92915050565b600081359050613fc481614f5c565b92915050565b600081519050613fd981614f5c565b92915050565b60008083601f840112613ff557613ff4614d6f565b5b8235905067ffffffffffffffff81111561401257614011614d6a565b5b60208301915083600182028301111561402e5761402d614d74565b5b9250929050565b60008083601f84011261404b5761404a614d6f565b5b8235905067ffffffffffffffff81111561406857614067614d6a565b5b60208301915083600182028301111561408457614083614d74565b5b9250929050565b60008135905061409a81614f73565b92915050565b6000602082840312156140b6576140b5614d7e565b5b60006140c484828501613f8b565b91505092915050565b600080604083850312156140e4576140e3614d7e565b5b60006140f285828601613f8b565b925050602061410385828601613f8b565b9150509250929050565b60008060006060848603121561412657614125614d7e565b5b600061413486828701613f8b565b935050602061414586828701613f8b565b92505060406141568682870161408b565b9150509250925092565b60008060008060006080868803121561417c5761417b614d7e565b5b600061418a88828901613f8b565b955050602061419b88828901613f8b565b94505060406141ac8882890161408b565b935050606086013567ffffffffffffffff8111156141cd576141cc614d79565b5b6141d988828901613fdf565b92509250509295509295909350565b600080604083850312156141ff576141fe614d7e565b5b600061420d85828601613f8b565b925050602061421e85828601613fa0565b9150509250929050565b6000806040838503121561423f5761423e614d7e565b5b600061424d85828601613f8b565b925050602061425e8582860161408b565b9150509250929050565b6000806000806060858703121561428257614281614d7e565b5b600061429087828801613f8b565b94505060206142a18782880161408b565b935050604085013567ffffffffffffffff8111156142c2576142c1614d79565b5b6142ce87828801614035565b925092505092959194509250565b6000602082840312156142f2576142f1614d7e565b5b600061430084828501613fb5565b91505092915050565b60006020828403121561431f5761431e614d7e565b5b600061432d84828501613fca565b91505092915050565b60006020828403121561434c5761434b614d7e565b5b600061435a8482850161408b565b91505092915050565b60008060006060848603121561437c5761437b614d7e565b5b600061438a8682870161408b565b935050602061439b86828701613f8b565b92505060406143ac8682870161408b565b9150509250925092565b600080600080608085870312156143d0576143cf614d7e565b5b60006143de8782880161408b565b94505060206143ef87828801613fa0565b93505060406144008782880161408b565b92505060606144118782880161408b565b91505092959194509250565b6000806040838503121561443457614433614d7e565b5b60006144428582860161408b565b92505060206144538582860161408b565b9150509250929050565b60006144698383614475565b60208301905092915050565b61447e81614b33565b82525050565b61448d81614b33565b82525050565b600061449e826149bd565b6144a881856149eb565b93506144b3836149ad565b8060005b838110156144e45781516144cb888261445d565b97506144d6836149de565b9250506001810190506144b7565b5085935050505092915050565b6144fa81614b45565b82525050565b600061450b826149c8565b61451581856149fc565b9350614525818560208601614ba7565b61452e81614d83565b840191505092915050565b6000614544826149d3565b61454e8185614a0d565b935061455e818560208601614ba7565b61456781614d83565b840191505092915050565b600061457f601083614a0d565b915061458a82614d94565b602082019050919050565b60006145a2600f83614a0d565b91506145ad82614dbd565b602082019050919050565b60006145c5601283614a0d565b91506145d082614de6565b602082019050919050565b60006145e8600d83614a0d565b91506145f382614e0f565b602082019050919050565b600061460b601583614a0d565b915061461682614e38565b602082019050919050565b600061462e601a83614a0d565b915061463982614e61565b602082019050919050565b6000614651601083614a0d565b915061465c82614e8a565b602082019050919050565b6000614674600e83614a0d565b915061467f82614eb3565b602082019050919050565b6000614697601483614a0d565b91506146a282614edc565b602082019050919050565b60006146ba601483614a0d565b91506146c582614f05565b602082019050919050565b6146d981614b9d565b82525050565b60006020820190506146f46000830184614484565b92915050565b600060808201905061470f6000830187614484565b61471c6020830186614484565b61472960408301856146d0565b818103606083015261473b8184614500565b905095945050505050565b600060208201905081810360008301526147608184614493565b905092915050565b600060208201905061477d60008301846144f1565b92915050565b600060e082019050614798600083018a6144f1565b6147a560208301896146d0565b6147b260408301886146d0565b6147bf60608301876146d0565b81810360808301526147d18186614493565b90506147e060a08301856146d0565b81810360c08301526147f28184614493565b905098975050505050505050565b6000602082019050818103600083015261481a8184614539565b905092915050565b6000602082019050818103600083015261483b81614572565b9050919050565b6000602082019050818103600083015261485b81614595565b9050919050565b6000602082019050818103600083015261487b816145b8565b9050919050565b6000602082019050818103600083015261489b816145db565b9050919050565b600060208201905081810360008301526148bb816145fe565b9050919050565b600060208201905081810360008301526148db81614621565b9050919050565b600060208201905081810360008301526148fb81614644565b9050919050565b6000602082019050818103600083015261491b81614667565b9050919050565b6000602082019050818103600083015261493b8161468a565b9050919050565b6000602082019050818103600083015261495b816146ad565b9050919050565b600060208201905061497760008301846146d0565b92915050565b600060408201905061499260008301856146d0565b81810360208301526149a48184614493565b90509392505050565b6000819050602082019050919050565b600081519050919050565b600081519050919050565b600081519050919050565b6000602082019050919050565b600082825260208201905092915050565b600082825260208201905092915050565b600082825260208201905092915050565b6000614a2982614b9d565b9150614a3483614b9d565b9250827fffffffffffffffffffffffffffffffffffffffffffffffffffffffffffffffff03821115614a6957614a68614c7f565b5b828201905092915050565b6000614a7f82614b9d565b9150614a8a83614b9d565b925082614a9a57614a99614cae565b5b828204905092915050565b6000614ab082614b9d565b9150614abb83614b9d565b9250817fffffffffffffffffffffffffffffffffffffffffffffffffffffffffffffffff0483118215151615614af457614af3614c7f565b5b828202905092915050565b6000614b0a82614b9d565b9150614b1583614b9d565b925082821015614b2857614b27614c7f565b5b828203905092915050565b6000614b3e82614b7d565b9050919050565b60008115159050919050565b60007fffffffff0000000000000000000000000000000000000000000000000000000082169050919050565b600073ffffffffffffffffffffffffffffffffffffffff82169050919050565b6000819050919050565b60005b83811015614bc5578082015181840152602081019050614baa565b83811115614bd4576000848401525b50505050565b6000614be582614b9d565b91506000821415614bf957614bf8614c7f565b5b600182039050919050565b60006002820490506001821680614c1c57607f821691505b60208210811415614c3057614c2f614cdd565b5b50919050565b6000614c4182614b9d565b91507fffffffffffffffffffffffffffffffffffffffffffffffffffffffffffffffff821415614c7457614c73614c7f565b5b600182019050919050565b7f4e487b7100000000000000000000000000000000000000000000000000000000600052601160045260246000fd5b7f4e487b7100000000000000000000000000000000000000000000000000000000600052601260045260246000fd5b7f4e487b7100000000000000000000000000000000000000000000000000000000600052602260045260246000fd5b7f4e487b7100000000000000000000000000000000000000000000000000000000600052603160045260246000fd5b7f4e487b7100000000000000000000000000000000000000000000000000000000600052603260045260246000fd5b600080fd5b600080fd5b600080fd5b600080fd5b600080fd5b6000601f19601f8301169050919050565b7f414c52454144595f415f53484152455200000000000000000000000000000000600082015250565b7f4e46545f4245454e5f5354414b45440000000000000000000000000000000000600082015250565b7f4e46545f53484152455f534f4c445f4f55540000000000000000000000000000600082015250565b7f53484152455f494e56414c494400000000000000000000000000000000000000600082015250565b7f4e4f545f454e4f5547485f544f5f53454c4c5f31250000000000000000000000600082015250565b7f544f4f5f4d5543485f4d4f4e45595f544f5f53454c4c5f414c4c000000000000600082015250565b7f4e46545f4e4f545f5348415241424c4500000000000000000000000000000000600082015250565b7f544f4f5f4d5543485f4d4f4e4559000000000000000000000000000000000000600082015250565b7f4e4f545f5448455f4f574e45525f4f465f4e4654000000000000000000000000600082015250565b7f4e4f545f454e4f5547485f544f5f4255595f3125000000000000000000000000600082015250565b614f3781614b33565b8114614f4257600080fd5b50565b614f4e81614b45565b8114614f5957600080fd5b50565b614f6581614b51565b8114614f7057600080fd5b50565b614f7c81614b9d565b8114614f8757600080fd5b5056fea264697066735822122030b1aa10e65717d9a3e5f33bda032f2905139e7e74b26d9d04b332aad8d02b5364736f6c63430008060033",
  "immutableReferences": {},
  "source": "// SPDX-License-Identifier: MIT\npragma solidity ^0.8.0;\n\nimport \"./tokens/nf-token-metadata.sol\";\nimport \"./ownership/ownable.sol\";\n\n\ncontract MusicNFT is\n  NFTokenMetadata,\n  Ownable\n{\n\n  address public _owner;  // ()\n\n  /**\n   * @dev Contract constructor. Sets metadata extension `name` and `symbol`.\n   */\n  constructor() payable\n  {\n    _owner = msg.sender;\n    nftName = \"Jacky's Riff\";\n    nftSymbol = \"JRIF\";\n  }\n\n  function transferToContract()\n    external\n    payable\n  {}\n\n  /**\n   * @dev Mints a new NFT.\n   * @param _to The address that will own the minted NFT.\n   * @param _tokenId of the NFT to be minted by the msg.sender.\n   * @param _uri String representing RFC 3986 URI.\n   */\n  function mint(\n    address _to,\n    uint256 _tokenId,\n    string calldata _uri\n  )\n    external\n    onlyOwner()\n  {\n    super._mint(_to, _tokenId);\n    super._setTokenUri(_tokenId, _uri);\n    idToNFT[_tokenId].ifShared = false;\n  }\n\n/*************************************************************************************************************************/\n  /**\n   *Basic data structure\n   *Would be better if it's in a struct\n   */\n\n  mapping (uint256 => NFT) internal idToNFT;  \n  struct NFT{\n    uint256 valueOfNFT;\n    bool ifShared;\n    mapping(address => uint256) amountOfEachSharer;\n    address [] owners;\n    uint256 sharersCount;\n    uint256 leftShare;\n    uint256 tax;\n  }\n  // mapping (uint256 => uint256) internal valueOfNFT;\n\n  // mapping (uint256 => bool) internal ifShared;//if a token is shared, it is also not transactable\n\n  // mapping (uint256 => mapping(address => uint256)) internal sharers;///each sharers of an NFT has a certain amount of share\n\n  // mapping (uint256 => address []) internal owners;//each NFT has some sharers\n\n  // mapping (uint256 => uint256) internal sharersCount;//number of sharers in each mapping ( address => uint256)\n\n  // mapping (uint256 => uint256) internal leftShare;//amount of an NFT's share having been held\n\n  // mapping (uint256 => uint256) internal tax;//user need to pay if they want a use of an NFT\n\n  struct MusicUseInstance{\n    uint256 tokenId;\n    uint256 timeOfUse;\n    address[] user;\n  }\n\n  mapping (uint256 => MusicUseInstance) internal useOfNFT;\n\n\n/*************************************************************************************************************************/\n  /**\n   *Modifier\n   */\n  modifier ifOwner(uint256 _tokenId){\n    require(msg.sender == idToOwner[_tokenId],\"NOT_THE_OWNER_OF_NFT\");\n    _;\n  }\n\n/*************************************************************************************************************************/\n  /**\n   *Basic transaction\n   */\n\n   /**\n   *View Function\n   */\n\n   /**show the value of each NFT\n    *can be seen by everyone\n    */\n  function showValue (\n    uint256 _tokenId\n  )\n    external\n    view\n    returns(uint256 value)\n  {\n    value = idToNFT[_tokenId].valueOfNFT;\n  }\n\n/*************************************************************************************************************************/\n  /**\n   *Execution Function\n   */\n\n\n  function transferFrom(\n    address _from,\n    address _to,\n    uint256 _tokenId\n  )\n    external\n    override\n    canTransfer(_tokenId)\n    validNFToken(_tokenId)\n  {\n    address tokenOwner = idToOwner[_tokenId];\n    require(tokenOwner == _from, NOT_OWNER);\n    require(_to != address(0), ZERO_ADDRESS);\n    require(idToNFT[_tokenId].ifShared == false,\"NFT_BEEN_STAKED\");\n\n    _transfer(_to, _tokenId);\n  }\n/*************************************************************************************************************************/\n  /**\n   *Advanced transcation\n   */\n  \n  /**\n   *View Function\n   */\n\n  /*show all the information of an NFT*/\n  function showInfoOfNFT(\n    uint256 _tokenId\n  )\n    public\n    view\n    returns(bool result,\n    uint256 shareLeft,\n    uint256 taxToPay,\n    uint256 numOfSharers,\n    address[] memory ownersOfNFT,\n    uint256 usedTime,\n    address[] memory usedBy)\n  {\n    return(idToNFT[_tokenId].ifShared,\n    idToNFT[_tokenId].leftShare,\n    idToNFT[_tokenId].tax,\n    idToNFT[_tokenId].sharersCount,\n    idToNFT[_tokenId].owners,\n    useOfNFT[_tokenId].timeOfUse,\n    useOfNFT[_tokenId].user);\n  }\n\n\n  /*show the sharability of NFT*/\n  function ifSharable(\n    uint256 _tokenId\n  )\n    internal\n    view\n    returns(bool result)\n  {\n    result = idToNFT[_tokenId].ifShared;\n  }\n\n  function showMySharerOfNFT(\n    uint256 _tokenId\n  )\n    external\n    view\n    returns (uint256 myshare)\n  {\n    myshare = idToNFT[_tokenId].amountOfEachSharer[msg.sender];\n  }\n\n\n  function showLeftShare(\n    uint256 _tokenId\n  )\n    external\n    view\n    returns(uint256 left)\n  {\n    left = idToNFT[_tokenId].leftShare;\n  }\n\n  function showNumOfSharers(\n    uint256 _tokenId\n  )\n    external\n    view\n    returns(uint256 num)\n  {\n    num = idToNFT[_tokenId].sharersCount;\n  }\n\n  function showSharers(\n    uint256 _tokenId\n  )\n    external\n    view\n    returns (address[] memory)\n  {\n    return idToNFT[_tokenId].owners;\n  }\n\n  function showUseConditionOfNFT (\n    uint256 _tokenId\n  )\n    external\n    view\n    returns(uint256, address[] memory)\n  {\n    return(useOfNFT[_tokenId].timeOfUse, useOfNFT[_tokenId].user);\n  }\n/*************************************************************************************************************************/\n  /**\n   *Execution Function\n   */\n  \n  function initialize(\n    uint256 _tokenId,\n    bool _ifSharable,\n    uint256 value,\n    uint256 _tax\n  )\n    external\n    ifOwner(_tokenId)\n  {\n    if(_ifSharable == true){\n      idToNFT[_tokenId].ifShared = true;\n      _setTax(_tokenId,_tax);\n    }\n    else{\n      idToNFT[_tokenId].ifShared = false;\n      idToNFT[_tokenId].leftShare = 100;\n      _addsharers(_tokenId, msg.sender, 100);\n    }\n      \n    _setValue(_tokenId,value);\n  }\n\n  function setSharable(\n    uint256 _tokenId,\n    uint256 amount\n  )\n    external\n    ifOwner(_tokenId)\n  {\n    idToNFT[_tokenId].leftShare = 100;\n    // uint256 amount = (msg.value / 1 ether) * valueOfNFT[_tokenId] / 100;\n    _addsharers(_tokenId, msg.sender, 100-amount);\n    uint256 fee = amount*(idToNFT[_tokenId].valueOfNFT)/100;\n    payable(msg.sender).transfer(fee * 1 ether);\n  }\n\n  /**\n   *NFT holder can add sharers himself without having buyer conduct a transaction\n   */\n  function addsharers(\n    uint256 _tokenId,\n    address newSharer,\n    uint256 share\n  )\n    external\n  {\n    _addsharers(_tokenId, newSharer, share);\n  }\n\n  /**\n   *Buy some share of a certain NFT */\n  function buyNFT(\n    uint256 _tokenId\n  )\n    external\n    payable\n    returns(uint256 shareGot)\n  {\n    uint256 fee = msg.value/ 1 ether;\n    require(ifSharable(_tokenId),\"NFT_NOT_SHARABLE\");\n    require(idToNFT[_tokenId].leftShare>0,\"NFT_SHARE_SOLD_OUT\");\n    require(fee >= idToNFT[_tokenId].valueOfNFT/100,\"NOT_ENOUGH_TO_BUY_1%\");\n    require(fee <= (idToNFT[_tokenId].valueOfNFT*idToNFT[_tokenId].leftShare/100),\"TOO_MUCH_MONEY\");\n    shareGot = fee * 100 / idToNFT[_tokenId].valueOfNFT;\n    idToNFT[_tokenId].leftShare = idToNFT[_tokenId].leftShare - shareGot;\n    if(idToNFT[_tokenId].amountOfEachSharer[msg.sender] == 0){\n      idToNFT[_tokenId].sharersCount = idToNFT[_tokenId].sharersCount + 1;\n      idToNFT[_tokenId].owners.push(msg.sender);\n    }//if sharers already, don't add\n    idToNFT[_tokenId].amountOfEachSharer[msg.sender] = idToNFT[_tokenId].amountOfEachSharer[msg.sender] + shareGot;\n    // address owner = idToOwner[_tokenId];\n    // payable(owner).transfer(msg.value);//transfer to owner msg.value's CFX\n  }\n\n  function sellNFT(\n    uint256 _tokenId\n  )\n    external\n    payable\n    returns(uint256 shareSold)\n  {\n    uint256 fee = msg.value/ 1 ether;\n    require(fee >= idToNFT[_tokenId].valueOfNFT/100,\"NOT_ENOUGH_TO_SELL_1%\");\n    require(fee <= (idToNFT[_tokenId].valueOfNFT*idToNFT[_tokenId].amountOfEachSharer[msg.sender]/100),\"TOO_MUCH_MONEY_TO_SELL_ALL\");\n    shareSold = fee * 100 / idToNFT[_tokenId].valueOfNFT;\n    idToNFT[_tokenId].leftShare = idToNFT[_tokenId].leftShare + shareSold;\n    if(fee == idToNFT[_tokenId].valueOfNFT*idToNFT[_tokenId].amountOfEachSharer[msg.sender]/100){//sell all\n      idToNFT[_tokenId].sharersCount = idToNFT[_tokenId].sharersCount - 1;\n      uint256 i = 0;\n      while(idToNFT[_tokenId].owners[i++] != msg.sender){}\n      for(i; i<idToNFT[_tokenId].owners.length; i++){\n        idToNFT[_tokenId].owners[i-1] = idToNFT[_tokenId].owners[i];\n      }\n      idToNFT[_tokenId].owners.pop();\n    }//if sell all, delete from the seller\n\n    idToNFT[_tokenId].amountOfEachSharer[msg.sender] = idToNFT[_tokenId].amountOfEachSharer[msg.sender] - shareSold;\n    payable(msg.sender).transfer(msg.value);\n  }\n\n  function useNFT(\n    uint256 _tokenId\n  )\n    external\n    payable\n    returns(uint256 cost)\n  {\n    /*store the use information in the mapping and struct*/\n    useOfNFT[_tokenId].tokenId = _tokenId;\n    useOfNFT[_tokenId].timeOfUse++;\n    useOfNFT[_tokenId].user.push(msg.sender);\n\n    /*judge if the user is a sharer*/\n    cost = 0;\n    uint256 i = 0;\n    uint256 j = idToNFT[_tokenId].owners.length;\n    bool flag = false;\n    while(j!=0){\n      if(msg.sender == idToNFT[_tokenId].owners[i]){\n        flag = true;\n        j=0;\n      }\n      else{\n        i++;\n        j--;\n      }\n    }\n    \n    /*distribute tax*/\n    address temp;\n    uint256 share;\n    uint256 m=0;\n    uint256 n;\n    if(flag == false){\n      // _distributeTax(_tokenId,tax[_tokenId]);\n      cost = idToNFT[_tokenId].tax;\n      n = idToNFT[_tokenId].owners.length;\n      while(n!=0){\n        temp = idToNFT[_tokenId].owners[m];\n        share = idToNFT[_tokenId].amountOfEachSharer[temp];\n        m++;\n        n--;\n        // mapping (uint256 => mapping(address => uint256)) internal sharers;\n        payable(temp).transfer( (share * idToNFT[_tokenId].tax / 100) * 1 ether);\n      }\n    }\n      \n  }\n\n\n/*************************************************************************************************************************/\n  /**\n   *Internal Functions\n   */\n\n  /*add a sharer of a NFT*/\n  function _addsharers(\n    uint256 _tokenId, \n    address newSharer, \n    uint256 share\n    )\n      internal\n      ifOwner(_tokenId)\n    {\n    // require(ifSharable(_tokenId),\"TOKEN_UNSHARABLE\");\n    require(idToNFT[_tokenId].amountOfEachSharer[newSharer]==0,\"ALREADY_A_SHARER\");\n    require(share >=1 && share <=idToNFT[_tokenId].leftShare,\"SHARE_INVALID\");\n    idToNFT[_tokenId].sharersCount = idToNFT[_tokenId].sharersCount + 1;\n    idToNFT[_tokenId].amountOfEachSharer[newSharer] = share;\n    idToNFT[_tokenId].leftShare = idToNFT[_tokenId].leftShare - share;\n    idToNFT[_tokenId].owners.push(msg.sender);\n  }\n\n  // function _distributeTax(\n  //   uint256 _tokenId,\n  //   uint256 amount\n  // )\n  //   internal\n  // {\n  //   address temp;\n  //   uint256 share;\n  //   uint256 i = 0;\n  //   uint256 j = owners[_tokenId].length;\n  //   while(j!=0){\n  //     temp = owners[_tokenId][i];\n  //     share = sharers[_tokenId][temp];\n  //     i++;\n  //     j--;\n  //     // mapping (uint256 => mapping(address => uint256)) internal sharers;\n  //     payable(temp).transfer(share*amount/100 * 1 ether);\n  //   }\n  // }\n\n  // function _setSharable(\n  //   uint256 _tokenId,\n  //   uint256 subscribableAmount\n  // )\n  //   internal\n  //   ifOwner(_tokenId)\n  // {\n  //   ifShared[_tokenId] = true;\n  //   leftShare[_tokenId] = 100;\n  //   _addsharers(_tokenId, msg.sender, 100-subscribableAmount);\n  // }\n\n  /*set the value of each NFT by owner*/\n  function _setValue(\n    uint256 _tokenId,\n    uint256 value\n  )\n    internal\n    ifOwner(_tokenId)\n  {\n    idToNFT[_tokenId].valueOfNFT = value;\n  }\n\n   function _setTax(\n    uint256 _tokenId,\n    uint256 _tax\n  )\n    internal\n    ifOwner(_tokenId)\n  {\n    idToNFT[_tokenId].tax = _tax;\n  }\n\n  // \n\tfunction getAddress() \n    public \n    view \n    returns (address) {\n\t\treturn address(this);\n\t}\n\n}",
  "sourcePath": "C:\\Users\\jacky\\Desktop\\BlockChainProj\\MusicNFT\\contracts\\MusicNFT.sol",
  "compiler": {
    "name": "solc",
    "version": "0.8.6+commit.11564f7e.Emscripten.clang"
  },
  "schemaVersion": "3.4.3",
  "updatedAt": "2021-11-01T11:44:59.459Z",
  "devdoc": {
    "kind": "dev",
    "methods": {
      "approve(address,uint256)": {
        "details": "Set or reaffirm the approved address for an NFT. This function can be changed to payable.",
        "params": {
          "_approved": "Address to be approved for the given NFT ID.",
          "_tokenId": "ID of the token to be approved."
        }
      },
      "balanceOf(address)": {
        "details": "Returns the number of NFTs owned by `_owner`. NFTs assigned to the zero address are considered invalid, and this function throws for queries about the zero address.",
        "params": {
          "_owner": "Address for whom to query the balance."
        },
        "returns": {
          "_0": "Balance of _owner."
        }
      },
      "constructor": {
        "details": "Contract constructor. Sets metadata extension `name` and `symbol`."
      },
      "getApproved(uint256)": {
        "details": "Get the approved address for a single NFT.",
        "params": {
          "_tokenId": "ID of the NFT to query the approval of."
        },
        "returns": {
          "_0": "Address that _tokenId is approved for."
        }
      },
      "isApprovedForAll(address,address)": {
        "details": "Checks if `_operator` is an approved operator for `_owner`.",
        "params": {
          "_operator": "The address that acts on behalf of the owner.",
          "_owner": "The address that owns the NFTs."
        },
        "returns": {
          "_0": "True if approved for all, false otherwise."
        }
      },
      "mint(address,uint256,string)": {
        "details": "Mints a new NFT.",
        "params": {
          "_to": "The address that will own the minted NFT.",
          "_tokenId": "of the NFT to be minted by the msg.sender.",
          "_uri": "String representing RFC 3986 URI."
        }
      },
      "name()": {
        "details": "Returns a descriptive name for a collection of NFTokens.",
        "returns": {
          "_name": "Representing name."
        }
      },
      "ownerOf(uint256)": {
        "details": "Returns the address of the owner of the NFT. NFTs assigned to the zero address are considered invalid, and queries about them do throw.",
        "params": {
          "_tokenId": "The identifier for an NFT."
        },
        "returns": {
          "_owner": "Address of _tokenId owner."
        }
      },
      "safeTransferFrom(address,address,uint256)": {
        "details": "Transfers the ownership of an NFT from one address to another address. This function can be changed to payable.",
        "params": {
          "_from": "The current owner of the NFT.",
          "_to": "The new owner.",
          "_tokenId": "The NFT to transfer."
        }
      },
      "safeTransferFrom(address,address,uint256,bytes)": {
        "details": "Transfers the ownership of an NFT from one address to another address. This function can be changed to payable.",
        "params": {
          "_data": "Additional data with no specified format, sent in call to `_to`.",
          "_from": "The current owner of the NFT.",
          "_to": "The new owner.",
          "_tokenId": "The NFT to transfer."
        }
      },
      "setApprovalForAll(address,bool)": {
        "details": "Enables or disables approval for a third party (\"operator\") to manage all of `msg.sender`'s assets. It also emits the ApprovalForAll event.",
        "params": {
          "_approved": "True if the operators is approved, false to revoke approval.",
          "_operator": "Address to add to the set of authorized operators."
        }
      },
      "supportsInterface(bytes4)": {
        "details": "Function to check which interfaces are suported by this contract.",
        "params": {
          "_interfaceID": "Id of the interface."
        },
        "returns": {
          "_0": "True if _interfaceID is supported, false otherwise."
        }
      },
      "symbol()": {
        "details": "Returns an abbreviated name for NFTokens.",
        "returns": {
          "_symbol": "Representing symbol."
        }
      },
      "tokenURI(uint256)": {
        "details": "A distinct URI (RFC 3986) for a given NFT.",
        "params": {
          "_tokenId": "Id for which we want uri."
        },
        "returns": {
          "_0": "URI of _tokenId."
        }
      }
    },
    "version": 1
  },
  "userdoc": {
    "kind": "user",
    "methods": {
      "addsharers(uint256,address,uint256)": {
        "notice": "NFT holder can add sharers himself without having buyer conduct a transaction"
      },
      "approve(address,uint256)": {
        "notice": "The zero address indicates there is no approved address. Throws unless `msg.sender` is the current NFT owner, or an authorized operator of the current owner."
      },
      "buyNFT(uint256)": {
        "notice": "Buy some share of a certain NFT "
      },
      "getApproved(uint256)": {
        "notice": "Throws if `_tokenId` is not a valid NFT."
      },
      "initialize(uint256,bool,uint256,uint256)": {
        "notice": "Execution Function"
      },
      "safeTransferFrom(address,address,uint256)": {
        "notice": "This works identically to the other function with an extra data parameter, except this function just sets data to \"\"."
      },
      "safeTransferFrom(address,address,uint256,bytes)": {
        "notice": "Throws unless `msg.sender` is the current owner, an authorized operator, or the approved address for this NFT. Throws if `_from` is not the current owner. Throws if `_to` is the zero address. Throws if `_tokenId` is not a valid NFT. When transfer is complete, this function checks if `_to` is a smart contract (code size > 0). If so, it calls `onERC721Received` on `_to` and throws if the return value is not `bytes4(keccak256(\"onERC721Received(address,uint256,bytes)\"))`."
      },
      "setApprovalForAll(address,bool)": {
        "notice": "This works even if sender doesn't own any tokens at the time."
      },
      "showInfoOfNFT(uint256)": {
        "notice": "View Function"
      },
      "showValue(uint256)": {
        "notice": "show the value of each NFT can be seen by everyone"
      },
      "transferFrom(address,address,uint256)": {
        "notice": "Execution Function"
      }
    },
    "version": 1
  }
}