{
  "contractName": "MusicNFT",
  "abi": [
    {
      "inputs": [],
      "stateMutability": "payable",
      "type": "constructor"
    },
    {
      "anonymous": false,
      "inputs": [
        {
          "indexed": true,
          "internalType": "address",
          "name": "_owner",
          "type": "address"
        },
        {
          "indexed": true,
          "internalType": "address",
          "name": "_approved",
          "type": "address"
        },
        {
          "indexed": true,
          "internalType": "uint256",
          "name": "_tokenId",
          "type": "uint256"
        }
      ],
      "name": "Approval",
      "type": "event"
    },
    {
      "anonymous": false,
      "inputs": [
        {
          "indexed": true,
          "internalType": "address",
          "name": "_owner",
          "type": "address"
        },
        {
          "indexed": true,
          "internalType": "address",
          "name": "_operator",
          "type": "address"
        },
        {
          "indexed": false,
          "internalType": "bool",
          "name": "_approved",
          "type": "bool"
        }
      ],
      "name": "ApprovalForAll",
      "type": "event"
    },
    {
      "anonymous": false,
      "inputs": [
        {
          "indexed": true,
          "internalType": "address",
          "name": "previousOwner",
          "type": "address"
        },
        {
          "indexed": true,
          "internalType": "address",
          "name": "newOwner",
          "type": "address"
        }
      ],
      "name": "OwnershipTransferred",
      "type": "event"
    },
    {
      "anonymous": false,
      "inputs": [
        {
          "indexed": true,
          "internalType": "address",
          "name": "_from",
          "type": "address"
        },
        {
          "indexed": true,
          "internalType": "address",
          "name": "_to",
          "type": "address"
        },
        {
          "indexed": true,
          "internalType": "uint256",
          "name": "_tokenId",
          "type": "uint256"
        }
      ],
      "name": "Transfer",
      "type": "event"
    },
    {
      "inputs": [],
      "name": "_owner",
      "outputs": [
        {
          "internalType": "address",
          "name": "",
          "type": "address"
        }
      ],
      "stateMutability": "view",
      "type": "function"
    },
    {
      "inputs": [
        {
          "internalType": "address",
          "name": "_approved",
          "type": "address"
        },
        {
          "internalType": "uint256",
          "name": "_tokenId",
          "type": "uint256"
        }
      ],
      "name": "approve",
      "outputs": [],
      "stateMutability": "nonpayable",
      "type": "function"
    },
    {
      "inputs": [
        {
          "internalType": "address",
          "name": "_owner",
          "type": "address"
        }
      ],
      "name": "balanceOf",
      "outputs": [
        {
          "internalType": "uint256",
          "name": "",
          "type": "uint256"
        }
      ],
      "stateMutability": "view",
      "type": "function"
    },
    {
      "inputs": [
        {
          "internalType": "uint256",
          "name": "_tokenId",
          "type": "uint256"
        }
      ],
      "name": "getApproved",
      "outputs": [
        {
          "internalType": "address",
          "name": "",
          "type": "address"
        }
      ],
      "stateMutability": "view",
      "type": "function"
    },
    {
      "inputs": [
        {
          "internalType": "address",
          "name": "_owner",
          "type": "address"
        },
        {
          "internalType": "address",
          "name": "_operator",
          "type": "address"
        }
      ],
      "name": "isApprovedForAll",
      "outputs": [
        {
          "internalType": "bool",
          "name": "",
          "type": "bool"
        }
      ],
      "stateMutability": "view",
      "type": "function"
    },
    {
      "inputs": [],
      "name": "name",
      "outputs": [
        {
          "internalType": "string",
          "name": "_name",
          "type": "string"
        }
      ],
      "stateMutability": "view",
      "type": "function"
    },
    {
      "inputs": [
        {
          "internalType": "uint256",
          "name": "_tokenId",
          "type": "uint256"
        }
      ],
      "name": "ownerOf",
      "outputs": [
        {
          "internalType": "address",
          "name": "_owner",
          "type": "address"
        }
      ],
      "stateMutability": "view",
      "type": "function"
    },
    {
      "inputs": [
        {
          "internalType": "address",
          "name": "_from",
          "type": "address"
        },
        {
          "internalType": "address",
          "name": "_to",
          "type": "address"
        },
        {
          "internalType": "uint256",
          "name": "_tokenId",
          "type": "uint256"
        }
      ],
      "name": "safeTransferFrom",
      "outputs": [],
      "stateMutability": "nonpayable",
      "type": "function"
    },
    {
      "inputs": [
        {
          "internalType": "address",
          "name": "_from",
          "type": "address"
        },
        {
          "internalType": "address",
          "name": "_to",
          "type": "address"
        },
        {
          "internalType": "uint256",
          "name": "_tokenId",
          "type": "uint256"
        },
        {
          "internalType": "bytes",
          "name": "_data",
          "type": "bytes"
        }
      ],
      "name": "safeTransferFrom",
      "outputs": [],
      "stateMutability": "nonpayable",
      "type": "function"
    },
    {
      "inputs": [
        {
          "internalType": "address",
          "name": "_operator",
          "type": "address"
        },
        {
          "internalType": "bool",
          "name": "_approved",
          "type": "bool"
        }
      ],
      "name": "setApprovalForAll",
      "outputs": [],
      "stateMutability": "nonpayable",
      "type": "function"
    },
    {
      "inputs": [
        {
          "internalType": "bytes4",
          "name": "_interfaceID",
          "type": "bytes4"
        }
      ],
      "name": "supportsInterface",
      "outputs": [
        {
          "internalType": "bool",
          "name": "",
          "type": "bool"
        }
      ],
      "stateMutability": "view",
      "type": "function"
    },
    {
      "inputs": [],
      "name": "symbol",
      "outputs": [
        {
          "internalType": "string",
          "name": "_symbol",
          "type": "string"
        }
      ],
      "stateMutability": "view",
      "type": "function"
    },
    {
      "inputs": [
        {
          "internalType": "uint256",
          "name": "_tokenId",
          "type": "uint256"
        }
      ],
      "name": "tokenURI",
      "outputs": [
        {
          "internalType": "string",
          "name": "",
          "type": "string"
        }
      ],
      "stateMutability": "view",
      "type": "function"
    },
    {
      "inputs": [],
      "name": "transferToContract",
      "outputs": [],
      "stateMutability": "payable",
      "type": "function"
    },
    {
      "inputs": [
        {
          "internalType": "address",
          "name": "_to",
          "type": "address"
        },
        {
          "internalType": "uint256",
          "name": "_tokenId",
          "type": "uint256"
        },
        {
          "internalType": "string",
          "name": "_uri",
          "type": "string"
        }
      ],
      "name": "mint",
      "outputs": [],
      "stateMutability": "nonpayable",
      "type": "function"
    },
    {
      "inputs": [
        {
          "internalType": "uint256",
          "name": "_tokenId",
          "type": "uint256"
        }
      ],
      "name": "showValue",
      "outputs": [
        {
          "internalType": "uint256",
          "name": "value",
          "type": "uint256"
        }
      ],
      "stateMutability": "view",
      "type": "function"
    },
    {
      "inputs": [
        {
          "internalType": "address",
          "name": "_from",
          "type": "address"
        },
        {
          "internalType": "address",
          "name": "_to",
          "type": "address"
        },
        {
          "internalType": "uint256",
          "name": "_tokenId",
          "type": "uint256"
        }
      ],
      "name": "transferFrom",
      "outputs": [],
      "stateMutability": "nonpayable",
      "type": "function"
    },
    {
      "inputs": [
        {
          "internalType": "uint256",
          "name": "_tokenId",
          "type": "uint256"
        }
      ],
      "name": "showInfoOfNFT",
      "outputs": [
        {
          "internalType": "bool",
          "name": "result",
          "type": "bool"
        },
        {
          "internalType": "uint256",
          "name": "shareLeft",
          "type": "uint256"
        },
        {
          "internalType": "uint256",
          "name": "taxToPay",
          "type": "uint256"
        },
        {
          "internalType": "uint256",
          "name": "numOfSharers",
          "type": "uint256"
        },
        {
          "internalType": "address[]",
          "name": "ownersOfNFT",
          "type": "address[]"
        },
        {
          "internalType": "uint256",
          "name": "usedTime",
          "type": "uint256"
        },
        {
          "internalType": "address[]",
          "name": "usedBy",
          "type": "address[]"
        }
      ],
      "stateMutability": "view",
      "type": "function"
    },
    {
      "inputs": [
        {
          "internalType": "uint256",
          "name": "_tokenId",
          "type": "uint256"
        }
      ],
      "name": "showMySharerOfNFT",
      "outputs": [
        {
          "internalType": "uint256",
          "name": "myshare",
          "type": "uint256"
        }
      ],
      "stateMutability": "nonpayable",
      "type": "function"
    },
    {
      "inputs": [
        {
          "internalType": "uint256",
          "name": "_tokenId",
          "type": "uint256"
        }
      ],
      "name": "showLeftShare",
      "outputs": [
        {
          "internalType": "uint256",
          "name": "left",
          "type": "uint256"
        }
      ],
      "stateMutability": "view",
      "type": "function"
    },
    {
      "inputs": [
        {
          "internalType": "uint256",
          "name": "_tokenId",
          "type": "uint256"
        }
      ],
      "name": "showNumOfSharers",
      "outputs": [
        {
          "internalType": "uint256",
          "name": "num",
          "type": "uint256"
        }
      ],
      "stateMutability": "view",
      "type": "function"
    },
    {
      "inputs": [
        {
          "internalType": "uint256",
          "name": "_tokenId",
          "type": "uint256"
        }
      ],
      "name": "showSharers",
      "outputs": [
        {
          "internalType": "address[]",
          "name": "",
          "type": "address[]"
        }
      ],
      "stateMutability": "view",
      "type": "function"
    },
    {
      "inputs": [
        {
          "internalType": "uint256",
          "name": "_tokenId",
          "type": "uint256"
        },
        {
          "internalType": "bool",
          "name": "_ifSharable",
          "type": "bool"
        },
        {
          "internalType": "uint256",
          "name": "value",
          "type": "uint256"
        },
        {
          "internalType": "uint256",
          "name": "_tax",
          "type": "uint256"
        }
      ],
      "name": "initialize",
      "outputs": [],
      "stateMutability": "nonpayable",
      "type": "function"
    },
    {
      "inputs": [
        {
          "internalType": "uint256",
          "name": "_tokenId",
          "type": "uint256"
        },
        {
          "internalType": "uint256",
          "name": "amount",
          "type": "uint256"
        }
      ],
      "name": "setSharable",
      "outputs": [],
      "stateMutability": "nonpayable",
      "type": "function"
    },
    {
      "inputs": [
        {
          "internalType": "uint256",
          "name": "_tokenId",
          "type": "uint256"
        },
        {
          "internalType": "address",
          "name": "newSharer",
          "type": "address"
        },
        {
          "internalType": "uint256",
          "name": "share",
          "type": "uint256"
        }
      ],
      "name": "addsharers",
      "outputs": [],
      "stateMutability": "nonpayable",
      "type": "function"
    },
    {
      "inputs": [
        {
          "internalType": "uint256",
          "name": "_tokenId",
          "type": "uint256"
        }
      ],
      "name": "buyNFT",
      "outputs": [
        {
          "internalType": "uint256",
          "name": "shareGot",
          "type": "uint256"
        }
      ],
      "stateMutability": "payable",
      "type": "function"
    },
    {
      "inputs": [
        {
          "internalType": "uint256",
          "name": "_tokenId",
          "type": "uint256"
        }
      ],
      "name": "sellNFT",
      "outputs": [
        {
          "internalType": "uint256",
          "name": "shareSold",
          "type": "uint256"
        }
      ],
      "stateMutability": "payable",
      "type": "function"
    },
    {
      "inputs": [
        {
          "internalType": "uint256",
          "name": "_tokenId",
          "type": "uint256"
        }
      ],
      "name": "useNFT",
      "outputs": [
        {
          "internalType": "uint256",
          "name": "cost",
          "type": "uint256"
        }
      ],
      "stateMutability": "payable",
      "type": "function"
    },
    {
      "inputs": [],
      "name": "getAddress",
      "outputs": [
        {
          "internalType": "address",
          "name": "",
          "type": "address"
        }
      ],
      "stateMutability": "view",
      "type": "function"
    }
  ],
  "bytecode": "0x608060405260016000806301ffc9a760e01b7bffffffffffffffffffffffffffffffffffffffffffffffffffffffff1916815260200190815260200160002060006101000a81548160ff02191690831515021790555060016000806380ac58cd60e01b7bffffffffffffffffffffffffffffffffffffffffffffffffffffffff1916815260200190815260200160002060006101000a81548160ff0219169083151502179055506001600080635b5e139f60e01b7bffffffffffffffffffffffffffffffffffffffffffffffffffffffff1916815260200190815260200160002060006101000a81548160ff02191690831515021790555033600860006101000a81548173ffffffffffffffffffffffffffffffffffffffff021916908373ffffffffffffffffffffffffffffffffffffffff16021790555033600960006101000a81548173ffffffffffffffffffffffffffffffffffffffff021916908373ffffffffffffffffffffffffffffffffffffffff1602179055506040518060400160405280600c81526020017f4a61636b7927732052696666000000000000000000000000000000000000000081525060059080519060200190620001c69291906200021b565b506040518060400160405280600481526020017f4a5249460000000000000000000000000000000000000000000000000000000081525060069080519060200190620002149291906200021b565b5062000330565b8280546200022990620002cb565b90600052602060002090601f0160209004810192826200024d576000855562000299565b82601f106200026857805160ff191683800117855562000299565b8280016001018555821562000299579182015b82811115620002985782518255916020019190600101906200027b565b5b509050620002a89190620002ac565b5090565b5b80821115620002c7576000816000905550600101620002ad565b5090565b60006002820490506001821680620002e457607f821691505b60208210811415620002fb57620002fa62000301565b5b50919050565b7f4e487b7100000000000000000000000000000000000000000000000000000000600052602260045260246000fd5b614dc280620003406000396000f3fe6080604052600436106101c25760003560e01c80636352211e116100f7578063b2bdfa7b11610095578063e233449711610064578063e23344971461068d578063e84f3261146106b6578063e985e9c5146106f3578063ee9cdfb314610730576101c2565b8063b2bdfa7b146105d3578063b88d4fde146105fe578063c87b56dd14610627578063d3fc986414610664576101c2565b806395d89b41116100d157806395d89b41146105195780639a721a6c14610544578063a21bf0d51461056d578063a22cb465146105aa576101c2565b80636352211e1461046257806370a082311461049f57806383f68703146104dc576101c2565b806323b872dd1161016457806342842e0e1161013e57806342842e0e1461039c57806351ed8288146103c557806355b9d443146103f557806359645dc614610425576101c2565b806323b872dd1461030557806338cc48311461032e5780633b08241914610359576101c2565b8063095ea7b3116101a0578063095ea7b31461026c57806312cccb341461029557806317fee5f91461029f5780632172d6b0146102c8576101c2565b806301ffc9a7146101c757806306fdde0314610204578063081812fc1461022f575b600080fd5b3480156101d357600080fd5b506101ee60048036038101906101e9919061410e565b610760565b6040516101fb919061459a565b60405180910390f35b34801561021057600080fd5b506102196107c7565b6040516102269190614632565b60405180910390f35b34801561023b57600080fd5b5061025660048036038101906102519190614168565b610859565b6040516102639190614511565b60405180910390f35b34801561027857600080fd5b50610293600480360381019061028e919061405a565b610974565b005b61029d610d57565b005b3480156102ab57600080fd5b506102c660048036038101906102c1919061424f565b610d59565b005b3480156102d457600080fd5b506102ef60048036038101906102ea9190614168565b610eba565b6040516102fc9190614578565b60405180910390f35b34801561031157600080fd5b5061032c60048036038101906103279190613f3f565b610f5b565b005b34801561033a57600080fd5b50610343611414565b6040516103509190614511565b60405180910390f35b34801561036557600080fd5b50610380600480360381019061037b9190614168565b61141c565b60405161039397969594939291906145b5565b60405180910390f35b3480156103a857600080fd5b506103c360048036038101906103be9190613f3f565b6115ee565b005b6103df60048036038101906103da9190614168565b61160e565b6040516103ec9190614794565b60405180910390f35b61040f600480360381019061040a9190614168565b6119c5565b60405161041c9190614794565b60405180910390f35b34801561043157600080fd5b5061044c60048036038101906104479190614168565b611d03565b6040516104599190614794565b60405180910390f35b34801561046e57600080fd5b5061048960048036038101906104849190614168565b611d20565b6040516104969190614511565b60405180910390f35b3480156104ab57600080fd5b506104c660048036038101906104c19190613ed2565b611e06565b6040516104d39190614794565b60405180910390f35b3480156104e857600080fd5b5061050360048036038101906104fe9190614168565b611ec0565b6040516105109190614794565b60405180910390f35b34801561052557600080fd5b5061052e611f1a565b60405161053b9190614632565b60405180910390f35b34801561055057600080fd5b5061056b60048036038101906105669190614195565b611fac565b005b34801561057957600080fd5b50610594600480360381019061058f9190614168565b611fbc565b6040516105a19190614794565b60405180910390f35b3480156105b657600080fd5b506105d160048036038101906105cc919061401a565b611fd9565b005b3480156105df57600080fd5b506105e86120d6565b6040516105f59190614511565b60405180910390f35b34801561060a57600080fd5b5061062560048036038101906106209190613f92565b6120fc565b005b34801561063357600080fd5b5061064e60048036038101906106499190614168565b612153565b60405161065b9190614632565b60405180910390f35b34801561067057600080fd5b5061068b6004803603810190610686919061409a565b6122d6565b005b34801561069957600080fd5b506106b460048036038101906106af91906141e8565b612429565b005b3480156106c257600080fd5b506106dd60048036038101906106d89190614168565b612576565b6040516106ea9190614794565b60405180910390f35b3480156106ff57600080fd5b5061071a60048036038101906107159190613eff565b612593565b604051610727919061459a565b60405180910390f35b61074a60048036038101906107459190614168565b612627565b6040516107579190614794565b60405180910390f35b6000806000837bffffffffffffffffffffffffffffffffffffffffffffffffffffffff19167bffffffffffffffffffffffffffffffffffffffffffffffffffffffff1916815260200190815260200160002060009054906101000a900460ff169050919050565b6060600580546107d690614a06565b80601f016020809104026020016040519081016040528092919081815260200182805461080290614a06565b801561084f5780601f106108245761010080835404028352916020019161084f565b820191906000526020600020905b81548152906001019060200180831161083257829003601f168201915b5050505050905090565b600081600073ffffffffffffffffffffffffffffffffffffffff166001600083815260200190815260200160002060009054906101000a900473ffffffffffffffffffffffffffffffffffffffff1673ffffffffffffffffffffffffffffffffffffffff1614156040518060400160405280600681526020017f303033303032000000000000000000000000000000000000000000000000000081525090610937576040517f08c379a000000000000000000000000000000000000000000000000000000000815260040161092e9190614632565b60405180910390fd5b506002600084815260200190815260200160002060009054906101000a900473ffffffffffffffffffffffffffffffffffffffff16915050919050565b8060006001600083815260200190815260200160002060009054906101000a900473ffffffffffffffffffffffffffffffffffffffff1690503373ffffffffffffffffffffffffffffffffffffffff168173ffffffffffffffffffffffffffffffffffffffff161480610a6d5750600460008273ffffffffffffffffffffffffffffffffffffffff1673ffffffffffffffffffffffffffffffffffffffff16815260200190815260200160002060003373ffffffffffffffffffffffffffffffffffffffff1673ffffffffffffffffffffffffffffffffffffffff16815260200190815260200160002060009054906101000a900460ff165b6040518060400160405280600681526020017f303033303033000000000000000000000000000000000000000000000000000081525090610ae4576040517f08c379a0000000000000000000000000000000000000000000000000000000008152600401610adb9190614632565b60405180910390fd5b5082600073ffffffffffffffffffffffffffffffffffffffff166001600083815260200190815260200160002060009054906101000a900473ffffffffffffffffffffffffffffffffffffffff1673ffffffffffffffffffffffffffffffffffffffff1614156040518060400160405280600681526020017f303033303032000000000000000000000000000000000000000000000000000081525090610bc1576040517f08c379a0000000000000000000000000000000000000000000000000000000008152600401610bb89190614632565b60405180910390fd5b5060006001600086815260200190815260200160002060009054906101000a900473ffffffffffffffffffffffffffffffffffffffff1690508073ffffffffffffffffffffffffffffffffffffffff168673ffffffffffffffffffffffffffffffffffffffff1614156040518060400160405280600681526020017f303033303038000000000000000000000000000000000000000000000000000081525090610ca1576040517f08c379a0000000000000000000000000000000000000000000000000000000008152600401610c989190614632565b60405180910390fd5b50856002600087815260200190815260200160002060006101000a81548173ffffffffffffffffffffffffffffffffffffffff021916908373ffffffffffffffffffffffffffffffffffffffff160217905550848673ffffffffffffffffffffffffffffffffffffffff168273ffffffffffffffffffffffffffffffffffffffff167f8c5be1e5ebec7d5bd14f71427d1e84f3dd0314c0f7b2291e5b200ac8c7c3b92560405160405180910390a4505050505050565b565b816001600082815260200190815260200160002060009054906101000a900473ffffffffffffffffffffffffffffffffffffffff1673ffffffffffffffffffffffffffffffffffffffff163373ffffffffffffffffffffffffffffffffffffffff1614610dfb576040517f08c379a0000000000000000000000000000000000000000000000000000000008152600401610df290614754565b60405180910390fd5b6064600f600085815260200190815260200160002081905550610e2b8333846064610e269190614901565b612b63565b60006064600a60008681526020019081526020016000205484610e4e91906148a7565b610e589190614876565b90503373ffffffffffffffffffffffffffffffffffffffff166108fc670de0b6b3a764000083610e8891906148a7565b9081150290604051600060405180830381858888f19350505050158015610eb3573d6000803e3d6000fd5b5050505050565b6060600d6000838152602001908152602001600020805480602002602001604051908101604052809291908181526020018280548015610f4f57602002820191906000526020600020905b8160009054906101000a900473ffffffffffffffffffffffffffffffffffffffff1673ffffffffffffffffffffffffffffffffffffffff1681526020019060010190808311610f05575b50505050509050919050565b8060006001600083815260200190815260200160002060009054906101000a900473ffffffffffffffffffffffffffffffffffffffff1690503373ffffffffffffffffffffffffffffffffffffffff168173ffffffffffffffffffffffffffffffffffffffff16148061102c57503373ffffffffffffffffffffffffffffffffffffffff166002600084815260200190815260200160002060009054906101000a900473ffffffffffffffffffffffffffffffffffffffff1673ffffffffffffffffffffffffffffffffffffffff16145b806110bd5750600460008273ffffffffffffffffffffffffffffffffffffffff1673ffffffffffffffffffffffffffffffffffffffff16815260200190815260200160002060003373ffffffffffffffffffffffffffffffffffffffff1673ffffffffffffffffffffffffffffffffffffffff16815260200190815260200160002060009054906101000a900460ff165b6040518060400160405280600681526020017f303033303034000000000000000000000000000000000000000000000000000081525090611134576040517f08c379a000000000000000000000000000000000000000000000000000000000815260040161112b9190614632565b60405180910390fd5b5082600073ffffffffffffffffffffffffffffffffffffffff166001600083815260200190815260200160002060009054906101000a900473ffffffffffffffffffffffffffffffffffffffff1673ffffffffffffffffffffffffffffffffffffffff1614156040518060400160405280600681526020017f303033303032000000000000000000000000000000000000000000000000000081525090611211576040517f08c379a00000000000000000000000000000000000000000000000000000000081526004016112089190614632565b60405180910390fd5b5060006001600086815260200190815260200160002060009054906101000a900473ffffffffffffffffffffffffffffffffffffffff1690508673ffffffffffffffffffffffffffffffffffffffff168173ffffffffffffffffffffffffffffffffffffffff16146040518060400160405280600681526020017f3030333030370000000000000000000000000000000000000000000000000000815250906112f0576040517f08c379a00000000000000000000000000000000000000000000000000000000081526004016112e79190614632565b60405180910390fd5b50600073ffffffffffffffffffffffffffffffffffffffff168673ffffffffffffffffffffffffffffffffffffffff1614156040518060400160405280600681526020017f303033303031000000000000000000000000000000000000000000000000000081525090611399576040517f08c379a00000000000000000000000000000000000000000000000000000000081526004016113909190614632565b60405180910390fd5b5060001515600b600087815260200190815260200160002060009054906101000a900460ff16151514611401576040517f08c379a00000000000000000000000000000000000000000000000000000000081526004016113f890614674565b60405180910390fd5b61140b8686612e37565b50505050505050565b600030905090565b600080600080606060006060600b600089815260200190815260200160002060009054906101000a900460ff16600f60008a815260200190815260200160002054601060008b815260200190815260200160002054600e60008c815260200190815260200160002054600d60008d8152602001908152602001600020601160008e815260200190815260200160002060010154601160008f81526020019081526020016000206002018280548060200260200160405190810160405280929190818152602001828054801561154657602002820191906000526020600020905b8160009054906101000a900473ffffffffffffffffffffffffffffffffffffffff1673ffffffffffffffffffffffffffffffffffffffff16815260200190600101908083116114fc575b50505050509250808054806020026020016040519081016040528092919081815260200182805480156115ce57602002820191906000526020600020905b8160009054906101000a900473ffffffffffffffffffffffffffffffffffffffff1673ffffffffffffffffffffffffffffffffffffffff1681526020019060010190808311611584575b505050505090509650965096509650965096509650919395979092949650565b61160983838360405180602001604052806000815250612eec565b505050565b600080670de0b6b3a7640000346116259190614876565b9050611630836134ba565b61166f576040517f08c379a000000000000000000000000000000000000000000000000000000000815260040161166690614714565b60405180910390fd5b6000600f600085815260200190815260200160002054116116c5576040517f08c379a00000000000000000000000000000000000000000000000000000000081526004016116bc90614694565b60405180910390fd5b6064600a6000858152602001908152602001600020546116e59190614876565b811015611727576040517f08c379a000000000000000000000000000000000000000000000000000000000815260040161171e90614774565b60405180910390fd5b6064600f600085815260200190815260200160002054600a60008681526020019081526020016000205461175b91906148a7565b6117659190614876565b8111156117a7576040517f08c379a000000000000000000000000000000000000000000000000000000000815260040161179e90614734565b60405180910390fd5b600a6000848152602001908152602001600020546064826117c891906148a7565b6117d29190614876565b915081600f6000858152602001908152602001600020546117f39190614901565b600f6000858152602001908152602001600020819055506000600c600085815260200190815260200160002060003373ffffffffffffffffffffffffffffffffffffffff1673ffffffffffffffffffffffffffffffffffffffff16815260200190815260200160002054141561190f576001600e6000858152602001908152602001600020546118839190614820565b600e600085815260200190815260200160002081905550600d6000848152602001908152602001600020339080600181540180825580915050600190039060005260206000200160009091909190916101000a81548173ffffffffffffffffffffffffffffffffffffffff021916908373ffffffffffffffffffffffffffffffffffffffff1602179055505b81600c600085815260200190815260200160002060003373ffffffffffffffffffffffffffffffffffffffff1673ffffffffffffffffffffffffffffffffffffffff1681526020019081526020016000205461196b9190614820565b600c600085815260200190815260200160002060003373ffffffffffffffffffffffffffffffffffffffff1673ffffffffffffffffffffffffffffffffffffffff1681526020019081526020016000208190555050919050565b6000816011600084815260200190815260200160002060000181905550601160008381526020019081526020016000206001016000815480929190611a0990614a38565b919050555060116000838152602001908152602001600020600201339080600181540180825580915050600190039060005260206000200160009091909190916101000a81548173ffffffffffffffffffffffffffffffffffffffff021916908373ffffffffffffffffffffffffffffffffffffffff16021790555060009050600080600d600085815260200190815260200160002080549050905060005b60008214611b6257600d60008681526020019081526020016000208381548110611ad557611ad4614b3d565b5b9060005260206000200160009054906101000a900473ffffffffffffffffffffffffffffffffffffffff1673ffffffffffffffffffffffffffffffffffffffff163373ffffffffffffffffffffffffffffffffffffffff161415611b40576001905060009150611b5d565b8280611b4b90614a38565b9350508180611b59906149dc565b9250505b611aa8565b6000806000808015158515151415611cf757601060008a8152602001908152602001600020549750600d60008a81526020019081526020016000208054905090505b60008114611cf657600d60008a81526020019081526020016000208281548110611bd157611bd0614b3d565b5b9060005260206000200160009054906101000a900473ffffffffffffffffffffffffffffffffffffffff169350600c60008a815260200190815260200160002060008573ffffffffffffffffffffffffffffffffffffffff1673ffffffffffffffffffffffffffffffffffffffff1681526020019081526020016000205492508180611c5c90614a38565b9250508080611c6a906149dc565b9150508373ffffffffffffffffffffffffffffffffffffffff166108fc670de0b6b3a76400006064601060008e81526020019081526020016000205487611cb191906148a7565b611cbb9190614876565b611cc591906148a7565b9081150290604051600060405180830381858888f19350505050158015611cf0573d6000803e3d6000fd5b50611ba4565b5b50505050505050919050565b6000600f6000838152602001908152602001600020549050919050565b60006001600083815260200190815260200160002060009054906101000a900473ffffffffffffffffffffffffffffffffffffffff169050600073ffffffffffffffffffffffffffffffffffffffff168173ffffffffffffffffffffffffffffffffffffffff1614156040518060400160405280600681526020017f303033303032000000000000000000000000000000000000000000000000000081525090611e00576040517f08c379a0000000000000000000000000000000000000000000000000000000008152600401611df79190614632565b60405180910390fd5b50919050565b60008073ffffffffffffffffffffffffffffffffffffffff168273ffffffffffffffffffffffffffffffffffffffff1614156040518060400160405280600681526020017f303033303031000000000000000000000000000000000000000000000000000081525090611eaf576040517f08c379a0000000000000000000000000000000000000000000000000000000008152600401611ea69190614632565b60405180910390fd5b50611eb9826134e4565b9050919050565b6000600c600083815260200190815260200160002060003373ffffffffffffffffffffffffffffffffffffffff1673ffffffffffffffffffffffffffffffffffffffff168152602001908152602001600020549050919050565b606060068054611f2990614a06565b80601f0160208091040260200160405190810160405280929190818152602001828054611f5590614a06565b8015611fa25780601f10611f7757610100808354040283529160200191611fa2565b820191906000526020600020905b815481529060010190602001808311611f8557829003601f168201915b5050505050905090565b611fb7838383612b63565b505050565b6000600a6000838152602001908152602001600020549050919050565b80600460003373ffffffffffffffffffffffffffffffffffffffff1673ffffffffffffffffffffffffffffffffffffffff16815260200190815260200160002060008473ffffffffffffffffffffffffffffffffffffffff1673ffffffffffffffffffffffffffffffffffffffff16815260200190815260200160002060006101000a81548160ff0219169083151502179055508173ffffffffffffffffffffffffffffffffffffffff163373ffffffffffffffffffffffffffffffffffffffff167f17307eab39ab6107e8899845ad3d59bd9653f200f220920489ca2b5937696c31836040516120ca919061459a565b60405180910390a35050565b600960009054906101000a900473ffffffffffffffffffffffffffffffffffffffff1681565b61214c85858585858080601f016020809104026020016040519081016040528093929190818152602001838380828437600081840152601f19601f82011690508083019250505050505050612eec565b5050505050565b606081600073ffffffffffffffffffffffffffffffffffffffff166001600083815260200190815260200160002060009054906101000a900473ffffffffffffffffffffffffffffffffffffffff1673ffffffffffffffffffffffffffffffffffffffff1614156040518060400160405280600681526020017f303033303032000000000000000000000000000000000000000000000000000081525090612231576040517f08c379a00000000000000000000000000000000000000000000000000000000081526004016122289190614632565b60405180910390fd5b5060076000848152602001908152602001600020805461225090614a06565b80601f016020809104026020016040519081016040528092919081815260200182805461227c90614a06565b80156122c95780601f1061229e576101008083540402835291602001916122c9565b820191906000526020600020905b8154815290600101906020018083116122ac57829003601f168201915b5050505050915050919050565b600860009054906101000a900473ffffffffffffffffffffffffffffffffffffffff1673ffffffffffffffffffffffffffffffffffffffff163373ffffffffffffffffffffffffffffffffffffffff16146040518060400160405280600681526020017f30313830303100000000000000000000000000000000000000000000000000008152509061239e576040517f08c379a00000000000000000000000000000000000000000000000000000000081526004016123959190614632565b60405180910390fd5b506123a9848461352d565b6123f78383838080601f016020809104026020016040519081016040528093929190818152602001838380828437600081840152601f19601f8201169050808301925050505050505061371b565b6000600b600085815260200190815260200160002060006101000a81548160ff02191690831515021790555050505050565b836001600082815260200190815260200160002060009054906101000a900473ffffffffffffffffffffffffffffffffffffffff1673ffffffffffffffffffffffffffffffffffffffff163373ffffffffffffffffffffffffffffffffffffffff16146124cb576040517f08c379a00000000000000000000000000000000000000000000000000000000081526004016124c290614754565b60405180910390fd5b600115158415151415612513576001600b600087815260200190815260200160002060006101000a81548160ff02191690831515021790555061250e8583613825565b612565565b6000600b600087815260200190815260200160002060006101000a81548160ff0219169083151502179055506064600f60008781526020019081526020016000208190555061256485336064612b63565b5b61256f85846138e4565b5050505050565b6000600e6000838152602001908152602001600020549050919050565b6000600460008473ffffffffffffffffffffffffffffffffffffffff1673ffffffffffffffffffffffffffffffffffffffff16815260200190815260200160002060008373ffffffffffffffffffffffffffffffffffffffff1673ffffffffffffffffffffffffffffffffffffffff16815260200190815260200160002060009054906101000a900460ff16905092915050565b600080670de0b6b3a76400003461263e9190614876565b90506064600a6000858152602001908152602001600020546126609190614876565b8110156126a2576040517f08c379a0000000000000000000000000000000000000000000000000000000008152600401612699906146d4565b60405180910390fd5b6064600c600085815260200190815260200160002060003373ffffffffffffffffffffffffffffffffffffffff1673ffffffffffffffffffffffffffffffffffffffff16815260200190815260200160002054600a60008681526020019081526020016000205461271391906148a7565b61271d9190614876565b81111561275f576040517f08c379a0000000000000000000000000000000000000000000000000000000008152600401612756906146f4565b60405180910390fd5b600a60008481526020019081526020016000205460648261278091906148a7565b61278a9190614876565b915081600f6000858152602001908152602001600020546127ab9190614820565b600f6000858152602001908152602001600020819055506064600c600085815260200190815260200160002060003373ffffffffffffffffffffffffffffffffffffffff1673ffffffffffffffffffffffffffffffffffffffff16815260200190815260200160002054600a60008681526020019081526020016000205461283391906148a7565b61283d9190614876565b811415612a66576001600e6000858152602001908152602001600020546128649190614901565b600e60008581526020019081526020016000208190555060005b3373ffffffffffffffffffffffffffffffffffffffff16600d600086815260200190815260200160002082806128b390614a38565b9350815481106128c6576128c5614b3d565b5b9060005260206000200160009054906101000a900473ffffffffffffffffffffffffffffffffffffffff1673ffffffffffffffffffffffffffffffffffffffff16146129115761287e565b5b600d600085815260200190815260200160002080549050811015612a0c57600d6000858152602001908152602001600020818154811061295557612954614b3d565b5b9060005260206000200160009054906101000a900473ffffffffffffffffffffffffffffffffffffffff16600d60008681526020019081526020016000206001836129a09190614901565b815481106129b1576129b0614b3d565b5b9060005260206000200160006101000a81548173ffffffffffffffffffffffffffffffffffffffff021916908373ffffffffffffffffffffffffffffffffffffffff1602179055508080612a0490614a38565b915050612912565b600d6000858152602001908152602001600020805480612a2f57612a2e614b0e565b5b6001900381819060005260206000200160006101000a81549073ffffffffffffffffffffffffffffffffffffffff02191690559055505b81600c600085815260200190815260200160002060003373ffffffffffffffffffffffffffffffffffffffff1673ffffffffffffffffffffffffffffffffffffffff16815260200190815260200160002054612ac29190614901565b600c600085815260200190815260200160002060003373ffffffffffffffffffffffffffffffffffffffff1673ffffffffffffffffffffffffffffffffffffffff168152602001908152602001600020819055503373ffffffffffffffffffffffffffffffffffffffff166108fc349081150290604051600060405180830381858888f19350505050158015612b5c573d6000803e3d6000fd5b5050919050565b826001600082815260200190815260200160002060009054906101000a900473ffffffffffffffffffffffffffffffffffffffff1673ffffffffffffffffffffffffffffffffffffffff163373ffffffffffffffffffffffffffffffffffffffff1614612c05576040517f08c379a0000000000000000000000000000000000000000000000000000000008152600401612bfc90614754565b60405180910390fd5b6000600c600086815260200190815260200160002060008573ffffffffffffffffffffffffffffffffffffffff1673ffffffffffffffffffffffffffffffffffffffff1681526020019081526020016000205414612c98576040517f08c379a0000000000000000000000000000000000000000000000000000000008152600401612c8f90614654565b60405180910390fd5b60018210158015612cbc5750600f6000858152602001908152602001600020548211155b612cfb576040517f08c379a0000000000000000000000000000000000000000000000000000000008152600401612cf2906146b4565b60405180910390fd5b6001600e600086815260200190815260200160002054612d1b9190614820565b600e60008681526020019081526020016000208190555081600c600086815260200190815260200160002060008573ffffffffffffffffffffffffffffffffffffffff1673ffffffffffffffffffffffffffffffffffffffff1681526020019081526020016000208190555081600f600086815260200190815260200160002054612da69190614901565b600f600086815260200190815260200160002081905550600d6000858152602001908152602001600020339080600181540180825580915050600190039060005260206000200160009091909190916101000a81548173ffffffffffffffffffffffffffffffffffffffff021916908373ffffffffffffffffffffffffffffffffffffffff16021790555050505050565b60006001600083815260200190815260200160002060009054906101000a900473ffffffffffffffffffffffffffffffffffffffff169050612e78826139a3565b612e8281836139dc565b612e8c8383613b47565b818373ffffffffffffffffffffffffffffffffffffffff168273ffffffffffffffffffffffffffffffffffffffff167fddf252ad1be2c89b69c2b068fc378daa952ba7f163c4a11628f55a4df523b3ef60405160405180910390a4505050565b8160006001600083815260200190815260200160002060009054906101000a900473ffffffffffffffffffffffffffffffffffffffff1690503373ffffffffffffffffffffffffffffffffffffffff168173ffffffffffffffffffffffffffffffffffffffff161480612fbd57503373ffffffffffffffffffffffffffffffffffffffff166002600084815260200190815260200160002060009054906101000a900473ffffffffffffffffffffffffffffffffffffffff1673ffffffffffffffffffffffffffffffffffffffff16145b8061304e5750600460008273ffffffffffffffffffffffffffffffffffffffff1673ffffffffffffffffffffffffffffffffffffffff16815260200190815260200160002060003373ffffffffffffffffffffffffffffffffffffffff1673ffffffffffffffffffffffffffffffffffffffff16815260200190815260200160002060009054906101000a900460ff165b6040518060400160405280600681526020017f3030333030340000000000000000000000000000000000000000000000000000815250906130c5576040517f08c379a00000000000000000000000000000000000000000000000000000000081526004016130bc9190614632565b60405180910390fd5b5083600073ffffffffffffffffffffffffffffffffffffffff166001600083815260200190815260200160002060009054906101000a900473ffffffffffffffffffffffffffffffffffffffff1673ffffffffffffffffffffffffffffffffffffffff1614156040518060400160405280600681526020017f3030333030320000000000000000000000000000000000000000000000000000815250906131a2576040517f08c379a00000000000000000000000000000000000000000000000000000000081526004016131999190614632565b60405180910390fd5b5060006001600087815260200190815260200160002060009054906101000a900473ffffffffffffffffffffffffffffffffffffffff1690508773ffffffffffffffffffffffffffffffffffffffff168173ffffffffffffffffffffffffffffffffffffffff16146040518060400160405280600681526020017f303033303037000000000000000000000000000000000000000000000000000081525090613281576040517f08c379a00000000000000000000000000000000000000000000000000000000081526004016132789190614632565b60405180910390fd5b50600073ffffffffffffffffffffffffffffffffffffffff168773ffffffffffffffffffffffffffffffffffffffff1614156040518060400160405280600681526020017f30303330303100000000000000000000000000000000000000000000000000008152509061332a576040517f08c379a00000000000000000000000000000000000000000000000000000000081526004016133219190614632565b60405180910390fd5b506133358787612e37565b6133548773ffffffffffffffffffffffffffffffffffffffff16613ccf565b156134b05760008773ffffffffffffffffffffffffffffffffffffffff1663150b7a02338b8a8a6040518563ffffffff1660e01b815260040161339a949392919061452c565b602060405180830381600087803b1580156133b457600080fd5b505af11580156133c8573d6000803e3d6000fd5b505050506040513d601f19601f820116820180604052508101906133ec919061413b565b905063150b7a0260e01b7bffffffffffffffffffffffffffffffffffffffffffffffffffffffff1916817bffffffffffffffffffffffffffffffffffffffffffffffffffffffff1916146040518060400160405280600681526020017f3030333030350000000000000000000000000000000000000000000000000000815250906134ad576040517f08c379a00000000000000000000000000000000000000000000000000000000081526004016134a49190614632565b60405180910390fd5b50505b5050505050505050565b6000600b600083815260200190815260200160002060009054906101000a900460ff169050919050565b6000600360008373ffffffffffffffffffffffffffffffffffffffff1673ffffffffffffffffffffffffffffffffffffffff168152602001908152602001600020549050919050565b600073ffffffffffffffffffffffffffffffffffffffff168273ffffffffffffffffffffffffffffffffffffffff1614156040518060400160405280600681526020017f3030333030310000000000000000000000000000000000000000000000000000815250906135d5576040517f08c379a00000000000000000000000000000000000000000000000000000000081526004016135cc9190614632565b60405180910390fd5b50600073ffffffffffffffffffffffffffffffffffffffff166001600083815260200190815260200160002060009054906101000a900473ffffffffffffffffffffffffffffffffffffffff1673ffffffffffffffffffffffffffffffffffffffff16146040518060400160405280600681526020017f3030333030360000000000000000000000000000000000000000000000000000815250906136b0576040517f08c379a00000000000000000000000000000000000000000000000000000000081526004016136a79190614632565b60405180910390fd5b506136bb8282613b47565b808273ffffffffffffffffffffffffffffffffffffffff16600073ffffffffffffffffffffffffffffffffffffffff167fddf252ad1be2c89b69c2b068fc378daa952ba7f163c4a11628f55a4df523b3ef60405160405180910390a45050565b81600073ffffffffffffffffffffffffffffffffffffffff166001600083815260200190815260200160002060009054906101000a900473ffffffffffffffffffffffffffffffffffffffff1673ffffffffffffffffffffffffffffffffffffffff1614156040518060400160405280600681526020017f3030333030320000000000000000000000000000000000000000000000000000815250906137f7576040517f08c379a00000000000000000000000000000000000000000000000000000000081526004016137ee9190614632565b60405180910390fd5b508160076000858152602001908152602001600020908051906020019061381f929190613d1a565b50505050565b816001600082815260200190815260200160002060009054906101000a900473ffffffffffffffffffffffffffffffffffffffff1673ffffffffffffffffffffffffffffffffffffffff163373ffffffffffffffffffffffffffffffffffffffff16146138c7576040517f08c379a00000000000000000000000000000000000000000000000000000000081526004016138be90614754565b60405180910390fd5b816010600085815260200190815260200160002081905550505050565b816001600082815260200190815260200160002060009054906101000a900473ffffffffffffffffffffffffffffffffffffffff1673ffffffffffffffffffffffffffffffffffffffff163373ffffffffffffffffffffffffffffffffffffffff1614613986576040517f08c379a000000000000000000000000000000000000000000000000000000000815260040161397d90614754565b60405180910390fd5b81600a600085815260200190815260200160002081905550505050565b6002600082815260200190815260200160002060006101000a81549073ffffffffffffffffffffffffffffffffffffffff021916905550565b8173ffffffffffffffffffffffffffffffffffffffff166001600083815260200190815260200160002060009054906101000a900473ffffffffffffffffffffffffffffffffffffffff1673ffffffffffffffffffffffffffffffffffffffff16146040518060400160405280600681526020017f303033303037000000000000000000000000000000000000000000000000000081525090613ab5576040517f08c379a0000000000000000000000000000000000000000000000000000000008152600401613aac9190614632565b60405180910390fd5b506001600360008473ffffffffffffffffffffffffffffffffffffffff1673ffffffffffffffffffffffffffffffffffffffff1681526020019081526020016000206000828254613b069190614901565b925050819055506001600082815260200190815260200160002060006101000a81549073ffffffffffffffffffffffffffffffffffffffff02191690555050565b600073ffffffffffffffffffffffffffffffffffffffff166001600083815260200190815260200160002060009054906101000a900473ffffffffffffffffffffffffffffffffffffffff1673ffffffffffffffffffffffffffffffffffffffff16146040518060400160405280600681526020017f303033303036000000000000000000000000000000000000000000000000000081525090613c21576040517f08c379a0000000000000000000000000000000000000000000000000000000008152600401613c189190614632565b60405180910390fd5b50816001600083815260200190815260200160002060006101000a81548173ffffffffffffffffffffffffffffffffffffffff021916908373ffffffffffffffffffffffffffffffffffffffff1602179055506001600360008473ffffffffffffffffffffffffffffffffffffffff1673ffffffffffffffffffffffffffffffffffffffff1681526020019081526020016000206000828254613cc49190614820565b925050819055505050565b60008060007fc5d2460186f7233c927e7db2dcc703c0e500b653ca82273b7bfad8045d85a47060001b9050833f91506000801b8214158015613d115750808214155b92505050919050565b828054613d2690614a06565b90600052602060002090601f016020900481019282613d485760008555613d8f565b82601f10613d6157805160ff1916838001178555613d8f565b82800160010185558215613d8f579182015b82811115613d8e578251825591602001919060010190613d73565b5b509050613d9c9190613da0565b5090565b5b80821115613db9576000816000905550600101613da1565b5090565b600081359050613dcc81614d30565b92915050565b600081359050613de181614d47565b92915050565b600081359050613df681614d5e565b92915050565b600081519050613e0b81614d5e565b92915050565b60008083601f840112613e2757613e26614b71565b5b8235905067ffffffffffffffff811115613e4457613e43614b6c565b5b602083019150836001820283011115613e6057613e5f614b76565b5b9250929050565b60008083601f840112613e7d57613e7c614b71565b5b8235905067ffffffffffffffff811115613e9a57613e99614b6c565b5b602083019150836001820283011115613eb657613eb5614b76565b5b9250929050565b600081359050613ecc81614d75565b92915050565b600060208284031215613ee857613ee7614b80565b5b6000613ef684828501613dbd565b91505092915050565b60008060408385031215613f1657613f15614b80565b5b6000613f2485828601613dbd565b9250506020613f3585828601613dbd565b9150509250929050565b600080600060608486031215613f5857613f57614b80565b5b6000613f6686828701613dbd565b9350506020613f7786828701613dbd565b9250506040613f8886828701613ebd565b9150509250925092565b600080600080600060808688031215613fae57613fad614b80565b5b6000613fbc88828901613dbd565b9550506020613fcd88828901613dbd565b9450506040613fde88828901613ebd565b935050606086013567ffffffffffffffff811115613fff57613ffe614b7b565b5b61400b88828901613e11565b92509250509295509295909350565b6000806040838503121561403157614030614b80565b5b600061403f85828601613dbd565b925050602061405085828601613dd2565b9150509250929050565b6000806040838503121561407157614070614b80565b5b600061407f85828601613dbd565b925050602061409085828601613ebd565b9150509250929050565b600080600080606085870312156140b4576140b3614b80565b5b60006140c287828801613dbd565b94505060206140d387828801613ebd565b935050604085013567ffffffffffffffff8111156140f4576140f3614b7b565b5b61410087828801613e67565b925092505092959194509250565b60006020828403121561412457614123614b80565b5b600061413284828501613de7565b91505092915050565b60006020828403121561415157614150614b80565b5b600061415f84828501613dfc565b91505092915050565b60006020828403121561417e5761417d614b80565b5b600061418c84828501613ebd565b91505092915050565b6000806000606084860312156141ae576141ad614b80565b5b60006141bc86828701613ebd565b93505060206141cd86828701613dbd565b92505060406141de86828701613ebd565b9150509250925092565b6000806000806080858703121561420257614201614b80565b5b600061421087828801613ebd565b945050602061422187828801613dd2565b935050604061423287828801613ebd565b925050606061424387828801613ebd565b91505092959194509250565b6000806040838503121561426657614265614b80565b5b600061427485828601613ebd565b925050602061428585828601613ebd565b9150509250929050565b600061429b83836142a7565b60208301905092915050565b6142b081614935565b82525050565b6142bf81614935565b82525050565b60006142d0826147bf565b6142da81856147ed565b93506142e5836147af565b8060005b838110156143165781516142fd888261428f565b9750614308836147e0565b9250506001810190506142e9565b5085935050505092915050565b61432c81614947565b82525050565b600061433d826147ca565b61434781856147fe565b93506143578185602086016149a9565b61436081614b85565b840191505092915050565b6000614376826147d5565b614380818561480f565b93506143908185602086016149a9565b61439981614b85565b840191505092915050565b60006143b160108361480f565b91506143bc82614b96565b602082019050919050565b60006143d4600f8361480f565b91506143df82614bbf565b602082019050919050565b60006143f760128361480f565b915061440282614be8565b602082019050919050565b600061441a600d8361480f565b915061442582614c11565b602082019050919050565b600061443d60158361480f565b915061444882614c3a565b602082019050919050565b6000614460601a8361480f565b915061446b82614c63565b602082019050919050565b600061448360108361480f565b915061448e82614c8c565b602082019050919050565b60006144a6600e8361480f565b91506144b182614cb5565b602082019050919050565b60006144c960148361480f565b91506144d482614cde565b602082019050919050565b60006144ec60148361480f565b91506144f782614d07565b602082019050919050565b61450b8161499f565b82525050565b600060208201905061452660008301846142b6565b92915050565b600060808201905061454160008301876142b6565b61454e60208301866142b6565b61455b6040830185614502565b818103606083015261456d8184614332565b905095945050505050565b6000602082019050818103600083015261459281846142c5565b905092915050565b60006020820190506145af6000830184614323565b92915050565b600060e0820190506145ca600083018a614323565b6145d76020830189614502565b6145e46040830188614502565b6145f16060830187614502565b818103608083015261460381866142c5565b905061461260a0830185614502565b81810360c083015261462481846142c5565b905098975050505050505050565b6000602082019050818103600083015261464c818461436b565b905092915050565b6000602082019050818103600083015261466d816143a4565b9050919050565b6000602082019050818103600083015261468d816143c7565b9050919050565b600060208201905081810360008301526146ad816143ea565b9050919050565b600060208201905081810360008301526146cd8161440d565b9050919050565b600060208201905081810360008301526146ed81614430565b9050919050565b6000602082019050818103600083015261470d81614453565b9050919050565b6000602082019050818103600083015261472d81614476565b9050919050565b6000602082019050818103600083015261474d81614499565b9050919050565b6000602082019050818103600083015261476d816144bc565b9050919050565b6000602082019050818103600083015261478d816144df565b9050919050565b60006020820190506147a96000830184614502565b92915050565b6000819050602082019050919050565b600081519050919050565b600081519050919050565b600081519050919050565b6000602082019050919050565b600082825260208201905092915050565b600082825260208201905092915050565b600082825260208201905092915050565b600061482b8261499f565b91506148368361499f565b9250827fffffffffffffffffffffffffffffffffffffffffffffffffffffffffffffffff0382111561486b5761486a614a81565b5b828201905092915050565b60006148818261499f565b915061488c8361499f565b92508261489c5761489b614ab0565b5b828204905092915050565b60006148b28261499f565b91506148bd8361499f565b9250817fffffffffffffffffffffffffffffffffffffffffffffffffffffffffffffffff04831182151516156148f6576148f5614a81565b5b828202905092915050565b600061490c8261499f565b91506149178361499f565b92508282101561492a57614929614a81565b5b828203905092915050565b60006149408261497f565b9050919050565b60008115159050919050565b60007fffffffff0000000000000000000000000000000000000000000000000000000082169050919050565b600073ffffffffffffffffffffffffffffffffffffffff82169050919050565b6000819050919050565b60005b838110156149c75780820151818401526020810190506149ac565b838111156149d6576000848401525b50505050565b60006149e78261499f565b915060008214156149fb576149fa614a81565b5b600182039050919050565b60006002820490506001821680614a1e57607f821691505b60208210811415614a3257614a31614adf565b5b50919050565b6000614a438261499f565b91507fffffffffffffffffffffffffffffffffffffffffffffffffffffffffffffffff821415614a7657614a75614a81565b5b600182019050919050565b7f4e487b7100000000000000000000000000000000000000000000000000000000600052601160045260246000fd5b7f4e487b7100000000000000000000000000000000000000000000000000000000600052601260045260246000fd5b7f4e487b7100000000000000000000000000000000000000000000000000000000600052602260045260246000fd5b7f4e487b7100000000000000000000000000000000000000000000000000000000600052603160045260246000fd5b7f4e487b7100000000000000000000000000000000000000000000000000000000600052603260045260246000fd5b600080fd5b600080fd5b600080fd5b600080fd5b600080fd5b6000601f19601f8301169050919050565b7f414c52454144595f415f53484152455200000000000000000000000000000000600082015250565b7f4e46545f4245454e5f5354414b45440000000000000000000000000000000000600082015250565b7f4e46545f53484152455f534f4c445f4f55540000000000000000000000000000600082015250565b7f53484152455f494e56414c494400000000000000000000000000000000000000600082015250565b7f4e4f545f454e4f5547485f544f5f53454c4c5f31250000000000000000000000600082015250565b7f544f4f5f4d5543485f4d4f4e45595f544f5f53454c4c5f414c4c000000000000600082015250565b7f4e46545f4e4f545f5348415241424c4500000000000000000000000000000000600082015250565b7f544f4f5f4d5543485f4d4f4e4559000000000000000000000000000000000000600082015250565b7f4e4f545f5448455f4f574e45525f4f465f4e4654000000000000000000000000600082015250565b7f4e4f545f454e4f5547485f544f5f4255595f3125000000000000000000000000600082015250565b614d3981614935565b8114614d4457600080fd5b50565b614d5081614947565b8114614d5b57600080fd5b50565b614d6781614953565b8114614d7257600080fd5b50565b614d7e8161499f565b8114614d8957600080fd5b5056fea2646970667358221220ab80a31d39070da5aff55d33a0282fe1eae848e2ea36699f65f82265a8a278c564736f6c63430008060033",
  "immutableReferences": {},
  "source": "// SPDX-License-Identifier: MIT\npragma solidity ^0.8.0;\n\nimport \"./tokens/nf-token-metadata.sol\";\nimport \"./ownership/ownable.sol\";\n\n\ncontract MusicNFT is\n  NFTokenMetadata,\n  Ownable\n{\n\n  address public _owner;  // ()\n\n  /**\n   * @dev Contract constructor. Sets metadata extension `name` and `symbol`.\n   */\n  constructor() payable\n  {\n    _owner = msg.sender;\n    nftName = \"Jacky's Riff\";\n    nftSymbol = \"JRIF\";\n  }\n\n  function transferToContract()\n    external\n    payable\n  {}\n\n  /**\n   * @dev Mints a new NFT.\n   * @param _to The address that will own the minted NFT.\n   * @param _tokenId of the NFT to be minted by the msg.sender.\n   * @param _uri String representing RFC 3986 URI.\n   */\n  function mint(\n    address _to,\n    uint256 _tokenId,\n    string calldata _uri\n  )\n    external\n    onlyOwner()\n  {\n    super._mint(_to, _tokenId);\n    super._setTokenUri(_tokenId, _uri);\n    ifShared[_tokenId] = false;\n  }\n\n/*************************************************************************************************************************/\n  /**\n   *Basic data structure\n   *Would be better if it's in a struct\n   */\n  mapping (uint256 => uint256) internal valueOfNFT;\n\n  mapping (uint256 => bool) internal ifShared;//if a token is shared, it is also not transactable\n\n  mapping (uint256 => mapping(address => uint256)) internal sharers;///each sharers of an NFT has a certain amount of share\n\n  mapping (uint256 => address []) internal owners;//each NFT has some sharers\n\n  mapping (uint256 => uint256) internal sharersCount;//number of sharers in each mapping ( address => uint256)\n\n  mapping (uint256 => uint256) internal leftShare;//amount of an NFT's share having been held\n\n  mapping (uint256 => uint256) internal tax;//user need to pay if they want a use of an NFT\n\n  struct MusicUseInstance{\n    uint256 tokenId;\n    uint256 timeOfUse;\n    address[] user;\n  }\n\n  mapping (uint256 => MusicUseInstance) internal useOfNFT;\n\n\n/*************************************************************************************************************************/\n  /**\n   *Modifier\n   */\n  modifier ifOwner(uint256 _tokenId){\n    require(msg.sender == idToOwner[_tokenId],\"NOT_THE_OWNER_OF_NFT\");\n    _;\n  }\n\n/*************************************************************************************************************************/\n  /**\n   *Basic transaction\n   */\n\n   /**\n   *View Function\n   */\n\n   /**show the value of each NFT\n    *can be seen by everyone\n    */\n  function showValue (\n    uint256 _tokenId\n  )\n    external\n    view\n    returns(uint256 value)\n  {\n    value = valueOfNFT[_tokenId];\n  }\n\n/*************************************************************************************************************************/\n  /**\n   *Execution Function\n   */\n\n\n  function transferFrom(\n    address _from,\n    address _to,\n    uint256 _tokenId\n  )\n    external\n    override\n    canTransfer(_tokenId)\n    validNFToken(_tokenId)\n  {\n    address tokenOwner = idToOwner[_tokenId];\n    require(tokenOwner == _from, NOT_OWNER);\n    require(_to != address(0), ZERO_ADDRESS);\n    require(ifShared[_tokenId] == false,\"NFT_BEEN_STAKED\");\n\n    _transfer(_to, _tokenId);\n  }\n/*************************************************************************************************************************/\n  /**\n   *Advanced transcation\n   */\n  \n  /**\n   *View Function\n   */\n\n  /*show all the information of an NFT*/\n  function showInfoOfNFT(\n    uint256 _tokenId\n  )\n    public\n    view\n    returns(bool result,\n    uint256 shareLeft,\n    uint256 taxToPay,\n    uint256 numOfSharers,\n    address[] memory ownersOfNFT,\n    uint256 usedTime,\n    address[] memory usedBy)\n  {\n    return(ifShared[_tokenId],\n    leftShare[_tokenId],\n    tax[_tokenId],\n    sharersCount[_tokenId],\n    owners[_tokenId],\n    useOfNFT[_tokenId].timeOfUse,\n    useOfNFT[_tokenId].user);\n  }\n\n\n  /*show the sharability of NFT*/\n  function ifSharable(\n    uint256 _tokenId\n  )\n    internal\n    view\n    returns(bool result)\n  {\n    result = ifShared[_tokenId];\n  }\n\n  function showMySharerOfNFT(\n    uint256 _tokenId\n  )\n    external\n    returns (uint256 myshare)\n  {\n    myshare = sharers[_tokenId][msg.sender];\n  }\n\n\n  function showLeftShare(\n    uint256 _tokenId\n  )\n    external\n    view\n    returns(uint256 left)\n  {\n    left = leftShare[_tokenId];\n  }\n\n  function showNumOfSharers(\n    uint256 _tokenId\n  )\n    external\n    view\n    returns(uint256 num)\n  {\n    num = sharersCount[_tokenId];\n  }\n\n  function showSharers(\n    uint256 _tokenId\n  )\n    external\n    view\n    returns (address[] memory)\n  {\n    return owners[_tokenId];\n  }\n\n  // function showInfoOfNFT1 (\n  //   uint256 _tokenId\n  // )\n  //   external\n  //   view\n  //   returns(uint256, address[] memory)\n  // {\n  //   return(useOfNFT[_tokenId].timeOfUse, useOfNFT[_tokenId].user);\n  // }\n/*************************************************************************************************************************/\n  /**\n   *Execution Function\n   */\n  \n  function initialize(\n    uint256 _tokenId,\n    bool _ifSharable,\n    uint256 value,\n    uint256 _tax\n  )\n    external\n    ifOwner(_tokenId)\n  {\n    if(_ifSharable == true){\n      ifShared[_tokenId] = true;\n      _setTax(_tokenId,_tax);\n    }\n    else{\n      ifShared[_tokenId] = false;\n      leftShare[_tokenId] = 100;\n      _addsharers(_tokenId, msg.sender, 100);\n    }\n      \n    _setValue(_tokenId,value);\n  }\n\n  function setSharable(\n    uint256 _tokenId,\n    uint256 amount\n  )\n    external\n    ifOwner(_tokenId)\n  {\n    leftShare[_tokenId] = 100;\n    // uint256 amount = (msg.value / 1 ether) * valueOfNFT[_tokenId] / 100;\n    _addsharers(_tokenId, msg.sender, 100-amount);\n    uint256 fee = amount*valueOfNFT[_tokenId]/100;\n    payable(msg.sender).transfer(fee * 1 ether);\n  }\n\n  /**\n   *NFT holder can add sharers himself without having buyer conduct a transaction\n   */\n  function addsharers(\n    uint256 _tokenId,\n    address newSharer,\n    uint256 share\n  )\n    external\n  {\n    _addsharers(_tokenId, newSharer, share);\n  }\n\n  /**\n   *Buy some share of a certain NFT */\n  function buyNFT(\n    uint256 _tokenId\n  )\n    external\n    payable\n    returns(uint256 shareGot)\n  {\n    uint256 fee = msg.value/ 1 ether;\n    require(ifSharable(_tokenId),\"NFT_NOT_SHARABLE\");\n    require(leftShare[_tokenId]>0,\"NFT_SHARE_SOLD_OUT\");\n    require(fee >= valueOfNFT[_tokenId]/100,\"NOT_ENOUGH_TO_BUY_1%\");\n    require(fee <= (valueOfNFT[_tokenId]*leftShare[_tokenId]/100),\"TOO_MUCH_MONEY\");\n    shareGot = fee * 100 / valueOfNFT[_tokenId];\n    leftShare[_tokenId] = leftShare[_tokenId] - shareGot;\n    if(sharers[_tokenId][msg.sender] == 0){\n      sharersCount[_tokenId] = sharersCount[_tokenId] + 1;\n      owners[_tokenId].push(msg.sender);\n    }//if sharers already, don't add\n    sharers[_tokenId][msg.sender] = sharers[_tokenId][msg.sender] + shareGot;\n    // address owner = idToOwner[_tokenId];\n    // payable(owner).transfer(msg.value);//transfer to owner msg.value's CFX\n  }\n\n  function sellNFT(\n    uint256 _tokenId\n  )\n    external\n    payable\n    returns(uint256 shareSold)\n  {\n    uint256 fee = msg.value/ 1 ether;\n    require(fee >= valueOfNFT[_tokenId]/100,\"NOT_ENOUGH_TO_SELL_1%\");\n    require(fee <= (valueOfNFT[_tokenId]*sharers[_tokenId][msg.sender]/100),\"TOO_MUCH_MONEY_TO_SELL_ALL\");\n    shareSold = fee * 100 / valueOfNFT[_tokenId];\n    leftShare[_tokenId] = leftShare[_tokenId] + shareSold;\n    if(fee == valueOfNFT[_tokenId]*sharers[_tokenId][msg.sender]/100){//sell all\n      sharersCount[_tokenId] = sharersCount[_tokenId] - 1;\n      uint256 i = 0;\n      while(owners[_tokenId][i++] != msg.sender){}\n      for(i; i<owners[_tokenId].length; i++){\n        owners[_tokenId][i-1] = owners[_tokenId][i];\n      }\n      owners[_tokenId].pop();\n    }//if sell all, delete from the seller\n\n    sharers[_tokenId][msg.sender] = sharers[_tokenId][msg.sender] - shareSold;\n    payable(msg.sender).transfer(msg.value);\n  }\n\n  function useNFT(\n    uint256 _tokenId\n  )\n    external\n    payable\n    returns(uint256 cost)\n  {\n    /*store the use information in the mapping and struct*/\n    useOfNFT[_tokenId].tokenId = _tokenId;\n    useOfNFT[_tokenId].timeOfUse++;\n    useOfNFT[_tokenId].user.push(msg.sender);\n\n    /*judge if the user is a sharer*/\n    cost = 0;\n    uint256 i = 0;\n    uint256 j = owners[_tokenId].length;\n    bool flag = false;\n    while(j!=0){\n      if(msg.sender == owners[_tokenId][i]){\n        flag = true;\n        j=0;\n      }\n      else{\n        i++;\n        j--;\n      }\n    }\n    \n    /*distribute tax*/\n    address temp;\n    uint256 share;\n    uint256 m=0;\n    uint256 n;\n    if(flag == false){\n      // _distributeTax(_tokenId,tax[_tokenId]);\n      cost = tax[_tokenId];\n      n = owners[_tokenId].length;\n      while(n!=0){\n        temp = owners[_tokenId][m];\n        share = sharers[_tokenId][temp];\n        m++;\n        n--;\n        // mapping (uint256 => mapping(address => uint256)) internal sharers;\n        payable(temp).transfer( (share * tax[_tokenId] / 100) * 1 ether);\n      }\n    }\n      \n  }\n\n\n/*************************************************************************************************************************/\n  /**\n   *Internal Functions\n   */\n\n  /*add a sharer of a NFT*/\n  function _addsharers(\n    uint256 _tokenId, \n    address newSharer, \n    uint256 share\n    )\n      internal\n      ifOwner(_tokenId)\n    {\n    // require(ifSharable(_tokenId),\"TOKEN_UNSHARABLE\");\n    require(sharers[_tokenId][newSharer]==0,\"ALREADY_A_SHARER\");\n    require(share >=1 && share <=leftShare[_tokenId],\"SHARE_INVALID\");\n    sharersCount[_tokenId] = sharersCount[_tokenId] + 1;\n    sharers[_tokenId][newSharer] = share;\n    leftShare[_tokenId] = leftShare[_tokenId] - share;\n    owners[_tokenId].push(msg.sender);\n  }\n\n  // function _distributeTax(\n  //   uint256 _tokenId,\n  //   uint256 amount\n  // )\n  //   internal\n  // {\n  //   address temp;\n  //   uint256 share;\n  //   uint256 i = 0;\n  //   uint256 j = owners[_tokenId].length;\n  //   while(j!=0){\n  //     temp = owners[_tokenId][i];\n  //     share = sharers[_tokenId][temp];\n  //     i++;\n  //     j--;\n  //     // mapping (uint256 => mapping(address => uint256)) internal sharers;\n  //     payable(temp).transfer(share*amount/100 * 1 ether);\n  //   }\n  // }\n\n  // function _setSharable(\n  //   uint256 _tokenId,\n  //   uint256 subscribableAmount\n  // )\n  //   internal\n  //   ifOwner(_tokenId)\n  // {\n  //   ifShared[_tokenId] = true;\n  //   leftShare[_tokenId] = 100;\n  //   _addsharers(_tokenId, msg.sender, 100-subscribableAmount);\n  // }\n\n  /*set the value of each NFT by owner*/\n  function _setValue(\n    uint256 _tokenId,\n    uint256 value\n  )\n    internal\n    ifOwner(_tokenId)\n  {\n    valueOfNFT[_tokenId] = value;\n  }\n\n   function _setTax(\n    uint256 _tokenId,\n    uint256 _tax\n  )\n    internal\n    ifOwner(_tokenId)\n  {\n    tax[_tokenId] = _tax;\n  }\n\n  // \n\tfunction getAddress() \n    public \n    view \n    returns (address) {\n\t\treturn address(this);\n\t}\n\n}",
  "sourcePath": "C:/Users/jacky/Documents/GitHub/MusicNFT/contracts/MusicNFT.sol",
  "compiler": {
    "name": "solc",
    "version": "0.8.6+commit.11564f7e.Emscripten.clang"
  },
  "schemaVersion": "3.3.4",
  "updatedAt": "2021-09-12T08:17:17.876Z",
  "devdoc": {
    "kind": "dev",
    "methods": {
      "approve(address,uint256)": {
        "details": "Set or reaffirm the approved address for an NFT. This function can be changed to payable.",
        "params": {
          "_approved": "Address to be approved for the given NFT ID.",
          "_tokenId": "ID of the token to be approved."
        }
      },
      "balanceOf(address)": {
        "details": "Returns the number of NFTs owned by `_owner`. NFTs assigned to the zero address are considered invalid, and this function throws for queries about the zero address.",
        "params": {
          "_owner": "Address for whom to query the balance."
        },
        "returns": {
          "_0": "Balance of _owner."
        }
      },
      "constructor": {
        "details": "Contract constructor. Sets metadata extension `name` and `symbol`."
      },
      "getApproved(uint256)": {
        "details": "Get the approved address for a single NFT.",
        "params": {
          "_tokenId": "ID of the NFT to query the approval of."
        },
        "returns": {
          "_0": "Address that _tokenId is approved for."
        }
      },
      "isApprovedForAll(address,address)": {
        "details": "Checks if `_operator` is an approved operator for `_owner`.",
        "params": {
          "_operator": "The address that acts on behalf of the owner.",
          "_owner": "The address that owns the NFTs."
        },
        "returns": {
          "_0": "True if approved for all, false otherwise."
        }
      },
      "mint(address,uint256,string)": {
        "details": "Mints a new NFT.",
        "params": {
          "_to": "The address that will own the minted NFT.",
          "_tokenId": "of the NFT to be minted by the msg.sender.",
          "_uri": "String representing RFC 3986 URI."
        }
      },
      "name()": {
        "details": "Returns a descriptive name for a collection of NFTokens.",
        "returns": {
          "_name": "Representing name."
        }
      },
      "ownerOf(uint256)": {
        "details": "Returns the address of the owner of the NFT. NFTs assigned to the zero address are considered invalid, and queries about them do throw.",
        "params": {
          "_tokenId": "The identifier for an NFT."
        },
        "returns": {
          "_owner": "Address of _tokenId owner."
        }
      },
      "safeTransferFrom(address,address,uint256)": {
        "details": "Transfers the ownership of an NFT from one address to another address. This function can be changed to payable.",
        "params": {
          "_from": "The current owner of the NFT.",
          "_to": "The new owner.",
          "_tokenId": "The NFT to transfer."
        }
      },
      "safeTransferFrom(address,address,uint256,bytes)": {
        "details": "Transfers the ownership of an NFT from one address to another address. This function can be changed to payable.",
        "params": {
          "_data": "Additional data with no specified format, sent in call to `_to`.",
          "_from": "The current owner of the NFT.",
          "_to": "The new owner.",
          "_tokenId": "The NFT to transfer."
        }
      },
      "setApprovalForAll(address,bool)": {
        "details": "Enables or disables approval for a third party (\"operator\") to manage all of `msg.sender`'s assets. It also emits the ApprovalForAll event.",
        "params": {
          "_approved": "True if the operators is approved, false to revoke approval.",
          "_operator": "Address to add to the set of authorized operators."
        }
      },
      "supportsInterface(bytes4)": {
        "details": "Function to check which interfaces are suported by this contract.",
        "params": {
          "_interfaceID": "Id of the interface."
        },
        "returns": {
          "_0": "True if _interfaceID is supported, false otherwise."
        }
      },
      "symbol()": {
        "details": "Returns an abbreviated name for NFTokens.",
        "returns": {
          "_symbol": "Representing symbol."
        }
      },
      "tokenURI(uint256)": {
        "details": "A distinct URI (RFC 3986) for a given NFT.",
        "params": {
          "_tokenId": "Id for which we want uri."
        },
        "returns": {
          "_0": "URI of _tokenId."
        }
      }
    },
    "version": 1
  },
  "userdoc": {
    "kind": "user",
    "methods": {
      "addsharers(uint256,address,uint256)": {
        "notice": "NFT holder can add sharers himself without having buyer conduct a transaction"
      },
      "approve(address,uint256)": {
        "notice": "The zero address indicates there is no approved address. Throws unless `msg.sender` is the current NFT owner, or an authorized operator of the current owner."
      },
      "buyNFT(uint256)": {
        "notice": "Buy some share of a certain NFT "
      },
      "getApproved(uint256)": {
        "notice": "Throws if `_tokenId` is not a valid NFT."
      },
      "initialize(uint256,bool,uint256,uint256)": {
        "notice": "Execution Function"
      },
      "safeTransferFrom(address,address,uint256)": {
        "notice": "This works identically to the other function with an extra data parameter, except this function just sets data to \"\"."
      },
      "safeTransferFrom(address,address,uint256,bytes)": {
        "notice": "Throws unless `msg.sender` is the current owner, an authorized operator, or the approved address for this NFT. Throws if `_from` is not the current owner. Throws if `_to` is the zero address. Throws if `_tokenId` is not a valid NFT. When transfer is complete, this function checks if `_to` is a smart contract (code size > 0). If so, it calls `onERC721Received` on `_to` and throws if the return value is not `bytes4(keccak256(\"onERC721Received(address,uint256,bytes)\"))`."
      },
      "setApprovalForAll(address,bool)": {
        "notice": "This works even if sender doesn't own any tokens at the time."
      },
      "showInfoOfNFT(uint256)": {
        "notice": "View Function"
      },
      "showValue(uint256)": {
        "notice": "show the value of each NFT can be seen by everyone"
      },
      "transferFrom(address,address,uint256)": {
        "notice": "Execution Function"
      }
    },
    "version": 1
  }
}