{
  "contractName": "MusicNFT",
  "abi": [
    {
      "inputs": [],
      "stateMutability": "nonpayable",
      "type": "constructor"
    },
    {
      "anonymous": false,
      "inputs": [
        {
          "indexed": true,
          "internalType": "address",
          "name": "_owner",
          "type": "address"
        },
        {
          "indexed": true,
          "internalType": "address",
          "name": "_approved",
          "type": "address"
        },
        {
          "indexed": true,
          "internalType": "uint256",
          "name": "_tokenId",
          "type": "uint256"
        }
      ],
      "name": "Approval",
      "type": "event"
    },
    {
      "anonymous": false,
      "inputs": [
        {
          "indexed": true,
          "internalType": "address",
          "name": "_owner",
          "type": "address"
        },
        {
          "indexed": true,
          "internalType": "address",
          "name": "_operator",
          "type": "address"
        },
        {
          "indexed": false,
          "internalType": "bool",
          "name": "_approved",
          "type": "bool"
        }
      ],
      "name": "ApprovalForAll",
      "type": "event"
    },
    {
      "anonymous": false,
      "inputs": [
        {
          "indexed": true,
          "internalType": "address",
          "name": "previousOwner",
          "type": "address"
        },
        {
          "indexed": true,
          "internalType": "address",
          "name": "newOwner",
          "type": "address"
        }
      ],
      "name": "OwnershipTransferred",
      "type": "event"
    },
    {
      "anonymous": false,
      "inputs": [
        {
          "indexed": true,
          "internalType": "address",
          "name": "_from",
          "type": "address"
        },
        {
          "indexed": true,
          "internalType": "address",
          "name": "_to",
          "type": "address"
        },
        {
          "indexed": true,
          "internalType": "uint256",
          "name": "_tokenId",
          "type": "uint256"
        }
      ],
      "name": "Transfer",
      "type": "event"
    },
    {
      "inputs": [
        {
          "internalType": "address",
          "name": "_approved",
          "type": "address"
        },
        {
          "internalType": "uint256",
          "name": "_tokenId",
          "type": "uint256"
        }
      ],
      "name": "approve",
      "outputs": [],
      "stateMutability": "nonpayable",
      "type": "function"
    },
    {
      "inputs": [
        {
          "internalType": "address",
          "name": "_owner",
          "type": "address"
        }
      ],
      "name": "balanceOf",
      "outputs": [
        {
          "internalType": "uint256",
          "name": "",
          "type": "uint256"
        }
      ],
      "stateMutability": "view",
      "type": "function"
    },
    {
      "inputs": [
        {
          "internalType": "uint256",
          "name": "_tokenId",
          "type": "uint256"
        }
      ],
      "name": "getApproved",
      "outputs": [
        {
          "internalType": "address",
          "name": "",
          "type": "address"
        }
      ],
      "stateMutability": "view",
      "type": "function"
    },
    {
      "inputs": [
        {
          "internalType": "address",
          "name": "_owner",
          "type": "address"
        },
        {
          "internalType": "address",
          "name": "_operator",
          "type": "address"
        }
      ],
      "name": "isApprovedForAll",
      "outputs": [
        {
          "internalType": "bool",
          "name": "",
          "type": "bool"
        }
      ],
      "stateMutability": "view",
      "type": "function"
    },
    {
      "inputs": [],
      "name": "name",
      "outputs": [
        {
          "internalType": "string",
          "name": "_name",
          "type": "string"
        }
      ],
      "stateMutability": "view",
      "type": "function"
    },
    {
      "inputs": [
        {
          "internalType": "uint256",
          "name": "_tokenId",
          "type": "uint256"
        }
      ],
      "name": "ownerOf",
      "outputs": [
        {
          "internalType": "address",
          "name": "_owner",
          "type": "address"
        }
      ],
      "stateMutability": "view",
      "type": "function"
    },
    {
      "inputs": [
        {
          "internalType": "address",
          "name": "_from",
          "type": "address"
        },
        {
          "internalType": "address",
          "name": "_to",
          "type": "address"
        },
        {
          "internalType": "uint256",
          "name": "_tokenId",
          "type": "uint256"
        }
      ],
      "name": "safeTransferFrom",
      "outputs": [],
      "stateMutability": "nonpayable",
      "type": "function"
    },
    {
      "inputs": [
        {
          "internalType": "address",
          "name": "_from",
          "type": "address"
        },
        {
          "internalType": "address",
          "name": "_to",
          "type": "address"
        },
        {
          "internalType": "uint256",
          "name": "_tokenId",
          "type": "uint256"
        },
        {
          "internalType": "bytes",
          "name": "_data",
          "type": "bytes"
        }
      ],
      "name": "safeTransferFrom",
      "outputs": [],
      "stateMutability": "nonpayable",
      "type": "function"
    },
    {
      "inputs": [
        {
          "internalType": "address",
          "name": "_operator",
          "type": "address"
        },
        {
          "internalType": "bool",
          "name": "_approved",
          "type": "bool"
        }
      ],
      "name": "setApprovalForAll",
      "outputs": [],
      "stateMutability": "nonpayable",
      "type": "function"
    },
    {
      "inputs": [
        {
          "internalType": "bytes4",
          "name": "_interfaceID",
          "type": "bytes4"
        }
      ],
      "name": "supportsInterface",
      "outputs": [
        {
          "internalType": "bool",
          "name": "",
          "type": "bool"
        }
      ],
      "stateMutability": "view",
      "type": "function"
    },
    {
      "inputs": [],
      "name": "symbol",
      "outputs": [
        {
          "internalType": "string",
          "name": "_symbol",
          "type": "string"
        }
      ],
      "stateMutability": "view",
      "type": "function"
    },
    {
      "inputs": [
        {
          "internalType": "uint256",
          "name": "_tokenId",
          "type": "uint256"
        }
      ],
      "name": "tokenURI",
      "outputs": [
        {
          "internalType": "string",
          "name": "",
          "type": "string"
        }
      ],
      "stateMutability": "view",
      "type": "function"
    },
    {
      "inputs": [
        {
          "internalType": "address",
          "name": "_to",
          "type": "address"
        },
        {
          "internalType": "uint256",
          "name": "_tokenId",
          "type": "uint256"
        },
        {
          "internalType": "string",
          "name": "_uri",
          "type": "string"
        }
      ],
      "name": "mint",
      "outputs": [],
      "stateMutability": "nonpayable",
      "type": "function"
    },
    {
      "inputs": [
        {
          "internalType": "uint256",
          "name": "_tokenId",
          "type": "uint256"
        }
      ],
      "name": "showValue",
      "outputs": [
        {
          "internalType": "uint256",
          "name": "value",
          "type": "uint256"
        }
      ],
      "stateMutability": "view",
      "type": "function"
    },
    {
      "inputs": [
        {
          "internalType": "address",
          "name": "_from",
          "type": "address"
        },
        {
          "internalType": "address",
          "name": "_to",
          "type": "address"
        },
        {
          "internalType": "uint256",
          "name": "_tokenId",
          "type": "uint256"
        }
      ],
      "name": "transferFrom",
      "outputs": [],
      "stateMutability": "nonpayable",
      "type": "function"
    },
    {
      "inputs": [
        {
          "internalType": "uint256",
          "name": "_tokenId",
          "type": "uint256"
        }
      ],
      "name": "ifSharable",
      "outputs": [
        {
          "internalType": "bool",
          "name": "result",
          "type": "bool"
        }
      ],
      "stateMutability": "view",
      "type": "function"
    },
    {
      "inputs": [
        {
          "internalType": "uint256",
          "name": "_tokenId",
          "type": "uint256"
        }
      ],
      "name": "showLeftShare",
      "outputs": [
        {
          "internalType": "uint256",
          "name": "left",
          "type": "uint256"
        }
      ],
      "stateMutability": "view",
      "type": "function"
    },
    {
      "inputs": [
        {
          "internalType": "uint256",
          "name": "_tokenId",
          "type": "uint256"
        }
      ],
      "name": "showNumOfSharers",
      "outputs": [
        {
          "internalType": "uint256",
          "name": "num",
          "type": "uint256"
        }
      ],
      "stateMutability": "view",
      "type": "function"
    },
    {
      "inputs": [
        {
          "internalType": "uint256",
          "name": "_tokenId",
          "type": "uint256"
        }
      ],
      "name": "showSharers",
      "outputs": [
        {
          "internalType": "address[]",
          "name": "",
          "type": "address[]"
        }
      ],
      "stateMutability": "view",
      "type": "function"
    },
    {
      "inputs": [
        {
          "internalType": "uint256",
          "name": "_tokenId",
          "type": "uint256"
        }
      ],
      "name": "showMySharerOfNFT",
      "outputs": [
        {
          "internalType": "uint256",
          "name": "myshare",
          "type": "uint256"
        }
      ],
      "stateMutability": "view",
      "type": "function"
    },
    {
      "inputs": [
        {
          "internalType": "uint256",
          "name": "_tokenId",
          "type": "uint256"
        },
        {
          "internalType": "bool",
          "name": "_ifSharable",
          "type": "bool"
        },
        {
          "internalType": "uint256",
          "name": "sharedAmount",
          "type": "uint256"
        },
        {
          "internalType": "uint256",
          "name": "value",
          "type": "uint256"
        },
        {
          "internalType": "uint256",
          "name": "_tax",
          "type": "uint256"
        }
      ],
      "name": "initialize",
      "outputs": [],
      "stateMutability": "nonpayable",
      "type": "function"
    },
    {
      "inputs": [
        {
          "internalType": "uint256",
          "name": "_tokenId",
          "type": "uint256"
        },
        {
          "internalType": "address",
          "name": "newSharer",
          "type": "address"
        },
        {
          "internalType": "uint256",
          "name": "share",
          "type": "uint256"
        }
      ],
      "name": "addsharers",
      "outputs": [],
      "stateMutability": "nonpayable",
      "type": "function"
    },
    {
      "inputs": [
        {
          "internalType": "uint256",
          "name": "_tokenId",
          "type": "uint256"
        }
      ],
      "name": "buyNFT",
      "outputs": [
        {
          "internalType": "uint256",
          "name": "shareGot",
          "type": "uint256"
        }
      ],
      "stateMutability": "payable",
      "type": "function"
    },
    {
      "inputs": [
        {
          "internalType": "uint256",
          "name": "_tokenId",
          "type": "uint256"
        }
      ],
      "name": "useNFT",
      "outputs": [
        {
          "internalType": "uint256",
          "name": "cost",
          "type": "uint256"
        }
      ],
      "stateMutability": "payable",
      "type": "function"
    }
  ],
  "bytecode": "0x60806040523480156200001157600080fd5b5060016000806301ffc9a760e01b7bffffffffffffffffffffffffffffffffffffffffffffffffffffffff1916815260200190815260200160002060006101000a81548160ff02191690831515021790555060016000806380ac58cd60e01b7bffffffffffffffffffffffffffffffffffffffffffffffffffffffff1916815260200190815260200160002060006101000a81548160ff0219169083151502179055506001600080635b5e139f60e01b7bffffffffffffffffffffffffffffffffffffffffffffffffffffffff1916815260200190815260200160002060006101000a81548160ff02191690831515021790555033600860006101000a81548173ffffffffffffffffffffffffffffffffffffffff021916908373ffffffffffffffffffffffffffffffffffffffff1602179055506040518060400160405280600c81526020017f4a61636b792773205269666600000000000000000000000000000000000000008152506005908051906020019062000193929190620001e8565b506040518060400160405280600481526020017f4a5249460000000000000000000000000000000000000000000000000000000081525060069080519060200190620001e1929190620001e8565b50620002fd565b828054620001f69062000298565b90600052602060002090601f0160209004810192826200021a576000855562000266565b82601f106200023557805160ff191683800117855562000266565b8280016001018555821562000266579182015b828111156200026557825182559160200191906001019062000248565b5b50905062000275919062000279565b5090565b5b80821115620002945760008160009055506001016200027a565b5090565b60006002820490506001821680620002b157607f821691505b60208210811415620002c857620002c7620002ce565b5b50919050565b7f4e487b7100000000000000000000000000000000000000000000000000000000600052602260045260246000fd5b6143a0806200030d6000396000f3fe60806040526004361061014b5760003560e01c806370a08231116100b6578063a22cb4651161006f578063a22cb465146104f8578063b88d4fde14610521578063c87b56dd1461054a578063d3fc986414610587578063e84f3261146105b0578063e985e9c5146105ed5761014b565b806370a08231146103b057806383f68703146103ed57806395d89b411461042a5780639a721a6c146104555780639df2db5e1461047e578063a21bf0d5146104bb5761014b565b806342842e0e1161010857806342842e0e1461028457806351ed8288146102ad578063531adc56146102dd57806355b9d4431461030657806359645dc6146103365780636352211e146103735761014b565b806301ffc9a71461015057806306fdde031461018d578063081812fc146101b8578063095ea7b3146101f55780632172d6b01461021e57806323b872dd1461025b575b600080fd5b34801561015c57600080fd5b5061017760048036038101906101729190613830565b61062a565b6040516101849190613c6d565b60405180910390f35b34801561019957600080fd5b506101a2610691565b6040516101af9190613c88565b60405180910390f35b3480156101c457600080fd5b506101df60048036038101906101da919061388a565b610723565b6040516101ec9190613be4565b60405180910390f35b34801561020157600080fd5b5061021c6004803603810190610217919061377c565b61083e565b005b34801561022a57600080fd5b506102456004803603810190610240919061388a565b610c21565b6040516102529190613c4b565b60405180910390f35b34801561026757600080fd5b50610282600480360381019061027d9190613661565b610cc2565b005b34801561029057600080fd5b506102ab60048036038101906102a69190613661565b61117b565b005b6102c760048036038101906102c2919061388a565b61119b565b6040516102d49190613dca565b60405180910390f35b3480156102e957600080fd5b5061030460048036038101906102ff919061390a565b6115d2565b005b610320600480360381019061031b919061388a565b6116fe565b60405161032d9190613dca565b60405180910390f35b34801561034257600080fd5b5061035d6004803603810190610358919061388a565b611822565b60405161036a9190613dca565b60405180910390f35b34801561037f57600080fd5b5061039a6004803603810190610395919061388a565b61183f565b6040516103a79190613be4565b60405180910390f35b3480156103bc57600080fd5b506103d760048036038101906103d291906135f4565b611925565b6040516103e49190613dca565b60405180910390f35b3480156103f957600080fd5b50610414600480360381019061040f919061388a565b6119df565b6040516104219190613dca565b60405180910390f35b34801561043657600080fd5b5061043f611a39565b60405161044c9190613c88565b60405180910390f35b34801561046157600080fd5b5061047c600480360381019061047791906138b7565b611acb565b005b34801561048a57600080fd5b506104a560048036038101906104a0919061388a565b611adb565b6040516104b29190613c6d565b60405180910390f35b3480156104c757600080fd5b506104e260048036038101906104dd919061388a565b611b05565b6040516104ef9190613dca565b60405180910390f35b34801561050457600080fd5b5061051f600480360381019061051a919061373c565b611b22565b005b34801561052d57600080fd5b50610548600480360381019061054391906136b4565b611c1f565b005b34801561055657600080fd5b50610571600480360381019061056c919061388a565b611c76565b60405161057e9190613c88565b60405180910390f35b34801561059357600080fd5b506105ae60048036038101906105a991906137bc565b611df9565b005b3480156105bc57600080fd5b506105d760048036038101906105d2919061388a565b611f4c565b6040516105e49190613dca565b60405180910390f35b3480156105f957600080fd5b50610614600480360381019061060f9190613621565b611f69565b6040516106219190613c6d565b60405180910390f35b6000806000837bffffffffffffffffffffffffffffffffffffffffffffffffffffffff19167bffffffffffffffffffffffffffffffffffffffffffffffffffffffff1916815260200190815260200160002060009054906101000a900460ff169050919050565b6060600580546106a09061403c565b80601f01602080910402602001604051908101604052809291908181526020018280546106cc9061403c565b80156107195780601f106106ee57610100808354040283529160200191610719565b820191906000526020600020905b8154815290600101906020018083116106fc57829003601f168201915b5050505050905090565b600081600073ffffffffffffffffffffffffffffffffffffffff166001600083815260200190815260200160002060009054906101000a900473ffffffffffffffffffffffffffffffffffffffff1673ffffffffffffffffffffffffffffffffffffffff1614156040518060400160405280600681526020017f303033303032000000000000000000000000000000000000000000000000000081525090610801576040517f08c379a00000000000000000000000000000000000000000000000000000000081526004016107f89190613c88565b60405180910390fd5b506002600084815260200190815260200160002060009054906101000a900473ffffffffffffffffffffffffffffffffffffffff16915050919050565b8060006001600083815260200190815260200160002060009054906101000a900473ffffffffffffffffffffffffffffffffffffffff1690503373ffffffffffffffffffffffffffffffffffffffff168173ffffffffffffffffffffffffffffffffffffffff1614806109375750600460008273ffffffffffffffffffffffffffffffffffffffff1673ffffffffffffffffffffffffffffffffffffffff16815260200190815260200160002060003373ffffffffffffffffffffffffffffffffffffffff1673ffffffffffffffffffffffffffffffffffffffff16815260200190815260200160002060009054906101000a900460ff165b6040518060400160405280600681526020017f3030333030330000000000000000000000000000000000000000000000000000815250906109ae576040517f08c379a00000000000000000000000000000000000000000000000000000000081526004016109a59190613c88565b60405180910390fd5b5082600073ffffffffffffffffffffffffffffffffffffffff166001600083815260200190815260200160002060009054906101000a900473ffffffffffffffffffffffffffffffffffffffff1673ffffffffffffffffffffffffffffffffffffffff1614156040518060400160405280600681526020017f303033303032000000000000000000000000000000000000000000000000000081525090610a8b576040517f08c379a0000000000000000000000000000000000000000000000000000000008152600401610a829190613c88565b60405180910390fd5b5060006001600086815260200190815260200160002060009054906101000a900473ffffffffffffffffffffffffffffffffffffffff1690508073ffffffffffffffffffffffffffffffffffffffff168673ffffffffffffffffffffffffffffffffffffffff1614156040518060400160405280600681526020017f303033303038000000000000000000000000000000000000000000000000000081525090610b6b576040517f08c379a0000000000000000000000000000000000000000000000000000000008152600401610b629190613c88565b60405180910390fd5b50856002600087815260200190815260200160002060006101000a81548173ffffffffffffffffffffffffffffffffffffffff021916908373ffffffffffffffffffffffffffffffffffffffff160217905550848673ffffffffffffffffffffffffffffffffffffffff168273ffffffffffffffffffffffffffffffffffffffff167f8c5be1e5ebec7d5bd14f71427d1e84f3dd0314c0f7b2291e5b200ac8c7c3b92560405160405180910390a4505050505050565b6060600c6000838152602001908152602001600020805480602002602001604051908101604052809291908181526020018280548015610cb657602002820191906000526020600020905b8160009054906101000a900473ffffffffffffffffffffffffffffffffffffffff1673ffffffffffffffffffffffffffffffffffffffff1681526020019060010190808311610c6c575b50505050509050919050565b8060006001600083815260200190815260200160002060009054906101000a900473ffffffffffffffffffffffffffffffffffffffff1690503373ffffffffffffffffffffffffffffffffffffffff168173ffffffffffffffffffffffffffffffffffffffff161480610d9357503373ffffffffffffffffffffffffffffffffffffffff166002600084815260200190815260200160002060009054906101000a900473ffffffffffffffffffffffffffffffffffffffff1673ffffffffffffffffffffffffffffffffffffffff16145b80610e245750600460008273ffffffffffffffffffffffffffffffffffffffff1673ffffffffffffffffffffffffffffffffffffffff16815260200190815260200160002060003373ffffffffffffffffffffffffffffffffffffffff1673ffffffffffffffffffffffffffffffffffffffff16815260200190815260200160002060009054906101000a900460ff165b6040518060400160405280600681526020017f303033303034000000000000000000000000000000000000000000000000000081525090610e9b576040517f08c379a0000000000000000000000000000000000000000000000000000000008152600401610e929190613c88565b60405180910390fd5b5082600073ffffffffffffffffffffffffffffffffffffffff166001600083815260200190815260200160002060009054906101000a900473ffffffffffffffffffffffffffffffffffffffff1673ffffffffffffffffffffffffffffffffffffffff1614156040518060400160405280600681526020017f303033303032000000000000000000000000000000000000000000000000000081525090610f78576040517f08c379a0000000000000000000000000000000000000000000000000000000008152600401610f6f9190613c88565b60405180910390fd5b5060006001600086815260200190815260200160002060009054906101000a900473ffffffffffffffffffffffffffffffffffffffff1690508673ffffffffffffffffffffffffffffffffffffffff168173ffffffffffffffffffffffffffffffffffffffff16146040518060400160405280600681526020017f303033303037000000000000000000000000000000000000000000000000000081525090611057576040517f08c379a000000000000000000000000000000000000000000000000000000000815260040161104e9190613c88565b60405180910390fd5b50600073ffffffffffffffffffffffffffffffffffffffff168673ffffffffffffffffffffffffffffffffffffffff1614156040518060400160405280600681526020017f303033303031000000000000000000000000000000000000000000000000000081525090611100576040517f08c379a00000000000000000000000000000000000000000000000000000000081526004016110f79190613c88565b60405180910390fd5b5060001515600a600087815260200190815260200160002060009054906101000a900460ff16151514611168576040517f08c379a000000000000000000000000000000000000000000000000000000000815260040161115f90613cea565b60405180910390fd5b6111728686611ffd565b50505050505050565b611196838383604051806020016040528060008152506120b2565b505050565b600080670de0b6b3a7640000346111b29190613eac565b90506111bd83611adb565b6111fc576040517f08c379a00000000000000000000000000000000000000000000000000000000081526004016111f390613d4a565b60405180910390fd5b6000600e60008581526020019081526020016000205411611252576040517f08c379a000000000000000000000000000000000000000000000000000000000815260040161124990613d0a565b60405180910390fd5b606460096000858152602001908152602001600020546112729190613eac565b8110156112b4576040517f08c379a00000000000000000000000000000000000000000000000000000000081526004016112ab90613daa565b60405180910390fd5b6064600e60008581526020019081526020016000205460096000868152602001908152602001600020546112e89190613edd565b6112f29190613eac565b811115611334576040517f08c379a000000000000000000000000000000000000000000000000000000000815260040161132b90613d6a565b60405180910390fd5b60096000848152602001908152602001600020546064826113559190613edd565b61135f9190613eac565b915081600e6000858152602001908152602001600020546113809190613f37565b600e6000858152602001908152602001600020819055506000600b600085815260200190815260200160002060003373ffffffffffffffffffffffffffffffffffffffff1673ffffffffffffffffffffffffffffffffffffffff16815260200190815260200160002054141561149c576001600d6000858152602001908152602001600020546114109190613e56565b600d600085815260200190815260200160002081905550600c6000848152602001908152602001600020339080600181540180825580915050600190039060005260206000200160009091909190916101000a81548173ffffffffffffffffffffffffffffffffffffffff021916908373ffffffffffffffffffffffffffffffffffffffff1602179055505b81600b600085815260200190815260200160002060003373ffffffffffffffffffffffffffffffffffffffff1673ffffffffffffffffffffffffffffffffffffffff168152602001908152602001600020546114f89190613e56565b600b600085815260200190815260200160002060003373ffffffffffffffffffffffffffffffffffffffff1673ffffffffffffffffffffffffffffffffffffffff1681526020019081526020016000208190555060006001600085815260200190815260200160002060009054906101000a900473ffffffffffffffffffffffffffffffffffffffff1690508073ffffffffffffffffffffffffffffffffffffffff166108fc349081150290604051600060405180830381858888f193505050501580156115ca573d6000803e3d6000fd5b505050919050565b846001600082815260200190815260200160002060009054906101000a900473ffffffffffffffffffffffffffffffffffffffff1673ffffffffffffffffffffffffffffffffffffffff163373ffffffffffffffffffffffffffffffffffffffff1614611674576040517f08c379a000000000000000000000000000000000000000000000000000000000815260040161166b90613d8a565b60405180910390fd5b60011515851515141561169a5761168b8685612680565b6116958683612783565b6116ec565b6000600a600088815260200190815260200160002060006101000a81548160ff0219169083151502179055506064600e6000888152602001908152602001600020819055506116eb86336064612842565b5b6116f68684612b5e565b505050505050565b6000806000600c600085815260200190815260200160002080549050905060005b600082146117d957600c6000868152602001908152602001600020838154811061174c5761174b614144565b5b9060005260206000200160009054906101000a900473ffffffffffffffffffffffffffffffffffffffff1673ffffffffffffffffffffffffffffffffffffffff163373ffffffffffffffffffffffffffffffffffffffff1614156117b75760019050600091506117d4565b82806117c29061406e565b93505081806117d090614012565b9250505b61171f565b60001515811515141561181a5761180385600f600088815260200190815260200160002054612c1d565b600f60008681526020019081526020016000205493505b505050919050565b6000600e6000838152602001908152602001600020549050919050565b60006001600083815260200190815260200160002060009054906101000a900473ffffffffffffffffffffffffffffffffffffffff169050600073ffffffffffffffffffffffffffffffffffffffff168173ffffffffffffffffffffffffffffffffffffffff1614156040518060400160405280600681526020017f30303330303200000000000000000000000000000000000000000000000000008152509061191f576040517f08c379a00000000000000000000000000000000000000000000000000000000081526004016119169190613c88565b60405180910390fd5b50919050565b60008073ffffffffffffffffffffffffffffffffffffffff168273ffffffffffffffffffffffffffffffffffffffff1614156040518060400160405280600681526020017f3030333030310000000000000000000000000000000000000000000000000000815250906119ce576040517f08c379a00000000000000000000000000000000000000000000000000000000081526004016119c59190613c88565b60405180910390fd5b506119d882612d84565b9050919050565b6000600b600083815260200190815260200160002060003373ffffffffffffffffffffffffffffffffffffffff1673ffffffffffffffffffffffffffffffffffffffff168152602001908152602001600020549050919050565b606060068054611a489061403c565b80601f0160208091040260200160405190810160405280929190818152602001828054611a749061403c565b8015611ac15780601f10611a9657610100808354040283529160200191611ac1565b820191906000526020600020905b815481529060010190602001808311611aa457829003601f168201915b5050505050905090565b611ad6838383612842565b505050565b6000600a600083815260200190815260200160002060009054906101000a900460ff169050919050565b600060096000838152602001908152602001600020549050919050565b80600460003373ffffffffffffffffffffffffffffffffffffffff1673ffffffffffffffffffffffffffffffffffffffff16815260200190815260200160002060008473ffffffffffffffffffffffffffffffffffffffff1673ffffffffffffffffffffffffffffffffffffffff16815260200190815260200160002060006101000a81548160ff0219169083151502179055508173ffffffffffffffffffffffffffffffffffffffff163373ffffffffffffffffffffffffffffffffffffffff167f17307eab39ab6107e8899845ad3d59bd9653f200f220920489ca2b5937696c3183604051611c139190613c6d565b60405180910390a35050565b611c6f85858585858080601f016020809104026020016040519081016040528093929190818152602001838380828437600081840152601f19601f820116905080830192505050505050506120b2565b5050505050565b606081600073ffffffffffffffffffffffffffffffffffffffff166001600083815260200190815260200160002060009054906101000a900473ffffffffffffffffffffffffffffffffffffffff1673ffffffffffffffffffffffffffffffffffffffff1614156040518060400160405280600681526020017f303033303032000000000000000000000000000000000000000000000000000081525090611d54576040517f08c379a0000000000000000000000000000000000000000000000000000000008152600401611d4b9190613c88565b60405180910390fd5b50600760008481526020019081526020016000208054611d739061403c565b80601f0160208091040260200160405190810160405280929190818152602001828054611d9f9061403c565b8015611dec5780601f10611dc157610100808354040283529160200191611dec565b820191906000526020600020905b815481529060010190602001808311611dcf57829003601f168201915b5050505050915050919050565b600860009054906101000a900473ffffffffffffffffffffffffffffffffffffffff1673ffffffffffffffffffffffffffffffffffffffff163373ffffffffffffffffffffffffffffffffffffffff16146040518060400160405280600681526020017f303138303031000000000000000000000000000000000000000000000000000081525090611ec1576040517f08c379a0000000000000000000000000000000000000000000000000000000008152600401611eb89190613c88565b60405180910390fd5b50611ecc8484612dcd565b611f1a8383838080601f016020809104026020016040519081016040528093929190818152602001838380828437600081840152601f19601f82011690508083019250505050505050612fbb565b6000600a600085815260200190815260200160002060006101000a81548160ff02191690831515021790555050505050565b6000600d6000838152602001908152602001600020549050919050565b6000600460008473ffffffffffffffffffffffffffffffffffffffff1673ffffffffffffffffffffffffffffffffffffffff16815260200190815260200160002060008373ffffffffffffffffffffffffffffffffffffffff1673ffffffffffffffffffffffffffffffffffffffff16815260200190815260200160002060009054906101000a900460ff16905092915050565b60006001600083815260200190815260200160002060009054906101000a900473ffffffffffffffffffffffffffffffffffffffff16905061203e826130c5565b61204881836130fe565b6120528383613269565b818373ffffffffffffffffffffffffffffffffffffffff168273ffffffffffffffffffffffffffffffffffffffff167fddf252ad1be2c89b69c2b068fc378daa952ba7f163c4a11628f55a4df523b3ef60405160405180910390a4505050565b8160006001600083815260200190815260200160002060009054906101000a900473ffffffffffffffffffffffffffffffffffffffff1690503373ffffffffffffffffffffffffffffffffffffffff168173ffffffffffffffffffffffffffffffffffffffff16148061218357503373ffffffffffffffffffffffffffffffffffffffff166002600084815260200190815260200160002060009054906101000a900473ffffffffffffffffffffffffffffffffffffffff1673ffffffffffffffffffffffffffffffffffffffff16145b806122145750600460008273ffffffffffffffffffffffffffffffffffffffff1673ffffffffffffffffffffffffffffffffffffffff16815260200190815260200160002060003373ffffffffffffffffffffffffffffffffffffffff1673ffffffffffffffffffffffffffffffffffffffff16815260200190815260200160002060009054906101000a900460ff165b6040518060400160405280600681526020017f30303330303400000000000000000000000000000000000000000000000000008152509061228b576040517f08c379a00000000000000000000000000000000000000000000000000000000081526004016122829190613c88565b60405180910390fd5b5083600073ffffffffffffffffffffffffffffffffffffffff166001600083815260200190815260200160002060009054906101000a900473ffffffffffffffffffffffffffffffffffffffff1673ffffffffffffffffffffffffffffffffffffffff1614156040518060400160405280600681526020017f303033303032000000000000000000000000000000000000000000000000000081525090612368576040517f08c379a000000000000000000000000000000000000000000000000000000000815260040161235f9190613c88565b60405180910390fd5b5060006001600087815260200190815260200160002060009054906101000a900473ffffffffffffffffffffffffffffffffffffffff1690508773ffffffffffffffffffffffffffffffffffffffff168173ffffffffffffffffffffffffffffffffffffffff16146040518060400160405280600681526020017f303033303037000000000000000000000000000000000000000000000000000081525090612447576040517f08c379a000000000000000000000000000000000000000000000000000000000815260040161243e9190613c88565b60405180910390fd5b50600073ffffffffffffffffffffffffffffffffffffffff168773ffffffffffffffffffffffffffffffffffffffff1614156040518060400160405280600681526020017f3030333030310000000000000000000000000000000000000000000000000000815250906124f0576040517f08c379a00000000000000000000000000000000000000000000000000000000081526004016124e79190613c88565b60405180910390fd5b506124fb8787611ffd565b61251a8773ffffffffffffffffffffffffffffffffffffffff166133f1565b156126765760008773ffffffffffffffffffffffffffffffffffffffff1663150b7a02338b8a8a6040518563ffffffff1660e01b81526004016125609493929190613bff565b602060405180830381600087803b15801561257a57600080fd5b505af115801561258e573d6000803e3d6000fd5b505050506040513d601f19601f820116820180604052508101906125b2919061385d565b905063150b7a0260e01b7bffffffffffffffffffffffffffffffffffffffffffffffffffffffff1916817bffffffffffffffffffffffffffffffffffffffffffffffffffffffff1916146040518060400160405280600681526020017f303033303035000000000000000000000000000000000000000000000000000081525090612673576040517f08c379a000000000000000000000000000000000000000000000000000000000815260040161266a9190613c88565b60405180910390fd5b50505b5050505050505050565b816001600082815260200190815260200160002060009054906101000a900473ffffffffffffffffffffffffffffffffffffffff1673ffffffffffffffffffffffffffffffffffffffff163373ffffffffffffffffffffffffffffffffffffffff1614612722576040517f08c379a000000000000000000000000000000000000000000000000000000000815260040161271990613d8a565b60405180910390fd5b6001600a600085815260200190815260200160002060006101000a81548160ff0219169083151502179055506064600e60008581526020019081526020016000208190555061277e83338460646127799190613f37565b612842565b505050565b816001600082815260200190815260200160002060009054906101000a900473ffffffffffffffffffffffffffffffffffffffff1673ffffffffffffffffffffffffffffffffffffffff163373ffffffffffffffffffffffffffffffffffffffff1614612825576040517f08c379a000000000000000000000000000000000000000000000000000000000815260040161281c90613d8a565b60405180910390fd5b81600f600085815260200190815260200160002081905550505050565b826001600082815260200190815260200160002060009054906101000a900473ffffffffffffffffffffffffffffffffffffffff1673ffffffffffffffffffffffffffffffffffffffff163373ffffffffffffffffffffffffffffffffffffffff16146128e4576040517f08c379a00000000000000000000000000000000000000000000000000000000081526004016128db90613d8a565b60405180910390fd5b6128ed84611adb565b61292c576040517f08c379a000000000000000000000000000000000000000000000000000000000815260040161292390613caa565b60405180910390fd5b6000600b600086815260200190815260200160002060008573ffffffffffffffffffffffffffffffffffffffff1673ffffffffffffffffffffffffffffffffffffffff16815260200190815260200160002054146129bf576040517f08c379a00000000000000000000000000000000000000000000000000000000081526004016129b690613cca565b60405180910390fd5b600182101580156129e35750600e6000858152602001908152602001600020548211155b612a22576040517f08c379a0000000000000000000000000000000000000000000000000000000008152600401612a1990613d2a565b60405180910390fd5b6001600d600086815260200190815260200160002054612a429190613e56565b600d60008681526020019081526020016000208190555081600b600086815260200190815260200160002060008573ffffffffffffffffffffffffffffffffffffffff1673ffffffffffffffffffffffffffffffffffffffff1681526020019081526020016000208190555081600e600086815260200190815260200160002054612acd9190613f37565b600e600086815260200190815260200160002081905550600c6000858152602001908152602001600020339080600181540180825580915050600190039060005260206000200160009091909190916101000a81548173ffffffffffffffffffffffffffffffffffffffff021916908373ffffffffffffffffffffffffffffffffffffffff16021790555050505050565b816001600082815260200190815260200160002060009054906101000a900473ffffffffffffffffffffffffffffffffffffffff1673ffffffffffffffffffffffffffffffffffffffff163373ffffffffffffffffffffffffffffffffffffffff1614612c00576040517f08c379a0000000000000000000000000000000000000000000000000000000008152600401612bf790613d8a565b60405180910390fd5b816009600085815260200190815260200160002081905550505050565b600080600080600c60008781526020019081526020016000208054905090505b60008114612d7c57600c60008781526020019081526020016000208281548110612c6a57612c69614144565b5b9060005260206000200160009054906101000a900473ffffffffffffffffffffffffffffffffffffffff169350600b600087815260200190815260200160002060008573ffffffffffffffffffffffffffffffffffffffff1673ffffffffffffffffffffffffffffffffffffffff1681526020019081526020016000205492508180612cf59061406e565b9250508080612d0390614012565b9150508373ffffffffffffffffffffffffffffffffffffffff166108fc670de0b6b3a764000060648887612d379190613edd565b612d419190613eac565b612d4b9190613edd565b9081150290604051600060405180830381858888f19350505050158015612d76573d6000803e3d6000fd5b50612c3d565b505050505050565b6000600360008373ffffffffffffffffffffffffffffffffffffffff1673ffffffffffffffffffffffffffffffffffffffff168152602001908152602001600020549050919050565b600073ffffffffffffffffffffffffffffffffffffffff168273ffffffffffffffffffffffffffffffffffffffff1614156040518060400160405280600681526020017f303033303031000000000000000000000000000000000000000000000000000081525090612e75576040517f08c379a0000000000000000000000000000000000000000000000000000000008152600401612e6c9190613c88565b60405180910390fd5b50600073ffffffffffffffffffffffffffffffffffffffff166001600083815260200190815260200160002060009054906101000a900473ffffffffffffffffffffffffffffffffffffffff1673ffffffffffffffffffffffffffffffffffffffff16146040518060400160405280600681526020017f303033303036000000000000000000000000000000000000000000000000000081525090612f50576040517f08c379a0000000000000000000000000000000000000000000000000000000008152600401612f479190613c88565b60405180910390fd5b50612f5b8282613269565b808273ffffffffffffffffffffffffffffffffffffffff16600073ffffffffffffffffffffffffffffffffffffffff167fddf252ad1be2c89b69c2b068fc378daa952ba7f163c4a11628f55a4df523b3ef60405160405180910390a45050565b81600073ffffffffffffffffffffffffffffffffffffffff166001600083815260200190815260200160002060009054906101000a900473ffffffffffffffffffffffffffffffffffffffff1673ffffffffffffffffffffffffffffffffffffffff1614156040518060400160405280600681526020017f303033303032000000000000000000000000000000000000000000000000000081525090613097576040517f08c379a000000000000000000000000000000000000000000000000000000000815260040161308e9190613c88565b60405180910390fd5b50816007600085815260200190815260200160002090805190602001906130bf92919061343c565b50505050565b6002600082815260200190815260200160002060006101000a81549073ffffffffffffffffffffffffffffffffffffffff021916905550565b8173ffffffffffffffffffffffffffffffffffffffff166001600083815260200190815260200160002060009054906101000a900473ffffffffffffffffffffffffffffffffffffffff1673ffffffffffffffffffffffffffffffffffffffff16146040518060400160405280600681526020017f3030333030370000000000000000000000000000000000000000000000000000815250906131d7576040517f08c379a00000000000000000000000000000000000000000000000000000000081526004016131ce9190613c88565b60405180910390fd5b506001600360008473ffffffffffffffffffffffffffffffffffffffff1673ffffffffffffffffffffffffffffffffffffffff16815260200190815260200160002060008282546132289190613f37565b925050819055506001600082815260200190815260200160002060006101000a81549073ffffffffffffffffffffffffffffffffffffffff02191690555050565b600073ffffffffffffffffffffffffffffffffffffffff166001600083815260200190815260200160002060009054906101000a900473ffffffffffffffffffffffffffffffffffffffff1673ffffffffffffffffffffffffffffffffffffffff16146040518060400160405280600681526020017f303033303036000000000000000000000000000000000000000000000000000081525090613343576040517f08c379a000000000000000000000000000000000000000000000000000000000815260040161333a9190613c88565b60405180910390fd5b50816001600083815260200190815260200160002060006101000a81548173ffffffffffffffffffffffffffffffffffffffff021916908373ffffffffffffffffffffffffffffffffffffffff1602179055506001600360008473ffffffffffffffffffffffffffffffffffffffff1673ffffffffffffffffffffffffffffffffffffffff16815260200190815260200160002060008282546133e69190613e56565b925050819055505050565b60008060007fc5d2460186f7233c927e7db2dcc703c0e500b653ca82273b7bfad8045d85a47060001b9050833f91506000801b82141580156134335750808214155b92505050919050565b8280546134489061403c565b90600052602060002090601f01602090048101928261346a57600085556134b1565b82601f1061348357805160ff19168380011785556134b1565b828001600101855582156134b1579182015b828111156134b0578251825591602001919060010190613495565b5b5090506134be91906134c2565b5090565b5b808211156134db5760008160009055506001016134c3565b5090565b6000813590506134ee8161430e565b92915050565b60008135905061350381614325565b92915050565b6000813590506135188161433c565b92915050565b60008151905061352d8161433c565b92915050565b60008083601f84011261354957613548614178565b5b8235905067ffffffffffffffff81111561356657613565614173565b5b6020830191508360018202830111156135825761358161417d565b5b9250929050565b60008083601f84011261359f5761359e614178565b5b8235905067ffffffffffffffff8111156135bc576135bb614173565b5b6020830191508360018202830111156135d8576135d761417d565b5b9250929050565b6000813590506135ee81614353565b92915050565b60006020828403121561360a57613609614187565b5b6000613618848285016134df565b91505092915050565b6000806040838503121561363857613637614187565b5b6000613646858286016134df565b9250506020613657858286016134df565b9150509250929050565b60008060006060848603121561367a57613679614187565b5b6000613688868287016134df565b9350506020613699868287016134df565b92505060406136aa868287016135df565b9150509250925092565b6000806000806000608086880312156136d0576136cf614187565b5b60006136de888289016134df565b95505060206136ef888289016134df565b9450506040613700888289016135df565b935050606086013567ffffffffffffffff81111561372157613720614182565b5b61372d88828901613533565b92509250509295509295909350565b6000806040838503121561375357613752614187565b5b6000613761858286016134df565b9250506020613772858286016134f4565b9150509250929050565b6000806040838503121561379357613792614187565b5b60006137a1858286016134df565b92505060206137b2858286016135df565b9150509250929050565b600080600080606085870312156137d6576137d5614187565b5b60006137e4878288016134df565b94505060206137f5878288016135df565b935050604085013567ffffffffffffffff81111561381657613815614182565b5b61382287828801613589565b925092505092959194509250565b60006020828403121561384657613845614187565b5b600061385484828501613509565b91505092915050565b60006020828403121561387357613872614187565b5b60006138818482850161351e565b91505092915050565b6000602082840312156138a05761389f614187565b5b60006138ae848285016135df565b91505092915050565b6000806000606084860312156138d0576138cf614187565b5b60006138de868287016135df565b93505060206138ef868287016134df565b9250506040613900868287016135df565b9150509250925092565b600080600080600060a0868803121561392657613925614187565b5b6000613934888289016135df565b9550506020613945888289016134f4565b9450506040613956888289016135df565b9350506060613967888289016135df565b9250506080613978888289016135df565b9150509295509295909350565b6000613991838361399d565b60208301905092915050565b6139a681613f6b565b82525050565b6139b581613f6b565b82525050565b60006139c682613df5565b6139d08185613e23565b93506139db83613de5565b8060005b83811015613a0c5781516139f38882613985565b97506139fe83613e16565b9250506001810190506139df565b5085935050505092915050565b613a2281613f7d565b82525050565b6000613a3382613e00565b613a3d8185613e34565b9350613a4d818560208601613fdf565b613a568161418c565b840191505092915050565b6000613a6c82613e0b565b613a768185613e45565b9350613a86818560208601613fdf565b613a8f8161418c565b840191505092915050565b6000613aa7601083613e45565b9150613ab28261419d565b602082019050919050565b6000613aca601083613e45565b9150613ad5826141c6565b602082019050919050565b6000613aed600f83613e45565b9150613af8826141ef565b602082019050919050565b6000613b10601283613e45565b9150613b1b82614218565b602082019050919050565b6000613b33600d83613e45565b9150613b3e82614241565b602082019050919050565b6000613b56601083613e45565b9150613b618261426a565b602082019050919050565b6000613b79600e83613e45565b9150613b8482614293565b602082019050919050565b6000613b9c601483613e45565b9150613ba7826142bc565b602082019050919050565b6000613bbf601483613e45565b9150613bca826142e5565b602082019050919050565b613bde81613fd5565b82525050565b6000602082019050613bf960008301846139ac565b92915050565b6000608082019050613c1460008301876139ac565b613c2160208301866139ac565b613c2e6040830185613bd5565b8181036060830152613c408184613a28565b905095945050505050565b60006020820190508181036000830152613c6581846139bb565b905092915050565b6000602082019050613c826000830184613a19565b92915050565b60006020820190508181036000830152613ca28184613a61565b905092915050565b60006020820190508181036000830152613cc381613a9a565b9050919050565b60006020820190508181036000830152613ce381613abd565b9050919050565b60006020820190508181036000830152613d0381613ae0565b9050919050565b60006020820190508181036000830152613d2381613b03565b9050919050565b60006020820190508181036000830152613d4381613b26565b9050919050565b60006020820190508181036000830152613d6381613b49565b9050919050565b60006020820190508181036000830152613d8381613b6c565b9050919050565b60006020820190508181036000830152613da381613b8f565b9050919050565b60006020820190508181036000830152613dc381613bb2565b9050919050565b6000602082019050613ddf6000830184613bd5565b92915050565b6000819050602082019050919050565b600081519050919050565b600081519050919050565b600081519050919050565b6000602082019050919050565b600082825260208201905092915050565b600082825260208201905092915050565b600082825260208201905092915050565b6000613e6182613fd5565b9150613e6c83613fd5565b9250827fffffffffffffffffffffffffffffffffffffffffffffffffffffffffffffffff03821115613ea157613ea06140b7565b5b828201905092915050565b6000613eb782613fd5565b9150613ec283613fd5565b925082613ed257613ed16140e6565b5b828204905092915050565b6000613ee882613fd5565b9150613ef383613fd5565b9250817fffffffffffffffffffffffffffffffffffffffffffffffffffffffffffffffff0483118215151615613f2c57613f2b6140b7565b5b828202905092915050565b6000613f4282613fd5565b9150613f4d83613fd5565b925082821015613f6057613f5f6140b7565b5b828203905092915050565b6000613f7682613fb5565b9050919050565b60008115159050919050565b60007fffffffff0000000000000000000000000000000000000000000000000000000082169050919050565b600073ffffffffffffffffffffffffffffffffffffffff82169050919050565b6000819050919050565b60005b83811015613ffd578082015181840152602081019050613fe2565b8381111561400c576000848401525b50505050565b600061401d82613fd5565b91506000821415614031576140306140b7565b5b600182039050919050565b6000600282049050600182168061405457607f821691505b6020821081141561406857614067614115565b5b50919050565b600061407982613fd5565b91507fffffffffffffffffffffffffffffffffffffffffffffffffffffffffffffffff8214156140ac576140ab6140b7565b5b600182019050919050565b7f4e487b7100000000000000000000000000000000000000000000000000000000600052601160045260246000fd5b7f4e487b7100000000000000000000000000000000000000000000000000000000600052601260045260246000fd5b7f4e487b7100000000000000000000000000000000000000000000000000000000600052602260045260246000fd5b7f4e487b7100000000000000000000000000000000000000000000000000000000600052603260045260246000fd5b600080fd5b600080fd5b600080fd5b600080fd5b600080fd5b6000601f19601f8301169050919050565b7f544f4b454e5f554e5348415241424c4500000000000000000000000000000000600082015250565b7f414c52454144595f415f53484152455200000000000000000000000000000000600082015250565b7f4e46545f4245454e5f5354414b45440000000000000000000000000000000000600082015250565b7f4e46545f53484152455f534f4c445f4f55540000000000000000000000000000600082015250565b7f53484152455f494e56414c494400000000000000000000000000000000000000600082015250565b7f4e46545f4e4f545f5348415241424c4500000000000000000000000000000000600082015250565b7f544f4f5f4d5543485f4d4f4e4559000000000000000000000000000000000000600082015250565b7f4e4f545f5448455f4f574e45525f4f465f4e4654000000000000000000000000600082015250565b7f4e4f545f454e4f5547485f544f5f4255595f3125000000000000000000000000600082015250565b61431781613f6b565b811461432257600080fd5b50565b61432e81613f7d565b811461433957600080fd5b50565b61434581613f89565b811461435057600080fd5b50565b61435c81613fd5565b811461436757600080fd5b5056fea264697066735822122048123d2c81ff80cdf36e1fafcfcf530eccb061541283910064a86a62ddca450864736f6c63430008060033",
  "immutableReferences": {},
  "source": "// SPDX-License-Identifier: MIT\npragma solidity ^0.8.0;\n\nimport \"./tokens/nf-token-metadata.sol\";\nimport \"./ownership/ownable.sol\";\n\n\ncontract MusicNFT is\n  NFTokenMetadata,\n  Ownable\n{\n  /**\n   * @dev Contract constructor. Sets metadata extension `name` and `symbol`.\n   */\n  constructor()\n  {\n    nftName = \"Jacky's Riff\";\n    nftSymbol = \"JRIF\";\n  }\n\n  /**\n   * @dev Mints a new NFT.\n   * @param _to The address that will own the minted NFT.\n   * @param _tokenId of the NFT to be minted by the msg.sender.\n   * @param _uri String representing RFC 3986 URI.\n   */\n  function mint(\n    address _to,\n    uint256 _tokenId,\n    string calldata _uri\n  )\n    external\n    onlyOwner()\n  {\n    super._mint(_to, _tokenId);\n    super._setTokenUri(_tokenId, _uri);\n    ifShared[_tokenId] = false;\n  }\n\n/*************************************************************************************************************************/\n  /**\n   *Basic data structure\n   *Would be better if it's in a struct\n   */\n  mapping (uint256 => uint256) internal valueOfNFT;\n\n  mapping (uint256 => bool) internal ifShared;//if a token is shared, it is also not transactable\n\n  mapping (uint256 => mapping(address => uint256)) internal sharers;///each sharers of an NFT has a certain amount of share\n\n  mapping (uint256 => address []) internal owners;//each NFT has some sharers\n\n  mapping (uint256 => uint256) internal sharersCount;//number of sharers in each mapping ( address => uint256)\n\n  mapping (uint256 => uint256) internal leftShare;//amount of an NFT's share having been held\n\n  mapping (uint256 => uint256) internal tax;//user need to pay if they want a use of an NFT\n\n/*************************************************************************************************************************/\n  /**\n   *Modifier\n   */\n  modifier ifOwner(uint256 _tokenId){\n    require(msg.sender == idToOwner[_tokenId],\"NOT_THE_OWNER_OF_NFT\");\n    _;\n  }\n\n/*************************************************************************************************************************/\n  /**\n   *Basic transaction\n   */\n\n   /**\n   *View Function\n   */\n\n   /**show the value of each NFT\n    *can be seen by everyone\n    */\n  function showValue (\n    uint256 _tokenId\n  )\n    external\n    view\n    returns(uint256 value)\n  {\n    value = valueOfNFT[_tokenId];\n  }\n/*************************************************************************************************************************/\n  /**\n   *Execution Function\n   */\n\n\n  function transferFrom(\n    address _from,\n    address _to,\n    uint256 _tokenId\n  )\n    external\n    override\n    canTransfer(_tokenId)\n    validNFToken(_tokenId)\n  {\n    address tokenOwner = idToOwner[_tokenId];\n    require(tokenOwner == _from, NOT_OWNER);\n    require(_to != address(0), ZERO_ADDRESS);\n    require(ifShared[_tokenId] == false,\"NFT_BEEN_STAKED\");\n\n    _transfer(_to, _tokenId);\n  }\n/*************************************************************************************************************************/\n  /**\n   *Advanced transcation\n   */\n  \n  /**\n   *View Function\n   */\n\n   /*show the sharability of NFT*/\n  function ifSharable(\n    uint256 _tokenId\n  )\n    public\n    view\n    returns(bool result)\n  {\n    result = ifShared[_tokenId];\n  }\n\n  function showLeftShare(\n    uint256 _tokenId\n  )\n    external\n    view\n    returns(uint256 left)\n  {\n    left = leftShare[_tokenId];\n  }\n\n  function showNumOfSharers(\n    uint256 _tokenId\n  )\n    external\n    view\n    returns(uint256 num)\n  {\n    num = sharersCount[_tokenId];\n  }\n\n  function showSharers(\n    uint256 _tokenId\n  )\n    external\n    view\n    returns (address[] memory)\n  {\n    return owners[_tokenId];\n  }\n\n  function showMySharerOfNFT(\n    uint256 _tokenId\n  )\n    external\n    view\n    returns (uint256 myshare)\n  {\n    myshare = sharers[_tokenId][msg.sender];\n  }\n/*************************************************************************************************************************/\n  /**\n   *Execution Function\n   */\n  \n  function initialize(\n    uint256 _tokenId,\n    bool _ifSharable,\n    uint256 sharedAmount,\n    uint256 value,\n    uint256 _tax\n  )\n    external\n    ifOwner(_tokenId)\n  {\n    if(_ifSharable == true){\n      _setSharable(_tokenId,sharedAmount);\n      _setTax(_tokenId,_tax);\n    }\n    else{\n      ifShared[_tokenId] = false;\n      leftShare[_tokenId] = 100;\n      _addsharers(_tokenId, msg.sender, 100);\n    }\n      \n    _setValue(_tokenId,value);\n  }\n\n  /**\n   *NFT holder can add sharers himself without having buyer conduct a transaction\n   */\n  function addsharers(\n    uint256 _tokenId,\n    address newSharer,\n    uint256 share\n  )\n    external\n  {\n    _addsharers(_tokenId, newSharer, share);\n  }\n\n  /**\n   *Buy some share of a certain NFT */\n  function buyNFT(\n    uint256 _tokenId\n  )\n    external\n    payable\n    returns(uint256 shareGot)\n  {\n    uint256 fee = msg.value/ 1 ether;\n    require(ifSharable(_tokenId),\"NFT_NOT_SHARABLE\");\n    require(leftShare[_tokenId]>0,\"NFT_SHARE_SOLD_OUT\");\n    require(fee >= valueOfNFT[_tokenId]/100,\"NOT_ENOUGH_TO_BUY_1%\");\n    require(fee <= (valueOfNFT[_tokenId]*leftShare[_tokenId]/100),\"TOO_MUCH_MONEY\");\n    shareGot = fee * 100 / valueOfNFT[_tokenId];\n    leftShare[_tokenId] = leftShare[_tokenId] - shareGot;\n    if(sharers[_tokenId][msg.sender] == 0){\n      sharersCount[_tokenId] = sharersCount[_tokenId] + 1;\n      owners[_tokenId].push(msg.sender);\n    }//if sharers already, don't add\n    sharers[_tokenId][msg.sender] = sharers[_tokenId][msg.sender] + shareGot;\n    address owner = idToOwner[_tokenId];\n    payable(owner).transfer(msg.value);//transfer to owner msg.value's CFX\n  }\n\n  function useNFT(\n    uint256 _tokenId\n  )\n    external\n    payable\n    returns(uint256 cost)\n  {\n    cost = 0;\n    uint256 i = 0;\n    uint256 j = owners[_tokenId].length;\n    bool flag = false;\n    //  mapping (uint256 => address []) internal owners;//each NFT has some sharers\n    while(j!=0){\n      if(msg.sender == owners[_tokenId][i]){\n        flag = true;\n        j=0;\n      }\n      else{\n        i++;\n        j--;\n      }\n    }\n    if(flag == false){\n      _distributeTax(_tokenId,tax[_tokenId]);\n      cost = tax[_tokenId];\n    }\n      \n  }\n\n\n/*************************************************************************************************************************/\n  /**\n   *Internal Functions\n   */\n\n  /*add a sharer of a NFT*/\n  function _addsharers(\n    uint256 _tokenId, \n    address newSharer, \n    uint256 share\n    )\n      internal\n      ifOwner(_tokenId)\n    {\n    require(ifSharable(_tokenId),\"TOKEN_UNSHARABLE\");\n    require(sharers[_tokenId][newSharer]==0,\"ALREADY_A_SHARER\");\n    require(share >=1 && share <=leftShare[_tokenId],\"SHARE_INVALID\");\n    sharersCount[_tokenId] = sharersCount[_tokenId] + 1;\n    sharers[_tokenId][newSharer] = share;\n    leftShare[_tokenId] = leftShare[_tokenId] - share;\n    owners[_tokenId].push(msg.sender);\n  }\n\n  function _distributeTax(\n    uint256 _tokenId,\n    uint256 amount\n  )\n    internal\n  {\n    address temp;\n    uint256 share;\n    uint256 i = 0;\n    uint256 j = owners[_tokenId].length;\n    while(j!=0){\n      temp = owners[_tokenId][i];\n      share = sharers[_tokenId][temp];\n      i++;\n      j--;\n      // mapping (uint256 => mapping(address => uint256)) internal sharers;\n      payable(temp).transfer(share*amount/100 * 1 ether);\n    }\n  }\n\n  function _setSharable(\n    uint256 _tokenId,\n    uint256 subscribableAmount\n  )\n    internal\n    ifOwner(_tokenId)\n  {\n    ifShared[_tokenId] = true;\n    leftShare[_tokenId] = 100;\n    _addsharers(_tokenId, msg.sender, 100-subscribableAmount);\n  }\n\n  /*set the value of each NFT by owner*/\n  function _setValue(\n    uint256 _tokenId,\n    uint256 value\n  )\n    internal\n    ifOwner(_tokenId)\n  {\n    valueOfNFT[_tokenId] = value;\n  }\n\n   function _setTax(\n    uint256 _tokenId,\n    uint256 _tax\n  )\n    internal\n    ifOwner(_tokenId)\n  {\n    tax[_tokenId] = _tax;\n  }\n\n}",
  "sourcePath": "C:/Users/jacky/Desktop/ConfluxProj/MusicNFT/contracts/MusicNFT.sol",
  "compiler": {
    "name": "solc",
    "version": "0.8.6+commit.11564f7e.Emscripten.clang"
  },
  "schemaVersion": "3.3.4",
  "updatedAt": "2021-09-08T17:16:01.841Z",
  "devdoc": {
    "kind": "dev",
    "methods": {
      "approve(address,uint256)": {
        "details": "Set or reaffirm the approved address for an NFT. This function can be changed to payable.",
        "params": {
          "_approved": "Address to be approved for the given NFT ID.",
          "_tokenId": "ID of the token to be approved."
        }
      },
      "balanceOf(address)": {
        "details": "Returns the number of NFTs owned by `_owner`. NFTs assigned to the zero address are considered invalid, and this function throws for queries about the zero address.",
        "params": {
          "_owner": "Address for whom to query the balance."
        },
        "returns": {
          "_0": "Balance of _owner."
        }
      },
      "constructor": {
        "details": "Contract constructor. Sets metadata extension `name` and `symbol`."
      },
      "getApproved(uint256)": {
        "details": "Get the approved address for a single NFT.",
        "params": {
          "_tokenId": "ID of the NFT to query the approval of."
        },
        "returns": {
          "_0": "Address that _tokenId is approved for."
        }
      },
      "isApprovedForAll(address,address)": {
        "details": "Checks if `_operator` is an approved operator for `_owner`.",
        "params": {
          "_operator": "The address that acts on behalf of the owner.",
          "_owner": "The address that owns the NFTs."
        },
        "returns": {
          "_0": "True if approved for all, false otherwise."
        }
      },
      "mint(address,uint256,string)": {
        "details": "Mints a new NFT.",
        "params": {
          "_to": "The address that will own the minted NFT.",
          "_tokenId": "of the NFT to be minted by the msg.sender.",
          "_uri": "String representing RFC 3986 URI."
        }
      },
      "name()": {
        "details": "Returns a descriptive name for a collection of NFTokens.",
        "returns": {
          "_name": "Representing name."
        }
      },
      "ownerOf(uint256)": {
        "details": "Returns the address of the owner of the NFT. NFTs assigned to the zero address are considered invalid, and queries about them do throw.",
        "params": {
          "_tokenId": "The identifier for an NFT."
        },
        "returns": {
          "_owner": "Address of _tokenId owner."
        }
      },
      "safeTransferFrom(address,address,uint256)": {
        "details": "Transfers the ownership of an NFT from one address to another address. This function can be changed to payable.",
        "params": {
          "_from": "The current owner of the NFT.",
          "_to": "The new owner.",
          "_tokenId": "The NFT to transfer."
        }
      },
      "safeTransferFrom(address,address,uint256,bytes)": {
        "details": "Transfers the ownership of an NFT from one address to another address. This function can be changed to payable.",
        "params": {
          "_data": "Additional data with no specified format, sent in call to `_to`.",
          "_from": "The current owner of the NFT.",
          "_to": "The new owner.",
          "_tokenId": "The NFT to transfer."
        }
      },
      "setApprovalForAll(address,bool)": {
        "details": "Enables or disables approval for a third party (\"operator\") to manage all of `msg.sender`'s assets. It also emits the ApprovalForAll event.",
        "params": {
          "_approved": "True if the operators is approved, false to revoke approval.",
          "_operator": "Address to add to the set of authorized operators."
        }
      },
      "supportsInterface(bytes4)": {
        "details": "Function to check which interfaces are suported by this contract.",
        "params": {
          "_interfaceID": "Id of the interface."
        },
        "returns": {
          "_0": "True if _interfaceID is supported, false otherwise."
        }
      },
      "symbol()": {
        "details": "Returns an abbreviated name for NFTokens.",
        "returns": {
          "_symbol": "Representing symbol."
        }
      },
      "tokenURI(uint256)": {
        "details": "A distinct URI (RFC 3986) for a given NFT.",
        "params": {
          "_tokenId": "Id for which we want uri."
        },
        "returns": {
          "_0": "URI of _tokenId."
        }
      }
    },
    "version": 1
  },
  "userdoc": {
    "kind": "user",
    "methods": {
      "addsharers(uint256,address,uint256)": {
        "notice": "NFT holder can add sharers himself without having buyer conduct a transaction"
      },
      "approve(address,uint256)": {
        "notice": "The zero address indicates there is no approved address. Throws unless `msg.sender` is the current NFT owner, or an authorized operator of the current owner."
      },
      "buyNFT(uint256)": {
        "notice": "Buy some share of a certain NFT "
      },
      "getApproved(uint256)": {
        "notice": "Throws if `_tokenId` is not a valid NFT."
      },
      "ifSharable(uint256)": {
        "notice": "View Function"
      },
      "initialize(uint256,bool,uint256,uint256,uint256)": {
        "notice": "Execution Function"
      },
      "safeTransferFrom(address,address,uint256)": {
        "notice": "This works identically to the other function with an extra data parameter, except this function just sets data to \"\"."
      },
      "safeTransferFrom(address,address,uint256,bytes)": {
        "notice": "Throws unless `msg.sender` is the current owner, an authorized operator, or the approved address for this NFT. Throws if `_from` is not the current owner. Throws if `_to` is the zero address. Throws if `_tokenId` is not a valid NFT. When transfer is complete, this function checks if `_to` is a smart contract (code size > 0). If so, it calls `onERC721Received` on `_to` and throws if the return value is not `bytes4(keccak256(\"onERC721Received(address,uint256,bytes)\"))`."
      },
      "setApprovalForAll(address,bool)": {
        "notice": "This works even if sender doesn't own any tokens at the time."
      },
      "showValue(uint256)": {
        "notice": "show the value of each NFT can be seen by everyone"
      },
      "transferFrom(address,address,uint256)": {
        "notice": "Execution Function"
      }
    },
    "version": 1
  }
}