{
  "contractName": "MusicNFT",
  "abi": [
    {
      "inputs": [],
      "stateMutability": "payable",
      "type": "constructor"
    },
    {
      "anonymous": false,
      "inputs": [
        {
          "indexed": true,
          "internalType": "address",
          "name": "_owner",
          "type": "address"
        },
        {
          "indexed": true,
          "internalType": "address",
          "name": "_approved",
          "type": "address"
        },
        {
          "indexed": true,
          "internalType": "uint256",
          "name": "_tokenId",
          "type": "uint256"
        }
      ],
      "name": "Approval",
      "type": "event"
    },
    {
      "anonymous": false,
      "inputs": [
        {
          "indexed": true,
          "internalType": "address",
          "name": "_owner",
          "type": "address"
        },
        {
          "indexed": true,
          "internalType": "address",
          "name": "_operator",
          "type": "address"
        },
        {
          "indexed": false,
          "internalType": "bool",
          "name": "_approved",
          "type": "bool"
        }
      ],
      "name": "ApprovalForAll",
      "type": "event"
    },
    {
      "anonymous": false,
      "inputs": [
        {
          "indexed": true,
          "internalType": "address",
          "name": "previousOwner",
          "type": "address"
        },
        {
          "indexed": true,
          "internalType": "address",
          "name": "newOwner",
          "type": "address"
        }
      ],
      "name": "OwnershipTransferred",
      "type": "event"
    },
    {
      "anonymous": false,
      "inputs": [
        {
          "indexed": true,
          "internalType": "address",
          "name": "_from",
          "type": "address"
        },
        {
          "indexed": true,
          "internalType": "address",
          "name": "_to",
          "type": "address"
        },
        {
          "indexed": true,
          "internalType": "uint256",
          "name": "_tokenId",
          "type": "uint256"
        }
      ],
      "name": "Transfer",
      "type": "event"
    },
    {
      "inputs": [],
      "name": "_owner",
      "outputs": [
        {
          "internalType": "address",
          "name": "",
          "type": "address"
        }
      ],
      "stateMutability": "view",
      "type": "function"
    },
    {
      "inputs": [
        {
          "internalType": "address",
          "name": "_approved",
          "type": "address"
        },
        {
          "internalType": "uint256",
          "name": "_tokenId",
          "type": "uint256"
        }
      ],
      "name": "approve",
      "outputs": [],
      "stateMutability": "nonpayable",
      "type": "function"
    },
    {
      "inputs": [
        {
          "internalType": "address",
          "name": "_owner",
          "type": "address"
        }
      ],
      "name": "balanceOf",
      "outputs": [
        {
          "internalType": "uint256",
          "name": "",
          "type": "uint256"
        }
      ],
      "stateMutability": "view",
      "type": "function"
    },
    {
      "inputs": [
        {
          "internalType": "uint256",
          "name": "_tokenId",
          "type": "uint256"
        }
      ],
      "name": "getApproved",
      "outputs": [
        {
          "internalType": "address",
          "name": "",
          "type": "address"
        }
      ],
      "stateMutability": "view",
      "type": "function"
    },
    {
      "inputs": [
        {
          "internalType": "address",
          "name": "_owner",
          "type": "address"
        },
        {
          "internalType": "address",
          "name": "_operator",
          "type": "address"
        }
      ],
      "name": "isApprovedForAll",
      "outputs": [
        {
          "internalType": "bool",
          "name": "",
          "type": "bool"
        }
      ],
      "stateMutability": "view",
      "type": "function"
    },
    {
      "inputs": [],
      "name": "name",
      "outputs": [
        {
          "internalType": "string",
          "name": "_name",
          "type": "string"
        }
      ],
      "stateMutability": "view",
      "type": "function"
    },
    {
      "inputs": [
        {
          "internalType": "uint256",
          "name": "_tokenId",
          "type": "uint256"
        }
      ],
      "name": "ownerOf",
      "outputs": [
        {
          "internalType": "address",
          "name": "_owner",
          "type": "address"
        }
      ],
      "stateMutability": "view",
      "type": "function"
    },
    {
      "inputs": [
        {
          "internalType": "address",
          "name": "_from",
          "type": "address"
        },
        {
          "internalType": "address",
          "name": "_to",
          "type": "address"
        },
        {
          "internalType": "uint256",
          "name": "_tokenId",
          "type": "uint256"
        }
      ],
      "name": "safeTransferFrom",
      "outputs": [],
      "stateMutability": "nonpayable",
      "type": "function"
    },
    {
      "inputs": [
        {
          "internalType": "address",
          "name": "_from",
          "type": "address"
        },
        {
          "internalType": "address",
          "name": "_to",
          "type": "address"
        },
        {
          "internalType": "uint256",
          "name": "_tokenId",
          "type": "uint256"
        },
        {
          "internalType": "bytes",
          "name": "_data",
          "type": "bytes"
        }
      ],
      "name": "safeTransferFrom",
      "outputs": [],
      "stateMutability": "nonpayable",
      "type": "function"
    },
    {
      "inputs": [
        {
          "internalType": "address",
          "name": "_operator",
          "type": "address"
        },
        {
          "internalType": "bool",
          "name": "_approved",
          "type": "bool"
        }
      ],
      "name": "setApprovalForAll",
      "outputs": [],
      "stateMutability": "nonpayable",
      "type": "function"
    },
    {
      "inputs": [
        {
          "internalType": "bytes4",
          "name": "_interfaceID",
          "type": "bytes4"
        }
      ],
      "name": "supportsInterface",
      "outputs": [
        {
          "internalType": "bool",
          "name": "",
          "type": "bool"
        }
      ],
      "stateMutability": "view",
      "type": "function"
    },
    {
      "inputs": [],
      "name": "symbol",
      "outputs": [
        {
          "internalType": "string",
          "name": "_symbol",
          "type": "string"
        }
      ],
      "stateMutability": "view",
      "type": "function"
    },
    {
      "inputs": [
        {
          "internalType": "uint256",
          "name": "_tokenId",
          "type": "uint256"
        }
      ],
      "name": "tokenURI",
      "outputs": [
        {
          "internalType": "string",
          "name": "",
          "type": "string"
        }
      ],
      "stateMutability": "view",
      "type": "function"
    },
    {
      "inputs": [],
      "name": "transferToContract",
      "outputs": [],
      "stateMutability": "payable",
      "type": "function"
    },
    {
      "inputs": [
        {
          "internalType": "address",
          "name": "_to",
          "type": "address"
        },
        {
          "internalType": "uint256",
          "name": "_tokenId",
          "type": "uint256"
        },
        {
          "internalType": "string",
          "name": "_uri",
          "type": "string"
        }
      ],
      "name": "mint",
      "outputs": [],
      "stateMutability": "nonpayable",
      "type": "function"
    },
    {
      "inputs": [
        {
          "internalType": "uint256",
          "name": "_tokenId",
          "type": "uint256"
        }
      ],
      "name": "showValue",
      "outputs": [
        {
          "internalType": "uint256",
          "name": "value",
          "type": "uint256"
        }
      ],
      "stateMutability": "view",
      "type": "function"
    },
    {
      "inputs": [
        {
          "internalType": "address",
          "name": "_from",
          "type": "address"
        },
        {
          "internalType": "address",
          "name": "_to",
          "type": "address"
        },
        {
          "internalType": "uint256",
          "name": "_tokenId",
          "type": "uint256"
        }
      ],
      "name": "transferFrom",
      "outputs": [],
      "stateMutability": "nonpayable",
      "type": "function"
    },
    {
      "inputs": [
        {
          "internalType": "uint256",
          "name": "_tokenId",
          "type": "uint256"
        }
      ],
      "name": "showInfoOfNFT",
      "outputs": [
        {
          "internalType": "bool",
          "name": "result",
          "type": "bool"
        },
        {
          "internalType": "uint256",
          "name": "shareLeft",
          "type": "uint256"
        },
        {
          "internalType": "uint256",
          "name": "taxToPay",
          "type": "uint256"
        },
        {
          "internalType": "uint256",
          "name": "numOfSharers",
          "type": "uint256"
        },
        {
          "internalType": "address[]",
          "name": "ownersOfNFT",
          "type": "address[]"
        },
        {
          "internalType": "uint256",
          "name": "usedTime",
          "type": "uint256"
        },
        {
          "internalType": "address[]",
          "name": "usedBy",
          "type": "address[]"
        }
      ],
      "stateMutability": "view",
      "type": "function"
    },
    {
      "inputs": [
        {
          "internalType": "uint256",
          "name": "_tokenId",
          "type": "uint256"
        }
      ],
      "name": "showMySharerOfNFT",
      "outputs": [
        {
          "internalType": "uint256",
          "name": "myshare",
          "type": "uint256"
        }
      ],
      "stateMutability": "view",
      "type": "function"
    },
    {
      "inputs": [
        {
          "internalType": "uint256",
          "name": "_tokenId",
          "type": "uint256"
        }
      ],
      "name": "showLeftShare",
      "outputs": [
        {
          "internalType": "uint256",
          "name": "left",
          "type": "uint256"
        }
      ],
      "stateMutability": "view",
      "type": "function"
    },
    {
      "inputs": [
        {
          "internalType": "uint256",
          "name": "_tokenId",
          "type": "uint256"
        }
      ],
      "name": "showNumOfSharers",
      "outputs": [
        {
          "internalType": "uint256",
          "name": "num",
          "type": "uint256"
        }
      ],
      "stateMutability": "view",
      "type": "function"
    },
    {
      "inputs": [
        {
          "internalType": "uint256",
          "name": "_tokenId",
          "type": "uint256"
        }
      ],
      "name": "showSharers",
      "outputs": [
        {
          "internalType": "address[]",
          "name": "",
          "type": "address[]"
        }
      ],
      "stateMutability": "view",
      "type": "function"
    },
    {
      "inputs": [
        {
          "internalType": "uint256",
          "name": "_tokenId",
          "type": "uint256"
        }
      ],
      "name": "showUseConditionOfNFT",
      "outputs": [
        {
          "internalType": "uint256",
          "name": "",
          "type": "uint256"
        },
        {
          "internalType": "address[]",
          "name": "",
          "type": "address[]"
        }
      ],
      "stateMutability": "view",
      "type": "function"
    },
    {
      "inputs": [
        {
          "internalType": "uint256",
          "name": "_tokenId",
          "type": "uint256"
        },
        {
          "internalType": "bool",
          "name": "_ifSharable",
          "type": "bool"
        },
        {
          "internalType": "uint256",
          "name": "value",
          "type": "uint256"
        },
        {
          "internalType": "uint256",
          "name": "_tax",
          "type": "uint256"
        }
      ],
      "name": "initialize",
      "outputs": [],
      "stateMutability": "nonpayable",
      "type": "function"
    },
    {
      "inputs": [
        {
          "internalType": "uint256",
          "name": "_tokenId",
          "type": "uint256"
        },
        {
          "internalType": "uint256",
          "name": "amount",
          "type": "uint256"
        }
      ],
      "name": "setSharable",
      "outputs": [],
      "stateMutability": "nonpayable",
      "type": "function"
    },
    {
      "inputs": [
        {
          "internalType": "uint256",
          "name": "_tokenId",
          "type": "uint256"
        },
        {
          "internalType": "address",
          "name": "newSharer",
          "type": "address"
        },
        {
          "internalType": "uint256",
          "name": "share",
          "type": "uint256"
        }
      ],
      "name": "addsharers",
      "outputs": [],
      "stateMutability": "nonpayable",
      "type": "function"
    },
    {
      "inputs": [
        {
          "internalType": "uint256",
          "name": "_tokenId",
          "type": "uint256"
        }
      ],
      "name": "buyNFT",
      "outputs": [
        {
          "internalType": "uint256",
          "name": "shareGot",
          "type": "uint256"
        }
      ],
      "stateMutability": "payable",
      "type": "function"
    },
    {
      "inputs": [
        {
          "internalType": "uint256",
          "name": "_tokenId",
          "type": "uint256"
        }
      ],
      "name": "sellNFT",
      "outputs": [
        {
          "internalType": "uint256",
          "name": "shareSold",
          "type": "uint256"
        }
      ],
      "stateMutability": "payable",
      "type": "function"
    },
    {
      "inputs": [
        {
          "internalType": "uint256",
          "name": "_tokenId",
          "type": "uint256"
        }
      ],
      "name": "useNFT",
      "outputs": [
        {
          "internalType": "uint256",
          "name": "cost",
          "type": "uint256"
        }
      ],
      "stateMutability": "payable",
      "type": "function"
    },
    {
      "inputs": [],
      "name": "getAddress",
      "outputs": [
        {
          "internalType": "address",
          "name": "",
          "type": "address"
        }
      ],
      "stateMutability": "view",
      "type": "function"
    }
  ],
  "bytecode": "0x608060405260016000806301ffc9a760e01b7bffffffffffffffffffffffffffffffffffffffffffffffffffffffff1916815260200190815260200160002060006101000a81548160ff02191690831515021790555060016000806380ac58cd60e01b7bffffffffffffffffffffffffffffffffffffffffffffffffffffffff1916815260200190815260200160002060006101000a81548160ff0219169083151502179055506001600080635b5e139f60e01b7bffffffffffffffffffffffffffffffffffffffffffffffffffffffff1916815260200190815260200160002060006101000a81548160ff02191690831515021790555033600860006101000a81548173ffffffffffffffffffffffffffffffffffffffff021916908373ffffffffffffffffffffffffffffffffffffffff16021790555033600960006101000a81548173ffffffffffffffffffffffffffffffffffffffff021916908373ffffffffffffffffffffffffffffffffffffffff1602179055506040518060400160405280600c81526020017f4a61636b7927732052696666000000000000000000000000000000000000000081525060059080519060200190620001c69291906200021b565b506040518060400160405280600481526020017f4a5249460000000000000000000000000000000000000000000000000000000081525060069080519060200190620002149291906200021b565b5062000330565b8280546200022990620002cb565b90600052602060002090601f0160209004810192826200024d576000855562000299565b82601f106200026857805160ff191683800117855562000299565b8280016001018555821562000299579182015b82811115620002985782518255916020019190600101906200027b565b5b509050620002a89190620002ac565b5090565b5b80821115620002c7576000816000905550600101620002ad565b5090565b60006002820490506001821680620002e457607f821691505b60208210811415620002fb57620002fa62000301565b5b50919050565b7f4e487b7100000000000000000000000000000000000000000000000000000000600052602260045260246000fd5b614efd80620003406000396000f3fe6080604052600436106101cd5760003560e01c806370a08231116100f7578063b88d4fde11610095578063e233449711610064578063e2334497146106d6578063e84f3261146106ff578063e985e9c51461073c578063ee9cdfb314610779576101cd565b8063b88d4fde14610609578063baadf60e14610632578063c87b56dd14610670578063d3fc9864146106ad576101cd565b80639a721a6c116100d15780639a721a6c1461054f578063a21bf0d514610578578063a22cb465146105b5578063b2bdfa7b146105de576101cd565b806370a08231146104aa57806383f68703146104e757806395d89b4114610524576101cd565b806323b872dd1161016f57806351ed82881161013e57806351ed8288146103d057806355b9d4431461040057806359645dc6146104305780636352211e1461046d576101cd565b806323b872dd1461031057806338cc4831146103395780633b0824191461036457806342842e0e146103a7576101cd565b8063095ea7b3116101ab578063095ea7b31461027757806312cccb34146102a057806317fee5f9146102aa5780632172d6b0146102d3576101cd565b806301ffc9a7146101d257806306fdde031461020f578063081812fc1461023a575b600080fd5b3480156101de57600080fd5b506101f960048036038101906101f49190614219565b6107a9565b60405161020691906146a5565b60405180910390f35b34801561021b57600080fd5b50610224610810565b604051610231919061473d565b60405180910390f35b34801561024657600080fd5b50610261600480360381019061025c9190614273565b6108a2565b60405161026e919061461c565b60405180910390f35b34801561028357600080fd5b5061029e60048036038101906102999190614165565b6109bd565b005b6102a8610da0565b005b3480156102b657600080fd5b506102d160048036038101906102cc919061435a565b610da2565b005b3480156102df57600080fd5b506102fa60048036038101906102f59190614273565b610f03565b6040516103079190614683565b60405180910390f35b34801561031c57600080fd5b506103376004803603810190610332919061404a565b610fa4565b005b34801561034557600080fd5b5061034e61145d565b60405161035b919061461c565b60405180910390f35b34801561037057600080fd5b5061038b60048036038101906103869190614273565b611465565b60405161039e97969594939291906146c0565b60405180910390f35b3480156103b357600080fd5b506103ce60048036038101906103c9919061404a565b611637565b005b6103ea60048036038101906103e59190614273565b611657565b6040516103f7919061489f565b60405180910390f35b61041a60048036038101906104159190614273565b611a0e565b604051610427919061489f565b60405180910390f35b34801561043c57600080fd5b5061045760048036038101906104529190614273565b611d4c565b604051610464919061489f565b60405180910390f35b34801561047957600080fd5b50610494600480360381019061048f9190614273565b611d69565b6040516104a1919061461c565b60405180910390f35b3480156104b657600080fd5b506104d160048036038101906104cc9190613fdd565b611e4f565b6040516104de919061489f565b60405180910390f35b3480156104f357600080fd5b5061050e60048036038101906105099190614273565b611f09565b60405161051b919061489f565b60405180910390f35b34801561053057600080fd5b50610539611f63565b604051610546919061473d565b60405180910390f35b34801561055b57600080fd5b50610576600480360381019061057191906142a0565b611ff5565b005b34801561058457600080fd5b5061059f600480360381019061059a9190614273565b612005565b6040516105ac919061489f565b60405180910390f35b3480156105c157600080fd5b506105dc60048036038101906105d79190614125565b612022565b005b3480156105ea57600080fd5b506105f361211f565b604051610600919061461c565b60405180910390f35b34801561061557600080fd5b50610630600480360381019061062b919061409d565b612145565b005b34801561063e57600080fd5b5061065960048036038101906106549190614273565b61219c565b6040516106679291906148ba565b60405180910390f35b34801561067c57600080fd5b5061069760048036038101906106929190614273565b61225e565b6040516106a4919061473d565b60405180910390f35b3480156106b957600080fd5b506106d460048036038101906106cf91906141a5565b6123e1565b005b3480156106e257600080fd5b506106fd60048036038101906106f891906142f3565b612534565b005b34801561070b57600080fd5b5061072660048036038101906107219190614273565b612681565b604051610733919061489f565b60405180910390f35b34801561074857600080fd5b50610763600480360381019061075e919061400a565b61269e565b60405161077091906146a5565b60405180910390f35b610793600480360381019061078e9190614273565b612732565b6040516107a0919061489f565b60405180910390f35b6000806000837bffffffffffffffffffffffffffffffffffffffffffffffffffffffff19167bffffffffffffffffffffffffffffffffffffffffffffffffffffffff1916815260200190815260200160002060009054906101000a900460ff169050919050565b60606005805461081f90614b41565b80601f016020809104026020016040519081016040528092919081815260200182805461084b90614b41565b80156108985780601f1061086d57610100808354040283529160200191610898565b820191906000526020600020905b81548152906001019060200180831161087b57829003601f168201915b5050505050905090565b600081600073ffffffffffffffffffffffffffffffffffffffff166001600083815260200190815260200160002060009054906101000a900473ffffffffffffffffffffffffffffffffffffffff1673ffffffffffffffffffffffffffffffffffffffff1614156040518060400160405280600681526020017f303033303032000000000000000000000000000000000000000000000000000081525090610980576040517f08c379a0000000000000000000000000000000000000000000000000000000008152600401610977919061473d565b60405180910390fd5b506002600084815260200190815260200160002060009054906101000a900473ffffffffffffffffffffffffffffffffffffffff16915050919050565b8060006001600083815260200190815260200160002060009054906101000a900473ffffffffffffffffffffffffffffffffffffffff1690503373ffffffffffffffffffffffffffffffffffffffff168173ffffffffffffffffffffffffffffffffffffffff161480610ab65750600460008273ffffffffffffffffffffffffffffffffffffffff1673ffffffffffffffffffffffffffffffffffffffff16815260200190815260200160002060003373ffffffffffffffffffffffffffffffffffffffff1673ffffffffffffffffffffffffffffffffffffffff16815260200190815260200160002060009054906101000a900460ff165b6040518060400160405280600681526020017f303033303033000000000000000000000000000000000000000000000000000081525090610b2d576040517f08c379a0000000000000000000000000000000000000000000000000000000008152600401610b24919061473d565b60405180910390fd5b5082600073ffffffffffffffffffffffffffffffffffffffff166001600083815260200190815260200160002060009054906101000a900473ffffffffffffffffffffffffffffffffffffffff1673ffffffffffffffffffffffffffffffffffffffff1614156040518060400160405280600681526020017f303033303032000000000000000000000000000000000000000000000000000081525090610c0a576040517f08c379a0000000000000000000000000000000000000000000000000000000008152600401610c01919061473d565b60405180910390fd5b5060006001600086815260200190815260200160002060009054906101000a900473ffffffffffffffffffffffffffffffffffffffff1690508073ffffffffffffffffffffffffffffffffffffffff168673ffffffffffffffffffffffffffffffffffffffff1614156040518060400160405280600681526020017f303033303038000000000000000000000000000000000000000000000000000081525090610cea576040517f08c379a0000000000000000000000000000000000000000000000000000000008152600401610ce1919061473d565b60405180910390fd5b50856002600087815260200190815260200160002060006101000a81548173ffffffffffffffffffffffffffffffffffffffff021916908373ffffffffffffffffffffffffffffffffffffffff160217905550848673ffffffffffffffffffffffffffffffffffffffff168273ffffffffffffffffffffffffffffffffffffffff167f8c5be1e5ebec7d5bd14f71427d1e84f3dd0314c0f7b2291e5b200ac8c7c3b92560405160405180910390a4505050505050565b565b816001600082815260200190815260200160002060009054906101000a900473ffffffffffffffffffffffffffffffffffffffff1673ffffffffffffffffffffffffffffffffffffffff163373ffffffffffffffffffffffffffffffffffffffff1614610e44576040517f08c379a0000000000000000000000000000000000000000000000000000000008152600401610e3b9061485f565b60405180910390fd5b6064600f600085815260200190815260200160002081905550610e748333846064610e6f9190614a3c565b612c6e565b60006064600a60008681526020019081526020016000205484610e9791906149e2565b610ea191906149b1565b90503373ffffffffffffffffffffffffffffffffffffffff166108fc670de0b6b3a764000083610ed191906149e2565b9081150290604051600060405180830381858888f19350505050158015610efc573d6000803e3d6000fd5b5050505050565b6060600d6000838152602001908152602001600020805480602002602001604051908101604052809291908181526020018280548015610f9857602002820191906000526020600020905b8160009054906101000a900473ffffffffffffffffffffffffffffffffffffffff1673ffffffffffffffffffffffffffffffffffffffff1681526020019060010190808311610f4e575b50505050509050919050565b8060006001600083815260200190815260200160002060009054906101000a900473ffffffffffffffffffffffffffffffffffffffff1690503373ffffffffffffffffffffffffffffffffffffffff168173ffffffffffffffffffffffffffffffffffffffff16148061107557503373ffffffffffffffffffffffffffffffffffffffff166002600084815260200190815260200160002060009054906101000a900473ffffffffffffffffffffffffffffffffffffffff1673ffffffffffffffffffffffffffffffffffffffff16145b806111065750600460008273ffffffffffffffffffffffffffffffffffffffff1673ffffffffffffffffffffffffffffffffffffffff16815260200190815260200160002060003373ffffffffffffffffffffffffffffffffffffffff1673ffffffffffffffffffffffffffffffffffffffff16815260200190815260200160002060009054906101000a900460ff165b6040518060400160405280600681526020017f30303330303400000000000000000000000000000000000000000000000000008152509061117d576040517f08c379a0000000000000000000000000000000000000000000000000000000008152600401611174919061473d565b60405180910390fd5b5082600073ffffffffffffffffffffffffffffffffffffffff166001600083815260200190815260200160002060009054906101000a900473ffffffffffffffffffffffffffffffffffffffff1673ffffffffffffffffffffffffffffffffffffffff1614156040518060400160405280600681526020017f30303330303200000000000000000000000000000000000000000000000000008152509061125a576040517f08c379a0000000000000000000000000000000000000000000000000000000008152600401611251919061473d565b60405180910390fd5b5060006001600086815260200190815260200160002060009054906101000a900473ffffffffffffffffffffffffffffffffffffffff1690508673ffffffffffffffffffffffffffffffffffffffff168173ffffffffffffffffffffffffffffffffffffffff16146040518060400160405280600681526020017f303033303037000000000000000000000000000000000000000000000000000081525090611339576040517f08c379a0000000000000000000000000000000000000000000000000000000008152600401611330919061473d565b60405180910390fd5b50600073ffffffffffffffffffffffffffffffffffffffff168673ffffffffffffffffffffffffffffffffffffffff1614156040518060400160405280600681526020017f3030333030310000000000000000000000000000000000000000000000000000815250906113e2576040517f08c379a00000000000000000000000000000000000000000000000000000000081526004016113d9919061473d565b60405180910390fd5b5060001515600b600087815260200190815260200160002060009054906101000a900460ff1615151461144a576040517f08c379a00000000000000000000000000000000000000000000000000000000081526004016114419061477f565b60405180910390fd5b6114548686612f42565b50505050505050565b600030905090565b600080600080606060006060600b600089815260200190815260200160002060009054906101000a900460ff16600f60008a815260200190815260200160002054601060008b815260200190815260200160002054600e60008c815260200190815260200160002054600d60008d8152602001908152602001600020601160008e815260200190815260200160002060010154601160008f81526020019081526020016000206002018280548060200260200160405190810160405280929190818152602001828054801561158f57602002820191906000526020600020905b8160009054906101000a900473ffffffffffffffffffffffffffffffffffffffff1673ffffffffffffffffffffffffffffffffffffffff1681526020019060010190808311611545575b505050505092508080548060200260200160405190810160405280929190818152602001828054801561161757602002820191906000526020600020905b8160009054906101000a900473ffffffffffffffffffffffffffffffffffffffff1673ffffffffffffffffffffffffffffffffffffffff16815260200190600101908083116115cd575b505050505090509650965096509650965096509650919395979092949650565b61165283838360405180602001604052806000815250612ff7565b505050565b600080670de0b6b3a76400003461166e91906149b1565b9050611679836135c5565b6116b8576040517f08c379a00000000000000000000000000000000000000000000000000000000081526004016116af9061481f565b60405180910390fd5b6000600f6000858152602001908152602001600020541161170e576040517f08c379a00000000000000000000000000000000000000000000000000000000081526004016117059061479f565b60405180910390fd5b6064600a60008581526020019081526020016000205461172e91906149b1565b811015611770576040517f08c379a00000000000000000000000000000000000000000000000000000000081526004016117679061487f565b60405180910390fd5b6064600f600085815260200190815260200160002054600a6000868152602001908152602001600020546117a491906149e2565b6117ae91906149b1565b8111156117f0576040517f08c379a00000000000000000000000000000000000000000000000000000000081526004016117e79061483f565b60405180910390fd5b600a60008481526020019081526020016000205460648261181191906149e2565b61181b91906149b1565b915081600f60008581526020019081526020016000205461183c9190614a3c565b600f6000858152602001908152602001600020819055506000600c600085815260200190815260200160002060003373ffffffffffffffffffffffffffffffffffffffff1673ffffffffffffffffffffffffffffffffffffffff168152602001908152602001600020541415611958576001600e6000858152602001908152602001600020546118cc919061495b565b600e600085815260200190815260200160002081905550600d6000848152602001908152602001600020339080600181540180825580915050600190039060005260206000200160009091909190916101000a81548173ffffffffffffffffffffffffffffffffffffffff021916908373ffffffffffffffffffffffffffffffffffffffff1602179055505b81600c600085815260200190815260200160002060003373ffffffffffffffffffffffffffffffffffffffff1673ffffffffffffffffffffffffffffffffffffffff168152602001908152602001600020546119b4919061495b565b600c600085815260200190815260200160002060003373ffffffffffffffffffffffffffffffffffffffff1673ffffffffffffffffffffffffffffffffffffffff1681526020019081526020016000208190555050919050565b6000816011600084815260200190815260200160002060000181905550601160008381526020019081526020016000206001016000815480929190611a5290614b73565b919050555060116000838152602001908152602001600020600201339080600181540180825580915050600190039060005260206000200160009091909190916101000a81548173ffffffffffffffffffffffffffffffffffffffff021916908373ffffffffffffffffffffffffffffffffffffffff16021790555060009050600080600d600085815260200190815260200160002080549050905060005b60008214611bab57600d60008681526020019081526020016000208381548110611b1e57611b1d614c78565b5b9060005260206000200160009054906101000a900473ffffffffffffffffffffffffffffffffffffffff1673ffffffffffffffffffffffffffffffffffffffff163373ffffffffffffffffffffffffffffffffffffffff161415611b89576001905060009150611ba6565b8280611b9490614b73565b9350508180611ba290614b17565b9250505b611af1565b6000806000808015158515151415611d4057601060008a8152602001908152602001600020549750600d60008a81526020019081526020016000208054905090505b60008114611d3f57600d60008a81526020019081526020016000208281548110611c1a57611c19614c78565b5b9060005260206000200160009054906101000a900473ffffffffffffffffffffffffffffffffffffffff169350600c60008a815260200190815260200160002060008573ffffffffffffffffffffffffffffffffffffffff1673ffffffffffffffffffffffffffffffffffffffff1681526020019081526020016000205492508180611ca590614b73565b9250508080611cb390614b17565b9150508373ffffffffffffffffffffffffffffffffffffffff166108fc670de0b6b3a76400006064601060008e81526020019081526020016000205487611cfa91906149e2565b611d0491906149b1565b611d0e91906149e2565b9081150290604051600060405180830381858888f19350505050158015611d39573d6000803e3d6000fd5b50611bed565b5b50505050505050919050565b6000600f6000838152602001908152602001600020549050919050565b60006001600083815260200190815260200160002060009054906101000a900473ffffffffffffffffffffffffffffffffffffffff169050600073ffffffffffffffffffffffffffffffffffffffff168173ffffffffffffffffffffffffffffffffffffffff1614156040518060400160405280600681526020017f303033303032000000000000000000000000000000000000000000000000000081525090611e49576040517f08c379a0000000000000000000000000000000000000000000000000000000008152600401611e40919061473d565b60405180910390fd5b50919050565b60008073ffffffffffffffffffffffffffffffffffffffff168273ffffffffffffffffffffffffffffffffffffffff1614156040518060400160405280600681526020017f303033303031000000000000000000000000000000000000000000000000000081525090611ef8576040517f08c379a0000000000000000000000000000000000000000000000000000000008152600401611eef919061473d565b60405180910390fd5b50611f02826135ef565b9050919050565b6000600c600083815260200190815260200160002060003373ffffffffffffffffffffffffffffffffffffffff1673ffffffffffffffffffffffffffffffffffffffff168152602001908152602001600020549050919050565b606060068054611f7290614b41565b80601f0160208091040260200160405190810160405280929190818152602001828054611f9e90614b41565b8015611feb5780601f10611fc057610100808354040283529160200191611feb565b820191906000526020600020905b815481529060010190602001808311611fce57829003601f168201915b5050505050905090565b612000838383612c6e565b505050565b6000600a6000838152602001908152602001600020549050919050565b80600460003373ffffffffffffffffffffffffffffffffffffffff1673ffffffffffffffffffffffffffffffffffffffff16815260200190815260200160002060008473ffffffffffffffffffffffffffffffffffffffff1673ffffffffffffffffffffffffffffffffffffffff16815260200190815260200160002060006101000a81548160ff0219169083151502179055508173ffffffffffffffffffffffffffffffffffffffff163373ffffffffffffffffffffffffffffffffffffffff167f17307eab39ab6107e8899845ad3d59bd9653f200f220920489ca2b5937696c318360405161211391906146a5565b60405180910390a35050565b600960009054906101000a900473ffffffffffffffffffffffffffffffffffffffff1681565b61219585858585858080601f016020809104026020016040519081016040528093929190818152602001838380828437600081840152601f19601f82011690508083019250505050505050612ff7565b5050505050565b600060606011600084815260200190815260200160002060010154601160008581526020019081526020016000206002018080548060200260200160405190810160405280929190818152602001828054801561224e57602002820191906000526020600020905b8160009054906101000a900473ffffffffffffffffffffffffffffffffffffffff1673ffffffffffffffffffffffffffffffffffffffff1681526020019060010190808311612204575b5050505050905091509150915091565b606081600073ffffffffffffffffffffffffffffffffffffffff166001600083815260200190815260200160002060009054906101000a900473ffffffffffffffffffffffffffffffffffffffff1673ffffffffffffffffffffffffffffffffffffffff1614156040518060400160405280600681526020017f30303330303200000000000000000000000000000000000000000000000000008152509061233c576040517f08c379a0000000000000000000000000000000000000000000000000000000008152600401612333919061473d565b60405180910390fd5b5060076000848152602001908152602001600020805461235b90614b41565b80601f016020809104026020016040519081016040528092919081815260200182805461238790614b41565b80156123d45780601f106123a9576101008083540402835291602001916123d4565b820191906000526020600020905b8154815290600101906020018083116123b757829003601f168201915b5050505050915050919050565b600860009054906101000a900473ffffffffffffffffffffffffffffffffffffffff1673ffffffffffffffffffffffffffffffffffffffff163373ffffffffffffffffffffffffffffffffffffffff16146040518060400160405280600681526020017f3031383030310000000000000000000000000000000000000000000000000000815250906124a9576040517f08c379a00000000000000000000000000000000000000000000000000000000081526004016124a0919061473d565b60405180910390fd5b506124b48484613638565b6125028383838080601f016020809104026020016040519081016040528093929190818152602001838380828437600081840152601f19601f82011690508083019250505050505050613826565b6000600b600085815260200190815260200160002060006101000a81548160ff02191690831515021790555050505050565b836001600082815260200190815260200160002060009054906101000a900473ffffffffffffffffffffffffffffffffffffffff1673ffffffffffffffffffffffffffffffffffffffff163373ffffffffffffffffffffffffffffffffffffffff16146125d6576040517f08c379a00000000000000000000000000000000000000000000000000000000081526004016125cd9061485f565b60405180910390fd5b60011515841515141561261e576001600b600087815260200190815260200160002060006101000a81548160ff0219169083151502179055506126198583613930565b612670565b6000600b600087815260200190815260200160002060006101000a81548160ff0219169083151502179055506064600f60008781526020019081526020016000208190555061266f85336064612c6e565b5b61267a85846139ef565b5050505050565b6000600e6000838152602001908152602001600020549050919050565b6000600460008473ffffffffffffffffffffffffffffffffffffffff1673ffffffffffffffffffffffffffffffffffffffff16815260200190815260200160002060008373ffffffffffffffffffffffffffffffffffffffff1673ffffffffffffffffffffffffffffffffffffffff16815260200190815260200160002060009054906101000a900460ff16905092915050565b600080670de0b6b3a76400003461274991906149b1565b90506064600a60008581526020019081526020016000205461276b91906149b1565b8110156127ad576040517f08c379a00000000000000000000000000000000000000000000000000000000081526004016127a4906147df565b60405180910390fd5b6064600c600085815260200190815260200160002060003373ffffffffffffffffffffffffffffffffffffffff1673ffffffffffffffffffffffffffffffffffffffff16815260200190815260200160002054600a60008681526020019081526020016000205461281e91906149e2565b61282891906149b1565b81111561286a576040517f08c379a0000000000000000000000000000000000000000000000000000000008152600401612861906147ff565b60405180910390fd5b600a60008481526020019081526020016000205460648261288b91906149e2565b61289591906149b1565b915081600f6000858152602001908152602001600020546128b6919061495b565b600f6000858152602001908152602001600020819055506064600c600085815260200190815260200160002060003373ffffffffffffffffffffffffffffffffffffffff1673ffffffffffffffffffffffffffffffffffffffff16815260200190815260200160002054600a60008681526020019081526020016000205461293e91906149e2565b61294891906149b1565b811415612b71576001600e60008581526020019081526020016000205461296f9190614a3c565b600e60008581526020019081526020016000208190555060005b3373ffffffffffffffffffffffffffffffffffffffff16600d600086815260200190815260200160002082806129be90614b73565b9350815481106129d1576129d0614c78565b5b9060005260206000200160009054906101000a900473ffffffffffffffffffffffffffffffffffffffff1673ffffffffffffffffffffffffffffffffffffffff1614612a1c57612989565b5b600d600085815260200190815260200160002080549050811015612b1757600d60008581526020019081526020016000208181548110612a6057612a5f614c78565b5b9060005260206000200160009054906101000a900473ffffffffffffffffffffffffffffffffffffffff16600d6000868152602001908152602001600020600183612aab9190614a3c565b81548110612abc57612abb614c78565b5b9060005260206000200160006101000a81548173ffffffffffffffffffffffffffffffffffffffff021916908373ffffffffffffffffffffffffffffffffffffffff1602179055508080612b0f90614b73565b915050612a1d565b600d6000858152602001908152602001600020805480612b3a57612b39614c49565b5b6001900381819060005260206000200160006101000a81549073ffffffffffffffffffffffffffffffffffffffff02191690559055505b81600c600085815260200190815260200160002060003373ffffffffffffffffffffffffffffffffffffffff1673ffffffffffffffffffffffffffffffffffffffff16815260200190815260200160002054612bcd9190614a3c565b600c600085815260200190815260200160002060003373ffffffffffffffffffffffffffffffffffffffff1673ffffffffffffffffffffffffffffffffffffffff168152602001908152602001600020819055503373ffffffffffffffffffffffffffffffffffffffff166108fc349081150290604051600060405180830381858888f19350505050158015612c67573d6000803e3d6000fd5b5050919050565b826001600082815260200190815260200160002060009054906101000a900473ffffffffffffffffffffffffffffffffffffffff1673ffffffffffffffffffffffffffffffffffffffff163373ffffffffffffffffffffffffffffffffffffffff1614612d10576040517f08c379a0000000000000000000000000000000000000000000000000000000008152600401612d079061485f565b60405180910390fd5b6000600c600086815260200190815260200160002060008573ffffffffffffffffffffffffffffffffffffffff1673ffffffffffffffffffffffffffffffffffffffff1681526020019081526020016000205414612da3576040517f08c379a0000000000000000000000000000000000000000000000000000000008152600401612d9a9061475f565b60405180910390fd5b60018210158015612dc75750600f6000858152602001908152602001600020548211155b612e06576040517f08c379a0000000000000000000000000000000000000000000000000000000008152600401612dfd906147bf565b60405180910390fd5b6001600e600086815260200190815260200160002054612e26919061495b565b600e60008681526020019081526020016000208190555081600c600086815260200190815260200160002060008573ffffffffffffffffffffffffffffffffffffffff1673ffffffffffffffffffffffffffffffffffffffff1681526020019081526020016000208190555081600f600086815260200190815260200160002054612eb19190614a3c565b600f600086815260200190815260200160002081905550600d6000858152602001908152602001600020339080600181540180825580915050600190039060005260206000200160009091909190916101000a81548173ffffffffffffffffffffffffffffffffffffffff021916908373ffffffffffffffffffffffffffffffffffffffff16021790555050505050565b60006001600083815260200190815260200160002060009054906101000a900473ffffffffffffffffffffffffffffffffffffffff169050612f8382613aae565b612f8d8183613ae7565b612f978383613c52565b818373ffffffffffffffffffffffffffffffffffffffff168273ffffffffffffffffffffffffffffffffffffffff167fddf252ad1be2c89b69c2b068fc378daa952ba7f163c4a11628f55a4df523b3ef60405160405180910390a4505050565b8160006001600083815260200190815260200160002060009054906101000a900473ffffffffffffffffffffffffffffffffffffffff1690503373ffffffffffffffffffffffffffffffffffffffff168173ffffffffffffffffffffffffffffffffffffffff1614806130c857503373ffffffffffffffffffffffffffffffffffffffff166002600084815260200190815260200160002060009054906101000a900473ffffffffffffffffffffffffffffffffffffffff1673ffffffffffffffffffffffffffffffffffffffff16145b806131595750600460008273ffffffffffffffffffffffffffffffffffffffff1673ffffffffffffffffffffffffffffffffffffffff16815260200190815260200160002060003373ffffffffffffffffffffffffffffffffffffffff1673ffffffffffffffffffffffffffffffffffffffff16815260200190815260200160002060009054906101000a900460ff165b6040518060400160405280600681526020017f3030333030340000000000000000000000000000000000000000000000000000815250906131d0576040517f08c379a00000000000000000000000000000000000000000000000000000000081526004016131c7919061473d565b60405180910390fd5b5083600073ffffffffffffffffffffffffffffffffffffffff166001600083815260200190815260200160002060009054906101000a900473ffffffffffffffffffffffffffffffffffffffff1673ffffffffffffffffffffffffffffffffffffffff1614156040518060400160405280600681526020017f3030333030320000000000000000000000000000000000000000000000000000815250906132ad576040517f08c379a00000000000000000000000000000000000000000000000000000000081526004016132a4919061473d565b60405180910390fd5b5060006001600087815260200190815260200160002060009054906101000a900473ffffffffffffffffffffffffffffffffffffffff1690508773ffffffffffffffffffffffffffffffffffffffff168173ffffffffffffffffffffffffffffffffffffffff16146040518060400160405280600681526020017f30303330303700000000000000000000000000000000000000000000000000008152509061338c576040517f08c379a0000000000000000000000000000000000000000000000000000000008152600401613383919061473d565b60405180910390fd5b50600073ffffffffffffffffffffffffffffffffffffffff168773ffffffffffffffffffffffffffffffffffffffff1614156040518060400160405280600681526020017f303033303031000000000000000000000000000000000000000000000000000081525090613435576040517f08c379a000000000000000000000000000000000000000000000000000000000815260040161342c919061473d565b60405180910390fd5b506134408787612f42565b61345f8773ffffffffffffffffffffffffffffffffffffffff16613dda565b156135bb5760008773ffffffffffffffffffffffffffffffffffffffff1663150b7a02338b8a8a6040518563ffffffff1660e01b81526004016134a59493929190614637565b602060405180830381600087803b1580156134bf57600080fd5b505af11580156134d3573d6000803e3d6000fd5b505050506040513d601f19601f820116820180604052508101906134f79190614246565b905063150b7a0260e01b7bffffffffffffffffffffffffffffffffffffffffffffffffffffffff1916817bffffffffffffffffffffffffffffffffffffffffffffffffffffffff1916146040518060400160405280600681526020017f3030333030350000000000000000000000000000000000000000000000000000815250906135b8576040517f08c379a00000000000000000000000000000000000000000000000000000000081526004016135af919061473d565b60405180910390fd5b50505b5050505050505050565b6000600b600083815260200190815260200160002060009054906101000a900460ff169050919050565b6000600360008373ffffffffffffffffffffffffffffffffffffffff1673ffffffffffffffffffffffffffffffffffffffff168152602001908152602001600020549050919050565b600073ffffffffffffffffffffffffffffffffffffffff168273ffffffffffffffffffffffffffffffffffffffff1614156040518060400160405280600681526020017f3030333030310000000000000000000000000000000000000000000000000000815250906136e0576040517f08c379a00000000000000000000000000000000000000000000000000000000081526004016136d7919061473d565b60405180910390fd5b50600073ffffffffffffffffffffffffffffffffffffffff166001600083815260200190815260200160002060009054906101000a900473ffffffffffffffffffffffffffffffffffffffff1673ffffffffffffffffffffffffffffffffffffffff16146040518060400160405280600681526020017f3030333030360000000000000000000000000000000000000000000000000000815250906137bb576040517f08c379a00000000000000000000000000000000000000000000000000000000081526004016137b2919061473d565b60405180910390fd5b506137c68282613c52565b808273ffffffffffffffffffffffffffffffffffffffff16600073ffffffffffffffffffffffffffffffffffffffff167fddf252ad1be2c89b69c2b068fc378daa952ba7f163c4a11628f55a4df523b3ef60405160405180910390a45050565b81600073ffffffffffffffffffffffffffffffffffffffff166001600083815260200190815260200160002060009054906101000a900473ffffffffffffffffffffffffffffffffffffffff1673ffffffffffffffffffffffffffffffffffffffff1614156040518060400160405280600681526020017f303033303032000000000000000000000000000000000000000000000000000081525090613902576040517f08c379a00000000000000000000000000000000000000000000000000000000081526004016138f9919061473d565b60405180910390fd5b508160076000858152602001908152602001600020908051906020019061392a929190613e25565b50505050565b816001600082815260200190815260200160002060009054906101000a900473ffffffffffffffffffffffffffffffffffffffff1673ffffffffffffffffffffffffffffffffffffffff163373ffffffffffffffffffffffffffffffffffffffff16146139d2576040517f08c379a00000000000000000000000000000000000000000000000000000000081526004016139c99061485f565b60405180910390fd5b816010600085815260200190815260200160002081905550505050565b816001600082815260200190815260200160002060009054906101000a900473ffffffffffffffffffffffffffffffffffffffff1673ffffffffffffffffffffffffffffffffffffffff163373ffffffffffffffffffffffffffffffffffffffff1614613a91576040517f08c379a0000000000000000000000000000000000000000000000000000000008152600401613a889061485f565b60405180910390fd5b81600a600085815260200190815260200160002081905550505050565b6002600082815260200190815260200160002060006101000a81549073ffffffffffffffffffffffffffffffffffffffff021916905550565b8173ffffffffffffffffffffffffffffffffffffffff166001600083815260200190815260200160002060009054906101000a900473ffffffffffffffffffffffffffffffffffffffff1673ffffffffffffffffffffffffffffffffffffffff16146040518060400160405280600681526020017f303033303037000000000000000000000000000000000000000000000000000081525090613bc0576040517f08c379a0000000000000000000000000000000000000000000000000000000008152600401613bb7919061473d565b60405180910390fd5b506001600360008473ffffffffffffffffffffffffffffffffffffffff1673ffffffffffffffffffffffffffffffffffffffff1681526020019081526020016000206000828254613c119190614a3c565b925050819055506001600082815260200190815260200160002060006101000a81549073ffffffffffffffffffffffffffffffffffffffff02191690555050565b600073ffffffffffffffffffffffffffffffffffffffff166001600083815260200190815260200160002060009054906101000a900473ffffffffffffffffffffffffffffffffffffffff1673ffffffffffffffffffffffffffffffffffffffff16146040518060400160405280600681526020017f303033303036000000000000000000000000000000000000000000000000000081525090613d2c576040517f08c379a0000000000000000000000000000000000000000000000000000000008152600401613d23919061473d565b60405180910390fd5b50816001600083815260200190815260200160002060006101000a81548173ffffffffffffffffffffffffffffffffffffffff021916908373ffffffffffffffffffffffffffffffffffffffff1602179055506001600360008473ffffffffffffffffffffffffffffffffffffffff1673ffffffffffffffffffffffffffffffffffffffff1681526020019081526020016000206000828254613dcf919061495b565b925050819055505050565b60008060007fc5d2460186f7233c927e7db2dcc703c0e500b653ca82273b7bfad8045d85a47060001b9050833f91506000801b8214158015613e1c5750808214155b92505050919050565b828054613e3190614b41565b90600052602060002090601f016020900481019282613e535760008555613e9a565b82601f10613e6c57805160ff1916838001178555613e9a565b82800160010185558215613e9a579182015b82811115613e99578251825591602001919060010190613e7e565b5b509050613ea79190613eab565b5090565b5b80821115613ec4576000816000905550600101613eac565b5090565b600081359050613ed781614e6b565b92915050565b600081359050613eec81614e82565b92915050565b600081359050613f0181614e99565b92915050565b600081519050613f1681614e99565b92915050565b60008083601f840112613f3257613f31614cac565b5b8235905067ffffffffffffffff811115613f4f57613f4e614ca7565b5b602083019150836001820283011115613f6b57613f6a614cb1565b5b9250929050565b60008083601f840112613f8857613f87614cac565b5b8235905067ffffffffffffffff811115613fa557613fa4614ca7565b5b602083019150836001820283011115613fc157613fc0614cb1565b5b9250929050565b600081359050613fd781614eb0565b92915050565b600060208284031215613ff357613ff2614cbb565b5b600061400184828501613ec8565b91505092915050565b6000806040838503121561402157614020614cbb565b5b600061402f85828601613ec8565b925050602061404085828601613ec8565b9150509250929050565b60008060006060848603121561406357614062614cbb565b5b600061407186828701613ec8565b935050602061408286828701613ec8565b925050604061409386828701613fc8565b9150509250925092565b6000806000806000608086880312156140b9576140b8614cbb565b5b60006140c788828901613ec8565b95505060206140d888828901613ec8565b94505060406140e988828901613fc8565b935050606086013567ffffffffffffffff81111561410a57614109614cb6565b5b61411688828901613f1c565b92509250509295509295909350565b6000806040838503121561413c5761413b614cbb565b5b600061414a85828601613ec8565b925050602061415b85828601613edd565b9150509250929050565b6000806040838503121561417c5761417b614cbb565b5b600061418a85828601613ec8565b925050602061419b85828601613fc8565b9150509250929050565b600080600080606085870312156141bf576141be614cbb565b5b60006141cd87828801613ec8565b94505060206141de87828801613fc8565b935050604085013567ffffffffffffffff8111156141ff576141fe614cb6565b5b61420b87828801613f72565b925092505092959194509250565b60006020828403121561422f5761422e614cbb565b5b600061423d84828501613ef2565b91505092915050565b60006020828403121561425c5761425b614cbb565b5b600061426a84828501613f07565b91505092915050565b60006020828403121561428957614288614cbb565b5b600061429784828501613fc8565b91505092915050565b6000806000606084860312156142b9576142b8614cbb565b5b60006142c786828701613fc8565b93505060206142d886828701613ec8565b92505060406142e986828701613fc8565b9150509250925092565b6000806000806080858703121561430d5761430c614cbb565b5b600061431b87828801613fc8565b945050602061432c87828801613edd565b935050604061433d87828801613fc8565b925050606061434e87828801613fc8565b91505092959194509250565b6000806040838503121561437157614370614cbb565b5b600061437f85828601613fc8565b925050602061439085828601613fc8565b9150509250929050565b60006143a683836143b2565b60208301905092915050565b6143bb81614a70565b82525050565b6143ca81614a70565b82525050565b60006143db826148fa565b6143e58185614928565b93506143f0836148ea565b8060005b83811015614421578151614408888261439a565b97506144138361491b565b9250506001810190506143f4565b5085935050505092915050565b61443781614a82565b82525050565b600061444882614905565b6144528185614939565b9350614462818560208601614ae4565b61446b81614cc0565b840191505092915050565b600061448182614910565b61448b818561494a565b935061449b818560208601614ae4565b6144a481614cc0565b840191505092915050565b60006144bc60108361494a565b91506144c782614cd1565b602082019050919050565b60006144df600f8361494a565b91506144ea82614cfa565b602082019050919050565b600061450260128361494a565b915061450d82614d23565b602082019050919050565b6000614525600d8361494a565b915061453082614d4c565b602082019050919050565b600061454860158361494a565b915061455382614d75565b602082019050919050565b600061456b601a8361494a565b915061457682614d9e565b602082019050919050565b600061458e60108361494a565b915061459982614dc7565b602082019050919050565b60006145b1600e8361494a565b91506145bc82614df0565b602082019050919050565b60006145d460148361494a565b91506145df82614e19565b602082019050919050565b60006145f760148361494a565b915061460282614e42565b602082019050919050565b61461681614ada565b82525050565b600060208201905061463160008301846143c1565b92915050565b600060808201905061464c60008301876143c1565b61465960208301866143c1565b614666604083018561460d565b8181036060830152614678818461443d565b905095945050505050565b6000602082019050818103600083015261469d81846143d0565b905092915050565b60006020820190506146ba600083018461442e565b92915050565b600060e0820190506146d5600083018a61442e565b6146e2602083018961460d565b6146ef604083018861460d565b6146fc606083018761460d565b818103608083015261470e81866143d0565b905061471d60a083018561460d565b81810360c083015261472f81846143d0565b905098975050505050505050565b600060208201905081810360008301526147578184614476565b905092915050565b60006020820190508181036000830152614778816144af565b9050919050565b60006020820190508181036000830152614798816144d2565b9050919050565b600060208201905081810360008301526147b8816144f5565b9050919050565b600060208201905081810360008301526147d881614518565b9050919050565b600060208201905081810360008301526147f88161453b565b9050919050565b600060208201905081810360008301526148188161455e565b9050919050565b6000602082019050818103600083015261483881614581565b9050919050565b60006020820190508181036000830152614858816145a4565b9050919050565b60006020820190508181036000830152614878816145c7565b9050919050565b60006020820190508181036000830152614898816145ea565b9050919050565b60006020820190506148b4600083018461460d565b92915050565b60006040820190506148cf600083018561460d565b81810360208301526148e181846143d0565b90509392505050565b6000819050602082019050919050565b600081519050919050565b600081519050919050565b600081519050919050565b6000602082019050919050565b600082825260208201905092915050565b600082825260208201905092915050565b600082825260208201905092915050565b600061496682614ada565b915061497183614ada565b9250827fffffffffffffffffffffffffffffffffffffffffffffffffffffffffffffffff038211156149a6576149a5614bbc565b5b828201905092915050565b60006149bc82614ada565b91506149c783614ada565b9250826149d7576149d6614beb565b5b828204905092915050565b60006149ed82614ada565b91506149f883614ada565b9250817fffffffffffffffffffffffffffffffffffffffffffffffffffffffffffffffff0483118215151615614a3157614a30614bbc565b5b828202905092915050565b6000614a4782614ada565b9150614a5283614ada565b925082821015614a6557614a64614bbc565b5b828203905092915050565b6000614a7b82614aba565b9050919050565b60008115159050919050565b60007fffffffff0000000000000000000000000000000000000000000000000000000082169050919050565b600073ffffffffffffffffffffffffffffffffffffffff82169050919050565b6000819050919050565b60005b83811015614b02578082015181840152602081019050614ae7565b83811115614b11576000848401525b50505050565b6000614b2282614ada565b91506000821415614b3657614b35614bbc565b5b600182039050919050565b60006002820490506001821680614b5957607f821691505b60208210811415614b6d57614b6c614c1a565b5b50919050565b6000614b7e82614ada565b91507fffffffffffffffffffffffffffffffffffffffffffffffffffffffffffffffff821415614bb157614bb0614bbc565b5b600182019050919050565b7f4e487b7100000000000000000000000000000000000000000000000000000000600052601160045260246000fd5b7f4e487b7100000000000000000000000000000000000000000000000000000000600052601260045260246000fd5b7f4e487b7100000000000000000000000000000000000000000000000000000000600052602260045260246000fd5b7f4e487b7100000000000000000000000000000000000000000000000000000000600052603160045260246000fd5b7f4e487b7100000000000000000000000000000000000000000000000000000000600052603260045260246000fd5b600080fd5b600080fd5b600080fd5b600080fd5b600080fd5b6000601f19601f8301169050919050565b7f414c52454144595f415f53484152455200000000000000000000000000000000600082015250565b7f4e46545f4245454e5f5354414b45440000000000000000000000000000000000600082015250565b7f4e46545f53484152455f534f4c445f4f55540000000000000000000000000000600082015250565b7f53484152455f494e56414c494400000000000000000000000000000000000000600082015250565b7f4e4f545f454e4f5547485f544f5f53454c4c5f31250000000000000000000000600082015250565b7f544f4f5f4d5543485f4d4f4e45595f544f5f53454c4c5f414c4c000000000000600082015250565b7f4e46545f4e4f545f5348415241424c4500000000000000000000000000000000600082015250565b7f544f4f5f4d5543485f4d4f4e4559000000000000000000000000000000000000600082015250565b7f4e4f545f5448455f4f574e45525f4f465f4e4654000000000000000000000000600082015250565b7f4e4f545f454e4f5547485f544f5f4255595f3125000000000000000000000000600082015250565b614e7481614a70565b8114614e7f57600080fd5b50565b614e8b81614a82565b8114614e9657600080fd5b50565b614ea281614a8e565b8114614ead57600080fd5b50565b614eb981614ada565b8114614ec457600080fd5b5056fea2646970667358221220040caf97d0a7e333f495d430c5371ea3cc464b3076ee44e56b5d57fddd8ddf2464736f6c63430008060033",
  "immutableReferences": {},
  "source": "// SPDX-License-Identifier: MIT\npragma solidity ^0.8.0;\n\nimport \"./tokens/nf-token-metadata.sol\";\nimport \"./ownership/ownable.sol\";\n\n\ncontract MusicNFT is\n  NFTokenMetadata,\n  Ownable\n{\n\n  address public _owner;  // ()\n\n  /**\n   * @dev Contract constructor. Sets metadata extension `name` and `symbol`.\n   */\n  constructor() payable\n  {\n    _owner = msg.sender;\n    nftName = \"Jacky's Riff\";\n    nftSymbol = \"JRIF\";\n  }\n\n  function transferToContract()\n    external\n    payable\n  {}\n\n  /**\n   * @dev Mints a new NFT.\n   * @param _to The address that will own the minted NFT.\n   * @param _tokenId of the NFT to be minted by the msg.sender.\n   * @param _uri String representing RFC 3986 URI.\n   */\n  function mint(\n    address _to,\n    uint256 _tokenId,\n    string calldata _uri\n  )\n    external\n    onlyOwner()\n  {\n    super._mint(_to, _tokenId);\n    super._setTokenUri(_tokenId, _uri);\n    ifShared[_tokenId] = false;\n  }\n\n/*************************************************************************************************************************/\n  /**\n   *Basic data structure\n   *Would be better if it's in a struct\n   */\n  mapping (uint256 => uint256) internal valueOfNFT;\n\n  mapping (uint256 => bool) internal ifShared;//if a token is shared, it is also not transactable\n\n  mapping (uint256 => mapping(address => uint256)) internal sharers;///each sharers of an NFT has a certain amount of share\n\n  mapping (uint256 => address []) internal owners;//each NFT has some sharers\n\n  mapping (uint256 => uint256) internal sharersCount;//number of sharers in each mapping ( address => uint256)\n\n  mapping (uint256 => uint256) internal leftShare;//amount of an NFT's share having been held\n\n  mapping (uint256 => uint256) internal tax;//user need to pay if they want a use of an NFT\n\n  struct MusicUseInstance{\n    uint256 tokenId;\n    uint256 timeOfUse;\n    address[] user;\n  }\n\n  mapping (uint256 => MusicUseInstance) internal useOfNFT;\n\n\n/*************************************************************************************************************************/\n  /**\n   *Modifier\n   */\n  modifier ifOwner(uint256 _tokenId){\n    require(msg.sender == idToOwner[_tokenId],\"NOT_THE_OWNER_OF_NFT\");\n    _;\n  }\n\n/*************************************************************************************************************************/\n  /**\n   *Basic transaction\n   */\n\n   /**\n   *View Function\n   */\n\n   /**show the value of each NFT\n    *can be seen by everyone\n    */\n  function showValue (\n    uint256 _tokenId\n  )\n    external\n    view\n    returns(uint256 value)\n  {\n    value = valueOfNFT[_tokenId];\n  }\n\n/*************************************************************************************************************************/\n  /**\n   *Execution Function\n   */\n\n\n  function transferFrom(\n    address _from,\n    address _to,\n    uint256 _tokenId\n  )\n    external\n    override\n    canTransfer(_tokenId)\n    validNFToken(_tokenId)\n  {\n    address tokenOwner = idToOwner[_tokenId];\n    require(tokenOwner == _from, NOT_OWNER);\n    require(_to != address(0), ZERO_ADDRESS);\n    require(ifShared[_tokenId] == false,\"NFT_BEEN_STAKED\");\n\n    _transfer(_to, _tokenId);\n  }\n/*************************************************************************************************************************/\n  /**\n   *Advanced transcation\n   */\n  \n  /**\n   *View Function\n   */\n\n  /*show all the information of an NFT*/\n  function showInfoOfNFT(\n    uint256 _tokenId\n  )\n    public\n    view\n    returns(bool result,\n    uint256 shareLeft,\n    uint256 taxToPay,\n    uint256 numOfSharers,\n    address[] memory ownersOfNFT,\n    uint256 usedTime,\n    address[] memory usedBy)\n  {\n    return(ifShared[_tokenId],\n    leftShare[_tokenId],\n    tax[_tokenId],\n    sharersCount[_tokenId],\n    owners[_tokenId],\n    useOfNFT[_tokenId].timeOfUse,\n    useOfNFT[_tokenId].user);\n  }\n\n\n  /*show the sharability of NFT*/\n  function ifSharable(\n    uint256 _tokenId\n  )\n    internal\n    view\n    returns(bool result)\n  {\n    result = ifShared[_tokenId];\n  }\n\n  function showMySharerOfNFT(\n    uint256 _tokenId\n  )\n    external\n    view\n    returns (uint256 myshare)\n  {\n    myshare = sharers[_tokenId][msg.sender];\n  }\n\n\n  function showLeftShare(\n    uint256 _tokenId\n  )\n    external\n    view\n    returns(uint256 left)\n  {\n    left = leftShare[_tokenId];\n  }\n\n  function showNumOfSharers(\n    uint256 _tokenId\n  )\n    external\n    view\n    returns(uint256 num)\n  {\n    num = sharersCount[_tokenId];\n  }\n\n  function showSharers(\n    uint256 _tokenId\n  )\n    external\n    view\n    returns (address[] memory)\n  {\n    return owners[_tokenId];\n  }\n\n  function showUseConditionOfNFT (\n    uint256 _tokenId\n  )\n    external\n    view\n    returns(uint256, address[] memory)\n  {\n    return(useOfNFT[_tokenId].timeOfUse, useOfNFT[_tokenId].user);\n  }\n/*************************************************************************************************************************/\n  /**\n   *Execution Function\n   */\n  \n  function initialize(\n    uint256 _tokenId,\n    bool _ifSharable,\n    uint256 value,\n    uint256 _tax\n  )\n    external\n    ifOwner(_tokenId)\n  {\n    if(_ifSharable == true){\n      ifShared[_tokenId] = true;\n      _setTax(_tokenId,_tax);\n    }\n    else{\n      ifShared[_tokenId] = false;\n      leftShare[_tokenId] = 100;\n      _addsharers(_tokenId, msg.sender, 100);\n    }\n      \n    _setValue(_tokenId,value);\n  }\n\n  function setSharable(\n    uint256 _tokenId,\n    uint256 amount\n  )\n    external\n    ifOwner(_tokenId)\n  {\n    leftShare[_tokenId] = 100;\n    // uint256 amount = (msg.value / 1 ether) * valueOfNFT[_tokenId] / 100;\n    _addsharers(_tokenId, msg.sender, 100-amount);\n    uint256 fee = amount*valueOfNFT[_tokenId]/100;\n    payable(msg.sender).transfer(fee * 1 ether);\n  }\n\n  /**\n   *NFT holder can add sharers himself without having buyer conduct a transaction\n   */\n  function addsharers(\n    uint256 _tokenId,\n    address newSharer,\n    uint256 share\n  )\n    external\n  {\n    _addsharers(_tokenId, newSharer, share);\n  }\n\n  /**\n   *Buy some share of a certain NFT */\n  function buyNFT(\n    uint256 _tokenId\n  )\n    external\n    payable\n    returns(uint256 shareGot)\n  {\n    uint256 fee = msg.value/ 1 ether;\n    require(ifSharable(_tokenId),\"NFT_NOT_SHARABLE\");\n    require(leftShare[_tokenId]>0,\"NFT_SHARE_SOLD_OUT\");\n    require(fee >= valueOfNFT[_tokenId]/100,\"NOT_ENOUGH_TO_BUY_1%\");\n    require(fee <= (valueOfNFT[_tokenId]*leftShare[_tokenId]/100),\"TOO_MUCH_MONEY\");\n    shareGot = fee * 100 / valueOfNFT[_tokenId];\n    leftShare[_tokenId] = leftShare[_tokenId] - shareGot;\n    if(sharers[_tokenId][msg.sender] == 0){\n      sharersCount[_tokenId] = sharersCount[_tokenId] + 1;\n      owners[_tokenId].push(msg.sender);\n    }//if sharers already, don't add\n    sharers[_tokenId][msg.sender] = sharers[_tokenId][msg.sender] + shareGot;\n    // address owner = idToOwner[_tokenId];\n    // payable(owner).transfer(msg.value);//transfer to owner msg.value's CFX\n  }\n\n  function sellNFT(\n    uint256 _tokenId\n  )\n    external\n    payable\n    returns(uint256 shareSold)\n  {\n    uint256 fee = msg.value/ 1 ether;\n    require(fee >= valueOfNFT[_tokenId]/100,\"NOT_ENOUGH_TO_SELL_1%\");\n    require(fee <= (valueOfNFT[_tokenId]*sharers[_tokenId][msg.sender]/100),\"TOO_MUCH_MONEY_TO_SELL_ALL\");\n    shareSold = fee * 100 / valueOfNFT[_tokenId];\n    leftShare[_tokenId] = leftShare[_tokenId] + shareSold;\n    if(fee == valueOfNFT[_tokenId]*sharers[_tokenId][msg.sender]/100){//sell all\n      sharersCount[_tokenId] = sharersCount[_tokenId] - 1;\n      uint256 i = 0;\n      while(owners[_tokenId][i++] != msg.sender){}\n      for(i; i<owners[_tokenId].length; i++){\n        owners[_tokenId][i-1] = owners[_tokenId][i];\n      }\n      owners[_tokenId].pop();\n    }//if sell all, delete from the seller\n\n    sharers[_tokenId][msg.sender] = sharers[_tokenId][msg.sender] - shareSold;\n    payable(msg.sender).transfer(msg.value);\n  }\n\n  function useNFT(\n    uint256 _tokenId\n  )\n    external\n    payable\n    returns(uint256 cost)\n  {\n    /*store the use information in the mapping and struct*/\n    useOfNFT[_tokenId].tokenId = _tokenId;\n    useOfNFT[_tokenId].timeOfUse++;\n    useOfNFT[_tokenId].user.push(msg.sender);\n\n    /*judge if the user is a sharer*/\n    cost = 0;\n    uint256 i = 0;\n    uint256 j = owners[_tokenId].length;\n    bool flag = false;\n    while(j!=0){\n      if(msg.sender == owners[_tokenId][i]){\n        flag = true;\n        j=0;\n      }\n      else{\n        i++;\n        j--;\n      }\n    }\n    \n    /*distribute tax*/\n    address temp;\n    uint256 share;\n    uint256 m=0;\n    uint256 n;\n    if(flag == false){\n      // _distributeTax(_tokenId,tax[_tokenId]);\n      cost = tax[_tokenId];\n      n = owners[_tokenId].length;\n      while(n!=0){\n        temp = owners[_tokenId][m];\n        share = sharers[_tokenId][temp];\n        m++;\n        n--;\n        // mapping (uint256 => mapping(address => uint256)) internal sharers;\n        payable(temp).transfer( (share * tax[_tokenId] / 100) * 1 ether);\n      }\n    }\n      \n  }\n\n\n/*************************************************************************************************************************/\n  /**\n   *Internal Functions\n   */\n\n  /*add a sharer of a NFT*/\n  function _addsharers(\n    uint256 _tokenId, \n    address newSharer, \n    uint256 share\n    )\n      internal\n      ifOwner(_tokenId)\n    {\n    // require(ifSharable(_tokenId),\"TOKEN_UNSHARABLE\");\n    require(sharers[_tokenId][newSharer]==0,\"ALREADY_A_SHARER\");\n    require(share >=1 && share <=leftShare[_tokenId],\"SHARE_INVALID\");\n    sharersCount[_tokenId] = sharersCount[_tokenId] + 1;\n    sharers[_tokenId][newSharer] = share;\n    leftShare[_tokenId] = leftShare[_tokenId] - share;\n    owners[_tokenId].push(msg.sender);\n  }\n\n  // function _distributeTax(\n  //   uint256 _tokenId,\n  //   uint256 amount\n  // )\n  //   internal\n  // {\n  //   address temp;\n  //   uint256 share;\n  //   uint256 i = 0;\n  //   uint256 j = owners[_tokenId].length;\n  //   while(j!=0){\n  //     temp = owners[_tokenId][i];\n  //     share = sharers[_tokenId][temp];\n  //     i++;\n  //     j--;\n  //     // mapping (uint256 => mapping(address => uint256)) internal sharers;\n  //     payable(temp).transfer(share*amount/100 * 1 ether);\n  //   }\n  // }\n\n  // function _setSharable(\n  //   uint256 _tokenId,\n  //   uint256 subscribableAmount\n  // )\n  //   internal\n  //   ifOwner(_tokenId)\n  // {\n  //   ifShared[_tokenId] = true;\n  //   leftShare[_tokenId] = 100;\n  //   _addsharers(_tokenId, msg.sender, 100-subscribableAmount);\n  // }\n\n  /*set the value of each NFT by owner*/\n  function _setValue(\n    uint256 _tokenId,\n    uint256 value\n  )\n    internal\n    ifOwner(_tokenId)\n  {\n    valueOfNFT[_tokenId] = value;\n  }\n\n   function _setTax(\n    uint256 _tokenId,\n    uint256 _tax\n  )\n    internal\n    ifOwner(_tokenId)\n  {\n    tax[_tokenId] = _tax;\n  }\n\n  // \n\tfunction getAddress() \n    public \n    view \n    returns (address) {\n\t\treturn address(this);\n\t}\n\n}",
  "sourcePath": "C:\\Users\\jacky\\Desktop\\BlockChainProj\\MusicNFT\\contracts\\MusicNFT.sol",
  "compiler": {
    "name": "solc",
    "version": "0.8.6+commit.11564f7e.Emscripten.clang"
  },
  "schemaVersion": "3.4.3",
  "updatedAt": "2021-10-30T14:27:46.238Z",
  "devdoc": {
    "kind": "dev",
    "methods": {
      "approve(address,uint256)": {
        "details": "Set or reaffirm the approved address for an NFT. This function can be changed to payable.",
        "params": {
          "_approved": "Address to be approved for the given NFT ID.",
          "_tokenId": "ID of the token to be approved."
        }
      },
      "balanceOf(address)": {
        "details": "Returns the number of NFTs owned by `_owner`. NFTs assigned to the zero address are considered invalid, and this function throws for queries about the zero address.",
        "params": {
          "_owner": "Address for whom to query the balance."
        },
        "returns": {
          "_0": "Balance of _owner."
        }
      },
      "constructor": {
        "details": "Contract constructor. Sets metadata extension `name` and `symbol`."
      },
      "getApproved(uint256)": {
        "details": "Get the approved address for a single NFT.",
        "params": {
          "_tokenId": "ID of the NFT to query the approval of."
        },
        "returns": {
          "_0": "Address that _tokenId is approved for."
        }
      },
      "isApprovedForAll(address,address)": {
        "details": "Checks if `_operator` is an approved operator for `_owner`.",
        "params": {
          "_operator": "The address that acts on behalf of the owner.",
          "_owner": "The address that owns the NFTs."
        },
        "returns": {
          "_0": "True if approved for all, false otherwise."
        }
      },
      "mint(address,uint256,string)": {
        "details": "Mints a new NFT.",
        "params": {
          "_to": "The address that will own the minted NFT.",
          "_tokenId": "of the NFT to be minted by the msg.sender.",
          "_uri": "String representing RFC 3986 URI."
        }
      },
      "name()": {
        "details": "Returns a descriptive name for a collection of NFTokens.",
        "returns": {
          "_name": "Representing name."
        }
      },
      "ownerOf(uint256)": {
        "details": "Returns the address of the owner of the NFT. NFTs assigned to the zero address are considered invalid, and queries about them do throw.",
        "params": {
          "_tokenId": "The identifier for an NFT."
        },
        "returns": {
          "_owner": "Address of _tokenId owner."
        }
      },
      "safeTransferFrom(address,address,uint256)": {
        "details": "Transfers the ownership of an NFT from one address to another address. This function can be changed to payable.",
        "params": {
          "_from": "The current owner of the NFT.",
          "_to": "The new owner.",
          "_tokenId": "The NFT to transfer."
        }
      },
      "safeTransferFrom(address,address,uint256,bytes)": {
        "details": "Transfers the ownership of an NFT from one address to another address. This function can be changed to payable.",
        "params": {
          "_data": "Additional data with no specified format, sent in call to `_to`.",
          "_from": "The current owner of the NFT.",
          "_to": "The new owner.",
          "_tokenId": "The NFT to transfer."
        }
      },
      "setApprovalForAll(address,bool)": {
        "details": "Enables or disables approval for a third party (\"operator\") to manage all of `msg.sender`'s assets. It also emits the ApprovalForAll event.",
        "params": {
          "_approved": "True if the operators is approved, false to revoke approval.",
          "_operator": "Address to add to the set of authorized operators."
        }
      },
      "supportsInterface(bytes4)": {
        "details": "Function to check which interfaces are suported by this contract.",
        "params": {
          "_interfaceID": "Id of the interface."
        },
        "returns": {
          "_0": "True if _interfaceID is supported, false otherwise."
        }
      },
      "symbol()": {
        "details": "Returns an abbreviated name for NFTokens.",
        "returns": {
          "_symbol": "Representing symbol."
        }
      },
      "tokenURI(uint256)": {
        "details": "A distinct URI (RFC 3986) for a given NFT.",
        "params": {
          "_tokenId": "Id for which we want uri."
        },
        "returns": {
          "_0": "URI of _tokenId."
        }
      }
    },
    "version": 1
  },
  "userdoc": {
    "kind": "user",
    "methods": {
      "addsharers(uint256,address,uint256)": {
        "notice": "NFT holder can add sharers himself without having buyer conduct a transaction"
      },
      "approve(address,uint256)": {
        "notice": "The zero address indicates there is no approved address. Throws unless `msg.sender` is the current NFT owner, or an authorized operator of the current owner."
      },
      "buyNFT(uint256)": {
        "notice": "Buy some share of a certain NFT "
      },
      "getApproved(uint256)": {
        "notice": "Throws if `_tokenId` is not a valid NFT."
      },
      "initialize(uint256,bool,uint256,uint256)": {
        "notice": "Execution Function"
      },
      "safeTransferFrom(address,address,uint256)": {
        "notice": "This works identically to the other function with an extra data parameter, except this function just sets data to \"\"."
      },
      "safeTransferFrom(address,address,uint256,bytes)": {
        "notice": "Throws unless `msg.sender` is the current owner, an authorized operator, or the approved address for this NFT. Throws if `_from` is not the current owner. Throws if `_to` is the zero address. Throws if `_tokenId` is not a valid NFT. When transfer is complete, this function checks if `_to` is a smart contract (code size > 0). If so, it calls `onERC721Received` on `_to` and throws if the return value is not `bytes4(keccak256(\"onERC721Received(address,uint256,bytes)\"))`."
      },
      "setApprovalForAll(address,bool)": {
        "notice": "This works even if sender doesn't own any tokens at the time."
      },
      "showInfoOfNFT(uint256)": {
        "notice": "View Function"
      },
      "showValue(uint256)": {
        "notice": "show the value of each NFT can be seen by everyone"
      },
      "transferFrom(address,address,uint256)": {
        "notice": "Execution Function"
      }
    },
    "version": 1
  }
}