{
  "contractName": "MusicNFT",
  "abi": [
    {
      "inputs": [],
      "stateMutability": "payable",
      "type": "constructor"
    },
    {
      "anonymous": false,
      "inputs": [
        {
          "indexed": true,
          "internalType": "address",
          "name": "_owner",
          "type": "address"
        },
        {
          "indexed": true,
          "internalType": "address",
          "name": "_approved",
          "type": "address"
        },
        {
          "indexed": true,
          "internalType": "uint256",
          "name": "_tokenId",
          "type": "uint256"
        }
      ],
      "name": "Approval",
      "type": "event"
    },
    {
      "anonymous": false,
      "inputs": [
        {
          "indexed": true,
          "internalType": "address",
          "name": "_owner",
          "type": "address"
        },
        {
          "indexed": true,
          "internalType": "address",
          "name": "_operator",
          "type": "address"
        },
        {
          "indexed": false,
          "internalType": "bool",
          "name": "_approved",
          "type": "bool"
        }
      ],
      "name": "ApprovalForAll",
      "type": "event"
    },
    {
      "anonymous": false,
      "inputs": [
        {
          "indexed": true,
          "internalType": "address",
          "name": "previousOwner",
          "type": "address"
        },
        {
          "indexed": true,
          "internalType": "address",
          "name": "newOwner",
          "type": "address"
        }
      ],
      "name": "OwnershipTransferred",
      "type": "event"
    },
    {
      "anonymous": false,
      "inputs": [
        {
          "indexed": true,
          "internalType": "address",
          "name": "_from",
          "type": "address"
        },
        {
          "indexed": true,
          "internalType": "address",
          "name": "_to",
          "type": "address"
        },
        {
          "indexed": true,
          "internalType": "uint256",
          "name": "_tokenId",
          "type": "uint256"
        }
      ],
      "name": "Transfer",
      "type": "event"
    },
    {
      "inputs": [
        {
          "internalType": "address",
          "name": "_approved",
          "type": "address"
        },
        {
          "internalType": "uint256",
          "name": "_tokenId",
          "type": "uint256"
        }
      ],
      "name": "approve",
      "outputs": [],
      "stateMutability": "nonpayable",
      "type": "function"
    },
    {
      "inputs": [
        {
          "internalType": "address",
          "name": "_owner",
          "type": "address"
        }
      ],
      "name": "balanceOf",
      "outputs": [
        {
          "internalType": "uint256",
          "name": "",
          "type": "uint256"
        }
      ],
      "stateMutability": "view",
      "type": "function"
    },
    {
      "inputs": [
        {
          "internalType": "uint256",
          "name": "_tokenId",
          "type": "uint256"
        }
      ],
      "name": "getApproved",
      "outputs": [
        {
          "internalType": "address",
          "name": "",
          "type": "address"
        }
      ],
      "stateMutability": "view",
      "type": "function"
    },
    {
      "inputs": [
        {
          "internalType": "address",
          "name": "_owner",
          "type": "address"
        },
        {
          "internalType": "address",
          "name": "_operator",
          "type": "address"
        }
      ],
      "name": "isApprovedForAll",
      "outputs": [
        {
          "internalType": "bool",
          "name": "",
          "type": "bool"
        }
      ],
      "stateMutability": "view",
      "type": "function"
    },
    {
      "inputs": [],
      "name": "name",
      "outputs": [
        {
          "internalType": "string",
          "name": "_name",
          "type": "string"
        }
      ],
      "stateMutability": "view",
      "type": "function"
    },
    {
      "inputs": [
        {
          "internalType": "uint256",
          "name": "_tokenId",
          "type": "uint256"
        }
      ],
      "name": "ownerOf",
      "outputs": [
        {
          "internalType": "address",
          "name": "_owner",
          "type": "address"
        }
      ],
      "stateMutability": "view",
      "type": "function"
    },
    {
      "inputs": [
        {
          "internalType": "address",
          "name": "_from",
          "type": "address"
        },
        {
          "internalType": "address",
          "name": "_to",
          "type": "address"
        },
        {
          "internalType": "uint256",
          "name": "_tokenId",
          "type": "uint256"
        }
      ],
      "name": "safeTransferFrom",
      "outputs": [],
      "stateMutability": "nonpayable",
      "type": "function"
    },
    {
      "inputs": [
        {
          "internalType": "address",
          "name": "_from",
          "type": "address"
        },
        {
          "internalType": "address",
          "name": "_to",
          "type": "address"
        },
        {
          "internalType": "uint256",
          "name": "_tokenId",
          "type": "uint256"
        },
        {
          "internalType": "bytes",
          "name": "_data",
          "type": "bytes"
        }
      ],
      "name": "safeTransferFrom",
      "outputs": [],
      "stateMutability": "nonpayable",
      "type": "function"
    },
    {
      "inputs": [
        {
          "internalType": "address",
          "name": "_operator",
          "type": "address"
        },
        {
          "internalType": "bool",
          "name": "_approved",
          "type": "bool"
        }
      ],
      "name": "setApprovalForAll",
      "outputs": [],
      "stateMutability": "nonpayable",
      "type": "function"
    },
    {
      "inputs": [
        {
          "internalType": "bytes4",
          "name": "_interfaceID",
          "type": "bytes4"
        }
      ],
      "name": "supportsInterface",
      "outputs": [
        {
          "internalType": "bool",
          "name": "",
          "type": "bool"
        }
      ],
      "stateMutability": "view",
      "type": "function"
    },
    {
      "inputs": [],
      "name": "symbol",
      "outputs": [
        {
          "internalType": "string",
          "name": "_symbol",
          "type": "string"
        }
      ],
      "stateMutability": "view",
      "type": "function"
    },
    {
      "inputs": [
        {
          "internalType": "uint256",
          "name": "_tokenId",
          "type": "uint256"
        }
      ],
      "name": "tokenURI",
      "outputs": [
        {
          "internalType": "string",
          "name": "",
          "type": "string"
        }
      ],
      "stateMutability": "view",
      "type": "function"
    },
    {
      "inputs": [
        {
          "internalType": "address",
          "name": "_to",
          "type": "address"
        },
        {
          "internalType": "uint256",
          "name": "_tokenId",
          "type": "uint256"
        },
        {
          "internalType": "string",
          "name": "_uri",
          "type": "string"
        }
      ],
      "name": "mint",
      "outputs": [],
      "stateMutability": "nonpayable",
      "type": "function"
    },
    {
      "inputs": [
        {
          "internalType": "uint256",
          "name": "_tokenId",
          "type": "uint256"
        }
      ],
      "name": "showValue",
      "outputs": [
        {
          "internalType": "uint256",
          "name": "value",
          "type": "uint256"
        }
      ],
      "stateMutability": "view",
      "type": "function"
    },
    {
      "inputs": [
        {
          "internalType": "address",
          "name": "_from",
          "type": "address"
        },
        {
          "internalType": "address",
          "name": "_to",
          "type": "address"
        },
        {
          "internalType": "uint256",
          "name": "_tokenId",
          "type": "uint256"
        }
      ],
      "name": "transferFrom",
      "outputs": [],
      "stateMutability": "nonpayable",
      "type": "function"
    },
    {
      "inputs": [
        {
          "internalType": "uint256",
          "name": "_tokenId",
          "type": "uint256"
        }
      ],
      "name": "showInfoOfNFT",
      "outputs": [
        {
          "internalType": "bool",
          "name": "result",
          "type": "bool"
        },
        {
          "internalType": "uint256",
          "name": "shareLeft",
          "type": "uint256"
        },
        {
          "internalType": "uint256",
          "name": "taxToPay",
          "type": "uint256"
        },
        {
          "internalType": "uint256",
          "name": "numOfSharers",
          "type": "uint256"
        },
        {
          "internalType": "address[]",
          "name": "ownersOfNFT",
          "type": "address[]"
        },
        {
          "internalType": "uint256",
          "name": "usedTime",
          "type": "uint256"
        },
        {
          "internalType": "address[]",
          "name": "usedBy",
          "type": "address[]"
        }
      ],
      "stateMutability": "view",
      "type": "function"
    },
    {
      "inputs": [
        {
          "internalType": "uint256",
          "name": "_tokenId",
          "type": "uint256"
        }
      ],
      "name": "showMySharerOfNFT",
      "outputs": [
        {
          "internalType": "uint256",
          "name": "myshare",
          "type": "uint256"
        }
      ],
      "stateMutability": "view",
      "type": "function"
    },
    {
      "inputs": [
        {
          "internalType": "uint256",
          "name": "_tokenId",
          "type": "uint256"
        }
      ],
      "name": "showLeftShare",
      "outputs": [
        {
          "internalType": "uint256",
          "name": "left",
          "type": "uint256"
        }
      ],
      "stateMutability": "view",
      "type": "function"
    },
    {
      "inputs": [
        {
          "internalType": "uint256",
          "name": "_tokenId",
          "type": "uint256"
        }
      ],
      "name": "showNumOfSharers",
      "outputs": [
        {
          "internalType": "uint256",
          "name": "num",
          "type": "uint256"
        }
      ],
      "stateMutability": "view",
      "type": "function"
    },
    {
      "inputs": [
        {
          "internalType": "uint256",
          "name": "_tokenId",
          "type": "uint256"
        }
      ],
      "name": "showSharers",
      "outputs": [
        {
          "internalType": "address[]",
          "name": "",
          "type": "address[]"
        }
      ],
      "stateMutability": "view",
      "type": "function"
    },
    {
      "inputs": [
        {
          "internalType": "uint256",
          "name": "_tokenId",
          "type": "uint256"
        },
        {
          "internalType": "bool",
          "name": "_ifSharable",
          "type": "bool"
        },
        {
          "internalType": "uint256",
          "name": "value",
          "type": "uint256"
        },
        {
          "internalType": "uint256",
          "name": "_tax",
          "type": "uint256"
        }
      ],
      "name": "initialize",
      "outputs": [],
      "stateMutability": "nonpayable",
      "type": "function"
    },
    {
      "inputs": [
        {
          "internalType": "uint256",
          "name": "_tokenId",
          "type": "uint256"
        }
      ],
      "name": "setSharable",
      "outputs": [],
      "stateMutability": "payable",
      "type": "function"
    },
    {
      "inputs": [
        {
          "internalType": "uint256",
          "name": "_tokenId",
          "type": "uint256"
        },
        {
          "internalType": "address",
          "name": "newSharer",
          "type": "address"
        },
        {
          "internalType": "uint256",
          "name": "share",
          "type": "uint256"
        }
      ],
      "name": "addsharers",
      "outputs": [],
      "stateMutability": "nonpayable",
      "type": "function"
    },
    {
      "inputs": [
        {
          "internalType": "uint256",
          "name": "_tokenId",
          "type": "uint256"
        }
      ],
      "name": "buyNFT",
      "outputs": [
        {
          "internalType": "uint256",
          "name": "shareGot",
          "type": "uint256"
        }
      ],
      "stateMutability": "payable",
      "type": "function"
    },
    {
      "inputs": [
        {
          "internalType": "uint256",
          "name": "_tokenId",
          "type": "uint256"
        }
      ],
      "name": "sellNFT",
      "outputs": [
        {
          "internalType": "uint256",
          "name": "shareSold",
          "type": "uint256"
        }
      ],
      "stateMutability": "payable",
      "type": "function"
    },
    {
      "inputs": [
        {
          "internalType": "uint256",
          "name": "_tokenId",
          "type": "uint256"
        }
      ],
      "name": "useNFT",
      "outputs": [
        {
          "internalType": "uint256",
          "name": "cost",
          "type": "uint256"
        }
      ],
      "stateMutability": "payable",
      "type": "function"
    },
    {
      "inputs": [],
      "name": "getAddress",
      "outputs": [
        {
          "internalType": "address",
          "name": "",
          "type": "address"
        }
      ],
      "stateMutability": "view",
      "type": "function"
    }
  ],
  "bytecode": "0x608060405260016000806301ffc9a760e01b7bffffffffffffffffffffffffffffffffffffffffffffffffffffffff1916815260200190815260200160002060006101000a81548160ff02191690831515021790555060016000806380ac58cd60e01b7bffffffffffffffffffffffffffffffffffffffffffffffffffffffff1916815260200190815260200160002060006101000a81548160ff0219169083151502179055506001600080635b5e139f60e01b7bffffffffffffffffffffffffffffffffffffffffffffffffffffffff1916815260200190815260200160002060006101000a81548160ff02191690831515021790555033600860006101000a81548173ffffffffffffffffffffffffffffffffffffffff021916908373ffffffffffffffffffffffffffffffffffffffff1602179055506040518060400160405280600c81526020017f4a61636b792773205269666600000000000000000000000000000000000000008152506005908051906020019062000185929190620001da565b506040518060400160405280600481526020017f4a5249460000000000000000000000000000000000000000000000000000000081525060069080519060200190620001d3929190620001da565b50620002ef565b828054620001e8906200028a565b90600052602060002090601f0160209004810192826200020c576000855562000258565b82601f106200022757805160ff191683800117855562000258565b8280016001018555821562000258579182015b82811115620002575782518255916020019190600101906200023a565b5b5090506200026791906200026b565b5090565b5b80821115620002865760008160009055506001016200026c565b5090565b60006002820490506001821680620002a357607f821691505b60208210811415620002ba57620002b9620002c0565b5b50919050565b7f4e487b7100000000000000000000000000000000000000000000000000000000600052602260045260246000fd5b614c6380620002ff6000396000f3fe60806040526004361061019c5760003560e01c806370a08231116100ec578063c87b56dd1161008a578063e233449711610064578063e233449714610625578063e84f32611461064e578063e985e9c51461068b578063ee9cdfb3146106c85761019c565b8063c87b56dd146105a3578063d3fc9864146105e0578063d59441e5146106095761019c565b80639a721a6c116100c65780639a721a6c146104eb578063a21bf0d514610514578063a22cb46514610551578063b88d4fde1461057a5761019c565b806370a082311461044657806383f687031461048357806395d89b41146104c05761019c565b806338cc48311161015957806351ed82881161013357806351ed82881461036c57806355b9d4431461039c57806359645dc6146103cc5780636352211e146104095761019c565b806338cc4831146102d55780633b0824191461030057806342842e0e146103435761019c565b806301ffc9a7146101a157806306fdde03146101de578063081812fc14610209578063095ea7b3146102465780632172d6b01461026f57806323b872dd146102ac575b600080fd5b3480156101ad57600080fd5b506101c860048036038101906101c39190613fef565b6106f8565b6040516101d5919061443b565b60405180910390f35b3480156101ea57600080fd5b506101f361075f565b60405161020091906144d3565b60405180910390f35b34801561021557600080fd5b50610230600480360381019061022b9190614049565b6107f1565b60405161023d91906143b2565b60405180910390f35b34801561025257600080fd5b5061026d60048036038101906102689190613f3b565b61090c565b005b34801561027b57600080fd5b5061029660048036038101906102919190614049565b610cef565b6040516102a39190614419565b60405180910390f35b3480156102b857600080fd5b506102d360048036038101906102ce9190613e20565b610d90565b005b3480156102e157600080fd5b506102ea611249565b6040516102f791906143b2565b60405180910390f35b34801561030c57600080fd5b5061032760048036038101906103229190614049565b611251565b60405161033a9796959493929190614456565b60405180910390f35b34801561034f57600080fd5b5061036a60048036038101906103659190613e20565b611423565b005b61038660048036038101906103819190614049565b611443565b6040516103939190614635565b60405180910390f35b6103b660048036038101906103b19190614049565b6117fa565b6040516103c39190614635565b60405180910390f35b3480156103d857600080fd5b506103f360048036038101906103ee9190614049565b611b38565b6040516104009190614635565b60405180910390f35b34801561041557600080fd5b50610430600480360381019061042b9190614049565b611b55565b60405161043d91906143b2565b60405180910390f35b34801561045257600080fd5b5061046d60048036038101906104689190613db3565b611c3b565b60405161047a9190614635565b60405180910390f35b34801561048f57600080fd5b506104aa60048036038101906104a59190614049565b611cf5565b6040516104b79190614635565b60405180910390f35b3480156104cc57600080fd5b506104d5611d4f565b6040516104e291906144d3565b60405180910390f35b3480156104f757600080fd5b50610512600480360381019061050d9190614076565b611de1565b005b34801561052057600080fd5b5061053b60048036038101906105369190614049565b611df1565b6040516105489190614635565b60405180910390f35b34801561055d57600080fd5b5061057860048036038101906105739190613efb565b611e0e565b005b34801561058657600080fd5b506105a1600480360381019061059c9190613e73565b611f0b565b005b3480156105af57600080fd5b506105ca60048036038101906105c59190614049565b611f62565b6040516105d791906144d3565b60405180910390f35b3480156105ec57600080fd5b5061060760048036038101906106029190613f7b565b6120e5565b005b610623600480360381019061061e9190614049565b612238565b005b34801561063157600080fd5b5061064c600480360381019061064791906140c9565b612351565b005b34801561065a57600080fd5b5061067560048036038101906106709190614049565b61249e565b6040516106829190614635565b60405180910390f35b34801561069757600080fd5b506106b260048036038101906106ad9190613de0565b6124bb565b6040516106bf919061443b565b60405180910390f35b6106e260048036038101906106dd9190614049565b61254f565b6040516106ef9190614635565b60405180910390f35b6000806000837bffffffffffffffffffffffffffffffffffffffffffffffffffffffff19167bffffffffffffffffffffffffffffffffffffffffffffffffffffffff1916815260200190815260200160002060009054906101000a900460ff169050919050565b60606005805461076e906148a7565b80601f016020809104026020016040519081016040528092919081815260200182805461079a906148a7565b80156107e75780601f106107bc576101008083540402835291602001916107e7565b820191906000526020600020905b8154815290600101906020018083116107ca57829003601f168201915b5050505050905090565b600081600073ffffffffffffffffffffffffffffffffffffffff166001600083815260200190815260200160002060009054906101000a900473ffffffffffffffffffffffffffffffffffffffff1673ffffffffffffffffffffffffffffffffffffffff1614156040518060400160405280600681526020017f3030333030320000000000000000000000000000000000000000000000000000815250906108cf576040517f08c379a00000000000000000000000000000000000000000000000000000000081526004016108c691906144d3565b60405180910390fd5b506002600084815260200190815260200160002060009054906101000a900473ffffffffffffffffffffffffffffffffffffffff16915050919050565b8060006001600083815260200190815260200160002060009054906101000a900473ffffffffffffffffffffffffffffffffffffffff1690503373ffffffffffffffffffffffffffffffffffffffff168173ffffffffffffffffffffffffffffffffffffffff161480610a055750600460008273ffffffffffffffffffffffffffffffffffffffff1673ffffffffffffffffffffffffffffffffffffffff16815260200190815260200160002060003373ffffffffffffffffffffffffffffffffffffffff1673ffffffffffffffffffffffffffffffffffffffff16815260200190815260200160002060009054906101000a900460ff165b6040518060400160405280600681526020017f303033303033000000000000000000000000000000000000000000000000000081525090610a7c576040517f08c379a0000000000000000000000000000000000000000000000000000000008152600401610a7391906144d3565b60405180910390fd5b5082600073ffffffffffffffffffffffffffffffffffffffff166001600083815260200190815260200160002060009054906101000a900473ffffffffffffffffffffffffffffffffffffffff1673ffffffffffffffffffffffffffffffffffffffff1614156040518060400160405280600681526020017f303033303032000000000000000000000000000000000000000000000000000081525090610b59576040517f08c379a0000000000000000000000000000000000000000000000000000000008152600401610b5091906144d3565b60405180910390fd5b5060006001600086815260200190815260200160002060009054906101000a900473ffffffffffffffffffffffffffffffffffffffff1690508073ffffffffffffffffffffffffffffffffffffffff168673ffffffffffffffffffffffffffffffffffffffff1614156040518060400160405280600681526020017f303033303038000000000000000000000000000000000000000000000000000081525090610c39576040517f08c379a0000000000000000000000000000000000000000000000000000000008152600401610c3091906144d3565b60405180910390fd5b50856002600087815260200190815260200160002060006101000a81548173ffffffffffffffffffffffffffffffffffffffff021916908373ffffffffffffffffffffffffffffffffffffffff160217905550848673ffffffffffffffffffffffffffffffffffffffff168273ffffffffffffffffffffffffffffffffffffffff167f8c5be1e5ebec7d5bd14f71427d1e84f3dd0314c0f7b2291e5b200ac8c7c3b92560405160405180910390a4505050505050565b6060600c6000838152602001908152602001600020805480602002602001604051908101604052809291908181526020018280548015610d8457602002820191906000526020600020905b8160009054906101000a900473ffffffffffffffffffffffffffffffffffffffff1673ffffffffffffffffffffffffffffffffffffffff1681526020019060010190808311610d3a575b50505050509050919050565b8060006001600083815260200190815260200160002060009054906101000a900473ffffffffffffffffffffffffffffffffffffffff1690503373ffffffffffffffffffffffffffffffffffffffff168173ffffffffffffffffffffffffffffffffffffffff161480610e6157503373ffffffffffffffffffffffffffffffffffffffff166002600084815260200190815260200160002060009054906101000a900473ffffffffffffffffffffffffffffffffffffffff1673ffffffffffffffffffffffffffffffffffffffff16145b80610ef25750600460008273ffffffffffffffffffffffffffffffffffffffff1673ffffffffffffffffffffffffffffffffffffffff16815260200190815260200160002060003373ffffffffffffffffffffffffffffffffffffffff1673ffffffffffffffffffffffffffffffffffffffff16815260200190815260200160002060009054906101000a900460ff165b6040518060400160405280600681526020017f303033303034000000000000000000000000000000000000000000000000000081525090610f69576040517f08c379a0000000000000000000000000000000000000000000000000000000008152600401610f6091906144d3565b60405180910390fd5b5082600073ffffffffffffffffffffffffffffffffffffffff166001600083815260200190815260200160002060009054906101000a900473ffffffffffffffffffffffffffffffffffffffff1673ffffffffffffffffffffffffffffffffffffffff1614156040518060400160405280600681526020017f303033303032000000000000000000000000000000000000000000000000000081525090611046576040517f08c379a000000000000000000000000000000000000000000000000000000000815260040161103d91906144d3565b60405180910390fd5b5060006001600086815260200190815260200160002060009054906101000a900473ffffffffffffffffffffffffffffffffffffffff1690508673ffffffffffffffffffffffffffffffffffffffff168173ffffffffffffffffffffffffffffffffffffffff16146040518060400160405280600681526020017f303033303037000000000000000000000000000000000000000000000000000081525090611125576040517f08c379a000000000000000000000000000000000000000000000000000000000815260040161111c91906144d3565b60405180910390fd5b50600073ffffffffffffffffffffffffffffffffffffffff168673ffffffffffffffffffffffffffffffffffffffff1614156040518060400160405280600681526020017f3030333030310000000000000000000000000000000000000000000000000000815250906111ce576040517f08c379a00000000000000000000000000000000000000000000000000000000081526004016111c591906144d3565b60405180910390fd5b5060001515600a600087815260200190815260200160002060009054906101000a900460ff16151514611236576040517f08c379a000000000000000000000000000000000000000000000000000000000815260040161122d90614515565b60405180910390fd5b6112408686612a44565b50505050505050565b600030905090565b600080600080606060006060600a600089815260200190815260200160002060009054906101000a900460ff16600e60008a815260200190815260200160002054600f60008b815260200190815260200160002054600d60008c815260200190815260200160002054600c60008d8152602001908152602001600020601060008e815260200190815260200160002060010154601060008f81526020019081526020016000206002018280548060200260200160405190810160405280929190818152602001828054801561137b57602002820191906000526020600020905b8160009054906101000a900473ffffffffffffffffffffffffffffffffffffffff1673ffffffffffffffffffffffffffffffffffffffff1681526020019060010190808311611331575b505050505092508080548060200260200160405190810160405280929190818152602001828054801561140357602002820191906000526020600020905b8160009054906101000a900473ffffffffffffffffffffffffffffffffffffffff1673ffffffffffffffffffffffffffffffffffffffff16815260200190600101908083116113b9575b505050505090509650965096509650965096509650919395979092949650565b61143e83838360405180602001604052806000815250612af9565b505050565b600080670de0b6b3a76400003461145a9190614717565b9050611465836130c7565b6114a4576040517f08c379a000000000000000000000000000000000000000000000000000000000815260040161149b906145b5565b60405180910390fd5b6000600e600085815260200190815260200160002054116114fa576040517f08c379a00000000000000000000000000000000000000000000000000000000081526004016114f190614535565b60405180910390fd5b6064600960008581526020019081526020016000205461151a9190614717565b81101561155c576040517f08c379a000000000000000000000000000000000000000000000000000000000815260040161155390614615565b60405180910390fd5b6064600e60008581526020019081526020016000205460096000868152602001908152602001600020546115909190614748565b61159a9190614717565b8111156115dc576040517f08c379a00000000000000000000000000000000000000000000000000000000081526004016115d3906145d5565b60405180910390fd5b60096000848152602001908152602001600020546064826115fd9190614748565b6116079190614717565b915081600e60008581526020019081526020016000205461162891906147a2565b600e6000858152602001908152602001600020819055506000600b600085815260200190815260200160002060003373ffffffffffffffffffffffffffffffffffffffff1673ffffffffffffffffffffffffffffffffffffffff168152602001908152602001600020541415611744576001600d6000858152602001908152602001600020546116b891906146c1565b600d600085815260200190815260200160002081905550600c6000848152602001908152602001600020339080600181540180825580915050600190039060005260206000200160009091909190916101000a81548173ffffffffffffffffffffffffffffffffffffffff021916908373ffffffffffffffffffffffffffffffffffffffff1602179055505b81600b600085815260200190815260200160002060003373ffffffffffffffffffffffffffffffffffffffff1673ffffffffffffffffffffffffffffffffffffffff168152602001908152602001600020546117a091906146c1565b600b600085815260200190815260200160002060003373ffffffffffffffffffffffffffffffffffffffff1673ffffffffffffffffffffffffffffffffffffffff1681526020019081526020016000208190555050919050565b600081601060008481526020019081526020016000206000018190555060106000838152602001908152602001600020600101600081548092919061183e906148d9565b919050555060106000838152602001908152602001600020600201339080600181540180825580915050600190039060005260206000200160009091909190916101000a81548173ffffffffffffffffffffffffffffffffffffffff021916908373ffffffffffffffffffffffffffffffffffffffff16021790555060009050600080600c600085815260200190815260200160002080549050905060005b6000821461199757600c6000868152602001908152602001600020838154811061190a576119096149de565b5b9060005260206000200160009054906101000a900473ffffffffffffffffffffffffffffffffffffffff1673ffffffffffffffffffffffffffffffffffffffff163373ffffffffffffffffffffffffffffffffffffffff161415611975576001905060009150611992565b8280611980906148d9565b935050818061198e9061487d565b9250505b6118dd565b6000806000808015158515151415611b2c57600f60008a8152602001908152602001600020549750600c60008a81526020019081526020016000208054905090505b60008114611b2b57600c60008a81526020019081526020016000208281548110611a0657611a056149de565b5b9060005260206000200160009054906101000a900473ffffffffffffffffffffffffffffffffffffffff169350600b60008a815260200190815260200160002060008573ffffffffffffffffffffffffffffffffffffffff1673ffffffffffffffffffffffffffffffffffffffff1681526020019081526020016000205492508180611a91906148d9565b9250508080611a9f9061487d565b9150508373ffffffffffffffffffffffffffffffffffffffff166108fc670de0b6b3a76400006064600f60008e81526020019081526020016000205487611ae69190614748565b611af09190614717565b611afa9190614748565b9081150290604051600060405180830381858888f19350505050158015611b25573d6000803e3d6000fd5b506119d9565b5b50505050505050919050565b6000600e6000838152602001908152602001600020549050919050565b60006001600083815260200190815260200160002060009054906101000a900473ffffffffffffffffffffffffffffffffffffffff169050600073ffffffffffffffffffffffffffffffffffffffff168173ffffffffffffffffffffffffffffffffffffffff1614156040518060400160405280600681526020017f303033303032000000000000000000000000000000000000000000000000000081525090611c35576040517f08c379a0000000000000000000000000000000000000000000000000000000008152600401611c2c91906144d3565b60405180910390fd5b50919050565b60008073ffffffffffffffffffffffffffffffffffffffff168273ffffffffffffffffffffffffffffffffffffffff1614156040518060400160405280600681526020017f303033303031000000000000000000000000000000000000000000000000000081525090611ce4576040517f08c379a0000000000000000000000000000000000000000000000000000000008152600401611cdb91906144d3565b60405180910390fd5b50611cee826130f1565b9050919050565b6000600b600083815260200190815260200160002060003373ffffffffffffffffffffffffffffffffffffffff1673ffffffffffffffffffffffffffffffffffffffff168152602001908152602001600020549050919050565b606060068054611d5e906148a7565b80601f0160208091040260200160405190810160405280929190818152602001828054611d8a906148a7565b8015611dd75780601f10611dac57610100808354040283529160200191611dd7565b820191906000526020600020905b815481529060010190602001808311611dba57829003601f168201915b5050505050905090565b611dec83838361313a565b505050565b600060096000838152602001908152602001600020549050919050565b80600460003373ffffffffffffffffffffffffffffffffffffffff1673ffffffffffffffffffffffffffffffffffffffff16815260200190815260200160002060008473ffffffffffffffffffffffffffffffffffffffff1673ffffffffffffffffffffffffffffffffffffffff16815260200190815260200160002060006101000a81548160ff0219169083151502179055508173ffffffffffffffffffffffffffffffffffffffff163373ffffffffffffffffffffffffffffffffffffffff167f17307eab39ab6107e8899845ad3d59bd9653f200f220920489ca2b5937696c3183604051611eff919061443b565b60405180910390a35050565b611f5b85858585858080601f016020809104026020016040519081016040528093929190818152602001838380828437600081840152601f19601f82011690508083019250505050505050612af9565b5050505050565b606081600073ffffffffffffffffffffffffffffffffffffffff166001600083815260200190815260200160002060009054906101000a900473ffffffffffffffffffffffffffffffffffffffff1673ffffffffffffffffffffffffffffffffffffffff1614156040518060400160405280600681526020017f303033303032000000000000000000000000000000000000000000000000000081525090612040576040517f08c379a000000000000000000000000000000000000000000000000000000000815260040161203791906144d3565b60405180910390fd5b5060076000848152602001908152602001600020805461205f906148a7565b80601f016020809104026020016040519081016040528092919081815260200182805461208b906148a7565b80156120d85780601f106120ad576101008083540402835291602001916120d8565b820191906000526020600020905b8154815290600101906020018083116120bb57829003601f168201915b5050505050915050919050565b600860009054906101000a900473ffffffffffffffffffffffffffffffffffffffff1673ffffffffffffffffffffffffffffffffffffffff163373ffffffffffffffffffffffffffffffffffffffff16146040518060400160405280600681526020017f3031383030310000000000000000000000000000000000000000000000000000815250906121ad576040517f08c379a00000000000000000000000000000000000000000000000000000000081526004016121a491906144d3565b60405180910390fd5b506121b8848461340e565b6122068383838080601f016020809104026020016040519081016040528093929190818152602001838380828437600081840152601f19601f820116905080830192505050505050506135fc565b6000600a600085815260200190815260200160002060006101000a81548160ff02191690831515021790555050505050565b806001600082815260200190815260200160002060009054906101000a900473ffffffffffffffffffffffffffffffffffffffff1673ffffffffffffffffffffffffffffffffffffffff163373ffffffffffffffffffffffffffffffffffffffff16146122da576040517f08c379a00000000000000000000000000000000000000000000000000000000081526004016122d1906145f5565b60405180910390fd5b6064600e600084815260200190815260200160002081905550600060646009600085815260200190815260200160002054670de0b6b3a76400003461231f9190614717565b6123299190614748565b6123339190614717565b905061234c833383606461234791906147a2565b61313a565b505050565b836001600082815260200190815260200160002060009054906101000a900473ffffffffffffffffffffffffffffffffffffffff1673ffffffffffffffffffffffffffffffffffffffff163373ffffffffffffffffffffffffffffffffffffffff16146123f3576040517f08c379a00000000000000000000000000000000000000000000000000000000081526004016123ea906145f5565b60405180910390fd5b60011515841515141561243b576001600a600087815260200190815260200160002060006101000a81548160ff0219169083151502179055506124368583613706565b61248d565b6000600a600087815260200190815260200160002060006101000a81548160ff0219169083151502179055506064600e60008781526020019081526020016000208190555061248c8533606461313a565b5b61249785846137c5565b5050505050565b6000600d6000838152602001908152602001600020549050919050565b6000600460008473ffffffffffffffffffffffffffffffffffffffff1673ffffffffffffffffffffffffffffffffffffffff16815260200190815260200160002060008373ffffffffffffffffffffffffffffffffffffffff1673ffffffffffffffffffffffffffffffffffffffff16815260200190815260200160002060009054906101000a900460ff16905092915050565b600080670de0b6b3a7640000346125669190614717565b9050606460096000858152602001908152602001600020546125889190614717565b8110156125ca576040517f08c379a00000000000000000000000000000000000000000000000000000000081526004016125c190614575565b60405180910390fd5b6064600b600085815260200190815260200160002060003373ffffffffffffffffffffffffffffffffffffffff1673ffffffffffffffffffffffffffffffffffffffff16815260200190815260200160002054600960008681526020019081526020016000205461263b9190614748565b6126459190614717565b811115612687576040517f08c379a000000000000000000000000000000000000000000000000000000000815260040161267e90614595565b60405180910390fd5b60096000848152602001908152602001600020546064826126a89190614748565b6126b29190614717565b915081600e6000858152602001908152602001600020546126d391906146c1565b600e6000858152602001908152602001600020819055506064600b600085815260200190815260200160002060003373ffffffffffffffffffffffffffffffffffffffff1673ffffffffffffffffffffffffffffffffffffffff16815260200190815260200160002054600960008681526020019081526020016000205461275b9190614748565b6127659190614717565b81141561298e576001600d60008581526020019081526020016000205461278c91906147a2565b600d60008581526020019081526020016000208190555060005b3373ffffffffffffffffffffffffffffffffffffffff16600c600086815260200190815260200160002082806127db906148d9565b9350815481106127ee576127ed6149de565b5b9060005260206000200160009054906101000a900473ffffffffffffffffffffffffffffffffffffffff1673ffffffffffffffffffffffffffffffffffffffff1614612839576127a6565b5b600c60008581526020019081526020016000208054905081101561293457600c6000858152602001908152602001600020818154811061287d5761287c6149de565b5b9060005260206000200160009054906101000a900473ffffffffffffffffffffffffffffffffffffffff16600c60008681526020019081526020016000206001836128c891906147a2565b815481106128d9576128d86149de565b5b9060005260206000200160006101000a81548173ffffffffffffffffffffffffffffffffffffffff021916908373ffffffffffffffffffffffffffffffffffffffff160217905550808061292c906148d9565b91505061283a565b600c6000858152602001908152602001600020805480612957576129566149af565b5b6001900381819060005260206000200160006101000a81549073ffffffffffffffffffffffffffffffffffffffff02191690559055505b81600b600085815260200190815260200160002060003373ffffffffffffffffffffffffffffffffffffffff1673ffffffffffffffffffffffffffffffffffffffff168152602001908152602001600020546129ea91906147a2565b600b600085815260200190815260200160002060003373ffffffffffffffffffffffffffffffffffffffff1673ffffffffffffffffffffffffffffffffffffffff1681526020019081526020016000208190555050919050565b60006001600083815260200190815260200160002060009054906101000a900473ffffffffffffffffffffffffffffffffffffffff169050612a8582613884565b612a8f81836138bd565b612a998383613a28565b818373ffffffffffffffffffffffffffffffffffffffff168273ffffffffffffffffffffffffffffffffffffffff167fddf252ad1be2c89b69c2b068fc378daa952ba7f163c4a11628f55a4df523b3ef60405160405180910390a4505050565b8160006001600083815260200190815260200160002060009054906101000a900473ffffffffffffffffffffffffffffffffffffffff1690503373ffffffffffffffffffffffffffffffffffffffff168173ffffffffffffffffffffffffffffffffffffffff161480612bca57503373ffffffffffffffffffffffffffffffffffffffff166002600084815260200190815260200160002060009054906101000a900473ffffffffffffffffffffffffffffffffffffffff1673ffffffffffffffffffffffffffffffffffffffff16145b80612c5b5750600460008273ffffffffffffffffffffffffffffffffffffffff1673ffffffffffffffffffffffffffffffffffffffff16815260200190815260200160002060003373ffffffffffffffffffffffffffffffffffffffff1673ffffffffffffffffffffffffffffffffffffffff16815260200190815260200160002060009054906101000a900460ff165b6040518060400160405280600681526020017f303033303034000000000000000000000000000000000000000000000000000081525090612cd2576040517f08c379a0000000000000000000000000000000000000000000000000000000008152600401612cc991906144d3565b60405180910390fd5b5083600073ffffffffffffffffffffffffffffffffffffffff166001600083815260200190815260200160002060009054906101000a900473ffffffffffffffffffffffffffffffffffffffff1673ffffffffffffffffffffffffffffffffffffffff1614156040518060400160405280600681526020017f303033303032000000000000000000000000000000000000000000000000000081525090612daf576040517f08c379a0000000000000000000000000000000000000000000000000000000008152600401612da691906144d3565b60405180910390fd5b5060006001600087815260200190815260200160002060009054906101000a900473ffffffffffffffffffffffffffffffffffffffff1690508773ffffffffffffffffffffffffffffffffffffffff168173ffffffffffffffffffffffffffffffffffffffff16146040518060400160405280600681526020017f303033303037000000000000000000000000000000000000000000000000000081525090612e8e576040517f08c379a0000000000000000000000000000000000000000000000000000000008152600401612e8591906144d3565b60405180910390fd5b50600073ffffffffffffffffffffffffffffffffffffffff168773ffffffffffffffffffffffffffffffffffffffff1614156040518060400160405280600681526020017f303033303031000000000000000000000000000000000000000000000000000081525090612f37576040517f08c379a0000000000000000000000000000000000000000000000000000000008152600401612f2e91906144d3565b60405180910390fd5b50612f428787612a44565b612f618773ffffffffffffffffffffffffffffffffffffffff16613bb0565b156130bd5760008773ffffffffffffffffffffffffffffffffffffffff1663150b7a02338b8a8a6040518563ffffffff1660e01b8152600401612fa794939291906143cd565b602060405180830381600087803b158015612fc157600080fd5b505af1158015612fd5573d6000803e3d6000fd5b505050506040513d601f19601f82011682018060405250810190612ff9919061401c565b905063150b7a0260e01b7bffffffffffffffffffffffffffffffffffffffffffffffffffffffff1916817bffffffffffffffffffffffffffffffffffffffffffffffffffffffff1916146040518060400160405280600681526020017f3030333030350000000000000000000000000000000000000000000000000000815250906130ba576040517f08c379a00000000000000000000000000000000000000000000000000000000081526004016130b191906144d3565b60405180910390fd5b50505b5050505050505050565b6000600a600083815260200190815260200160002060009054906101000a900460ff169050919050565b6000600360008373ffffffffffffffffffffffffffffffffffffffff1673ffffffffffffffffffffffffffffffffffffffff168152602001908152602001600020549050919050565b826001600082815260200190815260200160002060009054906101000a900473ffffffffffffffffffffffffffffffffffffffff1673ffffffffffffffffffffffffffffffffffffffff163373ffffffffffffffffffffffffffffffffffffffff16146131dc576040517f08c379a00000000000000000000000000000000000000000000000000000000081526004016131d3906145f5565b60405180910390fd5b6000600b600086815260200190815260200160002060008573ffffffffffffffffffffffffffffffffffffffff1673ffffffffffffffffffffffffffffffffffffffff168152602001908152602001600020541461326f576040517f08c379a0000000000000000000000000000000000000000000000000000000008152600401613266906144f5565b60405180910390fd5b600182101580156132935750600e6000858152602001908152602001600020548211155b6132d2576040517f08c379a00000000000000000000000000000000000000000000000000000000081526004016132c990614555565b60405180910390fd5b6001600d6000868152602001908152602001600020546132f291906146c1565b600d60008681526020019081526020016000208190555081600b600086815260200190815260200160002060008573ffffffffffffffffffffffffffffffffffffffff1673ffffffffffffffffffffffffffffffffffffffff1681526020019081526020016000208190555081600e60008681526020019081526020016000205461337d91906147a2565b600e600086815260200190815260200160002081905550600c6000858152602001908152602001600020339080600181540180825580915050600190039060005260206000200160009091909190916101000a81548173ffffffffffffffffffffffffffffffffffffffff021916908373ffffffffffffffffffffffffffffffffffffffff16021790555050505050565b600073ffffffffffffffffffffffffffffffffffffffff168273ffffffffffffffffffffffffffffffffffffffff1614156040518060400160405280600681526020017f3030333030310000000000000000000000000000000000000000000000000000815250906134b6576040517f08c379a00000000000000000000000000000000000000000000000000000000081526004016134ad91906144d3565b60405180910390fd5b50600073ffffffffffffffffffffffffffffffffffffffff166001600083815260200190815260200160002060009054906101000a900473ffffffffffffffffffffffffffffffffffffffff1673ffffffffffffffffffffffffffffffffffffffff16146040518060400160405280600681526020017f303033303036000000000000000000000000000000000000000000000000000081525090613591576040517f08c379a000000000000000000000000000000000000000000000000000000000815260040161358891906144d3565b60405180910390fd5b5061359c8282613a28565b808273ffffffffffffffffffffffffffffffffffffffff16600073ffffffffffffffffffffffffffffffffffffffff167fddf252ad1be2c89b69c2b068fc378daa952ba7f163c4a11628f55a4df523b3ef60405160405180910390a45050565b81600073ffffffffffffffffffffffffffffffffffffffff166001600083815260200190815260200160002060009054906101000a900473ffffffffffffffffffffffffffffffffffffffff1673ffffffffffffffffffffffffffffffffffffffff1614156040518060400160405280600681526020017f3030333030320000000000000000000000000000000000000000000000000000815250906136d8576040517f08c379a00000000000000000000000000000000000000000000000000000000081526004016136cf91906144d3565b60405180910390fd5b5081600760008581526020019081526020016000209080519060200190613700929190613bfb565b50505050565b816001600082815260200190815260200160002060009054906101000a900473ffffffffffffffffffffffffffffffffffffffff1673ffffffffffffffffffffffffffffffffffffffff163373ffffffffffffffffffffffffffffffffffffffff16146137a8576040517f08c379a000000000000000000000000000000000000000000000000000000000815260040161379f906145f5565b60405180910390fd5b81600f600085815260200190815260200160002081905550505050565b816001600082815260200190815260200160002060009054906101000a900473ffffffffffffffffffffffffffffffffffffffff1673ffffffffffffffffffffffffffffffffffffffff163373ffffffffffffffffffffffffffffffffffffffff1614613867576040517f08c379a000000000000000000000000000000000000000000000000000000000815260040161385e906145f5565b60405180910390fd5b816009600085815260200190815260200160002081905550505050565b6002600082815260200190815260200160002060006101000a81549073ffffffffffffffffffffffffffffffffffffffff021916905550565b8173ffffffffffffffffffffffffffffffffffffffff166001600083815260200190815260200160002060009054906101000a900473ffffffffffffffffffffffffffffffffffffffff1673ffffffffffffffffffffffffffffffffffffffff16146040518060400160405280600681526020017f303033303037000000000000000000000000000000000000000000000000000081525090613996576040517f08c379a000000000000000000000000000000000000000000000000000000000815260040161398d91906144d3565b60405180910390fd5b506001600360008473ffffffffffffffffffffffffffffffffffffffff1673ffffffffffffffffffffffffffffffffffffffff16815260200190815260200160002060008282546139e791906147a2565b925050819055506001600082815260200190815260200160002060006101000a81549073ffffffffffffffffffffffffffffffffffffffff02191690555050565b600073ffffffffffffffffffffffffffffffffffffffff166001600083815260200190815260200160002060009054906101000a900473ffffffffffffffffffffffffffffffffffffffff1673ffffffffffffffffffffffffffffffffffffffff16146040518060400160405280600681526020017f303033303036000000000000000000000000000000000000000000000000000081525090613b02576040517f08c379a0000000000000000000000000000000000000000000000000000000008152600401613af991906144d3565b60405180910390fd5b50816001600083815260200190815260200160002060006101000a81548173ffffffffffffffffffffffffffffffffffffffff021916908373ffffffffffffffffffffffffffffffffffffffff1602179055506001600360008473ffffffffffffffffffffffffffffffffffffffff1673ffffffffffffffffffffffffffffffffffffffff1681526020019081526020016000206000828254613ba591906146c1565b925050819055505050565b60008060007fc5d2460186f7233c927e7db2dcc703c0e500b653ca82273b7bfad8045d85a47060001b9050833f91506000801b8214158015613bf25750808214155b92505050919050565b828054613c07906148a7565b90600052602060002090601f016020900481019282613c295760008555613c70565b82601f10613c4257805160ff1916838001178555613c70565b82800160010185558215613c70579182015b82811115613c6f578251825591602001919060010190613c54565b5b509050613c7d9190613c81565b5090565b5b80821115613c9a576000816000905550600101613c82565b5090565b600081359050613cad81614bd1565b92915050565b600081359050613cc281614be8565b92915050565b600081359050613cd781614bff565b92915050565b600081519050613cec81614bff565b92915050565b60008083601f840112613d0857613d07614a12565b5b8235905067ffffffffffffffff811115613d2557613d24614a0d565b5b602083019150836001820283011115613d4157613d40614a17565b5b9250929050565b60008083601f840112613d5e57613d5d614a12565b5b8235905067ffffffffffffffff811115613d7b57613d7a614a0d565b5b602083019150836001820283011115613d9757613d96614a17565b5b9250929050565b600081359050613dad81614c16565b92915050565b600060208284031215613dc957613dc8614a21565b5b6000613dd784828501613c9e565b91505092915050565b60008060408385031215613df757613df6614a21565b5b6000613e0585828601613c9e565b9250506020613e1685828601613c9e565b9150509250929050565b600080600060608486031215613e3957613e38614a21565b5b6000613e4786828701613c9e565b9350506020613e5886828701613c9e565b9250506040613e6986828701613d9e565b9150509250925092565b600080600080600060808688031215613e8f57613e8e614a21565b5b6000613e9d88828901613c9e565b9550506020613eae88828901613c9e565b9450506040613ebf88828901613d9e565b935050606086013567ffffffffffffffff811115613ee057613edf614a1c565b5b613eec88828901613cf2565b92509250509295509295909350565b60008060408385031215613f1257613f11614a21565b5b6000613f2085828601613c9e565b9250506020613f3185828601613cb3565b9150509250929050565b60008060408385031215613f5257613f51614a21565b5b6000613f6085828601613c9e565b9250506020613f7185828601613d9e565b9150509250929050565b60008060008060608587031215613f9557613f94614a21565b5b6000613fa387828801613c9e565b9450506020613fb487828801613d9e565b935050604085013567ffffffffffffffff811115613fd557613fd4614a1c565b5b613fe187828801613d48565b925092505092959194509250565b60006020828403121561400557614004614a21565b5b600061401384828501613cc8565b91505092915050565b60006020828403121561403257614031614a21565b5b600061404084828501613cdd565b91505092915050565b60006020828403121561405f5761405e614a21565b5b600061406d84828501613d9e565b91505092915050565b60008060006060848603121561408f5761408e614a21565b5b600061409d86828701613d9e565b93505060206140ae86828701613c9e565b92505060406140bf86828701613d9e565b9150509250925092565b600080600080608085870312156140e3576140e2614a21565b5b60006140f187828801613d9e565b945050602061410287828801613cb3565b935050604061411387828801613d9e565b925050606061412487828801613d9e565b91505092959194509250565b600061413c8383614148565b60208301905092915050565b614151816147d6565b82525050565b614160816147d6565b82525050565b600061417182614660565b61417b818561468e565b935061418683614650565b8060005b838110156141b757815161419e8882614130565b97506141a983614681565b92505060018101905061418a565b5085935050505092915050565b6141cd816147e8565b82525050565b60006141de8261466b565b6141e8818561469f565b93506141f881856020860161484a565b61420181614a26565b840191505092915050565b600061421782614676565b61422181856146b0565b935061423181856020860161484a565b61423a81614a26565b840191505092915050565b60006142526010836146b0565b915061425d82614a37565b602082019050919050565b6000614275600f836146b0565b915061428082614a60565b602082019050919050565b60006142986012836146b0565b91506142a382614a89565b602082019050919050565b60006142bb600d836146b0565b91506142c682614ab2565b602082019050919050565b60006142de6015836146b0565b91506142e982614adb565b602082019050919050565b6000614301601a836146b0565b915061430c82614b04565b602082019050919050565b60006143246010836146b0565b915061432f82614b2d565b602082019050919050565b6000614347600e836146b0565b915061435282614b56565b602082019050919050565b600061436a6014836146b0565b915061437582614b7f565b602082019050919050565b600061438d6014836146b0565b915061439882614ba8565b602082019050919050565b6143ac81614840565b82525050565b60006020820190506143c76000830184614157565b92915050565b60006080820190506143e26000830187614157565b6143ef6020830186614157565b6143fc60408301856143a3565b818103606083015261440e81846141d3565b905095945050505050565b600060208201905081810360008301526144338184614166565b905092915050565b600060208201905061445060008301846141c4565b92915050565b600060e08201905061446b600083018a6141c4565b61447860208301896143a3565b61448560408301886143a3565b61449260608301876143a3565b81810360808301526144a48186614166565b90506144b360a08301856143a3565b81810360c08301526144c58184614166565b905098975050505050505050565b600060208201905081810360008301526144ed818461420c565b905092915050565b6000602082019050818103600083015261450e81614245565b9050919050565b6000602082019050818103600083015261452e81614268565b9050919050565b6000602082019050818103600083015261454e8161428b565b9050919050565b6000602082019050818103600083015261456e816142ae565b9050919050565b6000602082019050818103600083015261458e816142d1565b9050919050565b600060208201905081810360008301526145ae816142f4565b9050919050565b600060208201905081810360008301526145ce81614317565b9050919050565b600060208201905081810360008301526145ee8161433a565b9050919050565b6000602082019050818103600083015261460e8161435d565b9050919050565b6000602082019050818103600083015261462e81614380565b9050919050565b600060208201905061464a60008301846143a3565b92915050565b6000819050602082019050919050565b600081519050919050565b600081519050919050565b600081519050919050565b6000602082019050919050565b600082825260208201905092915050565b600082825260208201905092915050565b600082825260208201905092915050565b60006146cc82614840565b91506146d783614840565b9250827fffffffffffffffffffffffffffffffffffffffffffffffffffffffffffffffff0382111561470c5761470b614922565b5b828201905092915050565b600061472282614840565b915061472d83614840565b92508261473d5761473c614951565b5b828204905092915050565b600061475382614840565b915061475e83614840565b9250817fffffffffffffffffffffffffffffffffffffffffffffffffffffffffffffffff048311821515161561479757614796614922565b5b828202905092915050565b60006147ad82614840565b91506147b883614840565b9250828210156147cb576147ca614922565b5b828203905092915050565b60006147e182614820565b9050919050565b60008115159050919050565b60007fffffffff0000000000000000000000000000000000000000000000000000000082169050919050565b600073ffffffffffffffffffffffffffffffffffffffff82169050919050565b6000819050919050565b60005b8381101561486857808201518184015260208101905061484d565b83811115614877576000848401525b50505050565b600061488882614840565b9150600082141561489c5761489b614922565b5b600182039050919050565b600060028204905060018216806148bf57607f821691505b602082108114156148d3576148d2614980565b5b50919050565b60006148e482614840565b91507fffffffffffffffffffffffffffffffffffffffffffffffffffffffffffffffff82141561491757614916614922565b5b600182019050919050565b7f4e487b7100000000000000000000000000000000000000000000000000000000600052601160045260246000fd5b7f4e487b7100000000000000000000000000000000000000000000000000000000600052601260045260246000fd5b7f4e487b7100000000000000000000000000000000000000000000000000000000600052602260045260246000fd5b7f4e487b7100000000000000000000000000000000000000000000000000000000600052603160045260246000fd5b7f4e487b7100000000000000000000000000000000000000000000000000000000600052603260045260246000fd5b600080fd5b600080fd5b600080fd5b600080fd5b600080fd5b6000601f19601f8301169050919050565b7f414c52454144595f415f53484152455200000000000000000000000000000000600082015250565b7f4e46545f4245454e5f5354414b45440000000000000000000000000000000000600082015250565b7f4e46545f53484152455f534f4c445f4f55540000000000000000000000000000600082015250565b7f53484152455f494e56414c494400000000000000000000000000000000000000600082015250565b7f4e4f545f454e4f5547485f544f5f53454c4c5f31250000000000000000000000600082015250565b7f544f4f5f4d5543485f4d4f4e45595f544f5f53454c4c5f414c4c000000000000600082015250565b7f4e46545f4e4f545f5348415241424c4500000000000000000000000000000000600082015250565b7f544f4f5f4d5543485f4d4f4e4559000000000000000000000000000000000000600082015250565b7f4e4f545f5448455f4f574e45525f4f465f4e4654000000000000000000000000600082015250565b7f4e4f545f454e4f5547485f544f5f4255595f3125000000000000000000000000600082015250565b614bda816147d6565b8114614be557600080fd5b50565b614bf1816147e8565b8114614bfc57600080fd5b50565b614c08816147f4565b8114614c1357600080fd5b50565b614c1f81614840565b8114614c2a57600080fd5b5056fea2646970667358221220d783c7a7298e634a3d297a857ed916cd44584c812b9aefd94c8686278bb0c35364736f6c63430008060033",
  "immutableReferences": {},
  "source": "// SPDX-License-Identifier: MIT\npragma solidity ^0.8.0;\n\nimport \"./tokens/nf-token-metadata.sol\";\nimport \"./ownership/ownable.sol\";\n\n\ncontract MusicNFT is\n  NFTokenMetadata,\n  Ownable\n{\n  /**\n   * @dev Contract constructor. Sets metadata extension `name` and `symbol`.\n   */\n  constructor() payable\n  {\n    nftName = \"Jacky's Riff\";\n    nftSymbol = \"JRIF\";\n  }\n\n  /**\n   * @dev Mints a new NFT.\n   * @param _to The address that will own the minted NFT.\n   * @param _tokenId of the NFT to be minted by the msg.sender.\n   * @param _uri String representing RFC 3986 URI.\n   */\n  function mint(\n    address _to,\n    uint256 _tokenId,\n    string calldata _uri\n  )\n    external\n    onlyOwner()\n  {\n    super._mint(_to, _tokenId);\n    super._setTokenUri(_tokenId, _uri);\n    ifShared[_tokenId] = false;\n  }\n\n/*************************************************************************************************************************/\n  /**\n   *Basic data structure\n   *Would be better if it's in a struct\n   */\n  mapping (uint256 => uint256) internal valueOfNFT;\n\n  mapping (uint256 => bool) internal ifShared;//if a token is shared, it is also not transactable\n\n  mapping (uint256 => mapping(address => uint256)) internal sharers;///each sharers of an NFT has a certain amount of share\n\n  mapping (uint256 => address []) internal owners;//each NFT has some sharers\n\n  mapping (uint256 => uint256) internal sharersCount;//number of sharers in each mapping ( address => uint256)\n\n  mapping (uint256 => uint256) internal leftShare;//amount of an NFT's share having been held\n\n  mapping (uint256 => uint256) internal tax;//user need to pay if they want a use of an NFT\n\n  struct MusicUseInstance{\n    uint256 tokenId;\n    uint256 timeOfUse;\n    address[] user;\n  }\n\n  mapping (uint256 => MusicUseInstance) internal useOfNFT;\n\n\n/*************************************************************************************************************************/\n  /**\n   *Modifier\n   */\n  modifier ifOwner(uint256 _tokenId){\n    require(msg.sender == idToOwner[_tokenId],\"NOT_THE_OWNER_OF_NFT\");\n    _;\n  }\n\n/*************************************************************************************************************************/\n  /**\n   *Basic transaction\n   */\n\n   /**\n   *View Function\n   */\n\n   /**show the value of each NFT\n    *can be seen by everyone\n    */\n  function showValue (\n    uint256 _tokenId\n  )\n    external\n    view\n    returns(uint256 value)\n  {\n    value = valueOfNFT[_tokenId];\n  }\n\n/*************************************************************************************************************************/\n  /**\n   *Execution Function\n   */\n\n\n  function transferFrom(\n    address _from,\n    address _to,\n    uint256 _tokenId\n  )\n    external\n    override\n    canTransfer(_tokenId)\n    validNFToken(_tokenId)\n  {\n    address tokenOwner = idToOwner[_tokenId];\n    require(tokenOwner == _from, NOT_OWNER);\n    require(_to != address(0), ZERO_ADDRESS);\n    require(ifShared[_tokenId] == false,\"NFT_BEEN_STAKED\");\n\n    _transfer(_to, _tokenId);\n  }\n/*************************************************************************************************************************/\n  /**\n   *Advanced transcation\n   */\n  \n  /**\n   *View Function\n   */\n\n  /*show all the information of an NFT*/\n  function showInfoOfNFT(\n    uint256 _tokenId\n  )\n    public\n    view\n    returns(bool result,\n    uint256 shareLeft,\n    uint256 taxToPay,\n    uint256 numOfSharers,\n    address[] memory ownersOfNFT,\n    uint256 usedTime,\n    address[] memory usedBy)\n  {\n    return(ifShared[_tokenId],\n    leftShare[_tokenId],\n    tax[_tokenId],\n    sharersCount[_tokenId],\n    owners[_tokenId],\n    useOfNFT[_tokenId].timeOfUse,\n    useOfNFT[_tokenId].user);\n  }\n\n\n  /*show the sharability of NFT*/\n  function ifSharable(\n    uint256 _tokenId\n  )\n    internal\n    view\n    returns(bool result)\n  {\n    result = ifShared[_tokenId];\n  }\n\n  function showMySharerOfNFT(\n    uint256 _tokenId\n  )\n    external\n    view\n    returns (uint256 myshare)\n  {\n    myshare = sharers[_tokenId][msg.sender];\n  }\n\n\n  function showLeftShare(\n    uint256 _tokenId\n  )\n    external\n    view\n    returns(uint256 left)\n  {\n    left = leftShare[_tokenId];\n  }\n\n  function showNumOfSharers(\n    uint256 _tokenId\n  )\n    external\n    view\n    returns(uint256 num)\n  {\n    num = sharersCount[_tokenId];\n  }\n\n  function showSharers(\n    uint256 _tokenId\n  )\n    external\n    view\n    returns (address[] memory)\n  {\n    return owners[_tokenId];\n  }\n\n  // function showInfoOfNFT1 (\n  //   uint256 _tokenId\n  // )\n  //   external\n  //   view\n  //   returns(uint256, address[] memory)\n  // {\n  //   return(useOfNFT[_tokenId].timeOfUse, useOfNFT[_tokenId].user);\n  // }\n/*************************************************************************************************************************/\n  /**\n   *Execution Function\n   */\n  \n  function initialize(\n    uint256 _tokenId,\n    bool _ifSharable,\n    uint256 value,\n    uint256 _tax\n  )\n    external\n    ifOwner(_tokenId)\n  {\n    if(_ifSharable == true){\n      ifShared[_tokenId] = true;\n      _setTax(_tokenId,_tax);\n    }\n    else{\n      ifShared[_tokenId] = false;\n      leftShare[_tokenId] = 100;\n      _addsharers(_tokenId, msg.sender, 100);\n    }\n      \n    _setValue(_tokenId,value);\n  }\n\n  function setSharable(\n    uint256 _tokenId\n  )\n    external\n    payable\n    ifOwner(_tokenId)\n  {\n    leftShare[_tokenId] = 100;\n    uint256 amount = (msg.value / 1 ether) * valueOfNFT[_tokenId] / 100;\n    _addsharers(_tokenId, msg.sender, 100-amount);\n  }\n\n  /**\n   *NFT holder can add sharers himself without having buyer conduct a transaction\n   */\n  function addsharers(\n    uint256 _tokenId,\n    address newSharer,\n    uint256 share\n  )\n    external\n  {\n    _addsharers(_tokenId, newSharer, share);\n  }\n\n  /**\n   *Buy some share of a certain NFT */\n  function buyNFT(\n    uint256 _tokenId\n  )\n    external\n    payable\n    returns(uint256 shareGot)\n  {\n    uint256 fee = msg.value/ 1 ether;\n    require(ifSharable(_tokenId),\"NFT_NOT_SHARABLE\");\n    require(leftShare[_tokenId]>0,\"NFT_SHARE_SOLD_OUT\");\n    require(fee >= valueOfNFT[_tokenId]/100,\"NOT_ENOUGH_TO_BUY_1%\");\n    require(fee <= (valueOfNFT[_tokenId]*leftShare[_tokenId]/100),\"TOO_MUCH_MONEY\");\n    shareGot = fee * 100 / valueOfNFT[_tokenId];\n    leftShare[_tokenId] = leftShare[_tokenId] - shareGot;\n    if(sharers[_tokenId][msg.sender] == 0){\n      sharersCount[_tokenId] = sharersCount[_tokenId] + 1;\n      owners[_tokenId].push(msg.sender);\n    }//if sharers already, don't add\n    sharers[_tokenId][msg.sender] = sharers[_tokenId][msg.sender] + shareGot;\n    // address owner = idToOwner[_tokenId];\n    // payable(owner).transfer(msg.value);//transfer to owner msg.value's CFX\n  }\n\n  function sellNFT(\n    uint256 _tokenId\n  )\n    external\n    payable\n    returns(uint256 shareSold)\n  {\n    uint256 fee = msg.value/ 1 ether;\n    require(fee >= valueOfNFT[_tokenId]/100,\"NOT_ENOUGH_TO_SELL_1%\");\n    require(fee <= (valueOfNFT[_tokenId]*sharers[_tokenId][msg.sender]/100),\"TOO_MUCH_MONEY_TO_SELL_ALL\");\n    shareSold = fee * 100 / valueOfNFT[_tokenId];\n    leftShare[_tokenId] = leftShare[_tokenId] + shareSold;\n    if(fee == valueOfNFT[_tokenId]*sharers[_tokenId][msg.sender]/100){//sell all\n      sharersCount[_tokenId] = sharersCount[_tokenId] - 1;\n      uint256 i = 0;\n      while(owners[_tokenId][i++] != msg.sender){}\n      for(i; i<owners[_tokenId].length; i++){\n        owners[_tokenId][i-1] = owners[_tokenId][i];\n      }\n      owners[_tokenId].pop();\n    }//if sell all, delete from the seller\n\n    sharers[_tokenId][msg.sender] = sharers[_tokenId][msg.sender] - shareSold;\n  }\n\n  function useNFT(\n    uint256 _tokenId\n  )\n    external\n    payable\n    returns(uint256 cost)\n  {\n    /*store the use information in the mapping and struct*/\n    useOfNFT[_tokenId].tokenId = _tokenId;\n    useOfNFT[_tokenId].timeOfUse++;\n    useOfNFT[_tokenId].user.push(msg.sender);\n\n    /*judge if the user is a sharer*/\n    cost = 0;\n    uint256 i = 0;\n    uint256 j = owners[_tokenId].length;\n    bool flag = false;\n    while(j!=0){\n      if(msg.sender == owners[_tokenId][i]){\n        flag = true;\n        j=0;\n      }\n      else{\n        i++;\n        j--;\n      }\n    }\n    \n    /*distribute tax*/\n    address temp;\n    uint256 share;\n    uint256 m=0;\n    uint256 n;\n    if(flag == false){\n      // _distributeTax(_tokenId,tax[_tokenId]);\n      cost = tax[_tokenId];\n      n = owners[_tokenId].length;\n      while(n!=0){\n        temp = owners[_tokenId][m];\n        share = sharers[_tokenId][temp];\n        m++;\n        n--;\n        // mapping (uint256 => mapping(address => uint256)) internal sharers;\n        payable(temp).transfer( (share * tax[_tokenId] / 100) * 1 ether);\n      }\n    }\n      \n  }\n\n\n/*************************************************************************************************************************/\n  /**\n   *Internal Functions\n   */\n\n  /*add a sharer of a NFT*/\n  function _addsharers(\n    uint256 _tokenId, \n    address newSharer, \n    uint256 share\n    )\n      internal\n      ifOwner(_tokenId)\n    {\n    // require(ifSharable(_tokenId),\"TOKEN_UNSHARABLE\");\n    require(sharers[_tokenId][newSharer]==0,\"ALREADY_A_SHARER\");\n    require(share >=1 && share <=leftShare[_tokenId],\"SHARE_INVALID\");\n    sharersCount[_tokenId] = sharersCount[_tokenId] + 1;\n    sharers[_tokenId][newSharer] = share;\n    leftShare[_tokenId] = leftShare[_tokenId] - share;\n    owners[_tokenId].push(msg.sender);\n  }\n\n  // function _distributeTax(\n  //   uint256 _tokenId,\n  //   uint256 amount\n  // )\n  //   internal\n  // {\n  //   address temp;\n  //   uint256 share;\n  //   uint256 i = 0;\n  //   uint256 j = owners[_tokenId].length;\n  //   while(j!=0){\n  //     temp = owners[_tokenId][i];\n  //     share = sharers[_tokenId][temp];\n  //     i++;\n  //     j--;\n  //     // mapping (uint256 => mapping(address => uint256)) internal sharers;\n  //     payable(temp).transfer(share*amount/100 * 1 ether);\n  //   }\n  // }\n\n  // function _setSharable(\n  //   uint256 _tokenId,\n  //   uint256 subscribableAmount\n  // )\n  //   internal\n  //   ifOwner(_tokenId)\n  // {\n  //   ifShared[_tokenId] = true;\n  //   leftShare[_tokenId] = 100;\n  //   _addsharers(_tokenId, msg.sender, 100-subscribableAmount);\n  // }\n\n  /*set the value of each NFT by owner*/\n  function _setValue(\n    uint256 _tokenId,\n    uint256 value\n  )\n    internal\n    ifOwner(_tokenId)\n  {\n    valueOfNFT[_tokenId] = value;\n  }\n\n   function _setTax(\n    uint256 _tokenId,\n    uint256 _tax\n  )\n    internal\n    ifOwner(_tokenId)\n  {\n    tax[_tokenId] = _tax;\n  }\n\n  // \n\tfunction getAddress() \n    public \n    view \n    returns (address) {\n\t\treturn address(this);\n\t}\n\n}",
  "sourcePath": "C:/Users/jacky/Documents/GitHub/MusicNFT/contracts/MusicNFT.sol",
  "compiler": {
    "name": "solc",
    "version": "0.8.6+commit.11564f7e.Emscripten.clang"
  },
  "schemaVersion": "3.3.4",
  "updatedAt": "2021-09-12T07:51:05.158Z",
  "devdoc": {
    "kind": "dev",
    "methods": {
      "approve(address,uint256)": {
        "details": "Set or reaffirm the approved address for an NFT. This function can be changed to payable.",
        "params": {
          "_approved": "Address to be approved for the given NFT ID.",
          "_tokenId": "ID of the token to be approved."
        }
      },
      "balanceOf(address)": {
        "details": "Returns the number of NFTs owned by `_owner`. NFTs assigned to the zero address are considered invalid, and this function throws for queries about the zero address.",
        "params": {
          "_owner": "Address for whom to query the balance."
        },
        "returns": {
          "_0": "Balance of _owner."
        }
      },
      "constructor": {
        "details": "Contract constructor. Sets metadata extension `name` and `symbol`."
      },
      "getApproved(uint256)": {
        "details": "Get the approved address for a single NFT.",
        "params": {
          "_tokenId": "ID of the NFT to query the approval of."
        },
        "returns": {
          "_0": "Address that _tokenId is approved for."
        }
      },
      "isApprovedForAll(address,address)": {
        "details": "Checks if `_operator` is an approved operator for `_owner`.",
        "params": {
          "_operator": "The address that acts on behalf of the owner.",
          "_owner": "The address that owns the NFTs."
        },
        "returns": {
          "_0": "True if approved for all, false otherwise."
        }
      },
      "mint(address,uint256,string)": {
        "details": "Mints a new NFT.",
        "params": {
          "_to": "The address that will own the minted NFT.",
          "_tokenId": "of the NFT to be minted by the msg.sender.",
          "_uri": "String representing RFC 3986 URI."
        }
      },
      "name()": {
        "details": "Returns a descriptive name for a collection of NFTokens.",
        "returns": {
          "_name": "Representing name."
        }
      },
      "ownerOf(uint256)": {
        "details": "Returns the address of the owner of the NFT. NFTs assigned to the zero address are considered invalid, and queries about them do throw.",
        "params": {
          "_tokenId": "The identifier for an NFT."
        },
        "returns": {
          "_owner": "Address of _tokenId owner."
        }
      },
      "safeTransferFrom(address,address,uint256)": {
        "details": "Transfers the ownership of an NFT from one address to another address. This function can be changed to payable.",
        "params": {
          "_from": "The current owner of the NFT.",
          "_to": "The new owner.",
          "_tokenId": "The NFT to transfer."
        }
      },
      "safeTransferFrom(address,address,uint256,bytes)": {
        "details": "Transfers the ownership of an NFT from one address to another address. This function can be changed to payable.",
        "params": {
          "_data": "Additional data with no specified format, sent in call to `_to`.",
          "_from": "The current owner of the NFT.",
          "_to": "The new owner.",
          "_tokenId": "The NFT to transfer."
        }
      },
      "setApprovalForAll(address,bool)": {
        "details": "Enables or disables approval for a third party (\"operator\") to manage all of `msg.sender`'s assets. It also emits the ApprovalForAll event.",
        "params": {
          "_approved": "True if the operators is approved, false to revoke approval.",
          "_operator": "Address to add to the set of authorized operators."
        }
      },
      "supportsInterface(bytes4)": {
        "details": "Function to check which interfaces are suported by this contract.",
        "params": {
          "_interfaceID": "Id of the interface."
        },
        "returns": {
          "_0": "True if _interfaceID is supported, false otherwise."
        }
      },
      "symbol()": {
        "details": "Returns an abbreviated name for NFTokens.",
        "returns": {
          "_symbol": "Representing symbol."
        }
      },
      "tokenURI(uint256)": {
        "details": "A distinct URI (RFC 3986) for a given NFT.",
        "params": {
          "_tokenId": "Id for which we want uri."
        },
        "returns": {
          "_0": "URI of _tokenId."
        }
      }
    },
    "version": 1
  },
  "userdoc": {
    "kind": "user",
    "methods": {
      "addsharers(uint256,address,uint256)": {
        "notice": "NFT holder can add sharers himself without having buyer conduct a transaction"
      },
      "approve(address,uint256)": {
        "notice": "The zero address indicates there is no approved address. Throws unless `msg.sender` is the current NFT owner, or an authorized operator of the current owner."
      },
      "buyNFT(uint256)": {
        "notice": "Buy some share of a certain NFT "
      },
      "getApproved(uint256)": {
        "notice": "Throws if `_tokenId` is not a valid NFT."
      },
      "initialize(uint256,bool,uint256,uint256)": {
        "notice": "Execution Function"
      },
      "safeTransferFrom(address,address,uint256)": {
        "notice": "This works identically to the other function with an extra data parameter, except this function just sets data to \"\"."
      },
      "safeTransferFrom(address,address,uint256,bytes)": {
        "notice": "Throws unless `msg.sender` is the current owner, an authorized operator, or the approved address for this NFT. Throws if `_from` is not the current owner. Throws if `_to` is the zero address. Throws if `_tokenId` is not a valid NFT. When transfer is complete, this function checks if `_to` is a smart contract (code size > 0). If so, it calls `onERC721Received` on `_to` and throws if the return value is not `bytes4(keccak256(\"onERC721Received(address,uint256,bytes)\"))`."
      },
      "setApprovalForAll(address,bool)": {
        "notice": "This works even if sender doesn't own any tokens at the time."
      },
      "showInfoOfNFT(uint256)": {
        "notice": "View Function"
      },
      "showValue(uint256)": {
        "notice": "show the value of each NFT can be seen by everyone"
      },
      "transferFrom(address,address,uint256)": {
        "notice": "Execution Function"
      }
    },
    "version": 1
  }
}